{
	"contracts/NUTZStaking.sol": {
		"NUTZStaking": {
			"abi": [
				{
					"inputs": [
						{
							"internalType": "address",
							"name": "_nutzTokenAddress",
							"type": "address"
						},
						{
							"internalType": "address",
							"name": "_owner",
							"type": "address"
						}
					],
					"stateMutability": "nonpayable",
					"type": "constructor"
				},
				{
					"inputs": [
						{
							"internalType": "address",
							"name": "owner",
							"type": "address"
						}
					],
					"name": "OwnableInvalidOwner",
					"type": "error"
				},
				{
					"inputs": [
						{
							"internalType": "address",
							"name": "account",
							"type": "address"
						}
					],
					"name": "OwnableUnauthorizedAccount",
					"type": "error"
				},
				{
					"anonymous": false,
					"inputs": [
						{
							"indexed": true,
							"internalType": "address",
							"name": "previousOwner",
							"type": "address"
						},
						{
							"indexed": true,
							"internalType": "address",
							"name": "newOwner",
							"type": "address"
						}
					],
					"name": "OwnershipTransferred",
					"type": "event"
				},
				{
					"anonymous": false,
					"inputs": [
						{
							"indexed": true,
							"internalType": "address",
							"name": "user",
							"type": "address"
						},
						{
							"indexed": false,
							"internalType": "uint256",
							"name": "reward",
							"type": "uint256"
						}
					],
					"name": "RewardPaid",
					"type": "event"
				},
				{
					"anonymous": false,
					"inputs": [
						{
							"indexed": true,
							"internalType": "address",
							"name": "user",
							"type": "address"
						},
						{
							"indexed": false,
							"internalType": "uint256",
							"name": "amount",
							"type": "uint256"
						},
						{
							"indexed": false,
							"internalType": "uint256",
							"name": "rewardRate",
							"type": "uint256"
						}
					],
					"name": "Staked",
					"type": "event"
				},
				{
					"anonymous": false,
					"inputs": [
						{
							"indexed": false,
							"internalType": "uint256",
							"name": "amount",
							"type": "uint256"
						}
					],
					"name": "TokensBurned",
					"type": "event"
				},
				{
					"anonymous": false,
					"inputs": [
						{
							"indexed": true,
							"internalType": "address",
							"name": "user",
							"type": "address"
						},
						{
							"indexed": false,
							"internalType": "uint256",
							"name": "amount",
							"type": "uint256"
						}
					],
					"name": "Unstaked",
					"type": "event"
				},
				{
					"inputs": [],
					"name": "MINIMUM_ANNUAL_RETURN",
					"outputs": [
						{
							"internalType": "uint256",
							"name": "",
							"type": "uint256"
						}
					],
					"stateMutability": "view",
					"type": "function"
				},
				{
					"inputs": [],
					"name": "MINT_RATE_DECREASE",
					"outputs": [
						{
							"internalType": "uint256",
							"name": "",
							"type": "uint256"
						}
					],
					"stateMutability": "view",
					"type": "function"
				},
				{
					"inputs": [],
					"name": "STARTING_ANNUAL_RETURN",
					"outputs": [
						{
							"internalType": "uint256",
							"name": "",
							"type": "uint256"
						}
					],
					"stateMutability": "view",
					"type": "function"
				},
				{
					"inputs": [],
					"name": "TOKENS_PER_DECREASE",
					"outputs": [
						{
							"internalType": "uint256",
							"name": "",
							"type": "uint256"
						}
					],
					"stateMutability": "view",
					"type": "function"
				},
				{
					"inputs": [
						{
							"internalType": "address",
							"name": "_user",
							"type": "address"
						}
					],
					"name": "calculateReward",
					"outputs": [
						{
							"internalType": "uint256",
							"name": "",
							"type": "uint256"
						}
					],
					"stateMutability": "view",
					"type": "function"
				},
				{
					"inputs": [],
					"name": "getCurrentRewardRate",
					"outputs": [
						{
							"internalType": "uint256",
							"name": "",
							"type": "uint256"
						}
					],
					"stateMutability": "view",
					"type": "function"
				},
				{
					"inputs": [],
					"name": "nutzToken",
					"outputs": [
						{
							"internalType": "contract IERC20",
							"name": "",
							"type": "address"
						}
					],
					"stateMutability": "view",
					"type": "function"
				},
				{
					"inputs": [],
					"name": "owner",
					"outputs": [
						{
							"internalType": "address",
							"name": "",
							"type": "address"
						}
					],
					"stateMutability": "view",
					"type": "function"
				},
				{
					"inputs": [],
					"name": "renounceOwnership",
					"outputs": [],
					"stateMutability": "nonpayable",
					"type": "function"
				},
				{
					"inputs": [
						{
							"internalType": "uint256",
							"name": "_amount",
							"type": "uint256"
						}
					],
					"name": "stakeTokens",
					"outputs": [],
					"stateMutability": "nonpayable",
					"type": "function"
				},
				{
					"inputs": [
						{
							"internalType": "address",
							"name": "",
							"type": "address"
						}
					],
					"name": "stakes",
					"outputs": [
						{
							"internalType": "uint256",
							"name": "amount",
							"type": "uint256"
						},
						{
							"internalType": "uint256",
							"name": "rewardRate",
							"type": "uint256"
						},
						{
							"internalType": "uint256",
							"name": "stakingTime",
							"type": "uint256"
						}
					],
					"stateMutability": "view",
					"type": "function"
				},
				{
					"inputs": [],
					"name": "totalRewardsMinted",
					"outputs": [
						{
							"internalType": "uint256",
							"name": "",
							"type": "uint256"
						}
					],
					"stateMutability": "view",
					"type": "function"
				},
				{
					"inputs": [],
					"name": "totalStaked",
					"outputs": [
						{
							"internalType": "uint256",
							"name": "",
							"type": "uint256"
						}
					],
					"stateMutability": "view",
					"type": "function"
				},
				{
					"inputs": [
						{
							"internalType": "address",
							"name": "newOwner",
							"type": "address"
						}
					],
					"name": "transferOwnership",
					"outputs": [],
					"stateMutability": "nonpayable",
					"type": "function"
				},
				{
					"inputs": [],
					"name": "unstakeAndClaimRewards",
					"outputs": [],
					"stateMutability": "nonpayable",
					"type": "function"
				}
			],
			"devdoc": {
				"errors": {
					"OwnableInvalidOwner(address)": [
						{
							"details": "The owner is not a valid owner account. (eg. `address(0)`)"
						}
					],
					"OwnableUnauthorizedAccount(address)": [
						{
							"details": "The caller account is not authorized to perform an operation."
						}
					]
				},
				"kind": "dev",
				"methods": {
					"owner()": {
						"details": "Returns the address of the current owner."
					},
					"renounceOwnership()": {
						"details": "Leaves the contract without owner. It will not be possible to call `onlyOwner` functions. Can only be called by the current owner. NOTE: Renouncing ownership will leave the contract without an owner, thereby disabling any functionality that is only available to the owner."
					},
					"transferOwnership(address)": {
						"details": "Transfers ownership of the contract to a new account (`newOwner`). Can only be called by the current owner."
					}
				},
				"version": 1
			},
			"evm": {
				"assembly": "    /* \"contracts/NUTZStaking.sol\":297:3553  contract NUTZStaking is ReentrancyGuard, Ownable {... */\n  mstore(0x40, 0x80)\n    /* \"contracts/NUTZStaking.sol\":1229:1451  constructor(address _nutzTokenAddress, address _owner) Ownable(_owner) {... */\n  callvalue\n  dup1\n  iszero\n  tag_1\n  jumpi\n  0x00\n  dup1\n  revert\ntag_1:\n  pop\n  mload(0x40)\n  sub(codesize, bytecodeSize)\n  dup1\n  bytecodeSize\n  dup4\n  codecopy\n  dup2\n  dup2\n  add\n  0x40\n  mstore\n  dup2\n  add\n  swap1\n  tag_2\n  swap2\n  swap1\n  tag_3\n  jump\t// in\ntag_2:\n    /* \"contracts/NUTZStaking.sol\":1292:1298  _owner */\n  dup1\n    /* \"@openzeppelin/contracts/security/ReentrancyGuard.sol\":1716:1717  1 */\n  0x01\n    /* \"@openzeppelin/contracts/security/ReentrancyGuard.sol\":1821:1828  _status */\n  0x00\n    /* \"@openzeppelin/contracts/security/ReentrancyGuard.sol\":1821:1843  _status = _NOT_ENTERED */\n  dup2\n  swap1\n  sstore\n  pop\n    /* \"@openzeppelin/contracts/access/Ownable.sol\":1297:1298  0 */\n  0x00\n    /* \"@openzeppelin/contracts/access/Ownable.sol\":1273:1299  initialOwner == address(0) */\n  0xffffffffffffffffffffffffffffffffffffffff\n  and\n    /* \"@openzeppelin/contracts/access/Ownable.sol\":1273:1285  initialOwner */\n  dup2\n    /* \"@openzeppelin/contracts/access/Ownable.sol\":1273:1299  initialOwner == address(0) */\n  0xffffffffffffffffffffffffffffffffffffffff\n  and\n  sub\n    /* \"@openzeppelin/contracts/access/Ownable.sol\":1269:1364  if (initialOwner == address(0)) {... */\n  tag_9\n  jumpi\n    /* \"@openzeppelin/contracts/access/Ownable.sol\":1350:1351  0 */\n  0x00\n    /* \"@openzeppelin/contracts/access/Ownable.sol\":1322:1353  OwnableInvalidOwner(address(0)) */\n  mload(0x40)\n  0x1e4fbdf700000000000000000000000000000000000000000000000000000000\n  dup2\n  mstore\n  0x04\n  add\n  tag_10\n  swap2\n  swap1\n  tag_11\n  jump\t// in\ntag_10:\n  mload(0x40)\n  dup1\n  swap2\n  sub\n  swap1\n  revert\n    /* \"@openzeppelin/contracts/access/Ownable.sol\":1269:1364  if (initialOwner == address(0)) {... */\ntag_9:\n    /* \"@openzeppelin/contracts/access/Ownable.sol\":1373:1405  _transferOwnership(initialOwner) */\n  tag_12\n    /* \"@openzeppelin/contracts/access/Ownable.sol\":1392:1404  initialOwner */\n  dup2\n    /* \"@openzeppelin/contracts/access/Ownable.sol\":1373:1391  _transferOwnership */\n  shl(0x20, tag_13)\n    /* \"@openzeppelin/contracts/access/Ownable.sol\":1373:1405  _transferOwnership(initialOwner) */\n  0x20\n  shr\n  jump\t// in\ntag_12:\n    /* \"@openzeppelin/contracts/access/Ownable.sol\":1225:1412  constructor(address initialOwner) {... */\n  pop\n    /* \"contracts/NUTZStaking.sol\":1348:1349  0 */\n  0x00\n    /* \"contracts/NUTZStaking.sol\":1319:1350  _nutzTokenAddress != address(0) */\n  0xffffffffffffffffffffffffffffffffffffffff\n  and\n    /* \"contracts/NUTZStaking.sol\":1319:1336  _nutzTokenAddress */\n  dup3\n    /* \"contracts/NUTZStaking.sol\":1319:1350  _nutzTokenAddress != address(0) */\n  0xffffffffffffffffffffffffffffffffffffffff\n  and\n  sub\n    /* \"contracts/NUTZStaking.sol\":1311:1395  require(_nutzTokenAddress != address(0), \"Token address cannot be the zero address\") */\n  tag_15\n  jumpi\n  mload(0x40)\n  0x08c379a000000000000000000000000000000000000000000000000000000000\n  dup2\n  mstore\n  0x04\n  add\n  tag_16\n  swap1\n  tag_17\n  jump\t// in\ntag_16:\n  mload(0x40)\n  dup1\n  swap2\n  sub\n  swap1\n  revert\ntag_15:\n    /* \"contracts/NUTZStaking.sol\":1425:1442  _nutzTokenAddress */\n  dup2\n    /* \"contracts/NUTZStaking.sol\":1406:1415  nutzToken */\n  0x02\n  0x00\n    /* \"contracts/NUTZStaking.sol\":1406:1443  nutzToken = IERC20(_nutzTokenAddress) */\n  0x0100\n  exp\n  dup2\n  sload\n  dup2\n  0xffffffffffffffffffffffffffffffffffffffff\n  mul\n  not\n  and\n  swap1\n  dup4\n  0xffffffffffffffffffffffffffffffffffffffff\n  and\n  mul\n  or\n  swap1\n  sstore\n  pop\n    /* \"contracts/NUTZStaking.sol\":1229:1451  constructor(address _nutzTokenAddress, address _owner) Ownable(_owner) {... */\n  pop\n  pop\n    /* \"contracts/NUTZStaking.sol\":297:3553  contract NUTZStaking is ReentrancyGuard, Ownable {... */\n  jump(tag_18)\n    /* \"@openzeppelin/contracts/access/Ownable.sol\":2912:3099  function _transferOwnership(address newOwner) internal virtual {... */\ntag_13:\n    /* \"@openzeppelin/contracts/access/Ownable.sol\":2985:3001  address oldOwner */\n  0x00\n    /* \"@openzeppelin/contracts/access/Ownable.sol\":3004:3010  _owner */\n  0x01\n  0x00\n  swap1\n  sload\n  swap1\n  0x0100\n  exp\n  swap1\n  div\n  0xffffffffffffffffffffffffffffffffffffffff\n  and\n    /* \"@openzeppelin/contracts/access/Ownable.sol\":2985:3010  address oldOwner = _owner */\n  swap1\n  pop\n    /* \"@openzeppelin/contracts/access/Ownable.sol\":3029:3037  newOwner */\n  dup2\n    /* \"@openzeppelin/contracts/access/Ownable.sol\":3020:3026  _owner */\n  0x01\n  0x00\n    /* \"@openzeppelin/contracts/access/Ownable.sol\":3020:3037  _owner = newOwner */\n  0x0100\n  exp\n  dup2\n  sload\n  dup2\n  0xffffffffffffffffffffffffffffffffffffffff\n  mul\n  not\n  and\n  swap1\n  dup4\n  0xffffffffffffffffffffffffffffffffffffffff\n  and\n  mul\n  or\n  swap1\n  sstore\n  pop\n    /* \"@openzeppelin/contracts/access/Ownable.sol\":3083:3091  newOwner */\n  dup2\n    /* \"@openzeppelin/contracts/access/Ownable.sol\":3052:3092  OwnershipTransferred(oldOwner, newOwner) */\n  0xffffffffffffffffffffffffffffffffffffffff\n  and\n    /* \"@openzeppelin/contracts/access/Ownable.sol\":3073:3081  oldOwner */\n  dup2\n    /* \"@openzeppelin/contracts/access/Ownable.sol\":3052:3092  OwnershipTransferred(oldOwner, newOwner) */\n  0xffffffffffffffffffffffffffffffffffffffff\n  and\n  0x8be0079c531659141344cd1fd0a4f28419497f9722a3daafe3b4186f6b6457e0\n  mload(0x40)\n  mload(0x40)\n  dup1\n  swap2\n  sub\n  swap1\n  log3\n    /* \"@openzeppelin/contracts/access/Ownable.sol\":2975:3099  {... */\n  pop\n    /* \"@openzeppelin/contracts/access/Ownable.sol\":2912:3099  function _transferOwnership(address newOwner) internal virtual {... */\n  pop\n  jump\t// out\n    /* \"#utility.yul\":88:205   */\ntag_21:\n    /* \"#utility.yul\":197:198   */\n  0x00\n    /* \"#utility.yul\":194:195   */\n  dup1\n    /* \"#utility.yul\":187:199   */\n  revert\n    /* \"#utility.yul\":334:460   */\ntag_23:\n    /* \"#utility.yul\":371:378   */\n  0x00\n    /* \"#utility.yul\":411:453   */\n  0xffffffffffffffffffffffffffffffffffffffff\n    /* \"#utility.yul\":404:409   */\n  dup3\n    /* \"#utility.yul\":400:454   */\n  and\n    /* \"#utility.yul\":389:454   */\n  swap1\n  pop\n    /* \"#utility.yul\":334:460   */\n  swap2\n  swap1\n  pop\n  jump\t// out\n    /* \"#utility.yul\":466:562   */\ntag_24:\n    /* \"#utility.yul\":503:510   */\n  0x00\n    /* \"#utility.yul\":532:556   */\n  tag_37\n    /* \"#utility.yul\":550:555   */\n  dup3\n    /* \"#utility.yul\":532:556   */\n  tag_23\n  jump\t// in\ntag_37:\n    /* \"#utility.yul\":521:556   */\n  swap1\n  pop\n    /* \"#utility.yul\":466:562   */\n  swap2\n  swap1\n  pop\n  jump\t// out\n    /* \"#utility.yul\":568:690   */\ntag_25:\n    /* \"#utility.yul\":641:665   */\n  tag_39\n    /* \"#utility.yul\":659:664   */\n  dup2\n    /* \"#utility.yul\":641:665   */\n  tag_24\n  jump\t// in\ntag_39:\n    /* \"#utility.yul\":634:639   */\n  dup2\n    /* \"#utility.yul\":631:666   */\n  eq\n    /* \"#utility.yul\":621:684   */\n  tag_40\n  jumpi\n    /* \"#utility.yul\":680:681   */\n  0x00\n    /* \"#utility.yul\":677:678   */\n  dup1\n    /* \"#utility.yul\":670:682   */\n  revert\n    /* \"#utility.yul\":621:684   */\ntag_40:\n    /* \"#utility.yul\":568:690   */\n  pop\n  jump\t// out\n    /* \"#utility.yul\":696:839   */\ntag_26:\n    /* \"#utility.yul\":753:758   */\n  0x00\n    /* \"#utility.yul\":784:790   */\n  dup2\n    /* \"#utility.yul\":778:791   */\n  mload\n    /* \"#utility.yul\":769:791   */\n  swap1\n  pop\n    /* \"#utility.yul\":800:833   */\n  tag_42\n    /* \"#utility.yul\":827:832   */\n  dup2\n    /* \"#utility.yul\":800:833   */\n  tag_25\n  jump\t// in\ntag_42:\n    /* \"#utility.yul\":696:839   */\n  swap3\n  swap2\n  pop\n  pop\n  jump\t// out\n    /* \"#utility.yul\":845:1352   */\ntag_3:\n    /* \"#utility.yul\":924:930   */\n  0x00\n    /* \"#utility.yul\":932:938   */\n  dup1\n    /* \"#utility.yul\":981:983   */\n  0x40\n    /* \"#utility.yul\":969:978   */\n  dup4\n    /* \"#utility.yul\":960:967   */\n  dup6\n    /* \"#utility.yul\":956:979   */\n  sub\n    /* \"#utility.yul\":952:984   */\n  slt\n    /* \"#utility.yul\":949:1068   */\n  iszero\n  tag_44\n  jumpi\n    /* \"#utility.yul\":987:1066   */\n  tag_45\n  tag_21\n  jump\t// in\ntag_45:\n    /* \"#utility.yul\":949:1068   */\ntag_44:\n    /* \"#utility.yul\":1107:1108   */\n  0x00\n    /* \"#utility.yul\":1132:1196   */\n  tag_46\n    /* \"#utility.yul\":1188:1195   */\n  dup6\n    /* \"#utility.yul\":1179:1185   */\n  dup3\n    /* \"#utility.yul\":1168:1177   */\n  dup7\n    /* \"#utility.yul\":1164:1186   */\n  add\n    /* \"#utility.yul\":1132:1196   */\n  tag_26\n  jump\t// in\ntag_46:\n    /* \"#utility.yul\":1122:1196   */\n  swap3\n  pop\n    /* \"#utility.yul\":1078:1206   */\n  pop\n    /* \"#utility.yul\":1245:1247   */\n  0x20\n    /* \"#utility.yul\":1271:1335   */\n  tag_47\n    /* \"#utility.yul\":1327:1334   */\n  dup6\n    /* \"#utility.yul\":1318:1324   */\n  dup3\n    /* \"#utility.yul\":1307:1316   */\n  dup7\n    /* \"#utility.yul\":1303:1325   */\n  add\n    /* \"#utility.yul\":1271:1335   */\n  tag_26\n  jump\t// in\ntag_47:\n    /* \"#utility.yul\":1261:1335   */\n  swap2\n  pop\n    /* \"#utility.yul\":1216:1345   */\n  pop\n    /* \"#utility.yul\":845:1352   */\n  swap3\n  pop\n  swap3\n  swap1\n  pop\n  jump\t// out\n    /* \"#utility.yul\":1358:1476   */\ntag_27:\n    /* \"#utility.yul\":1445:1469   */\n  tag_49\n    /* \"#utility.yul\":1463:1468   */\n  dup2\n    /* \"#utility.yul\":1445:1469   */\n  tag_24\n  jump\t// in\ntag_49:\n    /* \"#utility.yul\":1440:1443   */\n  dup3\n    /* \"#utility.yul\":1433:1470   */\n  mstore\n    /* \"#utility.yul\":1358:1476   */\n  pop\n  pop\n  jump\t// out\n    /* \"#utility.yul\":1482:1704   */\ntag_11:\n    /* \"#utility.yul\":1575:1579   */\n  0x00\n    /* \"#utility.yul\":1613:1615   */\n  0x20\n    /* \"#utility.yul\":1602:1611   */\n  dup3\n    /* \"#utility.yul\":1598:1616   */\n  add\n    /* \"#utility.yul\":1590:1616   */\n  swap1\n  pop\n    /* \"#utility.yul\":1626:1697   */\n  tag_51\n    /* \"#utility.yul\":1694:1695   */\n  0x00\n    /* \"#utility.yul\":1683:1692   */\n  dup4\n    /* \"#utility.yul\":1679:1696   */\n  add\n    /* \"#utility.yul\":1670:1676   */\n  dup5\n    /* \"#utility.yul\":1626:1697   */\n  tag_27\n  jump\t// in\ntag_51:\n    /* \"#utility.yul\":1482:1704   */\n  swap3\n  swap2\n  pop\n  pop\n  jump\t// out\n    /* \"#utility.yul\":1710:1879   */\ntag_28:\n    /* \"#utility.yul\":1794:1805   */\n  0x00\n    /* \"#utility.yul\":1828:1834   */\n  dup3\n    /* \"#utility.yul\":1823:1826   */\n  dup3\n    /* \"#utility.yul\":1816:1835   */\n  mstore\n    /* \"#utility.yul\":1868:1872   */\n  0x20\n    /* \"#utility.yul\":1863:1866   */\n  dup3\n    /* \"#utility.yul\":1859:1873   */\n  add\n    /* \"#utility.yul\":1844:1873   */\n  swap1\n  pop\n    /* \"#utility.yul\":1710:1879   */\n  swap3\n  swap2\n  pop\n  pop\n  jump\t// out\n    /* \"#utility.yul\":1885:2112   */\ntag_29:\n    /* \"#utility.yul\":2025:2059   */\n  0x546f6b656e20616464726573732063616e6e6f7420626520746865207a65726f\n    /* \"#utility.yul\":2021:2022   */\n  0x00\n    /* \"#utility.yul\":2013:2019   */\n  dup3\n    /* \"#utility.yul\":2009:2023   */\n  add\n    /* \"#utility.yul\":2002:2060   */\n  mstore\n    /* \"#utility.yul\":2094:2104   */\n  0x2061646472657373000000000000000000000000000000000000000000000000\n    /* \"#utility.yul\":2089:2091   */\n  0x20\n    /* \"#utility.yul\":2081:2087   */\n  dup3\n    /* \"#utility.yul\":2077:2092   */\n  add\n    /* \"#utility.yul\":2070:2105   */\n  mstore\n    /* \"#utility.yul\":1885:2112   */\n  pop\n  jump\t// out\n    /* \"#utility.yul\":2118:2484   */\ntag_30:\n    /* \"#utility.yul\":2260:2263   */\n  0x00\n    /* \"#utility.yul\":2281:2348   */\n  tag_55\n    /* \"#utility.yul\":2345:2347   */\n  0x28\n    /* \"#utility.yul\":2340:2343   */\n  dup4\n    /* \"#utility.yul\":2281:2348   */\n  tag_28\n  jump\t// in\ntag_55:\n    /* \"#utility.yul\":2274:2348   */\n  swap2\n  pop\n    /* \"#utility.yul\":2357:2450   */\n  tag_56\n    /* \"#utility.yul\":2446:2449   */\n  dup3\n    /* \"#utility.yul\":2357:2450   */\n  tag_29\n  jump\t// in\ntag_56:\n    /* \"#utility.yul\":2475:2477   */\n  0x40\n    /* \"#utility.yul\":2470:2473   */\n  dup3\n    /* \"#utility.yul\":2466:2478   */\n  add\n    /* \"#utility.yul\":2459:2478   */\n  swap1\n  pop\n    /* \"#utility.yul\":2118:2484   */\n  swap2\n  swap1\n  pop\n  jump\t// out\n    /* \"#utility.yul\":2490:2909   */\ntag_17:\n    /* \"#utility.yul\":2656:2660   */\n  0x00\n    /* \"#utility.yul\":2694:2696   */\n  0x20\n    /* \"#utility.yul\":2683:2692   */\n  dup3\n    /* \"#utility.yul\":2679:2697   */\n  add\n    /* \"#utility.yul\":2671:2697   */\n  swap1\n  pop\n    /* \"#utility.yul\":2743:2752   */\n  dup2\n    /* \"#utility.yul\":2737:2741   */\n  dup2\n    /* \"#utility.yul\":2733:2753   */\n  sub\n    /* \"#utility.yul\":2729:2730   */\n  0x00\n    /* \"#utility.yul\":2718:2727   */\n  dup4\n    /* \"#utility.yul\":2714:2731   */\n  add\n    /* \"#utility.yul\":2707:2754   */\n  mstore\n    /* \"#utility.yul\":2771:2902   */\n  tag_58\n    /* \"#utility.yul\":2897:2901   */\n  dup2\n    /* \"#utility.yul\":2771:2902   */\n  tag_30\n  jump\t// in\ntag_58:\n    /* \"#utility.yul\":2763:2902   */\n  swap1\n  pop\n    /* \"#utility.yul\":2490:2909   */\n  swap2\n  swap1\n  pop\n  jump\t// out\n    /* \"contracts/NUTZStaking.sol\":297:3553  contract NUTZStaking is ReentrancyGuard, Ownable {... */\ntag_18:\n  dataSize(sub_0)\n  dup1\n  dataOffset(sub_0)\n  0x00\n  codecopy\n  0x00\n  return\nstop\n\nsub_0: assembly {\n        /* \"contracts/NUTZStaking.sol\":297:3553  contract NUTZStaking is ReentrancyGuard, Ownable {... */\n      mstore(0x40, 0x80)\n      callvalue\n      dup1\n      iszero\n      tag_1\n      jumpi\n      0x00\n      dup1\n      revert\n    tag_1:\n      pop\n      jumpi(tag_2, lt(calldatasize, 0x04))\n      shr(0xe0, calldataload(0x00))\n      dup1\n      0xd68f78f0\n      gt\n      tag_18\n      jumpi\n      dup1\n      0xefc21daa\n      gt\n      tag_19\n      jumpi\n      dup1\n      0xefc21daa\n      eq\n      tag_14\n      jumpi\n      dup1\n      0xf2fde38b\n      eq\n      tag_15\n      jumpi\n      dup1\n      0xf5cd0264\n      eq\n      tag_16\n      jumpi\n      dup1\n      0xfa435959\n      eq\n      tag_17\n      jumpi\n      jump(tag_2)\n    tag_19:\n      dup1\n      0xd68f78f0\n      eq\n      tag_10\n      jumpi\n      dup1\n      0xd82e3962\n      eq\n      tag_11\n      jumpi\n      dup1\n      0xd9c80108\n      eq\n      tag_12\n      jumpi\n      dup1\n      0xe6a4a8b5\n      eq\n      tag_13\n      jumpi\n      jump(tag_2)\n    tag_18:\n      dup1\n      0x7547c7a3\n      gt\n      tag_20\n      jumpi\n      dup1\n      0x7547c7a3\n      eq\n      tag_6\n      jumpi\n      dup1\n      0x817b1cd2\n      eq\n      tag_7\n      jumpi\n      dup1\n      0x8da5cb5b\n      eq\n      tag_8\n      jumpi\n      dup1\n      0xbc390610\n      eq\n      tag_9\n      jumpi\n      jump(tag_2)\n    tag_20:\n      dup1\n      0x1288af02\n      eq\n      tag_3\n      jumpi\n      dup1\n      0x16934fc4\n      eq\n      tag_4\n      jumpi\n      dup1\n      0x715018a6\n      eq\n      tag_5\n      jumpi\n    tag_2:\n      0x00\n      dup1\n      revert\n        /* \"contracts/NUTZStaking.sol\":646:711  uint256 public constant TOKENS_PER_DECREASE = 250000 * (10 ** 18) */\n    tag_3:\n      tag_21\n      tag_22\n      jump\t// in\n    tag_21:\n      mload(0x40)\n      tag_23\n      swap2\n      swap1\n      tag_24\n      jump\t// in\n    tag_23:\n      mload(0x40)\n      dup1\n      swap2\n      sub\n      swap1\n      return\n        /* \"contracts/NUTZStaking.sol\":941:980  mapping(address => Stake) public stakes */\n    tag_4:\n      tag_25\n      0x04\n      dup1\n      calldatasize\n      sub\n      dup2\n      add\n      swap1\n      tag_26\n      swap2\n      swap1\n      tag_27\n      jump\t// in\n    tag_26:\n      tag_28\n      jump\t// in\n    tag_25:\n      mload(0x40)\n      tag_29\n      swap4\n      swap3\n      swap2\n      swap1\n      tag_30\n      jump\t// in\n    tag_29:\n      mload(0x40)\n      dup1\n      swap2\n      sub\n      swap1\n      return\n        /* \"@openzeppelin/contracts/access/Ownable.sol\":2293:2394  function renounceOwnership() public virtual onlyOwner {... */\n    tag_5:\n      tag_31\n      tag_32\n      jump\t// in\n    tag_31:\n      stop\n        /* \"contracts/NUTZStaking.sol\":1459:1938  function stakeTokens(uint256 _amount) external nonReentrant {... */\n    tag_6:\n      tag_33\n      0x04\n      dup1\n      calldatasize\n      sub\n      dup2\n      add\n      swap1\n      tag_34\n      swap2\n      swap1\n      tag_35\n      jump\t// in\n    tag_34:\n      tag_36\n      jump\t// in\n    tag_33:\n      stop\n        /* \"contracts/NUTZStaking.sol\":753:779  uint256 public totalStaked */\n    tag_7:\n      tag_37\n      tag_38\n      jump\t// in\n    tag_37:\n      mload(0x40)\n      tag_39\n      swap2\n      swap1\n      tag_24\n      jump\t// in\n    tag_39:\n      mload(0x40)\n      dup1\n      swap2\n      sub\n      swap1\n      return\n        /* \"@openzeppelin/contracts/access/Ownable.sol\":1638:1723  function owner() public view virtual returns (address) {... */\n    tag_8:\n      tag_40\n      tag_41\n      jump\t// in\n    tag_40:\n      mload(0x40)\n      tag_42\n      swap2\n      swap1\n      tag_43\n      jump\t// in\n    tag_42:\n      mload(0x40)\n      dup1\n      swap2\n      sub\n      swap1\n      return\n        /* \"contracts/NUTZStaking.sol\":418:469  uint256 public constant STARTING_ANNUAL_RETURN = 25 */\n    tag_9:\n      tag_44\n      tag_45\n      jump\t// in\n    tag_44:\n      mload(0x40)\n      tag_46\n      swap2\n      swap1\n      tag_24\n      jump\t// in\n    tag_46:\n      mload(0x40)\n      dup1\n      swap2\n      sub\n      swap1\n      return\n        /* \"contracts/NUTZStaking.sol\":1946:2776  function unstakeAndClaimRewards() external nonReentrant {... */\n    tag_10:\n      tag_47\n      tag_48\n      jump\t// in\n    tag_47:\n      stop\n        /* \"contracts/NUTZStaking.sol\":3147:3491  function calculateReward(address _user) public view returns (uint256) {... */\n    tag_11:\n      tag_49\n      0x04\n      dup1\n      calldatasize\n      sub\n      dup2\n      add\n      swap1\n      tag_50\n      swap2\n      swap1\n      tag_27\n      jump\t// in\n    tag_50:\n      tag_51\n      jump\t// in\n    tag_49:\n      mload(0x40)\n      tag_52\n      swap2\n      swap1\n      tag_24\n      jump\t// in\n    tag_52:\n      mload(0x40)\n      dup1\n      swap2\n      sub\n      swap1\n      return\n        /* \"contracts/NUTZStaking.sol\":786:819  uint256 public totalRewardsMinted */\n    tag_12:\n      tag_53\n      tag_54\n      jump\t// in\n    tag_53:\n      mload(0x40)\n      tag_55\n      swap2\n      swap1\n      tag_24\n      jump\t// in\n    tag_55:\n      mload(0x40)\n      dup1\n      swap2\n      sub\n      swap1\n      return\n        /* \"contracts/NUTZStaking.sol\":2784:3139  function getCurrentRewardRate() public view returns (uint256) {... */\n    tag_13:\n      tag_56\n      tag_57\n      jump\t// in\n    tag_56:\n      mload(0x40)\n      tag_58\n      swap2\n      swap1\n      tag_24\n      jump\t// in\n    tag_58:\n      mload(0x40)\n      dup1\n      swap2\n      sub\n      swap1\n      return\n        /* \"contracts/NUTZStaking.sol\":493:542  uint256 public constant MINIMUM_ANNUAL_RETURN = 5 */\n    tag_14:\n      tag_59\n      tag_60\n      jump\t// in\n    tag_59:\n      mload(0x40)\n      tag_61\n      swap2\n      swap1\n      tag_24\n      jump\t// in\n    tag_61:\n      mload(0x40)\n      dup1\n      swap2\n      sub\n      swap1\n      return\n        /* \"@openzeppelin/contracts/access/Ownable.sol\":2543:2758  function transferOwnership(address newOwner) public virtual onlyOwner {... */\n    tag_15:\n      tag_62\n      0x04\n      dup1\n      calldatasize\n      sub\n      dup2\n      add\n      swap1\n      tag_63\n      swap2\n      swap1\n      tag_27\n      jump\t// in\n    tag_63:\n      tag_64\n      jump\t// in\n    tag_62:\n      stop\n        /* \"contracts/NUTZStaking.sol\":388:411  IERC20 public nutzToken */\n    tag_16:\n      tag_65\n      tag_66\n      jump\t// in\n    tag_65:\n      mload(0x40)\n      tag_67\n      swap2\n      swap1\n      tag_68\n      jump\t// in\n    tag_67:\n      mload(0x40)\n      dup1\n      swap2\n      sub\n      swap1\n      return\n        /* \"contracts/NUTZStaking.sol\":570:616  uint256 public constant MINT_RATE_DECREASE = 5 */\n    tag_17:\n      tag_69\n      tag_70\n      jump\t// in\n    tag_69:\n      mload(0x40)\n      tag_71\n      swap2\n      swap1\n      tag_24\n      jump\t// in\n    tag_71:\n      mload(0x40)\n      dup1\n      swap2\n      sub\n      swap1\n      return\n        /* \"contracts/NUTZStaking.sol\":646:711  uint256 public constant TOKENS_PER_DECREASE = 250000 * (10 ** 18) */\n    tag_22:\n        /* \"contracts/NUTZStaking.sol\":692:711  250000 * (10 ** 18) */\n      0x34f086f3b33b68400000\n        /* \"contracts/NUTZStaking.sol\":646:711  uint256 public constant TOKENS_PER_DECREASE = 250000 * (10 ** 18) */\n      dup2\n      jump\t// out\n        /* \"contracts/NUTZStaking.sol\":941:980  mapping(address => Stake) public stakes */\n    tag_28:\n      mstore(0x20, 0x05)\n      dup1\n      0x00\n      mstore\n      keccak256(0x00, 0x40)\n      0x00\n      swap2\n      pop\n      swap1\n      pop\n      dup1\n      0x00\n      add\n      sload\n      swap1\n      dup1\n      0x01\n      add\n      sload\n      swap1\n      dup1\n      0x02\n      add\n      sload\n      swap1\n      pop\n      dup4\n      jump\t// out\n        /* \"@openzeppelin/contracts/access/Ownable.sol\":2293:2394  function renounceOwnership() public virtual onlyOwner {... */\n    tag_32:\n        /* \"@openzeppelin/contracts/access/Ownable.sol\":1531:1544  _checkOwner() */\n      tag_73\n        /* \"@openzeppelin/contracts/access/Ownable.sol\":1531:1542  _checkOwner */\n      tag_74\n        /* \"@openzeppelin/contracts/access/Ownable.sol\":1531:1544  _checkOwner() */\n      jump\t// in\n    tag_73:\n        /* \"@openzeppelin/contracts/access/Ownable.sol\":2357:2387  _transferOwnership(address(0)) */\n      tag_76\n        /* \"@openzeppelin/contracts/access/Ownable.sol\":2384:2385  0 */\n      0x00\n        /* \"@openzeppelin/contracts/access/Ownable.sol\":2357:2375  _transferOwnership */\n      tag_77\n        /* \"@openzeppelin/contracts/access/Ownable.sol\":2357:2387  _transferOwnership(address(0)) */\n      jump\t// in\n    tag_76:\n        /* \"@openzeppelin/contracts/access/Ownable.sol\":2293:2394  function renounceOwnership() public virtual onlyOwner {... */\n      jump\t// out\n        /* \"contracts/NUTZStaking.sol\":1459:1938  function stakeTokens(uint256 _amount) external nonReentrant {... */\n    tag_36:\n        /* \"@openzeppelin/contracts/security/ReentrancyGuard.sol\":2261:2282  _nonReentrantBefore() */\n      tag_79\n        /* \"@openzeppelin/contracts/security/ReentrancyGuard.sol\":2261:2280  _nonReentrantBefore */\n      tag_80\n        /* \"@openzeppelin/contracts/security/ReentrancyGuard.sol\":2261:2282  _nonReentrantBefore() */\n      jump\t// in\n    tag_79:\n        /* \"contracts/NUTZStaking.sol\":1548:1549  0 */\n      0x00\n        /* \"contracts/NUTZStaking.sol\":1538:1545  _amount */\n      dup2\n        /* \"contracts/NUTZStaking.sol\":1538:1549  _amount > 0 */\n      gt\n        /* \"contracts/NUTZStaking.sol\":1530:1575  require(_amount > 0, \"Cannot stake 0 tokens\") */\n      tag_82\n      jumpi\n      mload(0x40)\n      0x08c379a000000000000000000000000000000000000000000000000000000000\n      dup2\n      mstore\n      0x04\n      add\n      tag_83\n      swap1\n      tag_84\n      jump\t// in\n    tag_83:\n      mload(0x40)\n      dup1\n      swap2\n      sub\n      swap1\n      revert\n    tag_82:\n        /* \"contracts/NUTZStaking.sol\":1594:1603  nutzToken */\n      0x02\n      0x00\n      swap1\n      sload\n      swap1\n      0x0100\n      exp\n      swap1\n      div\n      0xffffffffffffffffffffffffffffffffffffffff\n      and\n        /* \"contracts/NUTZStaking.sol\":1594:1616  nutzToken.transferFrom */\n      0xffffffffffffffffffffffffffffffffffffffff\n      and\n      0x23b872dd\n        /* \"contracts/NUTZStaking.sol\":1617:1627  msg.sender */\n      caller\n        /* \"contracts/NUTZStaking.sol\":1637:1641  this */\n      address\n        /* \"contracts/NUTZStaking.sol\":1644:1651  _amount */\n      dup5\n        /* \"contracts/NUTZStaking.sol\":1594:1652  nutzToken.transferFrom(msg.sender, address(this), _amount) */\n      mload(0x40)\n      dup5\n      0xffffffff\n      and\n      0xe0\n      shl\n      dup2\n      mstore\n      0x04\n      add\n      tag_85\n      swap4\n      swap3\n      swap2\n      swap1\n      tag_86\n      jump\t// in\n    tag_85:\n      0x20\n      mload(0x40)\n      dup1\n      dup4\n      sub\n      dup2\n      0x00\n      dup8\n      gas\n      call\n      iszero\n      dup1\n      iszero\n      tag_88\n      jumpi\n      returndatasize\n      0x00\n      dup1\n      returndatacopy\n      revert(0x00, returndatasize)\n    tag_88:\n      pop\n      pop\n      pop\n      pop\n      mload(0x40)\n      returndatasize\n      not(0x1f)\n      0x1f\n      dup3\n      add\n      and\n      dup3\n      add\n      dup1\n      0x40\n      mstore\n      pop\n      dup2\n      add\n      swap1\n      tag_89\n      swap2\n      swap1\n      tag_90\n      jump\t// in\n    tag_89:\n        /* \"contracts/NUTZStaking.sol\":1586:1672  require(nutzToken.transferFrom(msg.sender, address(this), _amount), \"Transfer failed\") */\n      tag_91\n      jumpi\n      mload(0x40)\n      0x08c379a000000000000000000000000000000000000000000000000000000000\n      dup2\n      mstore\n      0x04\n      add\n      tag_92\n      swap1\n      tag_93\n      jump\t// in\n    tag_92:\n      mload(0x40)\n      dup1\n      swap2\n      sub\n      swap1\n      revert\n    tag_91:\n        /* \"contracts/NUTZStaking.sol\":1685:1710  uint256 currentRewardRate */\n      0x00\n        /* \"contracts/NUTZStaking.sol\":1713:1735  getCurrentRewardRate() */\n      tag_94\n        /* \"contracts/NUTZStaking.sol\":1713:1733  getCurrentRewardRate */\n      tag_57\n        /* \"contracts/NUTZStaking.sol\":1713:1735  getCurrentRewardRate() */\n      jump\t// in\n    tag_94:\n        /* \"contracts/NUTZStaking.sol\":1685:1735  uint256 currentRewardRate = getCurrentRewardRate() */\n      swap1\n      pop\n        /* \"contracts/NUTZStaking.sol\":1767:1817  Stake(_amount, currentRewardRate, block.timestamp) */\n      mload(0x40)\n      dup1\n      0x60\n      add\n      0x40\n      mstore\n      dup1\n        /* \"contracts/NUTZStaking.sol\":1773:1780  _amount */\n      dup4\n        /* \"contracts/NUTZStaking.sol\":1767:1817  Stake(_amount, currentRewardRate, block.timestamp) */\n      dup2\n      mstore\n      0x20\n      add\n        /* \"contracts/NUTZStaking.sol\":1782:1799  currentRewardRate */\n      dup3\n        /* \"contracts/NUTZStaking.sol\":1767:1817  Stake(_amount, currentRewardRate, block.timestamp) */\n      dup2\n      mstore\n      0x20\n      add\n        /* \"contracts/NUTZStaking.sol\":1801:1816  block.timestamp */\n      timestamp\n        /* \"contracts/NUTZStaking.sol\":1767:1817  Stake(_amount, currentRewardRate, block.timestamp) */\n      dup2\n      mstore\n      pop\n        /* \"contracts/NUTZStaking.sol\":1746:1752  stakes */\n      0x05\n        /* \"contracts/NUTZStaking.sol\":1746:1764  stakes[msg.sender] */\n      0x00\n        /* \"contracts/NUTZStaking.sol\":1753:1763  msg.sender */\n      caller\n        /* \"contracts/NUTZStaking.sol\":1746:1764  stakes[msg.sender] */\n      0xffffffffffffffffffffffffffffffffffffffff\n      and\n      0xffffffffffffffffffffffffffffffffffffffff\n      and\n      dup2\n      mstore\n      0x20\n      add\n      swap1\n      dup2\n      mstore\n      0x20\n      add\n      0x00\n      keccak256\n        /* \"contracts/NUTZStaking.sol\":1746:1817  stakes[msg.sender] = Stake(_amount, currentRewardRate, block.timestamp) */\n      0x00\n      dup3\n      add\n      mload\n      dup2\n      0x00\n      add\n      sstore\n      0x20\n      dup3\n      add\n      mload\n      dup2\n      0x01\n      add\n      sstore\n      0x40\n      dup3\n      add\n      mload\n      dup2\n      0x02\n      add\n      sstore\n      swap1\n      pop\n      pop\n        /* \"contracts/NUTZStaking.sol\":1842:1866  totalStaked.add(_amount) */\n      tag_95\n        /* \"contracts/NUTZStaking.sol\":1858:1865  _amount */\n      dup3\n        /* \"contracts/NUTZStaking.sol\":1842:1853  totalStaked */\n      sload(0x03)\n        /* \"contracts/NUTZStaking.sol\":1842:1857  totalStaked.add */\n      tag_96\n      swap1\n        /* \"contracts/NUTZStaking.sol\":1842:1866  totalStaked.add(_amount) */\n      swap2\n      swap1\n      0xffffffff\n      and\n      jump\t// in\n    tag_95:\n        /* \"contracts/NUTZStaking.sol\":1828:1839  totalStaked */\n      0x03\n        /* \"contracts/NUTZStaking.sol\":1828:1866  totalStaked = totalStaked.add(_amount) */\n      dup2\n      swap1\n      sstore\n      pop\n        /* \"contracts/NUTZStaking.sol\":1891:1901  msg.sender */\n      caller\n        /* \"contracts/NUTZStaking.sol\":1884:1930  Staked(msg.sender, _amount, currentRewardRate) */\n      0xffffffffffffffffffffffffffffffffffffffff\n      and\n      0x1449c6dd7851abc30abf37f57715f492010519147cc2652fbc38202c18a6ee90\n        /* \"contracts/NUTZStaking.sol\":1903:1910  _amount */\n      dup4\n        /* \"contracts/NUTZStaking.sol\":1912:1929  currentRewardRate */\n      dup4\n        /* \"contracts/NUTZStaking.sol\":1884:1930  Staked(msg.sender, _amount, currentRewardRate) */\n      mload(0x40)\n      tag_97\n      swap3\n      swap2\n      swap1\n      tag_98\n      jump\t// in\n    tag_97:\n      mload(0x40)\n      dup1\n      swap2\n      sub\n      swap1\n      log2\n        /* \"contracts/NUTZStaking.sol\":1519:1938  {... */\n      pop\n        /* \"@openzeppelin/contracts/security/ReentrancyGuard.sol\":2303:2323  _nonReentrantAfter() */\n      tag_99\n        /* \"@openzeppelin/contracts/security/ReentrancyGuard.sol\":2303:2321  _nonReentrantAfter */\n      tag_100\n        /* \"@openzeppelin/contracts/security/ReentrancyGuard.sol\":2303:2323  _nonReentrantAfter() */\n      jump\t// in\n    tag_99:\n        /* \"contracts/NUTZStaking.sol\":1459:1938  function stakeTokens(uint256 _amount) external nonReentrant {... */\n      pop\n      jump\t// out\n        /* \"contracts/NUTZStaking.sol\":753:779  uint256 public totalStaked */\n    tag_38:\n      sload(0x03)\n      dup2\n      jump\t// out\n        /* \"@openzeppelin/contracts/access/Ownable.sol\":1638:1723  function owner() public view virtual returns (address) {... */\n    tag_41:\n        /* \"@openzeppelin/contracts/access/Ownable.sol\":1684:1691  address */\n      0x00\n        /* \"@openzeppelin/contracts/access/Ownable.sol\":1710:1716  _owner */\n      0x01\n      0x00\n      swap1\n      sload\n      swap1\n      0x0100\n      exp\n      swap1\n      div\n      0xffffffffffffffffffffffffffffffffffffffff\n      and\n        /* \"@openzeppelin/contracts/access/Ownable.sol\":1703:1716  return _owner */\n      swap1\n      pop\n        /* \"@openzeppelin/contracts/access/Ownable.sol\":1638:1723  function owner() public view virtual returns (address) {... */\n      swap1\n      jump\t// out\n        /* \"contracts/NUTZStaking.sol\":418:469  uint256 public constant STARTING_ANNUAL_RETURN = 25 */\n    tag_45:\n        /* \"contracts/NUTZStaking.sol\":467:469  25 */\n      0x19\n        /* \"contracts/NUTZStaking.sol\":418:469  uint256 public constant STARTING_ANNUAL_RETURN = 25 */\n      dup2\n      jump\t// out\n        /* \"contracts/NUTZStaking.sol\":1946:2776  function unstakeAndClaimRewards() external nonReentrant {... */\n    tag_48:\n        /* \"@openzeppelin/contracts/security/ReentrancyGuard.sol\":2261:2282  _nonReentrantBefore() */\n      tag_103\n        /* \"@openzeppelin/contracts/security/ReentrancyGuard.sol\":2261:2280  _nonReentrantBefore */\n      tag_80\n        /* \"@openzeppelin/contracts/security/ReentrancyGuard.sol\":2261:2282  _nonReentrantBefore() */\n      jump\t// in\n    tag_103:\n        /* \"contracts/NUTZStaking.sol\":2013:2036  Stake storage userStake */\n      0x00\n        /* \"contracts/NUTZStaking.sol\":2039:2045  stakes */\n      0x05\n        /* \"contracts/NUTZStaking.sol\":2039:2057  stakes[msg.sender] */\n      0x00\n        /* \"contracts/NUTZStaking.sol\":2046:2056  msg.sender */\n      caller\n        /* \"contracts/NUTZStaking.sol\":2039:2057  stakes[msg.sender] */\n      0xffffffffffffffffffffffffffffffffffffffff\n      and\n      0xffffffffffffffffffffffffffffffffffffffff\n      and\n      dup2\n      mstore\n      0x20\n      add\n      swap1\n      dup2\n      mstore\n      0x20\n      add\n      0x00\n      keccak256\n        /* \"contracts/NUTZStaking.sol\":2013:2057  Stake storage userStake = stakes[msg.sender] */\n      swap1\n      pop\n        /* \"contracts/NUTZStaking.sol\":2095:2096  0 */\n      0x00\n        /* \"contracts/NUTZStaking.sol\":2076:2085  userStake */\n      dup2\n        /* \"contracts/NUTZStaking.sol\":2076:2092  userStake.amount */\n      0x00\n      add\n      sload\n        /* \"contracts/NUTZStaking.sol\":2076:2096  userStake.amount > 0 */\n      gt\n        /* \"contracts/NUTZStaking.sol\":2068:2121  require(userStake.amount > 0, \"No tokens to unstake\") */\n      tag_105\n      jumpi\n      mload(0x40)\n      0x08c379a000000000000000000000000000000000000000000000000000000000\n      dup2\n      mstore\n      0x04\n      add\n      tag_106\n      swap1\n      tag_107\n      jump\t// in\n    tag_106:\n      mload(0x40)\n      dup1\n      swap2\n      sub\n      swap1\n      revert\n    tag_105:\n        /* \"contracts/NUTZStaking.sol\":2134:2148  uint256 reward */\n      0x00\n        /* \"contracts/NUTZStaking.sol\":2151:2178  calculateReward(msg.sender) */\n      tag_108\n        /* \"contracts/NUTZStaking.sol\":2167:2177  msg.sender */\n      caller\n        /* \"contracts/NUTZStaking.sol\":2151:2166  calculateReward */\n      tag_51\n        /* \"contracts/NUTZStaking.sol\":2151:2178  calculateReward(msg.sender) */\n      jump\t// in\n    tag_108:\n        /* \"contracts/NUTZStaking.sol\":2134:2178  uint256 reward = calculateReward(msg.sender) */\n      swap1\n      pop\n        /* \"contracts/NUTZStaking.sol\":2189:2207  uint256 burnAmount */\n      0x00\n        /* \"contracts/NUTZStaking.sol\":2210:2230  reward.mul(3).div(2) */\n      tag_109\n        /* \"contracts/NUTZStaking.sol\":2228:2229  2 */\n      0x02\n        /* \"contracts/NUTZStaking.sol\":2210:2223  reward.mul(3) */\n      tag_110\n        /* \"contracts/NUTZStaking.sol\":2221:2222  3 */\n      0x03\n        /* \"contracts/NUTZStaking.sol\":2210:2216  reward */\n      dup6\n        /* \"contracts/NUTZStaking.sol\":2210:2220  reward.mul */\n      tag_111\n      swap1\n        /* \"contracts/NUTZStaking.sol\":2210:2223  reward.mul(3) */\n      swap2\n      swap1\n      0xffffffff\n      and\n      jump\t// in\n    tag_110:\n        /* \"contracts/NUTZStaking.sol\":2210:2227  reward.mul(3).div */\n      tag_112\n      swap1\n        /* \"contracts/NUTZStaking.sol\":2210:2230  reward.mul(3).div(2) */\n      swap2\n      swap1\n      0xffffffff\n      and\n      jump\t// in\n    tag_109:\n        /* \"contracts/NUTZStaking.sol\":2189:2230  uint256 burnAmount = reward.mul(3).div(2) */\n      swap1\n      pop\n        /* \"contracts/NUTZStaking.sol\":2273:2282  nutzToken */\n      0x02\n      0x00\n      swap1\n      sload\n      swap1\n      0x0100\n      exp\n      swap1\n      div\n      0xffffffffffffffffffffffffffffffffffffffff\n      and\n        /* \"contracts/NUTZStaking.sol\":2273:2291  nutzToken.transfer */\n      0xffffffffffffffffffffffffffffffffffffffff\n      and\n      0xa9059cbb\n        /* \"contracts/NUTZStaking.sol\":2300:2309  nutzToken */\n      0x02\n      0x00\n      swap1\n      sload\n      swap1\n      0x0100\n      exp\n      swap1\n      div\n      0xffffffffffffffffffffffffffffffffffffffff\n      and\n        /* \"contracts/NUTZStaking.sol\":2312:2322  burnAmount */\n      dup4\n        /* \"contracts/NUTZStaking.sol\":2273:2323  nutzToken.transfer(address(nutzToken), burnAmount) */\n      mload(0x40)\n      dup4\n      0xffffffff\n      and\n      0xe0\n      shl\n      dup2\n      mstore\n      0x04\n      add\n      tag_113\n      swap3\n      swap2\n      swap1\n      tag_114\n      jump\t// in\n    tag_113:\n      0x20\n      mload(0x40)\n      dup1\n      dup4\n      sub\n      dup2\n      0x00\n      dup8\n      gas\n      call\n      iszero\n      dup1\n      iszero\n      tag_116\n      jumpi\n      returndatasize\n      0x00\n      dup1\n      returndatacopy\n      revert(0x00, returndatasize)\n    tag_116:\n      pop\n      pop\n      pop\n      pop\n      mload(0x40)\n      returndatasize\n      not(0x1f)\n      0x1f\n      dup3\n      add\n      and\n      dup3\n      add\n      dup1\n      0x40\n      mstore\n      pop\n      dup2\n      add\n      swap1\n      tag_117\n      swap2\n      swap1\n      tag_90\n      jump\t// in\n    tag_117:\n      pop\n        /* \"contracts/NUTZStaking.sol\":2386:2395  nutzToken */\n      0x02\n      0x00\n      swap1\n      sload\n      swap1\n      0x0100\n      exp\n      swap1\n      div\n      0xffffffffffffffffffffffffffffffffffffffff\n      and\n        /* \"contracts/NUTZStaking.sol\":2386:2404  nutzToken.transfer */\n      0xffffffffffffffffffffffffffffffffffffffff\n      and\n      0xa9059cbb\n        /* \"contracts/NUTZStaking.sol\":2405:2415  msg.sender */\n      caller\n        /* \"contracts/NUTZStaking.sol\":2417:2445  userStake.amount.add(reward) */\n      tag_118\n        /* \"contracts/NUTZStaking.sol\":2438:2444  reward */\n      dup6\n        /* \"contracts/NUTZStaking.sol\":2417:2426  userStake */\n      dup8\n        /* \"contracts/NUTZStaking.sol\":2417:2433  userStake.amount */\n      0x00\n      add\n      sload\n        /* \"contracts/NUTZStaking.sol\":2417:2437  userStake.amount.add */\n      tag_96\n      swap1\n        /* \"contracts/NUTZStaking.sol\":2417:2445  userStake.amount.add(reward) */\n      swap2\n      swap1\n      0xffffffff\n      and\n      jump\t// in\n    tag_118:\n        /* \"contracts/NUTZStaking.sol\":2386:2446  nutzToken.transfer(msg.sender, userStake.amount.add(reward)) */\n      mload(0x40)\n      dup4\n      0xffffffff\n      and\n      0xe0\n      shl\n      dup2\n      mstore\n      0x04\n      add\n      tag_119\n      swap3\n      swap2\n      swap1\n      tag_114\n      jump\t// in\n    tag_119:\n      0x20\n      mload(0x40)\n      dup1\n      dup4\n      sub\n      dup2\n      0x00\n      dup8\n      gas\n      call\n      iszero\n      dup1\n      iszero\n      tag_121\n      jumpi\n      returndatasize\n      0x00\n      dup1\n      returndatacopy\n      revert(0x00, returndatasize)\n    tag_121:\n      pop\n      pop\n      pop\n      pop\n      mload(0x40)\n      returndatasize\n      not(0x1f)\n      0x1f\n      dup3\n      add\n      and\n      dup3\n      add\n      dup1\n      0x40\n      mstore\n      pop\n      dup2\n      add\n      swap1\n      tag_122\n      swap2\n      swap1\n      tag_90\n      jump\t// in\n    tag_122:\n        /* \"contracts/NUTZStaking.sol\":2378:2466  require(nutzToken.transfer(msg.sender, userStake.amount.add(reward)), \"Transfer failed\") */\n      tag_123\n      jumpi\n      mload(0x40)\n      0x08c379a000000000000000000000000000000000000000000000000000000000\n      dup2\n      mstore\n      0x04\n      add\n      tag_124\n      swap1\n      tag_93\n      jump\t// in\n    tag_124:\n      mload(0x40)\n      dup1\n      swap2\n      sub\n      swap1\n      revert\n    tag_123:\n        /* \"contracts/NUTZStaking.sol\":2493:2526  totalStaked.sub(userStake.amount) */\n      tag_125\n        /* \"contracts/NUTZStaking.sol\":2509:2518  userStake */\n      dup4\n        /* \"contracts/NUTZStaking.sol\":2509:2525  userStake.amount */\n      0x00\n      add\n      sload\n        /* \"contracts/NUTZStaking.sol\":2493:2504  totalStaked */\n      sload(0x03)\n        /* \"contracts/NUTZStaking.sol\":2493:2508  totalStaked.sub */\n      tag_126\n      swap1\n        /* \"contracts/NUTZStaking.sol\":2493:2526  totalStaked.sub(userStake.amount) */\n      swap2\n      swap1\n      0xffffffff\n      and\n      jump\t// in\n    tag_125:\n        /* \"contracts/NUTZStaking.sol\":2479:2490  totalStaked */\n      0x03\n        /* \"contracts/NUTZStaking.sol\":2479:2526  totalStaked = totalStaked.sub(userStake.amount) */\n      dup2\n      swap1\n      sstore\n      pop\n        /* \"contracts/NUTZStaking.sol\":2558:2588  totalRewardsMinted.add(reward) */\n      tag_127\n        /* \"contracts/NUTZStaking.sol\":2581:2587  reward */\n      dup3\n        /* \"contracts/NUTZStaking.sol\":2558:2576  totalRewardsMinted */\n      sload(0x04)\n        /* \"contracts/NUTZStaking.sol\":2558:2580  totalRewardsMinted.add */\n      tag_96\n      swap1\n        /* \"contracts/NUTZStaking.sol\":2558:2588  totalRewardsMinted.add(reward) */\n      swap2\n      swap1\n      0xffffffff\n      and\n      jump\t// in\n    tag_127:\n        /* \"contracts/NUTZStaking.sol\":2537:2555  totalRewardsMinted */\n      0x04\n        /* \"contracts/NUTZStaking.sol\":2537:2588  totalRewardsMinted = totalRewardsMinted.add(reward) */\n      dup2\n      swap1\n      sstore\n      pop\n        /* \"contracts/NUTZStaking.sol\":2608:2614  stakes */\n      0x05\n        /* \"contracts/NUTZStaking.sol\":2608:2626  stakes[msg.sender] */\n      0x00\n        /* \"contracts/NUTZStaking.sol\":2615:2625  msg.sender */\n      caller\n        /* \"contracts/NUTZStaking.sol\":2608:2626  stakes[msg.sender] */\n      0xffffffffffffffffffffffffffffffffffffffff\n      and\n      0xffffffffffffffffffffffffffffffffffffffff\n      and\n      dup2\n      mstore\n      0x20\n      add\n      swap1\n      dup2\n      mstore\n      0x20\n      add\n      0x00\n      keccak256\n      0x00\n        /* \"contracts/NUTZStaking.sol\":2601:2626  delete stakes[msg.sender] */\n      dup1\n      dup3\n      add\n      0x00\n      swap1\n      sstore\n      0x01\n      dup3\n      add\n      0x00\n      swap1\n      sstore\n      0x02\n      dup3\n      add\n      0x00\n      swap1\n      sstore\n      pop\n      pop\n        /* \"contracts/NUTZStaking.sol\":2653:2663  msg.sender */\n      caller\n        /* \"contracts/NUTZStaking.sol\":2644:2682  Unstaked(msg.sender, userStake.amount) */\n      0xffffffffffffffffffffffffffffffffffffffff\n      and\n      0x0f5bb82176feb1b5e747e28471aa92156a04d9f3ab9f45f28e2d704232b93f75\n        /* \"contracts/NUTZStaking.sol\":2665:2674  userStake */\n      dup5\n        /* \"contracts/NUTZStaking.sol\":2665:2681  userStake.amount */\n      0x00\n      add\n      sload\n        /* \"contracts/NUTZStaking.sol\":2644:2682  Unstaked(msg.sender, userStake.amount) */\n      mload(0x40)\n      tag_128\n      swap2\n      swap1\n      tag_24\n      jump\t// in\n    tag_128:\n      mload(0x40)\n      dup1\n      swap2\n      sub\n      swap1\n      log2\n        /* \"contracts/NUTZStaking.sol\":2709:2719  msg.sender */\n      caller\n        /* \"contracts/NUTZStaking.sol\":2698:2728  RewardPaid(msg.sender, reward) */\n      0xffffffffffffffffffffffffffffffffffffffff\n      and\n      0xe2403640ba68fed3a2f88b7557551d1993f84b99bb10ff833f0cf8db0c5e0486\n        /* \"contracts/NUTZStaking.sol\":2721:2727  reward */\n      dup4\n        /* \"contracts/NUTZStaking.sol\":2698:2728  RewardPaid(msg.sender, reward) */\n      mload(0x40)\n      tag_129\n      swap2\n      swap1\n      tag_24\n      jump\t// in\n    tag_129:\n      mload(0x40)\n      dup1\n      swap2\n      sub\n      swap1\n      log2\n        /* \"contracts/NUTZStaking.sol\":2744:2768  TokensBurned(burnAmount) */\n      0x6ef4855b666dcc7884561072e4358b28dfe01feb1b7f4dcebc00e62d50394ac7\n        /* \"contracts/NUTZStaking.sol\":2757:2767  burnAmount */\n      dup2\n        /* \"contracts/NUTZStaking.sol\":2744:2768  TokensBurned(burnAmount) */\n      mload(0x40)\n      tag_130\n      swap2\n      swap1\n      tag_24\n      jump\t// in\n    tag_130:\n      mload(0x40)\n      dup1\n      swap2\n      sub\n      swap1\n      log1\n        /* \"contracts/NUTZStaking.sol\":2002:2776  {... */\n      pop\n      pop\n      pop\n        /* \"@openzeppelin/contracts/security/ReentrancyGuard.sol\":2303:2323  _nonReentrantAfter() */\n      tag_131\n        /* \"@openzeppelin/contracts/security/ReentrancyGuard.sol\":2303:2321  _nonReentrantAfter */\n      tag_100\n        /* \"@openzeppelin/contracts/security/ReentrancyGuard.sol\":2303:2323  _nonReentrantAfter() */\n      jump\t// in\n    tag_131:\n        /* \"contracts/NUTZStaking.sol\":1946:2776  function unstakeAndClaimRewards() external nonReentrant {... */\n      jump\t// out\n        /* \"contracts/NUTZStaking.sol\":3147:3491  function calculateReward(address _user) public view returns (uint256) {... */\n    tag_51:\n        /* \"contracts/NUTZStaking.sol\":3208:3215  uint256 */\n      0x00\n        /* \"contracts/NUTZStaking.sol\":3228:3250  Stake memory userStake */\n      dup1\n        /* \"contracts/NUTZStaking.sol\":3253:3259  stakes */\n      0x05\n        /* \"contracts/NUTZStaking.sol\":3253:3266  stakes[_user] */\n      0x00\n        /* \"contracts/NUTZStaking.sol\":3260:3265  _user */\n      dup5\n        /* \"contracts/NUTZStaking.sol\":3253:3266  stakes[_user] */\n      0xffffffffffffffffffffffffffffffffffffffff\n      and\n      0xffffffffffffffffffffffffffffffffffffffff\n      and\n      dup2\n      mstore\n      0x20\n      add\n      swap1\n      dup2\n      mstore\n      0x20\n      add\n      0x00\n      keccak256\n        /* \"contracts/NUTZStaking.sol\":3228:3266  Stake memory userStake = stakes[_user] */\n      mload(0x40)\n      dup1\n      0x60\n      add\n      0x40\n      mstore\n      swap1\n      dup2\n      0x00\n      dup3\n      add\n      sload\n      dup2\n      mstore\n      0x20\n      add\n      0x01\n      dup3\n      add\n      sload\n      dup2\n      mstore\n      0x20\n      add\n      0x02\n      dup3\n      add\n      sload\n      dup2\n      mstore\n      pop\n      pop\n      swap1\n      pop\n        /* \"contracts/NUTZStaking.sol\":3277:3300  uint256 stakingDuration */\n      0x00\n        /* \"contracts/NUTZStaking.sol\":3303:3345  block.timestamp.sub(userStake.stakingTime) */\n      tag_133\n        /* \"contracts/NUTZStaking.sol\":3323:3332  userStake */\n      dup3\n        /* \"contracts/NUTZStaking.sol\":3323:3344  userStake.stakingTime */\n      0x40\n      add\n      mload\n        /* \"contracts/NUTZStaking.sol\":3303:3318  block.timestamp */\n      timestamp\n        /* \"contracts/NUTZStaking.sol\":3303:3322  block.timestamp.sub */\n      tag_126\n      swap1\n        /* \"contracts/NUTZStaking.sol\":3303:3345  block.timestamp.sub(userStake.stakingTime) */\n      swap2\n      swap1\n      0xffffffff\n      and\n      jump\t// in\n    tag_133:\n        /* \"contracts/NUTZStaking.sol\":3277:3345  uint256 stakingDuration = block.timestamp.sub(userStake.stakingTime) */\n      swap1\n      pop\n        /* \"contracts/NUTZStaking.sol\":3356:3370  uint256 reward */\n      0x00\n        /* \"contracts/NUTZStaking.sol\":3373:3459  userStake.amount.mul(userStake.rewardRate).mul(stakingDuration).div(365 days).div(100) */\n      tag_134\n        /* \"contracts/NUTZStaking.sol\":3455:3458  100 */\n      0x64\n        /* \"contracts/NUTZStaking.sol\":3373:3450  userStake.amount.mul(userStake.rewardRate).mul(stakingDuration).div(365 days) */\n      tag_135\n        /* \"contracts/NUTZStaking.sol\":3441:3449  365 days */\n      0x01e13380\n        /* \"contracts/NUTZStaking.sol\":3373:3436  userStake.amount.mul(userStake.rewardRate).mul(stakingDuration) */\n      tag_136\n        /* \"contracts/NUTZStaking.sol\":3420:3435  stakingDuration */\n      dup7\n        /* \"contracts/NUTZStaking.sol\":3373:3415  userStake.amount.mul(userStake.rewardRate) */\n      tag_137\n        /* \"contracts/NUTZStaking.sol\":3394:3403  userStake */\n      dup10\n        /* \"contracts/NUTZStaking.sol\":3394:3414  userStake.rewardRate */\n      0x20\n      add\n      mload\n        /* \"contracts/NUTZStaking.sol\":3373:3382  userStake */\n      dup11\n        /* \"contracts/NUTZStaking.sol\":3373:3389  userStake.amount */\n      0x00\n      add\n      mload\n        /* \"contracts/NUTZStaking.sol\":3373:3393  userStake.amount.mul */\n      tag_111\n      swap1\n        /* \"contracts/NUTZStaking.sol\":3373:3415  userStake.amount.mul(userStake.rewardRate) */\n      swap2\n      swap1\n      0xffffffff\n      and\n      jump\t// in\n    tag_137:\n        /* \"contracts/NUTZStaking.sol\":3373:3419  userStake.amount.mul(userStake.rewardRate).mul */\n      tag_111\n      swap1\n        /* \"contracts/NUTZStaking.sol\":3373:3436  userStake.amount.mul(userStake.rewardRate).mul(stakingDuration) */\n      swap2\n      swap1\n      0xffffffff\n      and\n      jump\t// in\n    tag_136:\n        /* \"contracts/NUTZStaking.sol\":3373:3440  userStake.amount.mul(userStake.rewardRate).mul(stakingDuration).div */\n      tag_112\n      swap1\n        /* \"contracts/NUTZStaking.sol\":3373:3450  userStake.amount.mul(userStake.rewardRate).mul(stakingDuration).div(365 days) */\n      swap2\n      swap1\n      0xffffffff\n      and\n      jump\t// in\n    tag_135:\n        /* \"contracts/NUTZStaking.sol\":3373:3454  userStake.amount.mul(userStake.rewardRate).mul(stakingDuration).div(365 days).div */\n      tag_112\n      swap1\n        /* \"contracts/NUTZStaking.sol\":3373:3459  userStake.amount.mul(userStake.rewardRate).mul(stakingDuration).div(365 days).div(100) */\n      swap2\n      swap1\n      0xffffffff\n      and\n      jump\t// in\n    tag_134:\n        /* \"contracts/NUTZStaking.sol\":3356:3459  uint256 reward = userStake.amount.mul(userStake.rewardRate).mul(stakingDuration).div(365 days).div(100) */\n      swap1\n      pop\n        /* \"contracts/NUTZStaking.sol\":3477:3483  reward */\n      dup1\n        /* \"contracts/NUTZStaking.sol\":3470:3483  return reward */\n      swap4\n      pop\n      pop\n      pop\n      pop\n        /* \"contracts/NUTZStaking.sol\":3147:3491  function calculateReward(address _user) public view returns (uint256) {... */\n      swap2\n      swap1\n      pop\n      jump\t// out\n        /* \"contracts/NUTZStaking.sol\":786:819  uint256 public totalRewardsMinted */\n    tag_54:\n      sload(0x04)\n      dup2\n      jump\t// out\n        /* \"contracts/NUTZStaking.sol\":2784:3139  function getCurrentRewardRate() public view returns (uint256) {... */\n    tag_57:\n        /* \"contracts/NUTZStaking.sol\":2837:2844  uint256 */\n      0x00\n        /* \"contracts/NUTZStaking.sol\":2857:2879  uint256 decreaseAmount */\n      dup1\n        /* \"contracts/NUTZStaking.sol\":2882:2949  totalRewardsMinted.div(TOKENS_PER_DECREASE).mul(MINT_RATE_DECREASE) */\n      tag_139\n        /* \"contracts/NUTZStaking.sol\":615:616  5 */\n      0x05\n        /* \"contracts/NUTZStaking.sol\":2882:2925  totalRewardsMinted.div(TOKENS_PER_DECREASE) */\n      tag_140\n        /* \"contracts/NUTZStaking.sol\":692:711  250000 * (10 ** 18) */\n      0x34f086f3b33b68400000\n        /* \"contracts/NUTZStaking.sol\":2882:2900  totalRewardsMinted */\n      sload(0x04)\n        /* \"contracts/NUTZStaking.sol\":2882:2904  totalRewardsMinted.div */\n      tag_112\n      swap1\n        /* \"contracts/NUTZStaking.sol\":2882:2925  totalRewardsMinted.div(TOKENS_PER_DECREASE) */\n      swap2\n      swap1\n      0xffffffff\n      and\n      jump\t// in\n    tag_140:\n        /* \"contracts/NUTZStaking.sol\":2882:2929  totalRewardsMinted.div(TOKENS_PER_DECREASE).mul */\n      tag_111\n      swap1\n        /* \"contracts/NUTZStaking.sol\":2882:2949  totalRewardsMinted.div(TOKENS_PER_DECREASE).mul(MINT_RATE_DECREASE) */\n      swap2\n      swap1\n      0xffffffff\n      and\n      jump\t// in\n    tag_139:\n        /* \"contracts/NUTZStaking.sol\":2857:2949  uint256 decreaseAmount = totalRewardsMinted.div(TOKENS_PER_DECREASE).mul(MINT_RATE_DECREASE) */\n      swap1\n      pop\n        /* \"contracts/NUTZStaking.sol\":2960:2985  uint256 currentRewardRate */\n      0x00\n        /* \"contracts/NUTZStaking.sol\":3013:3027  decreaseAmount */\n      dup2\n        /* \"contracts/NUTZStaking.sol\":467:469  25 */\n      0x19\n        /* \"contracts/NUTZStaking.sol\":2988:3027  STARTING_ANNUAL_RETURN > decreaseAmount */\n      gt\n        /* \"contracts/NUTZStaking.sol\":2988:3096  STARTING_ANNUAL_RETURN > decreaseAmount ? STARTING_ANNUAL_RETURN.sub(decreaseAmount) : MINIMUM_ANNUAL_RETURN */\n      tag_141\n      jumpi\n        /* \"contracts/NUTZStaking.sol\":541:542  5 */\n      0x05\n        /* \"contracts/NUTZStaking.sol\":2988:3096  STARTING_ANNUAL_RETURN > decreaseAmount ? STARTING_ANNUAL_RETURN.sub(decreaseAmount) : MINIMUM_ANNUAL_RETURN */\n      jump(tag_142)\n    tag_141:\n        /* \"contracts/NUTZStaking.sol\":3030:3072  STARTING_ANNUAL_RETURN.sub(decreaseAmount) */\n      tag_143\n        /* \"contracts/NUTZStaking.sol\":3057:3071  decreaseAmount */\n      dup3\n        /* \"contracts/NUTZStaking.sol\":467:469  25 */\n      0x19\n        /* \"contracts/NUTZStaking.sol\":3030:3056  STARTING_ANNUAL_RETURN.sub */\n      tag_126\n      swap1\n        /* \"contracts/NUTZStaking.sol\":3030:3072  STARTING_ANNUAL_RETURN.sub(decreaseAmount) */\n      swap2\n      swap1\n      0xffffffff\n      and\n      jump\t// in\n    tag_143:\n        /* \"contracts/NUTZStaking.sol\":2988:3096  STARTING_ANNUAL_RETURN > decreaseAmount ? STARTING_ANNUAL_RETURN.sub(decreaseAmount) : MINIMUM_ANNUAL_RETURN */\n    tag_142:\n        /* \"contracts/NUTZStaking.sol\":2960:3096  uint256 currentRewardRate = STARTING_ANNUAL_RETURN > decreaseAmount ? STARTING_ANNUAL_RETURN.sub(decreaseAmount) : MINIMUM_ANNUAL_RETURN */\n      swap1\n      pop\n        /* \"contracts/NUTZStaking.sol\":3114:3131  currentRewardRate */\n      dup1\n        /* \"contracts/NUTZStaking.sol\":3107:3131  return currentRewardRate */\n      swap3\n      pop\n      pop\n      pop\n        /* \"contracts/NUTZStaking.sol\":2784:3139  function getCurrentRewardRate() public view returns (uint256) {... */\n      swap1\n      jump\t// out\n        /* \"contracts/NUTZStaking.sol\":493:542  uint256 public constant MINIMUM_ANNUAL_RETURN = 5 */\n    tag_60:\n        /* \"contracts/NUTZStaking.sol\":541:542  5 */\n      0x05\n        /* \"contracts/NUTZStaking.sol\":493:542  uint256 public constant MINIMUM_ANNUAL_RETURN = 5 */\n      dup2\n      jump\t// out\n        /* \"@openzeppelin/contracts/access/Ownable.sol\":2543:2758  function transferOwnership(address newOwner) public virtual onlyOwner {... */\n    tag_64:\n        /* \"@openzeppelin/contracts/access/Ownable.sol\":1531:1544  _checkOwner() */\n      tag_145\n        /* \"@openzeppelin/contracts/access/Ownable.sol\":1531:1542  _checkOwner */\n      tag_74\n        /* \"@openzeppelin/contracts/access/Ownable.sol\":1531:1544  _checkOwner() */\n      jump\t// in\n    tag_145:\n        /* \"@openzeppelin/contracts/access/Ownable.sol\":2647:2648  0 */\n      0x00\n        /* \"@openzeppelin/contracts/access/Ownable.sol\":2627:2649  newOwner == address(0) */\n      0xffffffffffffffffffffffffffffffffffffffff\n      and\n        /* \"@openzeppelin/contracts/access/Ownable.sol\":2627:2635  newOwner */\n      dup2\n        /* \"@openzeppelin/contracts/access/Ownable.sol\":2627:2649  newOwner == address(0) */\n      0xffffffffffffffffffffffffffffffffffffffff\n      and\n      sub\n        /* \"@openzeppelin/contracts/access/Ownable.sol\":2623:2714  if (newOwner == address(0)) {... */\n      tag_147\n      jumpi\n        /* \"@openzeppelin/contracts/access/Ownable.sol\":2700:2701  0 */\n      0x00\n        /* \"@openzeppelin/contracts/access/Ownable.sol\":2672:2703  OwnableInvalidOwner(address(0)) */\n      mload(0x40)\n      0x1e4fbdf700000000000000000000000000000000000000000000000000000000\n      dup2\n      mstore\n      0x04\n      add\n      tag_148\n      swap2\n      swap1\n      tag_43\n      jump\t// in\n    tag_148:\n      mload(0x40)\n      dup1\n      swap2\n      sub\n      swap1\n      revert\n        /* \"@openzeppelin/contracts/access/Ownable.sol\":2623:2714  if (newOwner == address(0)) {... */\n    tag_147:\n        /* \"@openzeppelin/contracts/access/Ownable.sol\":2723:2751  _transferOwnership(newOwner) */\n      tag_149\n        /* \"@openzeppelin/contracts/access/Ownable.sol\":2742:2750  newOwner */\n      dup2\n        /* \"@openzeppelin/contracts/access/Ownable.sol\":2723:2741  _transferOwnership */\n      tag_77\n        /* \"@openzeppelin/contracts/access/Ownable.sol\":2723:2751  _transferOwnership(newOwner) */\n      jump\t// in\n    tag_149:\n        /* \"@openzeppelin/contracts/access/Ownable.sol\":2543:2758  function transferOwnership(address newOwner) public virtual onlyOwner {... */\n      pop\n      jump\t// out\n        /* \"contracts/NUTZStaking.sol\":388:411  IERC20 public nutzToken */\n    tag_66:\n      0x02\n      0x00\n      swap1\n      sload\n      swap1\n      0x0100\n      exp\n      swap1\n      div\n      0xffffffffffffffffffffffffffffffffffffffff\n      and\n      dup2\n      jump\t// out\n        /* \"contracts/NUTZStaking.sol\":570:616  uint256 public constant MINT_RATE_DECREASE = 5 */\n    tag_70:\n        /* \"contracts/NUTZStaking.sol\":615:616  5 */\n      0x05\n        /* \"contracts/NUTZStaking.sol\":570:616  uint256 public constant MINT_RATE_DECREASE = 5 */\n      dup2\n      jump\t// out\n        /* \"@openzeppelin/contracts/access/Ownable.sol\":1796:1958  function _checkOwner() internal view virtual {... */\n    tag_74:\n        /* \"@openzeppelin/contracts/access/Ownable.sol\":1866:1878  _msgSender() */\n      tag_151\n        /* \"@openzeppelin/contracts/access/Ownable.sol\":1866:1876  _msgSender */\n      tag_152\n        /* \"@openzeppelin/contracts/access/Ownable.sol\":1866:1878  _msgSender() */\n      jump\t// in\n    tag_151:\n        /* \"@openzeppelin/contracts/access/Ownable.sol\":1855:1878  owner() != _msgSender() */\n      0xffffffffffffffffffffffffffffffffffffffff\n      and\n        /* \"@openzeppelin/contracts/access/Ownable.sol\":1855:1862  owner() */\n      tag_153\n        /* \"@openzeppelin/contracts/access/Ownable.sol\":1855:1860  owner */\n      tag_41\n        /* \"@openzeppelin/contracts/access/Ownable.sol\":1855:1862  owner() */\n      jump\t// in\n    tag_153:\n        /* \"@openzeppelin/contracts/access/Ownable.sol\":1855:1878  owner() != _msgSender() */\n      0xffffffffffffffffffffffffffffffffffffffff\n      and\n      eq\n        /* \"@openzeppelin/contracts/access/Ownable.sol\":1851:1952  if (owner() != _msgSender()) {... */\n      tag_154\n      jumpi\n        /* \"@openzeppelin/contracts/access/Ownable.sol\":1928:1940  _msgSender() */\n      tag_155\n        /* \"@openzeppelin/contracts/access/Ownable.sol\":1928:1938  _msgSender */\n      tag_152\n        /* \"@openzeppelin/contracts/access/Ownable.sol\":1928:1940  _msgSender() */\n      jump\t// in\n    tag_155:\n        /* \"@openzeppelin/contracts/access/Ownable.sol\":1901:1941  OwnableUnauthorizedAccount(_msgSender()) */\n      mload(0x40)\n      0x118cdaa700000000000000000000000000000000000000000000000000000000\n      dup2\n      mstore\n      0x04\n      add\n      tag_156\n      swap2\n      swap1\n      tag_43\n      jump\t// in\n    tag_156:\n      mload(0x40)\n      dup1\n      swap2\n      sub\n      swap1\n      revert\n        /* \"@openzeppelin/contracts/access/Ownable.sol\":1851:1952  if (owner() != _msgSender()) {... */\n    tag_154:\n        /* \"@openzeppelin/contracts/access/Ownable.sol\":1796:1958  function _checkOwner() internal view virtual {... */\n      jump\t// out\n        /* \"@openzeppelin/contracts/access/Ownable.sol\":2912:3099  function _transferOwnership(address newOwner) internal virtual {... */\n    tag_77:\n        /* \"@openzeppelin/contracts/access/Ownable.sol\":2985:3001  address oldOwner */\n      0x00\n        /* \"@openzeppelin/contracts/access/Ownable.sol\":3004:3010  _owner */\n      0x01\n      0x00\n      swap1\n      sload\n      swap1\n      0x0100\n      exp\n      swap1\n      div\n      0xffffffffffffffffffffffffffffffffffffffff\n      and\n        /* \"@openzeppelin/contracts/access/Ownable.sol\":2985:3010  address oldOwner = _owner */\n      swap1\n      pop\n        /* \"@openzeppelin/contracts/access/Ownable.sol\":3029:3037  newOwner */\n      dup2\n        /* \"@openzeppelin/contracts/access/Ownable.sol\":3020:3026  _owner */\n      0x01\n      0x00\n        /* \"@openzeppelin/contracts/access/Ownable.sol\":3020:3037  _owner = newOwner */\n      0x0100\n      exp\n      dup2\n      sload\n      dup2\n      0xffffffffffffffffffffffffffffffffffffffff\n      mul\n      not\n      and\n      swap1\n      dup4\n      0xffffffffffffffffffffffffffffffffffffffff\n      and\n      mul\n      or\n      swap1\n      sstore\n      pop\n        /* \"@openzeppelin/contracts/access/Ownable.sol\":3083:3091  newOwner */\n      dup2\n        /* \"@openzeppelin/contracts/access/Ownable.sol\":3052:3092  OwnershipTransferred(oldOwner, newOwner) */\n      0xffffffffffffffffffffffffffffffffffffffff\n      and\n        /* \"@openzeppelin/contracts/access/Ownable.sol\":3073:3081  oldOwner */\n      dup2\n        /* \"@openzeppelin/contracts/access/Ownable.sol\":3052:3092  OwnershipTransferred(oldOwner, newOwner) */\n      0xffffffffffffffffffffffffffffffffffffffff\n      and\n      0x8be0079c531659141344cd1fd0a4f28419497f9722a3daafe3b4186f6b6457e0\n      mload(0x40)\n      mload(0x40)\n      dup1\n      swap2\n      sub\n      swap1\n      log3\n        /* \"@openzeppelin/contracts/access/Ownable.sol\":2975:3099  {... */\n      pop\n        /* \"@openzeppelin/contracts/access/Ownable.sol\":2912:3099  function _transferOwnership(address newOwner) internal virtual {... */\n      pop\n      jump\t// out\n        /* \"@openzeppelin/contracts/security/ReentrancyGuard.sol\":2336:2623  function _nonReentrantBefore() private {... */\n    tag_80:\n        /* \"@openzeppelin/contracts/security/ReentrancyGuard.sol\":1759:1760  2 */\n      0x02\n        /* \"@openzeppelin/contracts/security/ReentrancyGuard.sol\":2468:2475  _status */\n      sload(0x00)\n        /* \"@openzeppelin/contracts/security/ReentrancyGuard.sol\":2468:2487  _status != _ENTERED */\n      sub\n        /* \"@openzeppelin/contracts/security/ReentrancyGuard.sol\":2460:2523  require(_status != _ENTERED, \"ReentrancyGuard: reentrant call\") */\n      tag_159\n      jumpi\n      mload(0x40)\n      0x08c379a000000000000000000000000000000000000000000000000000000000\n      dup2\n      mstore\n      0x04\n      add\n      tag_160\n      swap1\n      tag_161\n      jump\t// in\n    tag_160:\n      mload(0x40)\n      dup1\n      swap2\n      sub\n      swap1\n      revert\n    tag_159:\n        /* \"@openzeppelin/contracts/security/ReentrancyGuard.sol\":1759:1760  2 */\n      0x02\n        /* \"@openzeppelin/contracts/security/ReentrancyGuard.sol\":2598:2605  _status */\n      0x00\n        /* \"@openzeppelin/contracts/security/ReentrancyGuard.sol\":2598:2616  _status = _ENTERED */\n      dup2\n      swap1\n      sstore\n      pop\n        /* \"@openzeppelin/contracts/security/ReentrancyGuard.sol\":2336:2623  function _nonReentrantBefore() private {... */\n      jump\t// out\n        /* \"@openzeppelin/contracts/utils/math/SafeMath.sol\":2755:2851  function add(uint256 a, uint256 b) internal pure returns (uint256) {... */\n    tag_96:\n        /* \"@openzeppelin/contracts/utils/math/SafeMath.sol\":2813:2820  uint256 */\n      0x00\n        /* \"@openzeppelin/contracts/utils/math/SafeMath.sol\":2843:2844  b */\n      dup2\n        /* \"@openzeppelin/contracts/utils/math/SafeMath.sol\":2839:2840  a */\n      dup4\n        /* \"@openzeppelin/contracts/utils/math/SafeMath.sol\":2839:2844  a + b */\n      tag_163\n      swap2\n      swap1\n      tag_164\n      jump\t// in\n    tag_163:\n        /* \"@openzeppelin/contracts/utils/math/SafeMath.sol\":2832:2844  return a + b */\n      swap1\n      pop\n        /* \"@openzeppelin/contracts/utils/math/SafeMath.sol\":2755:2851  function add(uint256 a, uint256 b) internal pure returns (uint256) {... */\n      swap3\n      swap2\n      pop\n      pop\n      jump\t// out\n        /* \"@openzeppelin/contracts/security/ReentrancyGuard.sol\":2629:2838  function _nonReentrantAfter() private {... */\n    tag_100:\n        /* \"@openzeppelin/contracts/security/ReentrancyGuard.sol\":1716:1717  1 */\n      0x01\n        /* \"@openzeppelin/contracts/security/ReentrancyGuard.sol\":2809:2816  _status */\n      0x00\n        /* \"@openzeppelin/contracts/security/ReentrancyGuard.sol\":2809:2831  _status = _NOT_ENTERED */\n      dup2\n      swap1\n      sstore\n      pop\n        /* \"@openzeppelin/contracts/security/ReentrancyGuard.sol\":2629:2838  function _nonReentrantAfter() private {... */\n      jump\t// out\n        /* \"@openzeppelin/contracts/utils/math/SafeMath.sol\":3465:3561  function mul(uint256 a, uint256 b) internal pure returns (uint256) {... */\n    tag_111:\n        /* \"@openzeppelin/contracts/utils/math/SafeMath.sol\":3523:3530  uint256 */\n      0x00\n        /* \"@openzeppelin/contracts/utils/math/SafeMath.sol\":3553:3554  b */\n      dup2\n        /* \"@openzeppelin/contracts/utils/math/SafeMath.sol\":3549:3550  a */\n      dup4\n        /* \"@openzeppelin/contracts/utils/math/SafeMath.sol\":3549:3554  a * b */\n      tag_167\n      swap2\n      swap1\n      tag_168\n      jump\t// in\n    tag_167:\n        /* \"@openzeppelin/contracts/utils/math/SafeMath.sol\":3542:3554  return a * b */\n      swap1\n      pop\n        /* \"@openzeppelin/contracts/utils/math/SafeMath.sol\":3465:3561  function mul(uint256 a, uint256 b) internal pure returns (uint256) {... */\n      swap3\n      swap2\n      pop\n      pop\n      jump\t// out\n        /* \"@openzeppelin/contracts/utils/math/SafeMath.sol\":3850:3946  function div(uint256 a, uint256 b) internal pure returns (uint256) {... */\n    tag_112:\n        /* \"@openzeppelin/contracts/utils/math/SafeMath.sol\":3908:3915  uint256 */\n      0x00\n        /* \"@openzeppelin/contracts/utils/math/SafeMath.sol\":3938:3939  b */\n      dup2\n        /* \"@openzeppelin/contracts/utils/math/SafeMath.sol\":3934:3935  a */\n      dup4\n        /* \"@openzeppelin/contracts/utils/math/SafeMath.sol\":3934:3939  a / b */\n      tag_170\n      swap2\n      swap1\n      tag_171\n      jump\t// in\n    tag_170:\n        /* \"@openzeppelin/contracts/utils/math/SafeMath.sol\":3927:3939  return a / b */\n      swap1\n      pop\n        /* \"@openzeppelin/contracts/utils/math/SafeMath.sol\":3850:3946  function div(uint256 a, uint256 b) internal pure returns (uint256) {... */\n      swap3\n      swap2\n      pop\n      pop\n      jump\t// out\n        /* \"@openzeppelin/contracts/utils/math/SafeMath.sol\":3122:3218  function sub(uint256 a, uint256 b) internal pure returns (uint256) {... */\n    tag_126:\n        /* \"@openzeppelin/contracts/utils/math/SafeMath.sol\":3180:3187  uint256 */\n      0x00\n        /* \"@openzeppelin/contracts/utils/math/SafeMath.sol\":3210:3211  b */\n      dup2\n        /* \"@openzeppelin/contracts/utils/math/SafeMath.sol\":3206:3207  a */\n      dup4\n        /* \"@openzeppelin/contracts/utils/math/SafeMath.sol\":3206:3211  a - b */\n      tag_173\n      swap2\n      swap1\n      tag_174\n      jump\t// in\n    tag_173:\n        /* \"@openzeppelin/contracts/utils/math/SafeMath.sol\":3199:3211  return a - b */\n      swap1\n      pop\n        /* \"@openzeppelin/contracts/utils/math/SafeMath.sol\":3122:3218  function sub(uint256 a, uint256 b) internal pure returns (uint256) {... */\n      swap3\n      swap2\n      pop\n      pop\n      jump\t// out\n        /* \"@openzeppelin/contracts/utils/Context.sol\":656:752  function _msgSender() internal view virtual returns (address) {... */\n    tag_152:\n        /* \"@openzeppelin/contracts/utils/Context.sol\":709:716  address */\n      0x00\n        /* \"@openzeppelin/contracts/utils/Context.sol\":735:745  msg.sender */\n      caller\n        /* \"@openzeppelin/contracts/utils/Context.sol\":728:745  return msg.sender */\n      swap1\n      pop\n        /* \"@openzeppelin/contracts/utils/Context.sol\":656:752  function _msgSender() internal view virtual returns (address) {... */\n      swap1\n      jump\t// out\n        /* \"#utility.yul\":7:84   */\n    tag_176:\n        /* \"#utility.yul\":44:51   */\n      0x00\n        /* \"#utility.yul\":73:78   */\n      dup2\n        /* \"#utility.yul\":62:78   */\n      swap1\n      pop\n        /* \"#utility.yul\":7:84   */\n      swap2\n      swap1\n      pop\n      jump\t// out\n        /* \"#utility.yul\":90:208   */\n    tag_177:\n        /* \"#utility.yul\":177:201   */\n      tag_210\n        /* \"#utility.yul\":195:200   */\n      dup2\n        /* \"#utility.yul\":177:201   */\n      tag_176\n      jump\t// in\n    tag_210:\n        /* \"#utility.yul\":172:175   */\n      dup3\n        /* \"#utility.yul\":165:202   */\n      mstore\n        /* \"#utility.yul\":90:208   */\n      pop\n      pop\n      jump\t// out\n        /* \"#utility.yul\":214:436   */\n    tag_24:\n        /* \"#utility.yul\":307:311   */\n      0x00\n        /* \"#utility.yul\":345:347   */\n      0x20\n        /* \"#utility.yul\":334:343   */\n      dup3\n        /* \"#utility.yul\":330:348   */\n      add\n        /* \"#utility.yul\":322:348   */\n      swap1\n      pop\n        /* \"#utility.yul\":358:429   */\n      tag_212\n        /* \"#utility.yul\":426:427   */\n      0x00\n        /* \"#utility.yul\":415:424   */\n      dup4\n        /* \"#utility.yul\":411:428   */\n      add\n        /* \"#utility.yul\":402:408   */\n      dup5\n        /* \"#utility.yul\":358:429   */\n      tag_177\n      jump\t// in\n    tag_212:\n        /* \"#utility.yul\":214:436   */\n      swap3\n      swap2\n      pop\n      pop\n      jump\t// out\n        /* \"#utility.yul\":523:640   */\n    tag_179:\n        /* \"#utility.yul\":632:633   */\n      0x00\n        /* \"#utility.yul\":629:630   */\n      dup1\n        /* \"#utility.yul\":622:634   */\n      revert\n        /* \"#utility.yul\":769:895   */\n    tag_181:\n        /* \"#utility.yul\":806:813   */\n      0x00\n        /* \"#utility.yul\":846:888   */\n      0xffffffffffffffffffffffffffffffffffffffff\n        /* \"#utility.yul\":839:844   */\n      dup3\n        /* \"#utility.yul\":835:889   */\n      and\n        /* \"#utility.yul\":824:889   */\n      swap1\n      pop\n        /* \"#utility.yul\":769:895   */\n      swap2\n      swap1\n      pop\n      jump\t// out\n        /* \"#utility.yul\":901:997   */\n    tag_182:\n        /* \"#utility.yul\":938:945   */\n      0x00\n        /* \"#utility.yul\":967:991   */\n      tag_218\n        /* \"#utility.yul\":985:990   */\n      dup3\n        /* \"#utility.yul\":967:991   */\n      tag_181\n      jump\t// in\n    tag_218:\n        /* \"#utility.yul\":956:991   */\n      swap1\n      pop\n        /* \"#utility.yul\":901:997   */\n      swap2\n      swap1\n      pop\n      jump\t// out\n        /* \"#utility.yul\":1003:1125   */\n    tag_183:\n        /* \"#utility.yul\":1076:1100   */\n      tag_220\n        /* \"#utility.yul\":1094:1099   */\n      dup2\n        /* \"#utility.yul\":1076:1100   */\n      tag_182\n      jump\t// in\n    tag_220:\n        /* \"#utility.yul\":1069:1074   */\n      dup2\n        /* \"#utility.yul\":1066:1101   */\n      eq\n        /* \"#utility.yul\":1056:1119   */\n      tag_221\n      jumpi\n        /* \"#utility.yul\":1115:1116   */\n      0x00\n        /* \"#utility.yul\":1112:1113   */\n      dup1\n        /* \"#utility.yul\":1105:1117   */\n      revert\n        /* \"#utility.yul\":1056:1119   */\n    tag_221:\n        /* \"#utility.yul\":1003:1125   */\n      pop\n      jump\t// out\n        /* \"#utility.yul\":1131:1270   */\n    tag_184:\n        /* \"#utility.yul\":1177:1182   */\n      0x00\n        /* \"#utility.yul\":1215:1221   */\n      dup2\n        /* \"#utility.yul\":1202:1222   */\n      calldataload\n        /* \"#utility.yul\":1193:1222   */\n      swap1\n      pop\n        /* \"#utility.yul\":1231:1264   */\n      tag_223\n        /* \"#utility.yul\":1258:1263   */\n      dup2\n        /* \"#utility.yul\":1231:1264   */\n      tag_183\n      jump\t// in\n    tag_223:\n        /* \"#utility.yul\":1131:1270   */\n      swap3\n      swap2\n      pop\n      pop\n      jump\t// out\n        /* \"#utility.yul\":1276:1605   */\n    tag_27:\n        /* \"#utility.yul\":1335:1341   */\n      0x00\n        /* \"#utility.yul\":1384:1386   */\n      0x20\n        /* \"#utility.yul\":1372:1381   */\n      dup3\n        /* \"#utility.yul\":1363:1370   */\n      dup5\n        /* \"#utility.yul\":1359:1382   */\n      sub\n        /* \"#utility.yul\":1355:1387   */\n      slt\n        /* \"#utility.yul\":1352:1471   */\n      iszero\n      tag_225\n      jumpi\n        /* \"#utility.yul\":1390:1469   */\n      tag_226\n      tag_179\n      jump\t// in\n    tag_226:\n        /* \"#utility.yul\":1352:1471   */\n    tag_225:\n        /* \"#utility.yul\":1510:1511   */\n      0x00\n        /* \"#utility.yul\":1535:1588   */\n      tag_227\n        /* \"#utility.yul\":1580:1587   */\n      dup5\n        /* \"#utility.yul\":1571:1577   */\n      dup3\n        /* \"#utility.yul\":1560:1569   */\n      dup6\n        /* \"#utility.yul\":1556:1578   */\n      add\n        /* \"#utility.yul\":1535:1588   */\n      tag_184\n      jump\t// in\n    tag_227:\n        /* \"#utility.yul\":1525:1588   */\n      swap2\n      pop\n        /* \"#utility.yul\":1481:1598   */\n      pop\n        /* \"#utility.yul\":1276:1605   */\n      swap3\n      swap2\n      pop\n      pop\n      jump\t// out\n        /* \"#utility.yul\":1611:2053   */\n    tag_30:\n        /* \"#utility.yul\":1760:1764   */\n      0x00\n        /* \"#utility.yul\":1798:1800   */\n      0x60\n        /* \"#utility.yul\":1787:1796   */\n      dup3\n        /* \"#utility.yul\":1783:1801   */\n      add\n        /* \"#utility.yul\":1775:1801   */\n      swap1\n      pop\n        /* \"#utility.yul\":1811:1882   */\n      tag_229\n        /* \"#utility.yul\":1879:1880   */\n      0x00\n        /* \"#utility.yul\":1868:1877   */\n      dup4\n        /* \"#utility.yul\":1864:1881   */\n      add\n        /* \"#utility.yul\":1855:1861   */\n      dup7\n        /* \"#utility.yul\":1811:1882   */\n      tag_177\n      jump\t// in\n    tag_229:\n        /* \"#utility.yul\":1892:1964   */\n      tag_230\n        /* \"#utility.yul\":1960:1962   */\n      0x20\n        /* \"#utility.yul\":1949:1958   */\n      dup4\n        /* \"#utility.yul\":1945:1963   */\n      add\n        /* \"#utility.yul\":1936:1942   */\n      dup6\n        /* \"#utility.yul\":1892:1964   */\n      tag_177\n      jump\t// in\n    tag_230:\n        /* \"#utility.yul\":1974:2046   */\n      tag_231\n        /* \"#utility.yul\":2042:2044   */\n      0x40\n        /* \"#utility.yul\":2031:2040   */\n      dup4\n        /* \"#utility.yul\":2027:2045   */\n      add\n        /* \"#utility.yul\":2018:2024   */\n      dup5\n        /* \"#utility.yul\":1974:2046   */\n      tag_177\n      jump\t// in\n    tag_231:\n        /* \"#utility.yul\":1611:2053   */\n      swap5\n      swap4\n      pop\n      pop\n      pop\n      pop\n      jump\t// out\n        /* \"#utility.yul\":2059:2181   */\n    tag_185:\n        /* \"#utility.yul\":2132:2156   */\n      tag_233\n        /* \"#utility.yul\":2150:2155   */\n      dup2\n        /* \"#utility.yul\":2132:2156   */\n      tag_176\n      jump\t// in\n    tag_233:\n        /* \"#utility.yul\":2125:2130   */\n      dup2\n        /* \"#utility.yul\":2122:2157   */\n      eq\n        /* \"#utility.yul\":2112:2175   */\n      tag_234\n      jumpi\n        /* \"#utility.yul\":2171:2172   */\n      0x00\n        /* \"#utility.yul\":2168:2169   */\n      dup1\n        /* \"#utility.yul\":2161:2173   */\n      revert\n        /* \"#utility.yul\":2112:2175   */\n    tag_234:\n        /* \"#utility.yul\":2059:2181   */\n      pop\n      jump\t// out\n        /* \"#utility.yul\":2187:2326   */\n    tag_186:\n        /* \"#utility.yul\":2233:2238   */\n      0x00\n        /* \"#utility.yul\":2271:2277   */\n      dup2\n        /* \"#utility.yul\":2258:2278   */\n      calldataload\n        /* \"#utility.yul\":2249:2278   */\n      swap1\n      pop\n        /* \"#utility.yul\":2287:2320   */\n      tag_236\n        /* \"#utility.yul\":2314:2319   */\n      dup2\n        /* \"#utility.yul\":2287:2320   */\n      tag_185\n      jump\t// in\n    tag_236:\n        /* \"#utility.yul\":2187:2326   */\n      swap3\n      swap2\n      pop\n      pop\n      jump\t// out\n        /* \"#utility.yul\":2332:2661   */\n    tag_35:\n        /* \"#utility.yul\":2391:2397   */\n      0x00\n        /* \"#utility.yul\":2440:2442   */\n      0x20\n        /* \"#utility.yul\":2428:2437   */\n      dup3\n        /* \"#utility.yul\":2419:2426   */\n      dup5\n        /* \"#utility.yul\":2415:2438   */\n      sub\n        /* \"#utility.yul\":2411:2443   */\n      slt\n        /* \"#utility.yul\":2408:2527   */\n      iszero\n      tag_238\n      jumpi\n        /* \"#utility.yul\":2446:2525   */\n      tag_239\n      tag_179\n      jump\t// in\n    tag_239:\n        /* \"#utility.yul\":2408:2527   */\n    tag_238:\n        /* \"#utility.yul\":2566:2567   */\n      0x00\n        /* \"#utility.yul\":2591:2644   */\n      tag_240\n        /* \"#utility.yul\":2636:2643   */\n      dup5\n        /* \"#utility.yul\":2627:2633   */\n      dup3\n        /* \"#utility.yul\":2616:2625   */\n      dup6\n        /* \"#utility.yul\":2612:2634   */\n      add\n        /* \"#utility.yul\":2591:2644   */\n      tag_186\n      jump\t// in\n    tag_240:\n        /* \"#utility.yul\":2581:2644   */\n      swap2\n      pop\n        /* \"#utility.yul\":2537:2654   */\n      pop\n        /* \"#utility.yul\":2332:2661   */\n      swap3\n      swap2\n      pop\n      pop\n      jump\t// out\n        /* \"#utility.yul\":2667:2785   */\n    tag_187:\n        /* \"#utility.yul\":2754:2778   */\n      tag_242\n        /* \"#utility.yul\":2772:2777   */\n      dup2\n        /* \"#utility.yul\":2754:2778   */\n      tag_182\n      jump\t// in\n    tag_242:\n        /* \"#utility.yul\":2749:2752   */\n      dup3\n        /* \"#utility.yul\":2742:2779   */\n      mstore\n        /* \"#utility.yul\":2667:2785   */\n      pop\n      pop\n      jump\t// out\n        /* \"#utility.yul\":2791:3013   */\n    tag_43:\n        /* \"#utility.yul\":2884:2888   */\n      0x00\n        /* \"#utility.yul\":2922:2924   */\n      0x20\n        /* \"#utility.yul\":2911:2920   */\n      dup3\n        /* \"#utility.yul\":2907:2925   */\n      add\n        /* \"#utility.yul\":2899:2925   */\n      swap1\n      pop\n        /* \"#utility.yul\":2935:3006   */\n      tag_244\n        /* \"#utility.yul\":3003:3004   */\n      0x00\n        /* \"#utility.yul\":2992:3001   */\n      dup4\n        /* \"#utility.yul\":2988:3005   */\n      add\n        /* \"#utility.yul\":2979:2985   */\n      dup5\n        /* \"#utility.yul\":2935:3006   */\n      tag_187\n      jump\t// in\n    tag_244:\n        /* \"#utility.yul\":2791:3013   */\n      swap3\n      swap2\n      pop\n      pop\n      jump\t// out\n        /* \"#utility.yul\":3019:3079   */\n    tag_188:\n        /* \"#utility.yul\":3047:3050   */\n      0x00\n        /* \"#utility.yul\":3068:3073   */\n      dup2\n        /* \"#utility.yul\":3061:3073   */\n      swap1\n      pop\n        /* \"#utility.yul\":3019:3079   */\n      swap2\n      swap1\n      pop\n      jump\t// out\n        /* \"#utility.yul\":3085:3227   */\n    tag_189:\n        /* \"#utility.yul\":3135:3144   */\n      0x00\n        /* \"#utility.yul\":3168:3221   */\n      tag_247\n        /* \"#utility.yul\":3186:3220   */\n      tag_248\n        /* \"#utility.yul\":3195:3219   */\n      tag_249\n        /* \"#utility.yul\":3213:3218   */\n      dup5\n        /* \"#utility.yul\":3195:3219   */\n      tag_181\n      jump\t// in\n    tag_249:\n        /* \"#utility.yul\":3186:3220   */\n      tag_188\n      jump\t// in\n    tag_248:\n        /* \"#utility.yul\":3168:3221   */\n      tag_181\n      jump\t// in\n    tag_247:\n        /* \"#utility.yul\":3155:3221   */\n      swap1\n      pop\n        /* \"#utility.yul\":3085:3227   */\n      swap2\n      swap1\n      pop\n      jump\t// out\n        /* \"#utility.yul\":3233:3359   */\n    tag_190:\n        /* \"#utility.yul\":3283:3292   */\n      0x00\n        /* \"#utility.yul\":3316:3353   */\n      tag_251\n        /* \"#utility.yul\":3347:3352   */\n      dup3\n        /* \"#utility.yul\":3316:3353   */\n      tag_189\n      jump\t// in\n    tag_251:\n        /* \"#utility.yul\":3303:3353   */\n      swap1\n      pop\n        /* \"#utility.yul\":3233:3359   */\n      swap2\n      swap1\n      pop\n      jump\t// out\n        /* \"#utility.yul\":3365:3505   */\n    tag_191:\n        /* \"#utility.yul\":3429:3438   */\n      0x00\n        /* \"#utility.yul\":3462:3499   */\n      tag_253\n        /* \"#utility.yul\":3493:3498   */\n      dup3\n        /* \"#utility.yul\":3462:3499   */\n      tag_190\n      jump\t// in\n    tag_253:\n        /* \"#utility.yul\":3449:3499   */\n      swap1\n      pop\n        /* \"#utility.yul\":3365:3505   */\n      swap2\n      swap1\n      pop\n      jump\t// out\n        /* \"#utility.yul\":3511:3670   */\n    tag_192:\n        /* \"#utility.yul\":3612:3663   */\n      tag_255\n        /* \"#utility.yul\":3657:3662   */\n      dup2\n        /* \"#utility.yul\":3612:3663   */\n      tag_191\n      jump\t// in\n    tag_255:\n        /* \"#utility.yul\":3607:3610   */\n      dup3\n        /* \"#utility.yul\":3600:3664   */\n      mstore\n        /* \"#utility.yul\":3511:3670   */\n      pop\n      pop\n      jump\t// out\n        /* \"#utility.yul\":3676:3926   */\n    tag_68:\n        /* \"#utility.yul\":3783:3787   */\n      0x00\n        /* \"#utility.yul\":3821:3823   */\n      0x20\n        /* \"#utility.yul\":3810:3819   */\n      dup3\n        /* \"#utility.yul\":3806:3824   */\n      add\n        /* \"#utility.yul\":3798:3824   */\n      swap1\n      pop\n        /* \"#utility.yul\":3834:3919   */\n      tag_257\n        /* \"#utility.yul\":3916:3917   */\n      0x00\n        /* \"#utility.yul\":3905:3914   */\n      dup4\n        /* \"#utility.yul\":3901:3918   */\n      add\n        /* \"#utility.yul\":3892:3898   */\n      dup5\n        /* \"#utility.yul\":3834:3919   */\n      tag_192\n      jump\t// in\n    tag_257:\n        /* \"#utility.yul\":3676:3926   */\n      swap3\n      swap2\n      pop\n      pop\n      jump\t// out\n        /* \"#utility.yul\":3932:4101   */\n    tag_193:\n        /* \"#utility.yul\":4016:4027   */\n      0x00\n        /* \"#utility.yul\":4050:4056   */\n      dup3\n        /* \"#utility.yul\":4045:4048   */\n      dup3\n        /* \"#utility.yul\":4038:4057   */\n      mstore\n        /* \"#utility.yul\":4090:4094   */\n      0x20\n        /* \"#utility.yul\":4085:4088   */\n      dup3\n        /* \"#utility.yul\":4081:4095   */\n      add\n        /* \"#utility.yul\":4066:4095   */\n      swap1\n      pop\n        /* \"#utility.yul\":3932:4101   */\n      swap3\n      swap2\n      pop\n      pop\n      jump\t// out\n        /* \"#utility.yul\":4107:4278   */\n    tag_194:\n        /* \"#utility.yul\":4247:4270   */\n      0x43616e6e6f74207374616b65203020746f6b656e730000000000000000000000\n        /* \"#utility.yul\":4243:4244   */\n      0x00\n        /* \"#utility.yul\":4235:4241   */\n      dup3\n        /* \"#utility.yul\":4231:4245   */\n      add\n        /* \"#utility.yul\":4224:4271   */\n      mstore\n        /* \"#utility.yul\":4107:4278   */\n      pop\n      jump\t// out\n        /* \"#utility.yul\":4284:4650   */\n    tag_195:\n        /* \"#utility.yul\":4426:4429   */\n      0x00\n        /* \"#utility.yul\":4447:4514   */\n      tag_261\n        /* \"#utility.yul\":4511:4513   */\n      0x15\n        /* \"#utility.yul\":4506:4509   */\n      dup4\n        /* \"#utility.yul\":4447:4514   */\n      tag_193\n      jump\t// in\n    tag_261:\n        /* \"#utility.yul\":4440:4514   */\n      swap2\n      pop\n        /* \"#utility.yul\":4523:4616   */\n      tag_262\n        /* \"#utility.yul\":4612:4615   */\n      dup3\n        /* \"#utility.yul\":4523:4616   */\n      tag_194\n      jump\t// in\n    tag_262:\n        /* \"#utility.yul\":4641:4643   */\n      0x20\n        /* \"#utility.yul\":4636:4639   */\n      dup3\n        /* \"#utility.yul\":4632:4644   */\n      add\n        /* \"#utility.yul\":4625:4644   */\n      swap1\n      pop\n        /* \"#utility.yul\":4284:4650   */\n      swap2\n      swap1\n      pop\n      jump\t// out\n        /* \"#utility.yul\":4656:5075   */\n    tag_84:\n        /* \"#utility.yul\":4822:4826   */\n      0x00\n        /* \"#utility.yul\":4860:4862   */\n      0x20\n        /* \"#utility.yul\":4849:4858   */\n      dup3\n        /* \"#utility.yul\":4845:4863   */\n      add\n        /* \"#utility.yul\":4837:4863   */\n      swap1\n      pop\n        /* \"#utility.yul\":4909:4918   */\n      dup2\n        /* \"#utility.yul\":4903:4907   */\n      dup2\n        /* \"#utility.yul\":4899:4919   */\n      sub\n        /* \"#utility.yul\":4895:4896   */\n      0x00\n        /* \"#utility.yul\":4884:4893   */\n      dup4\n        /* \"#utility.yul\":4880:4897   */\n      add\n        /* \"#utility.yul\":4873:4920   */\n      mstore\n        /* \"#utility.yul\":4937:5068   */\n      tag_264\n        /* \"#utility.yul\":5063:5067   */\n      dup2\n        /* \"#utility.yul\":4937:5068   */\n      tag_195\n      jump\t// in\n    tag_264:\n        /* \"#utility.yul\":4929:5068   */\n      swap1\n      pop\n        /* \"#utility.yul\":4656:5075   */\n      swap2\n      swap1\n      pop\n      jump\t// out\n        /* \"#utility.yul\":5081:5523   */\n    tag_86:\n        /* \"#utility.yul\":5230:5234   */\n      0x00\n        /* \"#utility.yul\":5268:5270   */\n      0x60\n        /* \"#utility.yul\":5257:5266   */\n      dup3\n        /* \"#utility.yul\":5253:5271   */\n      add\n        /* \"#utility.yul\":5245:5271   */\n      swap1\n      pop\n        /* \"#utility.yul\":5281:5352   */\n      tag_266\n        /* \"#utility.yul\":5349:5350   */\n      0x00\n        /* \"#utility.yul\":5338:5347   */\n      dup4\n        /* \"#utility.yul\":5334:5351   */\n      add\n        /* \"#utility.yul\":5325:5331   */\n      dup7\n        /* \"#utility.yul\":5281:5352   */\n      tag_187\n      jump\t// in\n    tag_266:\n        /* \"#utility.yul\":5362:5434   */\n      tag_267\n        /* \"#utility.yul\":5430:5432   */\n      0x20\n        /* \"#utility.yul\":5419:5428   */\n      dup4\n        /* \"#utility.yul\":5415:5433   */\n      add\n        /* \"#utility.yul\":5406:5412   */\n      dup6\n        /* \"#utility.yul\":5362:5434   */\n      tag_187\n      jump\t// in\n    tag_267:\n        /* \"#utility.yul\":5444:5516   */\n      tag_268\n        /* \"#utility.yul\":5512:5514   */\n      0x40\n        /* \"#utility.yul\":5501:5510   */\n      dup4\n        /* \"#utility.yul\":5497:5515   */\n      add\n        /* \"#utility.yul\":5488:5494   */\n      dup5\n        /* \"#utility.yul\":5444:5516   */\n      tag_177\n      jump\t// in\n    tag_268:\n        /* \"#utility.yul\":5081:5523   */\n      swap5\n      swap4\n      pop\n      pop\n      pop\n      pop\n      jump\t// out\n        /* \"#utility.yul\":5529:5619   */\n    tag_196:\n        /* \"#utility.yul\":5563:5570   */\n      0x00\n        /* \"#utility.yul\":5606:5611   */\n      dup2\n        /* \"#utility.yul\":5599:5612   */\n      iszero\n        /* \"#utility.yul\":5592:5613   */\n      iszero\n        /* \"#utility.yul\":5581:5613   */\n      swap1\n      pop\n        /* \"#utility.yul\":5529:5619   */\n      swap2\n      swap1\n      pop\n      jump\t// out\n        /* \"#utility.yul\":5625:5741   */\n    tag_197:\n        /* \"#utility.yul\":5695:5716   */\n      tag_271\n        /* \"#utility.yul\":5710:5715   */\n      dup2\n        /* \"#utility.yul\":5695:5716   */\n      tag_196\n      jump\t// in\n    tag_271:\n        /* \"#utility.yul\":5688:5693   */\n      dup2\n        /* \"#utility.yul\":5685:5717   */\n      eq\n        /* \"#utility.yul\":5675:5735   */\n      tag_272\n      jumpi\n        /* \"#utility.yul\":5731:5732   */\n      0x00\n        /* \"#utility.yul\":5728:5729   */\n      dup1\n        /* \"#utility.yul\":5721:5733   */\n      revert\n        /* \"#utility.yul\":5675:5735   */\n    tag_272:\n        /* \"#utility.yul\":5625:5741   */\n      pop\n      jump\t// out\n        /* \"#utility.yul\":5747:5884   */\n    tag_198:\n        /* \"#utility.yul\":5801:5806   */\n      0x00\n        /* \"#utility.yul\":5832:5838   */\n      dup2\n        /* \"#utility.yul\":5826:5839   */\n      mload\n        /* \"#utility.yul\":5817:5839   */\n      swap1\n      pop\n        /* \"#utility.yul\":5848:5878   */\n      tag_274\n        /* \"#utility.yul\":5872:5877   */\n      dup2\n        /* \"#utility.yul\":5848:5878   */\n      tag_197\n      jump\t// in\n    tag_274:\n        /* \"#utility.yul\":5747:5884   */\n      swap3\n      swap2\n      pop\n      pop\n      jump\t// out\n        /* \"#utility.yul\":5890:6235   */\n    tag_90:\n        /* \"#utility.yul\":5957:5963   */\n      0x00\n        /* \"#utility.yul\":6006:6008   */\n      0x20\n        /* \"#utility.yul\":5994:6003   */\n      dup3\n        /* \"#utility.yul\":5985:5992   */\n      dup5\n        /* \"#utility.yul\":5981:6004   */\n      sub\n        /* \"#utility.yul\":5977:6009   */\n      slt\n        /* \"#utility.yul\":5974:6093   */\n      iszero\n      tag_276\n      jumpi\n        /* \"#utility.yul\":6012:6091   */\n      tag_277\n      tag_179\n      jump\t// in\n    tag_277:\n        /* \"#utility.yul\":5974:6093   */\n    tag_276:\n        /* \"#utility.yul\":6132:6133   */\n      0x00\n        /* \"#utility.yul\":6157:6218   */\n      tag_278\n        /* \"#utility.yul\":6210:6217   */\n      dup5\n        /* \"#utility.yul\":6201:6207   */\n      dup3\n        /* \"#utility.yul\":6190:6199   */\n      dup6\n        /* \"#utility.yul\":6186:6208   */\n      add\n        /* \"#utility.yul\":6157:6218   */\n      tag_198\n      jump\t// in\n    tag_278:\n        /* \"#utility.yul\":6147:6218   */\n      swap2\n      pop\n        /* \"#utility.yul\":6103:6228   */\n      pop\n        /* \"#utility.yul\":5890:6235   */\n      swap3\n      swap2\n      pop\n      pop\n      jump\t// out\n        /* \"#utility.yul\":6241:6406   */\n    tag_199:\n        /* \"#utility.yul\":6381:6398   */\n      0x5472616e73666572206661696c65640000000000000000000000000000000000\n        /* \"#utility.yul\":6377:6378   */\n      0x00\n        /* \"#utility.yul\":6369:6375   */\n      dup3\n        /* \"#utility.yul\":6365:6379   */\n      add\n        /* \"#utility.yul\":6358:6399   */\n      mstore\n        /* \"#utility.yul\":6241:6406   */\n      pop\n      jump\t// out\n        /* \"#utility.yul\":6412:6778   */\n    tag_200:\n        /* \"#utility.yul\":6554:6557   */\n      0x00\n        /* \"#utility.yul\":6575:6642   */\n      tag_281\n        /* \"#utility.yul\":6639:6641   */\n      0x0f\n        /* \"#utility.yul\":6634:6637   */\n      dup4\n        /* \"#utility.yul\":6575:6642   */\n      tag_193\n      jump\t// in\n    tag_281:\n        /* \"#utility.yul\":6568:6642   */\n      swap2\n      pop\n        /* \"#utility.yul\":6651:6744   */\n      tag_282\n        /* \"#utility.yul\":6740:6743   */\n      dup3\n        /* \"#utility.yul\":6651:6744   */\n      tag_199\n      jump\t// in\n    tag_282:\n        /* \"#utility.yul\":6769:6771   */\n      0x20\n        /* \"#utility.yul\":6764:6767   */\n      dup3\n        /* \"#utility.yul\":6760:6772   */\n      add\n        /* \"#utility.yul\":6753:6772   */\n      swap1\n      pop\n        /* \"#utility.yul\":6412:6778   */\n      swap2\n      swap1\n      pop\n      jump\t// out\n        /* \"#utility.yul\":6784:7203   */\n    tag_93:\n        /* \"#utility.yul\":6950:6954   */\n      0x00\n        /* \"#utility.yul\":6988:6990   */\n      0x20\n        /* \"#utility.yul\":6977:6986   */\n      dup3\n        /* \"#utility.yul\":6973:6991   */\n      add\n        /* \"#utility.yul\":6965:6991   */\n      swap1\n      pop\n        /* \"#utility.yul\":7037:7046   */\n      dup2\n        /* \"#utility.yul\":7031:7035   */\n      dup2\n        /* \"#utility.yul\":7027:7047   */\n      sub\n        /* \"#utility.yul\":7023:7024   */\n      0x00\n        /* \"#utility.yul\":7012:7021   */\n      dup4\n        /* \"#utility.yul\":7008:7025   */\n      add\n        /* \"#utility.yul\":7001:7048   */\n      mstore\n        /* \"#utility.yul\":7065:7196   */\n      tag_284\n        /* \"#utility.yul\":7191:7195   */\n      dup2\n        /* \"#utility.yul\":7065:7196   */\n      tag_200\n      jump\t// in\n    tag_284:\n        /* \"#utility.yul\":7057:7196   */\n      swap1\n      pop\n        /* \"#utility.yul\":6784:7203   */\n      swap2\n      swap1\n      pop\n      jump\t// out\n        /* \"#utility.yul\":7209:7541   */\n    tag_98:\n        /* \"#utility.yul\":7330:7334   */\n      0x00\n        /* \"#utility.yul\":7368:7370   */\n      0x40\n        /* \"#utility.yul\":7357:7366   */\n      dup3\n        /* \"#utility.yul\":7353:7371   */\n      add\n        /* \"#utility.yul\":7345:7371   */\n      swap1\n      pop\n        /* \"#utility.yul\":7381:7452   */\n      tag_286\n        /* \"#utility.yul\":7449:7450   */\n      0x00\n        /* \"#utility.yul\":7438:7447   */\n      dup4\n        /* \"#utility.yul\":7434:7451   */\n      add\n        /* \"#utility.yul\":7425:7431   */\n      dup6\n        /* \"#utility.yul\":7381:7452   */\n      tag_177\n      jump\t// in\n    tag_286:\n        /* \"#utility.yul\":7462:7534   */\n      tag_287\n        /* \"#utility.yul\":7530:7532   */\n      0x20\n        /* \"#utility.yul\":7519:7528   */\n      dup4\n        /* \"#utility.yul\":7515:7533   */\n      add\n        /* \"#utility.yul\":7506:7512   */\n      dup5\n        /* \"#utility.yul\":7462:7534   */\n      tag_177\n      jump\t// in\n    tag_287:\n        /* \"#utility.yul\":7209:7541   */\n      swap4\n      swap3\n      pop\n      pop\n      pop\n      jump\t// out\n        /* \"#utility.yul\":7547:7717   */\n    tag_201:\n        /* \"#utility.yul\":7687:7709   */\n      0x4e6f20746f6b656e7320746f20756e7374616b65000000000000000000000000\n        /* \"#utility.yul\":7683:7684   */\n      0x00\n        /* \"#utility.yul\":7675:7681   */\n      dup3\n        /* \"#utility.yul\":7671:7685   */\n      add\n        /* \"#utility.yul\":7664:7710   */\n      mstore\n        /* \"#utility.yul\":7547:7717   */\n      pop\n      jump\t// out\n        /* \"#utility.yul\":7723:8089   */\n    tag_202:\n        /* \"#utility.yul\":7865:7868   */\n      0x00\n        /* \"#utility.yul\":7886:7953   */\n      tag_290\n        /* \"#utility.yul\":7950:7952   */\n      0x14\n        /* \"#utility.yul\":7945:7948   */\n      dup4\n        /* \"#utility.yul\":7886:7953   */\n      tag_193\n      jump\t// in\n    tag_290:\n        /* \"#utility.yul\":7879:7953   */\n      swap2\n      pop\n        /* \"#utility.yul\":7962:8055   */\n      tag_291\n        /* \"#utility.yul\":8051:8054   */\n      dup3\n        /* \"#utility.yul\":7962:8055   */\n      tag_201\n      jump\t// in\n    tag_291:\n        /* \"#utility.yul\":8080:8082   */\n      0x20\n        /* \"#utility.yul\":8075:8078   */\n      dup3\n        /* \"#utility.yul\":8071:8083   */\n      add\n        /* \"#utility.yul\":8064:8083   */\n      swap1\n      pop\n        /* \"#utility.yul\":7723:8089   */\n      swap2\n      swap1\n      pop\n      jump\t// out\n        /* \"#utility.yul\":8095:8514   */\n    tag_107:\n        /* \"#utility.yul\":8261:8265   */\n      0x00\n        /* \"#utility.yul\":8299:8301   */\n      0x20\n        /* \"#utility.yul\":8288:8297   */\n      dup3\n        /* \"#utility.yul\":8284:8302   */\n      add\n        /* \"#utility.yul\":8276:8302   */\n      swap1\n      pop\n        /* \"#utility.yul\":8348:8357   */\n      dup2\n        /* \"#utility.yul\":8342:8346   */\n      dup2\n        /* \"#utility.yul\":8338:8358   */\n      sub\n        /* \"#utility.yul\":8334:8335   */\n      0x00\n        /* \"#utility.yul\":8323:8332   */\n      dup4\n        /* \"#utility.yul\":8319:8336   */\n      add\n        /* \"#utility.yul\":8312:8359   */\n      mstore\n        /* \"#utility.yul\":8376:8507   */\n      tag_293\n        /* \"#utility.yul\":8502:8506   */\n      dup2\n        /* \"#utility.yul\":8376:8507   */\n      tag_202\n      jump\t// in\n    tag_293:\n        /* \"#utility.yul\":8368:8507   */\n      swap1\n      pop\n        /* \"#utility.yul\":8095:8514   */\n      swap2\n      swap1\n      pop\n      jump\t// out\n        /* \"#utility.yul\":8520:8852   */\n    tag_114:\n        /* \"#utility.yul\":8641:8645   */\n      0x00\n        /* \"#utility.yul\":8679:8681   */\n      0x40\n        /* \"#utility.yul\":8668:8677   */\n      dup3\n        /* \"#utility.yul\":8664:8682   */\n      add\n        /* \"#utility.yul\":8656:8682   */\n      swap1\n      pop\n        /* \"#utility.yul\":8692:8763   */\n      tag_295\n        /* \"#utility.yul\":8760:8761   */\n      0x00\n        /* \"#utility.yul\":8749:8758   */\n      dup4\n        /* \"#utility.yul\":8745:8762   */\n      add\n        /* \"#utility.yul\":8736:8742   */\n      dup6\n        /* \"#utility.yul\":8692:8763   */\n      tag_187\n      jump\t// in\n    tag_295:\n        /* \"#utility.yul\":8773:8845   */\n      tag_296\n        /* \"#utility.yul\":8841:8843   */\n      0x20\n        /* \"#utility.yul\":8830:8839   */\n      dup4\n        /* \"#utility.yul\":8826:8844   */\n      add\n        /* \"#utility.yul\":8817:8823   */\n      dup5\n        /* \"#utility.yul\":8773:8845   */\n      tag_177\n      jump\t// in\n    tag_296:\n        /* \"#utility.yul\":8520:8852   */\n      swap4\n      swap3\n      pop\n      pop\n      pop\n      jump\t// out\n        /* \"#utility.yul\":8858:9039   */\n    tag_203:\n        /* \"#utility.yul\":8998:9031   */\n      0x5265656e7472616e637947756172643a207265656e7472616e742063616c6c00\n        /* \"#utility.yul\":8994:8995   */\n      0x00\n        /* \"#utility.yul\":8986:8992   */\n      dup3\n        /* \"#utility.yul\":8982:8996   */\n      add\n        /* \"#utility.yul\":8975:9032   */\n      mstore\n        /* \"#utility.yul\":8858:9039   */\n      pop\n      jump\t// out\n        /* \"#utility.yul\":9045:9411   */\n    tag_204:\n        /* \"#utility.yul\":9187:9190   */\n      0x00\n        /* \"#utility.yul\":9208:9275   */\n      tag_299\n        /* \"#utility.yul\":9272:9274   */\n      0x1f\n        /* \"#utility.yul\":9267:9270   */\n      dup4\n        /* \"#utility.yul\":9208:9275   */\n      tag_193\n      jump\t// in\n    tag_299:\n        /* \"#utility.yul\":9201:9275   */\n      swap2\n      pop\n        /* \"#utility.yul\":9284:9377   */\n      tag_300\n        /* \"#utility.yul\":9373:9376   */\n      dup3\n        /* \"#utility.yul\":9284:9377   */\n      tag_203\n      jump\t// in\n    tag_300:\n        /* \"#utility.yul\":9402:9404   */\n      0x20\n        /* \"#utility.yul\":9397:9400   */\n      dup3\n        /* \"#utility.yul\":9393:9405   */\n      add\n        /* \"#utility.yul\":9386:9405   */\n      swap1\n      pop\n        /* \"#utility.yul\":9045:9411   */\n      swap2\n      swap1\n      pop\n      jump\t// out\n        /* \"#utility.yul\":9417:9836   */\n    tag_161:\n        /* \"#utility.yul\":9583:9587   */\n      0x00\n        /* \"#utility.yul\":9621:9623   */\n      0x20\n        /* \"#utility.yul\":9610:9619   */\n      dup3\n        /* \"#utility.yul\":9606:9624   */\n      add\n        /* \"#utility.yul\":9598:9624   */\n      swap1\n      pop\n        /* \"#utility.yul\":9670:9679   */\n      dup2\n        /* \"#utility.yul\":9664:9668   */\n      dup2\n        /* \"#utility.yul\":9660:9680   */\n      sub\n        /* \"#utility.yul\":9656:9657   */\n      0x00\n        /* \"#utility.yul\":9645:9654   */\n      dup4\n        /* \"#utility.yul\":9641:9658   */\n      add\n        /* \"#utility.yul\":9634:9681   */\n      mstore\n        /* \"#utility.yul\":9698:9829   */\n      tag_302\n        /* \"#utility.yul\":9824:9828   */\n      dup2\n        /* \"#utility.yul\":9698:9829   */\n      tag_204\n      jump\t// in\n    tag_302:\n        /* \"#utility.yul\":9690:9829   */\n      swap1\n      pop\n        /* \"#utility.yul\":9417:9836   */\n      swap2\n      swap1\n      pop\n      jump\t// out\n        /* \"#utility.yul\":9842:10022   */\n    tag_205:\n        /* \"#utility.yul\":9890:9967   */\n      0x4e487b7100000000000000000000000000000000000000000000000000000000\n        /* \"#utility.yul\":9887:9888   */\n      0x00\n        /* \"#utility.yul\":9880:9968   */\n      mstore\n        /* \"#utility.yul\":9987:9991   */\n      0x11\n        /* \"#utility.yul\":9984:9985   */\n      0x04\n        /* \"#utility.yul\":9977:9992   */\n      mstore\n        /* \"#utility.yul\":10011:10015   */\n      0x24\n        /* \"#utility.yul\":10008:10009   */\n      0x00\n        /* \"#utility.yul\":10001:10016   */\n      revert\n        /* \"#utility.yul\":10028:10219   */\n    tag_164:\n        /* \"#utility.yul\":10068:10071   */\n      0x00\n        /* \"#utility.yul\":10087:10107   */\n      tag_305\n        /* \"#utility.yul\":10105:10106   */\n      dup3\n        /* \"#utility.yul\":10087:10107   */\n      tag_176\n      jump\t// in\n    tag_305:\n        /* \"#utility.yul\":10082:10107   */\n      swap2\n      pop\n        /* \"#utility.yul\":10121:10141   */\n      tag_306\n        /* \"#utility.yul\":10139:10140   */\n      dup4\n        /* \"#utility.yul\":10121:10141   */\n      tag_176\n      jump\t// in\n    tag_306:\n        /* \"#utility.yul\":10116:10141   */\n      swap3\n      pop\n        /* \"#utility.yul\":10164:10165   */\n      dup3\n        /* \"#utility.yul\":10161:10162   */\n      dup3\n        /* \"#utility.yul\":10157:10166   */\n      add\n        /* \"#utility.yul\":10150:10166   */\n      swap1\n      pop\n        /* \"#utility.yul\":10185:10188   */\n      dup1\n        /* \"#utility.yul\":10182:10183   */\n      dup3\n        /* \"#utility.yul\":10179:10189   */\n      gt\n        /* \"#utility.yul\":10176:10212   */\n      iszero\n      tag_307\n      jumpi\n        /* \"#utility.yul\":10192:10210   */\n      tag_308\n      tag_205\n      jump\t// in\n    tag_308:\n        /* \"#utility.yul\":10176:10212   */\n    tag_307:\n        /* \"#utility.yul\":10028:10219   */\n      swap3\n      swap2\n      pop\n      pop\n      jump\t// out\n        /* \"#utility.yul\":10225:10635   */\n    tag_168:\n        /* \"#utility.yul\":10265:10272   */\n      0x00\n        /* \"#utility.yul\":10288:10308   */\n      tag_310\n        /* \"#utility.yul\":10306:10307   */\n      dup3\n        /* \"#utility.yul\":10288:10308   */\n      tag_176\n      jump\t// in\n    tag_310:\n        /* \"#utility.yul\":10283:10308   */\n      swap2\n      pop\n        /* \"#utility.yul\":10322:10342   */\n      tag_311\n        /* \"#utility.yul\":10340:10341   */\n      dup4\n        /* \"#utility.yul\":10322:10342   */\n      tag_176\n      jump\t// in\n    tag_311:\n        /* \"#utility.yul\":10317:10342   */\n      swap3\n      pop\n        /* \"#utility.yul\":10377:10378   */\n      dup3\n        /* \"#utility.yul\":10374:10375   */\n      dup3\n        /* \"#utility.yul\":10370:10379   */\n      mul\n        /* \"#utility.yul\":10399:10429   */\n      tag_312\n        /* \"#utility.yul\":10417:10428   */\n      dup2\n        /* \"#utility.yul\":10399:10429   */\n      tag_176\n      jump\t// in\n    tag_312:\n        /* \"#utility.yul\":10388:10429   */\n      swap2\n      pop\n        /* \"#utility.yul\":10578:10579   */\n      dup3\n        /* \"#utility.yul\":10569:10576   */\n      dup3\n        /* \"#utility.yul\":10565:10580   */\n      div\n        /* \"#utility.yul\":10562:10563   */\n      dup5\n        /* \"#utility.yul\":10559:10581   */\n      eq\n        /* \"#utility.yul\":10539:10540   */\n      dup4\n        /* \"#utility.yul\":10532:10541   */\n      iszero\n        /* \"#utility.yul\":10512:10595   */\n      or\n        /* \"#utility.yul\":10489:10628   */\n      tag_313\n      jumpi\n        /* \"#utility.yul\":10608:10626   */\n      tag_314\n      tag_205\n      jump\t// in\n    tag_314:\n        /* \"#utility.yul\":10489:10628   */\n    tag_313:\n        /* \"#utility.yul\":10273:10635   */\n      pop\n        /* \"#utility.yul\":10225:10635   */\n      swap3\n      swap2\n      pop\n      pop\n      jump\t// out\n        /* \"#utility.yul\":10641:10821   */\n    tag_206:\n        /* \"#utility.yul\":10689:10766   */\n      0x4e487b7100000000000000000000000000000000000000000000000000000000\n        /* \"#utility.yul\":10686:10687   */\n      0x00\n        /* \"#utility.yul\":10679:10767   */\n      mstore\n        /* \"#utility.yul\":10786:10790   */\n      0x12\n        /* \"#utility.yul\":10783:10784   */\n      0x04\n        /* \"#utility.yul\":10776:10791   */\n      mstore\n        /* \"#utility.yul\":10810:10814   */\n      0x24\n        /* \"#utility.yul\":10807:10808   */\n      0x00\n        /* \"#utility.yul\":10800:10815   */\n      revert\n        /* \"#utility.yul\":10827:11012   */\n    tag_171:\n        /* \"#utility.yul\":10867:10868   */\n      0x00\n        /* \"#utility.yul\":10884:10904   */\n      tag_317\n        /* \"#utility.yul\":10902:10903   */\n      dup3\n        /* \"#utility.yul\":10884:10904   */\n      tag_176\n      jump\t// in\n    tag_317:\n        /* \"#utility.yul\":10879:10904   */\n      swap2\n      pop\n        /* \"#utility.yul\":10918:10938   */\n      tag_318\n        /* \"#utility.yul\":10936:10937   */\n      dup4\n        /* \"#utility.yul\":10918:10938   */\n      tag_176\n      jump\t// in\n    tag_318:\n        /* \"#utility.yul\":10913:10938   */\n      swap3\n      pop\n        /* \"#utility.yul\":10957:10958   */\n      dup3\n        /* \"#utility.yul\":10947:10982   */\n      tag_319\n      jumpi\n        /* \"#utility.yul\":10962:10980   */\n      tag_320\n      tag_206\n      jump\t// in\n    tag_320:\n        /* \"#utility.yul\":10947:10982   */\n    tag_319:\n        /* \"#utility.yul\":11004:11005   */\n      dup3\n        /* \"#utility.yul\":11001:11002   */\n      dup3\n        /* \"#utility.yul\":10997:11006   */\n      div\n        /* \"#utility.yul\":10992:11006   */\n      swap1\n      pop\n        /* \"#utility.yul\":10827:11012   */\n      swap3\n      swap2\n      pop\n      pop\n      jump\t// out\n        /* \"#utility.yul\":11018:11212   */\n    tag_174:\n        /* \"#utility.yul\":11058:11062   */\n      0x00\n        /* \"#utility.yul\":11078:11098   */\n      tag_322\n        /* \"#utility.yul\":11096:11097   */\n      dup3\n        /* \"#utility.yul\":11078:11098   */\n      tag_176\n      jump\t// in\n    tag_322:\n        /* \"#utility.yul\":11073:11098   */\n      swap2\n      pop\n        /* \"#utility.yul\":11112:11132   */\n      tag_323\n        /* \"#utility.yul\":11130:11131   */\n      dup4\n        /* \"#utility.yul\":11112:11132   */\n      tag_176\n      jump\t// in\n    tag_323:\n        /* \"#utility.yul\":11107:11132   */\n      swap3\n      pop\n        /* \"#utility.yul\":11156:11157   */\n      dup3\n        /* \"#utility.yul\":11153:11154   */\n      dup3\n        /* \"#utility.yul\":11149:11158   */\n      sub\n        /* \"#utility.yul\":11141:11158   */\n      swap1\n      pop\n        /* \"#utility.yul\":11180:11181   */\n      dup2\n        /* \"#utility.yul\":11174:11178   */\n      dup2\n        /* \"#utility.yul\":11171:11182   */\n      gt\n        /* \"#utility.yul\":11168:11205   */\n      iszero\n      tag_324\n      jumpi\n        /* \"#utility.yul\":11185:11203   */\n      tag_325\n      tag_205\n      jump\t// in\n    tag_325:\n        /* \"#utility.yul\":11168:11205   */\n    tag_324:\n        /* \"#utility.yul\":11018:11212   */\n      swap3\n      swap2\n      pop\n      pop\n      jump\t// out\n\n    auxdata: 0xa2646970667358221220306be834ad8c26995c84fbf93a899290f94b7de18a2470167f7c5f059eb6ce3464736f6c63430008140033\n}\n",
				"bytecode": {
					"linkReferences": {},
					"object": "608060405234801562000010575f80fd5b50604051620016ce380380620016ce8339818101604052810190620000369190620002a4565b8060015f819055505f73ffffffffffffffffffffffffffffffffffffffff168173ffffffffffffffffffffffffffffffffffffffff1603620000b1575f6040517f1e4fbdf7000000000000000000000000000000000000000000000000000000008152600401620000a89190620002fa565b60405180910390fd5b620000c2816200017c60201b60201c565b505f73ffffffffffffffffffffffffffffffffffffffff168273ffffffffffffffffffffffffffffffffffffffff160362000134576040517f08c379a00000000000000000000000000000000000000000000000000000000081526004016200012b9062000399565b60405180910390fd5b8160025f6101000a81548173ffffffffffffffffffffffffffffffffffffffff021916908373ffffffffffffffffffffffffffffffffffffffff1602179055505050620003b9565b5f60015f9054906101000a900473ffffffffffffffffffffffffffffffffffffffff1690508160015f6101000a81548173ffffffffffffffffffffffffffffffffffffffff021916908373ffffffffffffffffffffffffffffffffffffffff1602179055508173ffffffffffffffffffffffffffffffffffffffff168173ffffffffffffffffffffffffffffffffffffffff167f8be0079c531659141344cd1fd0a4f28419497f9722a3daafe3b4186f6b6457e060405160405180910390a35050565b5f80fd5b5f73ffffffffffffffffffffffffffffffffffffffff82169050919050565b5f6200026e8262000243565b9050919050565b620002808162000262565b81146200028b575f80fd5b50565b5f815190506200029e8162000275565b92915050565b5f8060408385031215620002bd57620002bc6200023f565b5b5f620002cc858286016200028e565b9250506020620002df858286016200028e565b9150509250929050565b620002f48162000262565b82525050565b5f6020820190506200030f5f830184620002e9565b92915050565b5f82825260208201905092915050565b7f546f6b656e20616464726573732063616e6e6f7420626520746865207a65726f5f8201527f2061646472657373000000000000000000000000000000000000000000000000602082015250565b5f6200038160288362000315565b91506200038e8262000325565b604082019050919050565b5f6020820190508181035f830152620003b28162000373565b9050919050565b61130780620003c75f395ff3fe608060405234801561000f575f80fd5b50600436106100f3575f3560e01c8063d68f78f011610095578063efc21daa11610064578063efc21daa1461023d578063f2fde38b1461025b578063f5cd026414610277578063fa43595914610295576100f3565b8063d68f78f0146101c7578063d82e3962146101d1578063d9c8010814610201578063e6a4a8b51461021f576100f3565b80637547c7a3116100d15780637547c7a314610151578063817b1cd21461016d5780638da5cb5b1461018b578063bc390610146101a9576100f3565b80631288af02146100f757806316934fc414610115578063715018a614610147575b5f80fd5b6100ff6102b3565b60405161010c9190610d45565b60405180910390f35b61012f600480360381019061012a9190610dbc565b6102c1565b60405161013e93929190610de7565b60405180910390f35b61014f6102e7565b005b61016b60048036038101906101669190610e46565b6102fa565b005b61017561051a565b6040516101829190610d45565b60405180910390f35b610193610520565b6040516101a09190610e80565b60405180910390f35b6101b1610548565b6040516101be9190610d45565b60405180910390f35b6101cf61054d565b005b6101eb60048036038101906101e69190610dbc565b61092e565b6040516101f89190610d45565b60405180910390f35b610209610a14565b6040516102169190610d45565b60405180910390f35b610227610a1a565b6040516102349190610d45565b60405180910390f35b610245610a7f565b6040516102529190610d45565b60405180910390f35b61027560048036038101906102709190610dbc565b610a84565b005b61027f610b08565b60405161028c9190610ef4565b60405180910390f35b61029d610b2d565b6040516102aa9190610d45565b60405180910390f35b6934f086f3b33b6840000081565b6005602052805f5260405f205f91509050805f0154908060010154908060020154905083565b6102ef610b32565b6102f85f610bb9565b565b610302610c7c565b5f8111610344576040517f08c379a000000000000000000000000000000000000000000000000000000000815260040161033b90610f67565b60405180910390fd5b60025f9054906101000a900473ffffffffffffffffffffffffffffffffffffffff1673ffffffffffffffffffffffffffffffffffffffff166323b872dd3330846040518463ffffffff1660e01b81526004016103a293929190610f85565b6020604051808303815f875af11580156103be573d5f803e3d5ffd5b505050506040513d601f19601f820116820180604052508101906103e29190610fef565b610421576040517f08c379a000000000000000000000000000000000000000000000000000000000815260040161041890611064565b60405180910390fd5b5f61042a610a1a565b905060405180606001604052808381526020018281526020014281525060055f3373ffffffffffffffffffffffffffffffffffffffff1673ffffffffffffffffffffffffffffffffffffffff1681526020019081526020015f205f820151815f015560208201518160010155604082015181600201559050506104b882600354610cc990919063ffffffff16565b6003819055503373ffffffffffffffffffffffffffffffffffffffff167f1449c6dd7851abc30abf37f57715f492010519147cc2652fbc38202c18a6ee908383604051610506929190611082565b60405180910390a250610517610cde565b50565b60035481565b5f60015f9054906101000a900473ffffffffffffffffffffffffffffffffffffffff16905090565b601981565b610555610c7c565b5f60055f3373ffffffffffffffffffffffffffffffffffffffff1673ffffffffffffffffffffffffffffffffffffffff1681526020019081526020015f2090505f815f0154116105da576040517f08c379a00000000000000000000000000000000000000000000000000000000081526004016105d1906110f3565b60405180910390fd5b5f6105e43361092e565b90505f61060e6002610600600385610ce790919063ffffffff16565b610cfc90919063ffffffff16565b905060025f9054906101000a900473ffffffffffffffffffffffffffffffffffffffff1673ffffffffffffffffffffffffffffffffffffffff1663a9059cbb60025f9054906101000a900473ffffffffffffffffffffffffffffffffffffffff16836040518363ffffffff1660e01b815260040161068d929190611111565b6020604051808303815f875af11580156106a9573d5f803e3d5ffd5b505050506040513d601f19601f820116820180604052508101906106cd9190610fef565b5060025f9054906101000a900473ffffffffffffffffffffffffffffffffffffffff1673ffffffffffffffffffffffffffffffffffffffff1663a9059cbb3361072285875f0154610cc990919063ffffffff16565b6040518363ffffffff1660e01b815260040161073f929190611111565b6020604051808303815f875af115801561075b573d5f803e3d5ffd5b505050506040513d601f19601f8201168201806040525081019061077f9190610fef565b6107be576040517f08c379a00000000000000000000000000000000000000000000000000000000081526004016107b590611064565b60405180910390fd5b6107d6835f0154600354610d1190919063ffffffff16565b6003819055506107f182600454610cc990919063ffffffff16565b60048190555060055f3373ffffffffffffffffffffffffffffffffffffffff1673ffffffffffffffffffffffffffffffffffffffff1681526020019081526020015f205f8082015f9055600182015f9055600282015f905550503373ffffffffffffffffffffffffffffffffffffffff167f0f5bb82176feb1b5e747e28471aa92156a04d9f3ab9f45f28e2d704232b93f75845f01546040516108949190610d45565b60405180910390a23373ffffffffffffffffffffffffffffffffffffffff167fe2403640ba68fed3a2f88b7557551d1993f84b99bb10ff833f0cf8db0c5e0486836040516108e29190610d45565b60405180910390a27f6ef4855b666dcc7884561072e4358b28dfe01feb1b7f4dcebc00e62d50394ac7816040516109199190610d45565b60405180910390a150505061092c610cde565b565b5f8060055f8473ffffffffffffffffffffffffffffffffffffffff1673ffffffffffffffffffffffffffffffffffffffff1681526020019081526020015f206040518060600160405290815f82015481526020016001820154815260200160028201548152505090505f6109af826040015142610d1190919063ffffffff16565b90505f610a0760646109f96301e133806109eb866109dd89602001518a5f0151610ce790919063ffffffff16565b610ce790919063ffffffff16565b610cfc90919063ffffffff16565b610cfc90919063ffffffff16565b9050809350505050919050565b60045481565b5f80610a4e6005610a406934f086f3b33b68400000600454610cfc90919063ffffffff16565b610ce790919063ffffffff16565b90505f81601911610a60576005610a75565b610a74826019610d1190919063ffffffff16565b5b9050809250505090565b600581565b610a8c610b32565b5f73ffffffffffffffffffffffffffffffffffffffff168173ffffffffffffffffffffffffffffffffffffffff1603610afc575f6040517f1e4fbdf7000000000000000000000000000000000000000000000000000000008152600401610af39190610e80565b60405180910390fd5b610b0581610bb9565b50565b60025f9054906101000a900473ffffffffffffffffffffffffffffffffffffffff1681565b600581565b610b3a610d26565b73ffffffffffffffffffffffffffffffffffffffff16610b58610520565b73ffffffffffffffffffffffffffffffffffffffff1614610bb757610b7b610d26565b6040517f118cdaa7000000000000000000000000000000000000000000000000000000008152600401610bae9190610e80565b60405180910390fd5b565b5f60015f9054906101000a900473ffffffffffffffffffffffffffffffffffffffff1690508160015f6101000a81548173ffffffffffffffffffffffffffffffffffffffff021916908373ffffffffffffffffffffffffffffffffffffffff1602179055508173ffffffffffffffffffffffffffffffffffffffff168173ffffffffffffffffffffffffffffffffffffffff167f8be0079c531659141344cd1fd0a4f28419497f9722a3daafe3b4186f6b6457e060405160405180910390a35050565b60025f5403610cc0576040517f08c379a0000000000000000000000000000000000000000000000000000000008152600401610cb790611182565b60405180910390fd5b60025f81905550565b5f8183610cd691906111cd565b905092915050565b60015f81905550565b5f8183610cf49190611200565b905092915050565b5f8183610d09919061126e565b905092915050565b5f8183610d1e919061129e565b905092915050565b5f33905090565b5f819050919050565b610d3f81610d2d565b82525050565b5f602082019050610d585f830184610d36565b92915050565b5f80fd5b5f73ffffffffffffffffffffffffffffffffffffffff82169050919050565b5f610d8b82610d62565b9050919050565b610d9b81610d81565b8114610da5575f80fd5b50565b5f81359050610db681610d92565b92915050565b5f60208284031215610dd157610dd0610d5e565b5b5f610dde84828501610da8565b91505092915050565b5f606082019050610dfa5f830186610d36565b610e076020830185610d36565b610e146040830184610d36565b949350505050565b610e2581610d2d565b8114610e2f575f80fd5b50565b5f81359050610e4081610e1c565b92915050565b5f60208284031215610e5b57610e5a610d5e565b5b5f610e6884828501610e32565b91505092915050565b610e7a81610d81565b82525050565b5f602082019050610e935f830184610e71565b92915050565b5f819050919050565b5f610ebc610eb7610eb284610d62565b610e99565b610d62565b9050919050565b5f610ecd82610ea2565b9050919050565b5f610ede82610ec3565b9050919050565b610eee81610ed4565b82525050565b5f602082019050610f075f830184610ee5565b92915050565b5f82825260208201905092915050565b7f43616e6e6f74207374616b65203020746f6b656e7300000000000000000000005f82015250565b5f610f51601583610f0d565b9150610f5c82610f1d565b602082019050919050565b5f6020820190508181035f830152610f7e81610f45565b9050919050565b5f606082019050610f985f830186610e71565b610fa56020830185610e71565b610fb26040830184610d36565b949350505050565b5f8115159050919050565b610fce81610fba565b8114610fd8575f80fd5b50565b5f81519050610fe981610fc5565b92915050565b5f6020828403121561100457611003610d5e565b5b5f61101184828501610fdb565b91505092915050565b7f5472616e73666572206661696c656400000000000000000000000000000000005f82015250565b5f61104e600f83610f0d565b91506110598261101a565b602082019050919050565b5f6020820190508181035f83015261107b81611042565b9050919050565b5f6040820190506110955f830185610d36565b6110a26020830184610d36565b9392505050565b7f4e6f20746f6b656e7320746f20756e7374616b650000000000000000000000005f82015250565b5f6110dd601483610f0d565b91506110e8826110a9565b602082019050919050565b5f6020820190508181035f83015261110a816110d1565b9050919050565b5f6040820190506111245f830185610e71565b6111316020830184610d36565b9392505050565b7f5265656e7472616e637947756172643a207265656e7472616e742063616c6c005f82015250565b5f61116c601f83610f0d565b915061117782611138565b602082019050919050565b5f6020820190508181035f83015261119981611160565b9050919050565b7f4e487b71000000000000000000000000000000000000000000000000000000005f52601160045260245ffd5b5f6111d782610d2d565b91506111e283610d2d565b92508282019050808211156111fa576111f96111a0565b5b92915050565b5f61120a82610d2d565b915061121583610d2d565b925082820261122381610d2d565b9150828204841483151761123a576112396111a0565b5b5092915050565b7f4e487b71000000000000000000000000000000000000000000000000000000005f52601260045260245ffd5b5f61127882610d2d565b915061128383610d2d565b92508261129357611292611241565b5b828204905092915050565b5f6112a882610d2d565b91506112b383610d2d565b92508282039050818111156112cb576112ca6111a0565b5b9291505056fea2646970667358221220306be834ad8c26995c84fbf93a899290f94b7de18a2470167f7c5f059eb6ce3464736f6c63430008140033",
					"opcodes": "PUSH1 0x80 PUSH1 0x40 MSTORE CALLVALUE DUP1 ISZERO PUSH3 0x10 JUMPI PUSH0 DUP1 REVERT JUMPDEST POP PUSH1 0x40 MLOAD PUSH3 0x16CE CODESIZE SUB DUP1 PUSH3 0x16CE DUP4 CODECOPY DUP2 DUP2 ADD PUSH1 0x40 MSTORE DUP2 ADD SWAP1 PUSH3 0x36 SWAP2 SWAP1 PUSH3 0x2A4 JUMP JUMPDEST DUP1 PUSH1 0x1 PUSH0 DUP2 SWAP1 SSTORE POP PUSH0 PUSH20 0xFFFFFFFFFFFFFFFFFFFFFFFFFFFFFFFFFFFFFFFF AND DUP2 PUSH20 0xFFFFFFFFFFFFFFFFFFFFFFFFFFFFFFFFFFFFFFFF AND SUB PUSH3 0xB1 JUMPI PUSH0 PUSH1 0x40 MLOAD PUSH32 0x1E4FBDF700000000000000000000000000000000000000000000000000000000 DUP2 MSTORE PUSH1 0x4 ADD PUSH3 0xA8 SWAP2 SWAP1 PUSH3 0x2FA JUMP JUMPDEST PUSH1 0x40 MLOAD DUP1 SWAP2 SUB SWAP1 REVERT JUMPDEST PUSH3 0xC2 DUP2 PUSH3 0x17C PUSH1 0x20 SHL PUSH1 0x20 SHR JUMP JUMPDEST POP PUSH0 PUSH20 0xFFFFFFFFFFFFFFFFFFFFFFFFFFFFFFFFFFFFFFFF AND DUP3 PUSH20 0xFFFFFFFFFFFFFFFFFFFFFFFFFFFFFFFFFFFFFFFF AND SUB PUSH3 0x134 JUMPI PUSH1 0x40 MLOAD PUSH32 0x8C379A000000000000000000000000000000000000000000000000000000000 DUP2 MSTORE PUSH1 0x4 ADD PUSH3 0x12B SWAP1 PUSH3 0x399 JUMP JUMPDEST PUSH1 0x40 MLOAD DUP1 SWAP2 SUB SWAP1 REVERT JUMPDEST DUP2 PUSH1 0x2 PUSH0 PUSH2 0x100 EXP DUP2 SLOAD DUP2 PUSH20 0xFFFFFFFFFFFFFFFFFFFFFFFFFFFFFFFFFFFFFFFF MUL NOT AND SWAP1 DUP4 PUSH20 0xFFFFFFFFFFFFFFFFFFFFFFFFFFFFFFFFFFFFFFFF AND MUL OR SWAP1 SSTORE POP POP POP PUSH3 0x3B9 JUMP JUMPDEST PUSH0 PUSH1 0x1 PUSH0 SWAP1 SLOAD SWAP1 PUSH2 0x100 EXP SWAP1 DIV PUSH20 0xFFFFFFFFFFFFFFFFFFFFFFFFFFFFFFFFFFFFFFFF AND SWAP1 POP DUP2 PUSH1 0x1 PUSH0 PUSH2 0x100 EXP DUP2 SLOAD DUP2 PUSH20 0xFFFFFFFFFFFFFFFFFFFFFFFFFFFFFFFFFFFFFFFF MUL NOT AND SWAP1 DUP4 PUSH20 0xFFFFFFFFFFFFFFFFFFFFFFFFFFFFFFFFFFFFFFFF AND MUL OR SWAP1 SSTORE POP DUP2 PUSH20 0xFFFFFFFFFFFFFFFFFFFFFFFFFFFFFFFFFFFFFFFF AND DUP2 PUSH20 0xFFFFFFFFFFFFFFFFFFFFFFFFFFFFFFFFFFFFFFFF AND PUSH32 0x8BE0079C531659141344CD1FD0A4F28419497F9722A3DAAFE3B4186F6B6457E0 PUSH1 0x40 MLOAD PUSH1 0x40 MLOAD DUP1 SWAP2 SUB SWAP1 LOG3 POP POP JUMP JUMPDEST PUSH0 DUP1 REVERT JUMPDEST PUSH0 PUSH20 0xFFFFFFFFFFFFFFFFFFFFFFFFFFFFFFFFFFFFFFFF DUP3 AND SWAP1 POP SWAP2 SWAP1 POP JUMP JUMPDEST PUSH0 PUSH3 0x26E DUP3 PUSH3 0x243 JUMP JUMPDEST SWAP1 POP SWAP2 SWAP1 POP JUMP JUMPDEST PUSH3 0x280 DUP2 PUSH3 0x262 JUMP JUMPDEST DUP2 EQ PUSH3 0x28B JUMPI PUSH0 DUP1 REVERT JUMPDEST POP JUMP JUMPDEST PUSH0 DUP2 MLOAD SWAP1 POP PUSH3 0x29E DUP2 PUSH3 0x275 JUMP JUMPDEST SWAP3 SWAP2 POP POP JUMP JUMPDEST PUSH0 DUP1 PUSH1 0x40 DUP4 DUP6 SUB SLT ISZERO PUSH3 0x2BD JUMPI PUSH3 0x2BC PUSH3 0x23F JUMP JUMPDEST JUMPDEST PUSH0 PUSH3 0x2CC DUP6 DUP3 DUP7 ADD PUSH3 0x28E JUMP JUMPDEST SWAP3 POP POP PUSH1 0x20 PUSH3 0x2DF DUP6 DUP3 DUP7 ADD PUSH3 0x28E JUMP JUMPDEST SWAP2 POP POP SWAP3 POP SWAP3 SWAP1 POP JUMP JUMPDEST PUSH3 0x2F4 DUP2 PUSH3 0x262 JUMP JUMPDEST DUP3 MSTORE POP POP JUMP JUMPDEST PUSH0 PUSH1 0x20 DUP3 ADD SWAP1 POP PUSH3 0x30F PUSH0 DUP4 ADD DUP5 PUSH3 0x2E9 JUMP JUMPDEST SWAP3 SWAP2 POP POP JUMP JUMPDEST PUSH0 DUP3 DUP3 MSTORE PUSH1 0x20 DUP3 ADD SWAP1 POP SWAP3 SWAP2 POP POP JUMP JUMPDEST PUSH32 0x546F6B656E20616464726573732063616E6E6F7420626520746865207A65726F PUSH0 DUP3 ADD MSTORE PUSH32 0x2061646472657373000000000000000000000000000000000000000000000000 PUSH1 0x20 DUP3 ADD MSTORE POP JUMP JUMPDEST PUSH0 PUSH3 0x381 PUSH1 0x28 DUP4 PUSH3 0x315 JUMP JUMPDEST SWAP2 POP PUSH3 0x38E DUP3 PUSH3 0x325 JUMP JUMPDEST PUSH1 0x40 DUP3 ADD SWAP1 POP SWAP2 SWAP1 POP JUMP JUMPDEST PUSH0 PUSH1 0x20 DUP3 ADD SWAP1 POP DUP2 DUP2 SUB PUSH0 DUP4 ADD MSTORE PUSH3 0x3B2 DUP2 PUSH3 0x373 JUMP JUMPDEST SWAP1 POP SWAP2 SWAP1 POP JUMP JUMPDEST PUSH2 0x1307 DUP1 PUSH3 0x3C7 PUSH0 CODECOPY PUSH0 RETURN INVALID PUSH1 0x80 PUSH1 0x40 MSTORE CALLVALUE DUP1 ISZERO PUSH2 0xF JUMPI PUSH0 DUP1 REVERT JUMPDEST POP PUSH1 0x4 CALLDATASIZE LT PUSH2 0xF3 JUMPI PUSH0 CALLDATALOAD PUSH1 0xE0 SHR DUP1 PUSH4 0xD68F78F0 GT PUSH2 0x95 JUMPI DUP1 PUSH4 0xEFC21DAA GT PUSH2 0x64 JUMPI DUP1 PUSH4 0xEFC21DAA EQ PUSH2 0x23D JUMPI DUP1 PUSH4 0xF2FDE38B EQ PUSH2 0x25B JUMPI DUP1 PUSH4 0xF5CD0264 EQ PUSH2 0x277 JUMPI DUP1 PUSH4 0xFA435959 EQ PUSH2 0x295 JUMPI PUSH2 0xF3 JUMP JUMPDEST DUP1 PUSH4 0xD68F78F0 EQ PUSH2 0x1C7 JUMPI DUP1 PUSH4 0xD82E3962 EQ PUSH2 0x1D1 JUMPI DUP1 PUSH4 0xD9C80108 EQ PUSH2 0x201 JUMPI DUP1 PUSH4 0xE6A4A8B5 EQ PUSH2 0x21F JUMPI PUSH2 0xF3 JUMP JUMPDEST DUP1 PUSH4 0x7547C7A3 GT PUSH2 0xD1 JUMPI DUP1 PUSH4 0x7547C7A3 EQ PUSH2 0x151 JUMPI DUP1 PUSH4 0x817B1CD2 EQ PUSH2 0x16D JUMPI DUP1 PUSH4 0x8DA5CB5B EQ PUSH2 0x18B JUMPI DUP1 PUSH4 0xBC390610 EQ PUSH2 0x1A9 JUMPI PUSH2 0xF3 JUMP JUMPDEST DUP1 PUSH4 0x1288AF02 EQ PUSH2 0xF7 JUMPI DUP1 PUSH4 0x16934FC4 EQ PUSH2 0x115 JUMPI DUP1 PUSH4 0x715018A6 EQ PUSH2 0x147 JUMPI JUMPDEST PUSH0 DUP1 REVERT JUMPDEST PUSH2 0xFF PUSH2 0x2B3 JUMP JUMPDEST PUSH1 0x40 MLOAD PUSH2 0x10C SWAP2 SWAP1 PUSH2 0xD45 JUMP JUMPDEST PUSH1 0x40 MLOAD DUP1 SWAP2 SUB SWAP1 RETURN JUMPDEST PUSH2 0x12F PUSH1 0x4 DUP1 CALLDATASIZE SUB DUP2 ADD SWAP1 PUSH2 0x12A SWAP2 SWAP1 PUSH2 0xDBC JUMP JUMPDEST PUSH2 0x2C1 JUMP JUMPDEST PUSH1 0x40 MLOAD PUSH2 0x13E SWAP4 SWAP3 SWAP2 SWAP1 PUSH2 0xDE7 JUMP JUMPDEST PUSH1 0x40 MLOAD DUP1 SWAP2 SUB SWAP1 RETURN JUMPDEST PUSH2 0x14F PUSH2 0x2E7 JUMP JUMPDEST STOP JUMPDEST PUSH2 0x16B PUSH1 0x4 DUP1 CALLDATASIZE SUB DUP2 ADD SWAP1 PUSH2 0x166 SWAP2 SWAP1 PUSH2 0xE46 JUMP JUMPDEST PUSH2 0x2FA JUMP JUMPDEST STOP JUMPDEST PUSH2 0x175 PUSH2 0x51A JUMP JUMPDEST PUSH1 0x40 MLOAD PUSH2 0x182 SWAP2 SWAP1 PUSH2 0xD45 JUMP JUMPDEST PUSH1 0x40 MLOAD DUP1 SWAP2 SUB SWAP1 RETURN JUMPDEST PUSH2 0x193 PUSH2 0x520 JUMP JUMPDEST PUSH1 0x40 MLOAD PUSH2 0x1A0 SWAP2 SWAP1 PUSH2 0xE80 JUMP JUMPDEST PUSH1 0x40 MLOAD DUP1 SWAP2 SUB SWAP1 RETURN JUMPDEST PUSH2 0x1B1 PUSH2 0x548 JUMP JUMPDEST PUSH1 0x40 MLOAD PUSH2 0x1BE SWAP2 SWAP1 PUSH2 0xD45 JUMP JUMPDEST PUSH1 0x40 MLOAD DUP1 SWAP2 SUB SWAP1 RETURN JUMPDEST PUSH2 0x1CF PUSH2 0x54D JUMP JUMPDEST STOP JUMPDEST PUSH2 0x1EB PUSH1 0x4 DUP1 CALLDATASIZE SUB DUP2 ADD SWAP1 PUSH2 0x1E6 SWAP2 SWAP1 PUSH2 0xDBC JUMP JUMPDEST PUSH2 0x92E JUMP JUMPDEST PUSH1 0x40 MLOAD PUSH2 0x1F8 SWAP2 SWAP1 PUSH2 0xD45 JUMP JUMPDEST PUSH1 0x40 MLOAD DUP1 SWAP2 SUB SWAP1 RETURN JUMPDEST PUSH2 0x209 PUSH2 0xA14 JUMP JUMPDEST PUSH1 0x40 MLOAD PUSH2 0x216 SWAP2 SWAP1 PUSH2 0xD45 JUMP JUMPDEST PUSH1 0x40 MLOAD DUP1 SWAP2 SUB SWAP1 RETURN JUMPDEST PUSH2 0x227 PUSH2 0xA1A JUMP JUMPDEST PUSH1 0x40 MLOAD PUSH2 0x234 SWAP2 SWAP1 PUSH2 0xD45 JUMP JUMPDEST PUSH1 0x40 MLOAD DUP1 SWAP2 SUB SWAP1 RETURN JUMPDEST PUSH2 0x245 PUSH2 0xA7F JUMP JUMPDEST PUSH1 0x40 MLOAD PUSH2 0x252 SWAP2 SWAP1 PUSH2 0xD45 JUMP JUMPDEST PUSH1 0x40 MLOAD DUP1 SWAP2 SUB SWAP1 RETURN JUMPDEST PUSH2 0x275 PUSH1 0x4 DUP1 CALLDATASIZE SUB DUP2 ADD SWAP1 PUSH2 0x270 SWAP2 SWAP1 PUSH2 0xDBC JUMP JUMPDEST PUSH2 0xA84 JUMP JUMPDEST STOP JUMPDEST PUSH2 0x27F PUSH2 0xB08 JUMP JUMPDEST PUSH1 0x40 MLOAD PUSH2 0x28C SWAP2 SWAP1 PUSH2 0xEF4 JUMP JUMPDEST PUSH1 0x40 MLOAD DUP1 SWAP2 SUB SWAP1 RETURN JUMPDEST PUSH2 0x29D PUSH2 0xB2D JUMP JUMPDEST PUSH1 0x40 MLOAD PUSH2 0x2AA SWAP2 SWAP1 PUSH2 0xD45 JUMP JUMPDEST PUSH1 0x40 MLOAD DUP1 SWAP2 SUB SWAP1 RETURN JUMPDEST PUSH10 0x34F086F3B33B68400000 DUP2 JUMP JUMPDEST PUSH1 0x5 PUSH1 0x20 MSTORE DUP1 PUSH0 MSTORE PUSH1 0x40 PUSH0 KECCAK256 PUSH0 SWAP2 POP SWAP1 POP DUP1 PUSH0 ADD SLOAD SWAP1 DUP1 PUSH1 0x1 ADD SLOAD SWAP1 DUP1 PUSH1 0x2 ADD SLOAD SWAP1 POP DUP4 JUMP JUMPDEST PUSH2 0x2EF PUSH2 0xB32 JUMP JUMPDEST PUSH2 0x2F8 PUSH0 PUSH2 0xBB9 JUMP JUMPDEST JUMP JUMPDEST PUSH2 0x302 PUSH2 0xC7C JUMP JUMPDEST PUSH0 DUP2 GT PUSH2 0x344 JUMPI PUSH1 0x40 MLOAD PUSH32 0x8C379A000000000000000000000000000000000000000000000000000000000 DUP2 MSTORE PUSH1 0x4 ADD PUSH2 0x33B SWAP1 PUSH2 0xF67 JUMP JUMPDEST PUSH1 0x40 MLOAD DUP1 SWAP2 SUB SWAP1 REVERT JUMPDEST PUSH1 0x2 PUSH0 SWAP1 SLOAD SWAP1 PUSH2 0x100 EXP SWAP1 DIV PUSH20 0xFFFFFFFFFFFFFFFFFFFFFFFFFFFFFFFFFFFFFFFF AND PUSH20 0xFFFFFFFFFFFFFFFFFFFFFFFFFFFFFFFFFFFFFFFF AND PUSH4 0x23B872DD CALLER ADDRESS DUP5 PUSH1 0x40 MLOAD DUP5 PUSH4 0xFFFFFFFF AND PUSH1 0xE0 SHL DUP2 MSTORE PUSH1 0x4 ADD PUSH2 0x3A2 SWAP4 SWAP3 SWAP2 SWAP1 PUSH2 0xF85 JUMP JUMPDEST PUSH1 0x20 PUSH1 0x40 MLOAD DUP1 DUP4 SUB DUP2 PUSH0 DUP8 GAS CALL ISZERO DUP1 ISZERO PUSH2 0x3BE JUMPI RETURNDATASIZE PUSH0 DUP1 RETURNDATACOPY RETURNDATASIZE PUSH0 REVERT JUMPDEST POP POP POP POP PUSH1 0x40 MLOAD RETURNDATASIZE PUSH1 0x1F NOT PUSH1 0x1F DUP3 ADD AND DUP3 ADD DUP1 PUSH1 0x40 MSTORE POP DUP2 ADD SWAP1 PUSH2 0x3E2 SWAP2 SWAP1 PUSH2 0xFEF JUMP JUMPDEST PUSH2 0x421 JUMPI PUSH1 0x40 MLOAD PUSH32 0x8C379A000000000000000000000000000000000000000000000000000000000 DUP2 MSTORE PUSH1 0x4 ADD PUSH2 0x418 SWAP1 PUSH2 0x1064 JUMP JUMPDEST PUSH1 0x40 MLOAD DUP1 SWAP2 SUB SWAP1 REVERT JUMPDEST PUSH0 PUSH2 0x42A PUSH2 0xA1A JUMP JUMPDEST SWAP1 POP PUSH1 0x40 MLOAD DUP1 PUSH1 0x60 ADD PUSH1 0x40 MSTORE DUP1 DUP4 DUP2 MSTORE PUSH1 0x20 ADD DUP3 DUP2 MSTORE PUSH1 0x20 ADD TIMESTAMP DUP2 MSTORE POP PUSH1 0x5 PUSH0 CALLER PUSH20 0xFFFFFFFFFFFFFFFFFFFFFFFFFFFFFFFFFFFFFFFF AND PUSH20 0xFFFFFFFFFFFFFFFFFFFFFFFFFFFFFFFFFFFFFFFF AND DUP2 MSTORE PUSH1 0x20 ADD SWAP1 DUP2 MSTORE PUSH1 0x20 ADD PUSH0 KECCAK256 PUSH0 DUP3 ADD MLOAD DUP2 PUSH0 ADD SSTORE PUSH1 0x20 DUP3 ADD MLOAD DUP2 PUSH1 0x1 ADD SSTORE PUSH1 0x40 DUP3 ADD MLOAD DUP2 PUSH1 0x2 ADD SSTORE SWAP1 POP POP PUSH2 0x4B8 DUP3 PUSH1 0x3 SLOAD PUSH2 0xCC9 SWAP1 SWAP2 SWAP1 PUSH4 0xFFFFFFFF AND JUMP JUMPDEST PUSH1 0x3 DUP2 SWAP1 SSTORE POP CALLER PUSH20 0xFFFFFFFFFFFFFFFFFFFFFFFFFFFFFFFFFFFFFFFF AND PUSH32 0x1449C6DD7851ABC30ABF37F57715F492010519147CC2652FBC38202C18A6EE90 DUP4 DUP4 PUSH1 0x40 MLOAD PUSH2 0x506 SWAP3 SWAP2 SWAP1 PUSH2 0x1082 JUMP JUMPDEST PUSH1 0x40 MLOAD DUP1 SWAP2 SUB SWAP1 LOG2 POP PUSH2 0x517 PUSH2 0xCDE JUMP JUMPDEST POP JUMP JUMPDEST PUSH1 0x3 SLOAD DUP2 JUMP JUMPDEST PUSH0 PUSH1 0x1 PUSH0 SWAP1 SLOAD SWAP1 PUSH2 0x100 EXP SWAP1 DIV PUSH20 0xFFFFFFFFFFFFFFFFFFFFFFFFFFFFFFFFFFFFFFFF AND SWAP1 POP SWAP1 JUMP JUMPDEST PUSH1 0x19 DUP2 JUMP JUMPDEST PUSH2 0x555 PUSH2 0xC7C JUMP JUMPDEST PUSH0 PUSH1 0x5 PUSH0 CALLER PUSH20 0xFFFFFFFFFFFFFFFFFFFFFFFFFFFFFFFFFFFFFFFF AND PUSH20 0xFFFFFFFFFFFFFFFFFFFFFFFFFFFFFFFFFFFFFFFF AND DUP2 MSTORE PUSH1 0x20 ADD SWAP1 DUP2 MSTORE PUSH1 0x20 ADD PUSH0 KECCAK256 SWAP1 POP PUSH0 DUP2 PUSH0 ADD SLOAD GT PUSH2 0x5DA JUMPI PUSH1 0x40 MLOAD PUSH32 0x8C379A000000000000000000000000000000000000000000000000000000000 DUP2 MSTORE PUSH1 0x4 ADD PUSH2 0x5D1 SWAP1 PUSH2 0x10F3 JUMP JUMPDEST PUSH1 0x40 MLOAD DUP1 SWAP2 SUB SWAP1 REVERT JUMPDEST PUSH0 PUSH2 0x5E4 CALLER PUSH2 0x92E JUMP JUMPDEST SWAP1 POP PUSH0 PUSH2 0x60E PUSH1 0x2 PUSH2 0x600 PUSH1 0x3 DUP6 PUSH2 0xCE7 SWAP1 SWAP2 SWAP1 PUSH4 0xFFFFFFFF AND JUMP JUMPDEST PUSH2 0xCFC SWAP1 SWAP2 SWAP1 PUSH4 0xFFFFFFFF AND JUMP JUMPDEST SWAP1 POP PUSH1 0x2 PUSH0 SWAP1 SLOAD SWAP1 PUSH2 0x100 EXP SWAP1 DIV PUSH20 0xFFFFFFFFFFFFFFFFFFFFFFFFFFFFFFFFFFFFFFFF AND PUSH20 0xFFFFFFFFFFFFFFFFFFFFFFFFFFFFFFFFFFFFFFFF AND PUSH4 0xA9059CBB PUSH1 0x2 PUSH0 SWAP1 SLOAD SWAP1 PUSH2 0x100 EXP SWAP1 DIV PUSH20 0xFFFFFFFFFFFFFFFFFFFFFFFFFFFFFFFFFFFFFFFF AND DUP4 PUSH1 0x40 MLOAD DUP4 PUSH4 0xFFFFFFFF AND PUSH1 0xE0 SHL DUP2 MSTORE PUSH1 0x4 ADD PUSH2 0x68D SWAP3 SWAP2 SWAP1 PUSH2 0x1111 JUMP JUMPDEST PUSH1 0x20 PUSH1 0x40 MLOAD DUP1 DUP4 SUB DUP2 PUSH0 DUP8 GAS CALL ISZERO DUP1 ISZERO PUSH2 0x6A9 JUMPI RETURNDATASIZE PUSH0 DUP1 RETURNDATACOPY RETURNDATASIZE PUSH0 REVERT JUMPDEST POP POP POP POP PUSH1 0x40 MLOAD RETURNDATASIZE PUSH1 0x1F NOT PUSH1 0x1F DUP3 ADD AND DUP3 ADD DUP1 PUSH1 0x40 MSTORE POP DUP2 ADD SWAP1 PUSH2 0x6CD SWAP2 SWAP1 PUSH2 0xFEF JUMP JUMPDEST POP PUSH1 0x2 PUSH0 SWAP1 SLOAD SWAP1 PUSH2 0x100 EXP SWAP1 DIV PUSH20 0xFFFFFFFFFFFFFFFFFFFFFFFFFFFFFFFFFFFFFFFF AND PUSH20 0xFFFFFFFFFFFFFFFFFFFFFFFFFFFFFFFFFFFFFFFF AND PUSH4 0xA9059CBB CALLER PUSH2 0x722 DUP6 DUP8 PUSH0 ADD SLOAD PUSH2 0xCC9 SWAP1 SWAP2 SWAP1 PUSH4 0xFFFFFFFF AND JUMP JUMPDEST PUSH1 0x40 MLOAD DUP4 PUSH4 0xFFFFFFFF AND PUSH1 0xE0 SHL DUP2 MSTORE PUSH1 0x4 ADD PUSH2 0x73F SWAP3 SWAP2 SWAP1 PUSH2 0x1111 JUMP JUMPDEST PUSH1 0x20 PUSH1 0x40 MLOAD DUP1 DUP4 SUB DUP2 PUSH0 DUP8 GAS CALL ISZERO DUP1 ISZERO PUSH2 0x75B JUMPI RETURNDATASIZE PUSH0 DUP1 RETURNDATACOPY RETURNDATASIZE PUSH0 REVERT JUMPDEST POP POP POP POP PUSH1 0x40 MLOAD RETURNDATASIZE PUSH1 0x1F NOT PUSH1 0x1F DUP3 ADD AND DUP3 ADD DUP1 PUSH1 0x40 MSTORE POP DUP2 ADD SWAP1 PUSH2 0x77F SWAP2 SWAP1 PUSH2 0xFEF JUMP JUMPDEST PUSH2 0x7BE JUMPI PUSH1 0x40 MLOAD PUSH32 0x8C379A000000000000000000000000000000000000000000000000000000000 DUP2 MSTORE PUSH1 0x4 ADD PUSH2 0x7B5 SWAP1 PUSH2 0x1064 JUMP JUMPDEST PUSH1 0x40 MLOAD DUP1 SWAP2 SUB SWAP1 REVERT JUMPDEST PUSH2 0x7D6 DUP4 PUSH0 ADD SLOAD PUSH1 0x3 SLOAD PUSH2 0xD11 SWAP1 SWAP2 SWAP1 PUSH4 0xFFFFFFFF AND JUMP JUMPDEST PUSH1 0x3 DUP2 SWAP1 SSTORE POP PUSH2 0x7F1 DUP3 PUSH1 0x4 SLOAD PUSH2 0xCC9 SWAP1 SWAP2 SWAP1 PUSH4 0xFFFFFFFF AND JUMP JUMPDEST PUSH1 0x4 DUP2 SWAP1 SSTORE POP PUSH1 0x5 PUSH0 CALLER PUSH20 0xFFFFFFFFFFFFFFFFFFFFFFFFFFFFFFFFFFFFFFFF AND PUSH20 0xFFFFFFFFFFFFFFFFFFFFFFFFFFFFFFFFFFFFFFFF AND DUP2 MSTORE PUSH1 0x20 ADD SWAP1 DUP2 MSTORE PUSH1 0x20 ADD PUSH0 KECCAK256 PUSH0 DUP1 DUP3 ADD PUSH0 SWAP1 SSTORE PUSH1 0x1 DUP3 ADD PUSH0 SWAP1 SSTORE PUSH1 0x2 DUP3 ADD PUSH0 SWAP1 SSTORE POP POP CALLER PUSH20 0xFFFFFFFFFFFFFFFFFFFFFFFFFFFFFFFFFFFFFFFF AND PUSH32 0xF5BB82176FEB1B5E747E28471AA92156A04D9F3AB9F45F28E2D704232B93F75 DUP5 PUSH0 ADD SLOAD PUSH1 0x40 MLOAD PUSH2 0x894 SWAP2 SWAP1 PUSH2 0xD45 JUMP JUMPDEST PUSH1 0x40 MLOAD DUP1 SWAP2 SUB SWAP1 LOG2 CALLER PUSH20 0xFFFFFFFFFFFFFFFFFFFFFFFFFFFFFFFFFFFFFFFF AND PUSH32 0xE2403640BA68FED3A2F88B7557551D1993F84B99BB10FF833F0CF8DB0C5E0486 DUP4 PUSH1 0x40 MLOAD PUSH2 0x8E2 SWAP2 SWAP1 PUSH2 0xD45 JUMP JUMPDEST PUSH1 0x40 MLOAD DUP1 SWAP2 SUB SWAP1 LOG2 PUSH32 0x6EF4855B666DCC7884561072E4358B28DFE01FEB1B7F4DCEBC00E62D50394AC7 DUP2 PUSH1 0x40 MLOAD PUSH2 0x919 SWAP2 SWAP1 PUSH2 0xD45 JUMP JUMPDEST PUSH1 0x40 MLOAD DUP1 SWAP2 SUB SWAP1 LOG1 POP POP POP PUSH2 0x92C PUSH2 0xCDE JUMP JUMPDEST JUMP JUMPDEST PUSH0 DUP1 PUSH1 0x5 PUSH0 DUP5 PUSH20 0xFFFFFFFFFFFFFFFFFFFFFFFFFFFFFFFFFFFFFFFF AND PUSH20 0xFFFFFFFFFFFFFFFFFFFFFFFFFFFFFFFFFFFFFFFF AND DUP2 MSTORE PUSH1 0x20 ADD SWAP1 DUP2 MSTORE PUSH1 0x20 ADD PUSH0 KECCAK256 PUSH1 0x40 MLOAD DUP1 PUSH1 0x60 ADD PUSH1 0x40 MSTORE SWAP1 DUP2 PUSH0 DUP3 ADD SLOAD DUP2 MSTORE PUSH1 0x20 ADD PUSH1 0x1 DUP3 ADD SLOAD DUP2 MSTORE PUSH1 0x20 ADD PUSH1 0x2 DUP3 ADD SLOAD DUP2 MSTORE POP POP SWAP1 POP PUSH0 PUSH2 0x9AF DUP3 PUSH1 0x40 ADD MLOAD TIMESTAMP PUSH2 0xD11 SWAP1 SWAP2 SWAP1 PUSH4 0xFFFFFFFF AND JUMP JUMPDEST SWAP1 POP PUSH0 PUSH2 0xA07 PUSH1 0x64 PUSH2 0x9F9 PUSH4 0x1E13380 PUSH2 0x9EB DUP7 PUSH2 0x9DD DUP10 PUSH1 0x20 ADD MLOAD DUP11 PUSH0 ADD MLOAD PUSH2 0xCE7 SWAP1 SWAP2 SWAP1 PUSH4 0xFFFFFFFF AND JUMP JUMPDEST PUSH2 0xCE7 SWAP1 SWAP2 SWAP1 PUSH4 0xFFFFFFFF AND JUMP JUMPDEST PUSH2 0xCFC SWAP1 SWAP2 SWAP1 PUSH4 0xFFFFFFFF AND JUMP JUMPDEST PUSH2 0xCFC SWAP1 SWAP2 SWAP1 PUSH4 0xFFFFFFFF AND JUMP JUMPDEST SWAP1 POP DUP1 SWAP4 POP POP POP POP SWAP2 SWAP1 POP JUMP JUMPDEST PUSH1 0x4 SLOAD DUP2 JUMP JUMPDEST PUSH0 DUP1 PUSH2 0xA4E PUSH1 0x5 PUSH2 0xA40 PUSH10 0x34F086F3B33B68400000 PUSH1 0x4 SLOAD PUSH2 0xCFC SWAP1 SWAP2 SWAP1 PUSH4 0xFFFFFFFF AND JUMP JUMPDEST PUSH2 0xCE7 SWAP1 SWAP2 SWAP1 PUSH4 0xFFFFFFFF AND JUMP JUMPDEST SWAP1 POP PUSH0 DUP2 PUSH1 0x19 GT PUSH2 0xA60 JUMPI PUSH1 0x5 PUSH2 0xA75 JUMP JUMPDEST PUSH2 0xA74 DUP3 PUSH1 0x19 PUSH2 0xD11 SWAP1 SWAP2 SWAP1 PUSH4 0xFFFFFFFF AND JUMP JUMPDEST JUMPDEST SWAP1 POP DUP1 SWAP3 POP POP POP SWAP1 JUMP JUMPDEST PUSH1 0x5 DUP2 JUMP JUMPDEST PUSH2 0xA8C PUSH2 0xB32 JUMP JUMPDEST PUSH0 PUSH20 0xFFFFFFFFFFFFFFFFFFFFFFFFFFFFFFFFFFFFFFFF AND DUP2 PUSH20 0xFFFFFFFFFFFFFFFFFFFFFFFFFFFFFFFFFFFFFFFF AND SUB PUSH2 0xAFC JUMPI PUSH0 PUSH1 0x40 MLOAD PUSH32 0x1E4FBDF700000000000000000000000000000000000000000000000000000000 DUP2 MSTORE PUSH1 0x4 ADD PUSH2 0xAF3 SWAP2 SWAP1 PUSH2 0xE80 JUMP JUMPDEST PUSH1 0x40 MLOAD DUP1 SWAP2 SUB SWAP1 REVERT JUMPDEST PUSH2 0xB05 DUP2 PUSH2 0xBB9 JUMP JUMPDEST POP JUMP JUMPDEST PUSH1 0x2 PUSH0 SWAP1 SLOAD SWAP1 PUSH2 0x100 EXP SWAP1 DIV PUSH20 0xFFFFFFFFFFFFFFFFFFFFFFFFFFFFFFFFFFFFFFFF AND DUP2 JUMP JUMPDEST PUSH1 0x5 DUP2 JUMP JUMPDEST PUSH2 0xB3A PUSH2 0xD26 JUMP JUMPDEST PUSH20 0xFFFFFFFFFFFFFFFFFFFFFFFFFFFFFFFFFFFFFFFF AND PUSH2 0xB58 PUSH2 0x520 JUMP JUMPDEST PUSH20 0xFFFFFFFFFFFFFFFFFFFFFFFFFFFFFFFFFFFFFFFF AND EQ PUSH2 0xBB7 JUMPI PUSH2 0xB7B PUSH2 0xD26 JUMP JUMPDEST PUSH1 0x40 MLOAD PUSH32 0x118CDAA700000000000000000000000000000000000000000000000000000000 DUP2 MSTORE PUSH1 0x4 ADD PUSH2 0xBAE SWAP2 SWAP1 PUSH2 0xE80 JUMP JUMPDEST PUSH1 0x40 MLOAD DUP1 SWAP2 SUB SWAP1 REVERT JUMPDEST JUMP JUMPDEST PUSH0 PUSH1 0x1 PUSH0 SWAP1 SLOAD SWAP1 PUSH2 0x100 EXP SWAP1 DIV PUSH20 0xFFFFFFFFFFFFFFFFFFFFFFFFFFFFFFFFFFFFFFFF AND SWAP1 POP DUP2 PUSH1 0x1 PUSH0 PUSH2 0x100 EXP DUP2 SLOAD DUP2 PUSH20 0xFFFFFFFFFFFFFFFFFFFFFFFFFFFFFFFFFFFFFFFF MUL NOT AND SWAP1 DUP4 PUSH20 0xFFFFFFFFFFFFFFFFFFFFFFFFFFFFFFFFFFFFFFFF AND MUL OR SWAP1 SSTORE POP DUP2 PUSH20 0xFFFFFFFFFFFFFFFFFFFFFFFFFFFFFFFFFFFFFFFF AND DUP2 PUSH20 0xFFFFFFFFFFFFFFFFFFFFFFFFFFFFFFFFFFFFFFFF AND PUSH32 0x8BE0079C531659141344CD1FD0A4F28419497F9722A3DAAFE3B4186F6B6457E0 PUSH1 0x40 MLOAD PUSH1 0x40 MLOAD DUP1 SWAP2 SUB SWAP1 LOG3 POP POP JUMP JUMPDEST PUSH1 0x2 PUSH0 SLOAD SUB PUSH2 0xCC0 JUMPI PUSH1 0x40 MLOAD PUSH32 0x8C379A000000000000000000000000000000000000000000000000000000000 DUP2 MSTORE PUSH1 0x4 ADD PUSH2 0xCB7 SWAP1 PUSH2 0x1182 JUMP JUMPDEST PUSH1 0x40 MLOAD DUP1 SWAP2 SUB SWAP1 REVERT JUMPDEST PUSH1 0x2 PUSH0 DUP2 SWAP1 SSTORE POP JUMP JUMPDEST PUSH0 DUP2 DUP4 PUSH2 0xCD6 SWAP2 SWAP1 PUSH2 0x11CD JUMP JUMPDEST SWAP1 POP SWAP3 SWAP2 POP POP JUMP JUMPDEST PUSH1 0x1 PUSH0 DUP2 SWAP1 SSTORE POP JUMP JUMPDEST PUSH0 DUP2 DUP4 PUSH2 0xCF4 SWAP2 SWAP1 PUSH2 0x1200 JUMP JUMPDEST SWAP1 POP SWAP3 SWAP2 POP POP JUMP JUMPDEST PUSH0 DUP2 DUP4 PUSH2 0xD09 SWAP2 SWAP1 PUSH2 0x126E JUMP JUMPDEST SWAP1 POP SWAP3 SWAP2 POP POP JUMP JUMPDEST PUSH0 DUP2 DUP4 PUSH2 0xD1E SWAP2 SWAP1 PUSH2 0x129E JUMP JUMPDEST SWAP1 POP SWAP3 SWAP2 POP POP JUMP JUMPDEST PUSH0 CALLER SWAP1 POP SWAP1 JUMP JUMPDEST PUSH0 DUP2 SWAP1 POP SWAP2 SWAP1 POP JUMP JUMPDEST PUSH2 0xD3F DUP2 PUSH2 0xD2D JUMP JUMPDEST DUP3 MSTORE POP POP JUMP JUMPDEST PUSH0 PUSH1 0x20 DUP3 ADD SWAP1 POP PUSH2 0xD58 PUSH0 DUP4 ADD DUP5 PUSH2 0xD36 JUMP JUMPDEST SWAP3 SWAP2 POP POP JUMP JUMPDEST PUSH0 DUP1 REVERT JUMPDEST PUSH0 PUSH20 0xFFFFFFFFFFFFFFFFFFFFFFFFFFFFFFFFFFFFFFFF DUP3 AND SWAP1 POP SWAP2 SWAP1 POP JUMP JUMPDEST PUSH0 PUSH2 0xD8B DUP3 PUSH2 0xD62 JUMP JUMPDEST SWAP1 POP SWAP2 SWAP1 POP JUMP JUMPDEST PUSH2 0xD9B DUP2 PUSH2 0xD81 JUMP JUMPDEST DUP2 EQ PUSH2 0xDA5 JUMPI PUSH0 DUP1 REVERT JUMPDEST POP JUMP JUMPDEST PUSH0 DUP2 CALLDATALOAD SWAP1 POP PUSH2 0xDB6 DUP2 PUSH2 0xD92 JUMP JUMPDEST SWAP3 SWAP2 POP POP JUMP JUMPDEST PUSH0 PUSH1 0x20 DUP3 DUP5 SUB SLT ISZERO PUSH2 0xDD1 JUMPI PUSH2 0xDD0 PUSH2 0xD5E JUMP JUMPDEST JUMPDEST PUSH0 PUSH2 0xDDE DUP5 DUP3 DUP6 ADD PUSH2 0xDA8 JUMP JUMPDEST SWAP2 POP POP SWAP3 SWAP2 POP POP JUMP JUMPDEST PUSH0 PUSH1 0x60 DUP3 ADD SWAP1 POP PUSH2 0xDFA PUSH0 DUP4 ADD DUP7 PUSH2 0xD36 JUMP JUMPDEST PUSH2 0xE07 PUSH1 0x20 DUP4 ADD DUP6 PUSH2 0xD36 JUMP JUMPDEST PUSH2 0xE14 PUSH1 0x40 DUP4 ADD DUP5 PUSH2 0xD36 JUMP JUMPDEST SWAP5 SWAP4 POP POP POP POP JUMP JUMPDEST PUSH2 0xE25 DUP2 PUSH2 0xD2D JUMP JUMPDEST DUP2 EQ PUSH2 0xE2F JUMPI PUSH0 DUP1 REVERT JUMPDEST POP JUMP JUMPDEST PUSH0 DUP2 CALLDATALOAD SWAP1 POP PUSH2 0xE40 DUP2 PUSH2 0xE1C JUMP JUMPDEST SWAP3 SWAP2 POP POP JUMP JUMPDEST PUSH0 PUSH1 0x20 DUP3 DUP5 SUB SLT ISZERO PUSH2 0xE5B JUMPI PUSH2 0xE5A PUSH2 0xD5E JUMP JUMPDEST JUMPDEST PUSH0 PUSH2 0xE68 DUP5 DUP3 DUP6 ADD PUSH2 0xE32 JUMP JUMPDEST SWAP2 POP POP SWAP3 SWAP2 POP POP JUMP JUMPDEST PUSH2 0xE7A DUP2 PUSH2 0xD81 JUMP JUMPDEST DUP3 MSTORE POP POP JUMP JUMPDEST PUSH0 PUSH1 0x20 DUP3 ADD SWAP1 POP PUSH2 0xE93 PUSH0 DUP4 ADD DUP5 PUSH2 0xE71 JUMP JUMPDEST SWAP3 SWAP2 POP POP JUMP JUMPDEST PUSH0 DUP2 SWAP1 POP SWAP2 SWAP1 POP JUMP JUMPDEST PUSH0 PUSH2 0xEBC PUSH2 0xEB7 PUSH2 0xEB2 DUP5 PUSH2 0xD62 JUMP JUMPDEST PUSH2 0xE99 JUMP JUMPDEST PUSH2 0xD62 JUMP JUMPDEST SWAP1 POP SWAP2 SWAP1 POP JUMP JUMPDEST PUSH0 PUSH2 0xECD DUP3 PUSH2 0xEA2 JUMP JUMPDEST SWAP1 POP SWAP2 SWAP1 POP JUMP JUMPDEST PUSH0 PUSH2 0xEDE DUP3 PUSH2 0xEC3 JUMP JUMPDEST SWAP1 POP SWAP2 SWAP1 POP JUMP JUMPDEST PUSH2 0xEEE DUP2 PUSH2 0xED4 JUMP JUMPDEST DUP3 MSTORE POP POP JUMP JUMPDEST PUSH0 PUSH1 0x20 DUP3 ADD SWAP1 POP PUSH2 0xF07 PUSH0 DUP4 ADD DUP5 PUSH2 0xEE5 JUMP JUMPDEST SWAP3 SWAP2 POP POP JUMP JUMPDEST PUSH0 DUP3 DUP3 MSTORE PUSH1 0x20 DUP3 ADD SWAP1 POP SWAP3 SWAP2 POP POP JUMP JUMPDEST PUSH32 0x43616E6E6F74207374616B65203020746F6B656E730000000000000000000000 PUSH0 DUP3 ADD MSTORE POP JUMP JUMPDEST PUSH0 PUSH2 0xF51 PUSH1 0x15 DUP4 PUSH2 0xF0D JUMP JUMPDEST SWAP2 POP PUSH2 0xF5C DUP3 PUSH2 0xF1D JUMP JUMPDEST PUSH1 0x20 DUP3 ADD SWAP1 POP SWAP2 SWAP1 POP JUMP JUMPDEST PUSH0 PUSH1 0x20 DUP3 ADD SWAP1 POP DUP2 DUP2 SUB PUSH0 DUP4 ADD MSTORE PUSH2 0xF7E DUP2 PUSH2 0xF45 JUMP JUMPDEST SWAP1 POP SWAP2 SWAP1 POP JUMP JUMPDEST PUSH0 PUSH1 0x60 DUP3 ADD SWAP1 POP PUSH2 0xF98 PUSH0 DUP4 ADD DUP7 PUSH2 0xE71 JUMP JUMPDEST PUSH2 0xFA5 PUSH1 0x20 DUP4 ADD DUP6 PUSH2 0xE71 JUMP JUMPDEST PUSH2 0xFB2 PUSH1 0x40 DUP4 ADD DUP5 PUSH2 0xD36 JUMP JUMPDEST SWAP5 SWAP4 POP POP POP POP JUMP JUMPDEST PUSH0 DUP2 ISZERO ISZERO SWAP1 POP SWAP2 SWAP1 POP JUMP JUMPDEST PUSH2 0xFCE DUP2 PUSH2 0xFBA JUMP JUMPDEST DUP2 EQ PUSH2 0xFD8 JUMPI PUSH0 DUP1 REVERT JUMPDEST POP JUMP JUMPDEST PUSH0 DUP2 MLOAD SWAP1 POP PUSH2 0xFE9 DUP2 PUSH2 0xFC5 JUMP JUMPDEST SWAP3 SWAP2 POP POP JUMP JUMPDEST PUSH0 PUSH1 0x20 DUP3 DUP5 SUB SLT ISZERO PUSH2 0x1004 JUMPI PUSH2 0x1003 PUSH2 0xD5E JUMP JUMPDEST JUMPDEST PUSH0 PUSH2 0x1011 DUP5 DUP3 DUP6 ADD PUSH2 0xFDB JUMP JUMPDEST SWAP2 POP POP SWAP3 SWAP2 POP POP JUMP JUMPDEST PUSH32 0x5472616E73666572206661696C65640000000000000000000000000000000000 PUSH0 DUP3 ADD MSTORE POP JUMP JUMPDEST PUSH0 PUSH2 0x104E PUSH1 0xF DUP4 PUSH2 0xF0D JUMP JUMPDEST SWAP2 POP PUSH2 0x1059 DUP3 PUSH2 0x101A JUMP JUMPDEST PUSH1 0x20 DUP3 ADD SWAP1 POP SWAP2 SWAP1 POP JUMP JUMPDEST PUSH0 PUSH1 0x20 DUP3 ADD SWAP1 POP DUP2 DUP2 SUB PUSH0 DUP4 ADD MSTORE PUSH2 0x107B DUP2 PUSH2 0x1042 JUMP JUMPDEST SWAP1 POP SWAP2 SWAP1 POP JUMP JUMPDEST PUSH0 PUSH1 0x40 DUP3 ADD SWAP1 POP PUSH2 0x1095 PUSH0 DUP4 ADD DUP6 PUSH2 0xD36 JUMP JUMPDEST PUSH2 0x10A2 PUSH1 0x20 DUP4 ADD DUP5 PUSH2 0xD36 JUMP JUMPDEST SWAP4 SWAP3 POP POP POP JUMP JUMPDEST PUSH32 0x4E6F20746F6B656E7320746F20756E7374616B65000000000000000000000000 PUSH0 DUP3 ADD MSTORE POP JUMP JUMPDEST PUSH0 PUSH2 0x10DD PUSH1 0x14 DUP4 PUSH2 0xF0D JUMP JUMPDEST SWAP2 POP PUSH2 0x10E8 DUP3 PUSH2 0x10A9 JUMP JUMPDEST PUSH1 0x20 DUP3 ADD SWAP1 POP SWAP2 SWAP1 POP JUMP JUMPDEST PUSH0 PUSH1 0x20 DUP3 ADD SWAP1 POP DUP2 DUP2 SUB PUSH0 DUP4 ADD MSTORE PUSH2 0x110A DUP2 PUSH2 0x10D1 JUMP JUMPDEST SWAP1 POP SWAP2 SWAP1 POP JUMP JUMPDEST PUSH0 PUSH1 0x40 DUP3 ADD SWAP1 POP PUSH2 0x1124 PUSH0 DUP4 ADD DUP6 PUSH2 0xE71 JUMP JUMPDEST PUSH2 0x1131 PUSH1 0x20 DUP4 ADD DUP5 PUSH2 0xD36 JUMP JUMPDEST SWAP4 SWAP3 POP POP POP JUMP JUMPDEST PUSH32 0x5265656E7472616E637947756172643A207265656E7472616E742063616C6C00 PUSH0 DUP3 ADD MSTORE POP JUMP JUMPDEST PUSH0 PUSH2 0x116C PUSH1 0x1F DUP4 PUSH2 0xF0D JUMP JUMPDEST SWAP2 POP PUSH2 0x1177 DUP3 PUSH2 0x1138 JUMP JUMPDEST PUSH1 0x20 DUP3 ADD SWAP1 POP SWAP2 SWAP1 POP JUMP JUMPDEST PUSH0 PUSH1 0x20 DUP3 ADD SWAP1 POP DUP2 DUP2 SUB PUSH0 DUP4 ADD MSTORE PUSH2 0x1199 DUP2 PUSH2 0x1160 JUMP JUMPDEST SWAP1 POP SWAP2 SWAP1 POP JUMP JUMPDEST PUSH32 0x4E487B7100000000000000000000000000000000000000000000000000000000 PUSH0 MSTORE PUSH1 0x11 PUSH1 0x4 MSTORE PUSH1 0x24 PUSH0 REVERT JUMPDEST PUSH0 PUSH2 0x11D7 DUP3 PUSH2 0xD2D JUMP JUMPDEST SWAP2 POP PUSH2 0x11E2 DUP4 PUSH2 0xD2D JUMP JUMPDEST SWAP3 POP DUP3 DUP3 ADD SWAP1 POP DUP1 DUP3 GT ISZERO PUSH2 0x11FA JUMPI PUSH2 0x11F9 PUSH2 0x11A0 JUMP JUMPDEST JUMPDEST SWAP3 SWAP2 POP POP JUMP JUMPDEST PUSH0 PUSH2 0x120A DUP3 PUSH2 0xD2D JUMP JUMPDEST SWAP2 POP PUSH2 0x1215 DUP4 PUSH2 0xD2D JUMP JUMPDEST SWAP3 POP DUP3 DUP3 MUL PUSH2 0x1223 DUP2 PUSH2 0xD2D JUMP JUMPDEST SWAP2 POP DUP3 DUP3 DIV DUP5 EQ DUP4 ISZERO OR PUSH2 0x123A JUMPI PUSH2 0x1239 PUSH2 0x11A0 JUMP JUMPDEST JUMPDEST POP SWAP3 SWAP2 POP POP JUMP JUMPDEST PUSH32 0x4E487B7100000000000000000000000000000000000000000000000000000000 PUSH0 MSTORE PUSH1 0x12 PUSH1 0x4 MSTORE PUSH1 0x24 PUSH0 REVERT JUMPDEST PUSH0 PUSH2 0x1278 DUP3 PUSH2 0xD2D JUMP JUMPDEST SWAP2 POP PUSH2 0x1283 DUP4 PUSH2 0xD2D JUMP JUMPDEST SWAP3 POP DUP3 PUSH2 0x1293 JUMPI PUSH2 0x1292 PUSH2 0x1241 JUMP JUMPDEST JUMPDEST DUP3 DUP3 DIV SWAP1 POP SWAP3 SWAP2 POP POP JUMP JUMPDEST PUSH0 PUSH2 0x12A8 DUP3 PUSH2 0xD2D JUMP JUMPDEST SWAP2 POP PUSH2 0x12B3 DUP4 PUSH2 0xD2D JUMP JUMPDEST SWAP3 POP DUP3 DUP3 SUB SWAP1 POP DUP2 DUP2 GT ISZERO PUSH2 0x12CB JUMPI PUSH2 0x12CA PUSH2 0x11A0 JUMP JUMPDEST JUMPDEST SWAP3 SWAP2 POP POP JUMP INVALID LOG2 PUSH5 0x6970667358 0x22 SLT KECCAK256 ADDRESS PUSH12 0xE834AD8C26995C84FBF93A89 SWAP3 SWAP1 0xF9 0x4B PUSH30 0xE18A2470167F7C5F059EB6CE3464736F6C63430008140033000000000000 "
				},
				"gasEstimates": {
					"creation": {
						"codeDepositCost": "974200",
						"executionCost": "infinite",
						"totalCost": "infinite"
					},
					"external": {
						"MINIMUM_ANNUAL_RETURN()": "347",
						"MINT_RATE_DECREASE()": "413",
						"STARTING_ANNUAL_RETURN()": "414",
						"TOKENS_PER_DECREASE()": "349",
						"calculateReward(address)": "infinite",
						"getCurrentRewardRate()": "infinite",
						"nutzToken()": "infinite",
						"owner()": "2582",
						"renounceOwnership()": "infinite",
						"stakeTokens(uint256)": "infinite",
						"stakes(address)": "infinite",
						"totalRewardsMinted()": "2492",
						"totalStaked()": "2470",
						"transferOwnership(address)": "infinite",
						"unstakeAndClaimRewards()": "infinite"
					}
				},
				"methodIdentifiers": {
					"MINIMUM_ANNUAL_RETURN()": "efc21daa",
					"MINT_RATE_DECREASE()": "fa435959",
					"STARTING_ANNUAL_RETURN()": "bc390610",
					"TOKENS_PER_DECREASE()": "1288af02",
					"calculateReward(address)": "d82e3962",
					"getCurrentRewardRate()": "e6a4a8b5",
					"nutzToken()": "f5cd0264",
					"owner()": "8da5cb5b",
					"renounceOwnership()": "715018a6",
					"stakeTokens(uint256)": "7547c7a3",
					"stakes(address)": "16934fc4",
					"totalRewardsMinted()": "d9c80108",
					"totalStaked()": "817b1cd2",
					"transferOwnership(address)": "f2fde38b",
					"unstakeAndClaimRewards()": "d68f78f0"
				}
			},
			"storageLayout": {
				"storage": [
					{
						"astId": 158,
						"contract": "contracts/NUTZStaking.sol:NUTZStaking",
						"label": "_status",
						"offset": 0,
						"slot": "0",
						"type": "t_uint256"
					},
					{
						"astId": 8,
						"contract": "contracts/NUTZStaking.sol:NUTZStaking",
						"label": "_owner",
						"offset": 0,
						"slot": "1",
						"type": "t_address"
					},
					{
						"astId": 648,
						"contract": "contracts/NUTZStaking.sol:NUTZStaking",
						"label": "nutzToken",
						"offset": 0,
						"slot": "2",
						"type": "t_contract(IERC20)290"
					},
					{
						"astId": 667,
						"contract": "contracts/NUTZStaking.sol:NUTZStaking",
						"label": "totalStaked",
						"offset": 0,
						"slot": "3",
						"type": "t_uint256"
					},
					{
						"astId": 669,
						"contract": "contracts/NUTZStaking.sol:NUTZStaking",
						"label": "totalRewardsMinted",
						"offset": 0,
						"slot": "4",
						"type": "t_uint256"
					},
					{
						"astId": 681,
						"contract": "contracts/NUTZStaking.sol:NUTZStaking",
						"label": "stakes",
						"offset": 0,
						"slot": "5",
						"type": "t_mapping(t_address,t_struct(Stake)676_storage)"
					}
				],
				"types": {
					"t_address": {
						"encoding": "inplace",
						"label": "address",
						"numberOfBytes": "20"
					},
					"t_contract(IERC20)290": {
						"encoding": "inplace",
						"label": "contract IERC20",
						"numberOfBytes": "20"
					},
					"t_mapping(t_address,t_struct(Stake)676_storage)": {
						"encoding": "mapping",
						"key": "t_address",
						"label": "mapping(address => struct NUTZStaking.Stake)",
						"numberOfBytes": "32",
						"value": "t_struct(Stake)676_storage"
					},
					"t_struct(Stake)676_storage": {
						"encoding": "inplace",
						"label": "struct NUTZStaking.Stake",
						"members": [
							{
								"astId": 671,
								"contract": "contracts/NUTZStaking.sol:NUTZStaking",
								"label": "amount",
								"offset": 0,
								"slot": "0",
								"type": "t_uint256"
							},
							{
								"astId": 673,
								"contract": "contracts/NUTZStaking.sol:NUTZStaking",
								"label": "rewardRate",
								"offset": 0,
								"slot": "1",
								"type": "t_uint256"
							},
							{
								"astId": 675,
								"contract": "contracts/NUTZStaking.sol:NUTZStaking",
								"label": "stakingTime",
								"offset": 0,
								"slot": "2",
								"type": "t_uint256"
							}
						],
						"numberOfBytes": "96"
					},
					"t_uint256": {
						"encoding": "inplace",
						"label": "uint256",
						"numberOfBytes": "32"
					}
				}
			},
			"userdoc": {
				"kind": "user",
				"methods": {},
				"version": 1
			}
		}
	}
}