{
	"data": {
		"bytecode": {
			"linkReferences": {},
			"object": "61018060405234801562000011575f80fd5b5060405162005d7538038062005d75833981810160405281019062000037919062000357565b806040518060400160405280600e81526020017f4e55545a476f7665726e616e6365000000000000000000000000000000000000815250806200007f6200017e60201b60201c565b620000945f83620001bb60201b90919060201c565b6101208181525050620000b2600182620001bb60201b90919060201c565b6101408181525050818051906020012060e08181525050808051906020012061010081815250504660a08181525050620000f16200021060201b60201c565b608081815250503073ffffffffffffffffffffffffffffffffffffffff1660c08173ffffffffffffffffffffffffffffffffffffffff1681525050505080600390816200013f9190620005eb565b50508073ffffffffffffffffffffffffffffffffffffffff166101608173ffffffffffffffffffffffffffffffffffffffff16815250505050620008b0565b60606040518060400160405280600181526020017f3100000000000000000000000000000000000000000000000000000000000000815250905090565b5f602083511015620001e057620001d8836200026c60201b60201c565b90506200020a565b82620001f283620002d660201b60201c565b5f019081620002029190620005eb565b5060ff5f1b90505b92915050565b5f7f8b73c3c69bb8fe3d512ecc4cf759cc79239f7b179b0ffacaa9a75d522b39400f60e051610100514630604051602001620002519594939291906200070b565b60405160208183030381529060405280519060200120905090565b5f80829050601f81511115620002bb57826040517f305a27a9000000000000000000000000000000000000000000000000000000008152600401620002b29190620007f0565b60405180910390fd5b805181620002c99062000841565b5f1c175f1b915050919050565b5f819050919050565b5f80fd5b5f73ffffffffffffffffffffffffffffffffffffffff82169050919050565b5f6200030e82620002e3565b9050919050565b5f620003218262000302565b9050919050565b620003338162000315565b81146200033e575f80fd5b50565b5f81519050620003518162000328565b92915050565b5f602082840312156200036f576200036e620002df565b5b5f6200037e8482850162000341565b91505092915050565b5f81519050919050565b7f4e487b71000000000000000000000000000000000000000000000000000000005f52604160045260245ffd5b7f4e487b71000000000000000000000000000000000000000000000000000000005f52602260045260245ffd5b5f60028204905060018216806200040357607f821691505b602082108103620004195762000418620003be565b5b50919050565b5f819050815f5260205f209050919050565b5f6020601f8301049050919050565b5f82821b905092915050565b5f600883026200047d7fffffffffffffffffffffffffffffffffffffffffffffffffffffffffffffffff8262000440565b62000489868362000440565b95508019841693508086168417925050509392505050565b5f819050919050565b5f819050919050565b5f620004d3620004cd620004c784620004a1565b620004aa565b620004a1565b9050919050565b5f819050919050565b620004ee83620004b3565b62000506620004fd82620004da565b8484546200044c565b825550505050565b5f90565b6200051c6200050e565b62000529818484620004e3565b505050565b5b818110156200055057620005445f8262000512565b6001810190506200052f565b5050565b601f8211156200059f5762000569816200041f565b620005748462000431565b8101602085101562000584578190505b6200059c620005938562000431565b8301826200052e565b50505b505050565b5f82821c905092915050565b5f620005c15f1984600802620005a4565b1980831691505092915050565b5f620005db8383620005b0565b9150826002028217905092915050565b620005f68262000387565b67ffffffffffffffff81111562000612576200061162000391565b5b6200061e8254620003eb565b6200062b82828562000554565b5f60209050601f83116001811462000661575f84156200064c578287015190505b620006588582620005ce565b865550620006c7565b601f19841662000671866200041f565b5f5b828110156200069a5784890151825560018201915060208501945060208101905062000673565b86831015620006ba5784890151620006b6601f891682620005b0565b8355505b6001600288020188555050505b505050505050565b5f819050919050565b620006e381620006cf565b82525050565b620006f481620004a1565b82525050565b620007058162000302565b82525050565b5f60a082019050620007205f830188620006d8565b6200072f6020830187620006d8565b6200073e6040830186620006d8565b6200074d6060830185620006e9565b6200075c6080830184620006fa565b9695505050505050565b5f82825260208201905092915050565b5f5b838110156200079557808201518184015260208101905062000778565b5f8484015250505050565b5f601f19601f8301169050919050565b5f620007bc8262000387565b620007c8818562000766565b9350620007da81856020860162000776565b620007e581620007a0565b840191505092915050565b5f6020820190508181035f8301526200080a8184620007b0565b905092915050565b5f81519050919050565b5f819050602082019050919050565b5f620008388251620006cf565b80915050919050565b5f6200084d8262000812565b8262000859846200081c565b905062000866816200082b565b92506020821015620008a957620008a47fffffffffffffffffffffffffffffffffffffffffffffffffffffffffffffffff8360200360080262000440565b831692505b5050919050565b60805160a05160c05160e051610100516101205161014051610160516154696200090c5f395f611c6401525f6127f501525f6127ba01525f61322701525f61320601525f6129f301525f612a4901525f612a7201526154695ff3fe608060405260043610610233575f3560e01c80637b3c71d31161012d578063bc197c81116100aa578063deaaa7cc1161006e578063deaaa7cc146109ca578063eb9019d4146109f4578063f23a6e6114610a30578063f8ce560a14610a6c578063fc0c546a14610aa8576102a6565b8063bc197c81146108d0578063c01f9e371461090c578063c28bc2fa14610948578063c59057e414610964578063dd4e2ba5146109a0576102a6565b806391ddadf4116100f157806391ddadf4146107c85780639a802a6d146107f2578063a9a952941461082e578063ab58fb8e1461086a578063b58131b0146108a6576102a6565b80637b3c71d3146106a85780637d5e81e2146106e45780637ecebe001461072057806384b0196e1461075c5780638ff262e31461078c576102a6565b80633932abb1116101bb578063544ffc9c1161017f578063544ffc9c1461058c57806354fd4d50146105ca57806356781388146105f45780635b8d0e0d146106305780635f398a141461066c576102a6565b80633932abb1146104845780633e4f49e6146104ae57806343859632146104ea578063452115d6146105265780634bf5d7e914610562576102a6565b8063150b7a0211610202578063150b7a0214610376578063160cbed7146103b25780632656227d146103ee5780632d63f6931461041e5780632fe3e2611461045a576102a6565b806301ffc9a7146102aa57806302a251a3146102e657806306fdde0314610310578063143489d01461033a576102a6565b366102a6573073ffffffffffffffffffffffffffffffffffffffff16610257610ad2565b73ffffffffffffffffffffffffffffffffffffffff16146102a4576040517fe90a651e00000000000000000000000000000000000000000000000000000000815260040160405180910390fd5b005b5f80fd5b3480156102b5575f80fd5b506102d060048036038101906102cb9190613484565b610ad9565b6040516102dd91906134c9565b60405180910390f35b3480156102f1575f80fd5b506102fa610bba565b60405161030791906134fa565b60405180910390f35b34801561031b575f80fd5b50610324610bc3565b604051610331919061359d565b60405180910390f35b348015610345575f80fd5b50610360600480360381019061035b91906135e7565b610c53565b60405161036d9190613651565b60405180910390f35b348015610381575f80fd5b5061039c600480360381019061039791906137c0565b610c8e565b6040516103a9919061384f565b60405180910390f35b3480156103bd575f80fd5b506103d860048036038101906103d39190613afd565b610d0d565b6040516103e591906134fa565b60405180910390f35b61040860048036038101906104039190613afd565b610e03565b60405161041591906134fa565b60405180910390f35b348015610429575f80fd5b50610444600480360381019061043f91906135e7565b610fe3565b60405161045191906134fa565b60405180910390f35b348015610465575f80fd5b5061046e611019565b60405161047b9190613bc4565b60405180910390f35b34801561048f575f80fd5b5061049861103d565b6040516104a591906134fa565b60405180910390f35b3480156104b9575f80fd5b506104d460048036038101906104cf91906135e7565b611045565b6040516104e19190613c50565b60405180910390f35b3480156104f5575f80fd5b50610510600480360381019061050b9190613c69565b61119c565b60405161051d91906134c9565b60405180910390f35b348015610531575f80fd5b5061054c60048036038101906105479190613afd565b611201565b60405161055991906134fa565b60405180910390f35b34801561056d575f80fd5b506105766112c1565b604051610583919061359d565b60405180910390f35b348015610597575f80fd5b506105b260048036038101906105ad91906135e7565b61137e565b6040516105c193929190613ca7565b60405180910390f35b3480156105d5575f80fd5b506105de6113b1565b6040516105eb919061359d565b60405180910390f35b3480156105ff575f80fd5b5061061a60048036038101906106159190613d12565b6113ee565b60405161062791906134fa565b60405180910390f35b34801561063b575f80fd5b5061065660048036038101906106519190613da9565b61141d565b60405161066391906134fa565b60405180910390f35b348015610677575f80fd5b50610692600480360381019061068d9190613e8b565b61154c565b60405161069f91906134fa565b60405180910390f35b3480156106b3575f80fd5b506106ce60048036038101906106c99190613f2b565b6115b4565b6040516106db91906134fa565b60405180910390f35b3480156106ef575f80fd5b5061070a6004803603810190610705919061403a565b61161a565b60405161071791906134fa565b60405180910390f35b34801561072b575f80fd5b506107466004803603810190610741919061410e565b611707565b60405161075391906134fa565b60405180910390f35b348015610767575f80fd5b5061077061174d565b604051610783979695949392919061422a565b60405180910390f35b348015610797575f80fd5b506107b260048036038101906107ad91906142ac565b6117f2565b6040516107bf91906134fa565b60405180910390f35b3480156107d3575f80fd5b506107dc6118c6565b6040516107e9919061434c565b60405180910390f35b3480156107fd575f80fd5b5061081860048036038101906108139190614365565b611951565b60405161082591906134fa565b60405180910390f35b348015610839575f80fd5b50610854600480360381019061084f91906135e7565b611966565b60405161086191906134c9565b60405180910390f35b348015610875575f80fd5b50610890600480360381019061088b91906135e7565b61196c565b60405161089d91906134fa565b60405180910390f35b3480156108b1575f80fd5b506108ba6119a2565b6040516108c791906134fa565b60405180910390f35b3480156108db575f80fd5b506108f660048036038101906108f191906143d1565b6119b2565b604051610903919061384f565b60405180910390f35b348015610917575f80fd5b50610932600480360381019061092d91906135e7565b611a32565b60405161093f91906134fa565b60405180910390f35b610962600480360381019061095d91906144f1565b611a9c565b005b34801561096f575f80fd5b5061098a60048036038101906109859190613afd565b611b25565b60405161099791906134fa565b60405180910390f35b3480156109ab575f80fd5b506109b4611b5f565b6040516109c1919061359d565b60405180910390f35b3480156109d5575f80fd5b506109de611b9c565b6040516109eb9190613bc4565b60405180910390f35b3480156109ff575f80fd5b50610a1a6004803603810190610a159190614562565b611bc0565b604051610a2791906134fa565b60405180910390f35b348015610a3b575f80fd5b50610a566004803603810190610a5191906145a0565b611bdb565b604051610a63919061384f565b60405180910390f35b348015610a77575f80fd5b50610a926004803603810190610a8d91906135e7565b611c5b565b604051610a9f91906134fa565b60405180910390f35b348015610ab3575f80fd5b50610abc611c61565b604051610ac9919061468e565b60405180910390f35b5f30905090565b5f7f65455a86000000000000000000000000000000000000000000000000000000007bffffffffffffffffffffffffffffffffffffffffffffffffffffffff1916827bffffffffffffffffffffffffffffffffffffffffffffffffffffffff19161480610ba357507f4e2312e0000000000000000000000000000000000000000000000000000000007bffffffffffffffffffffffffffffffffffffffffffffffffffffffff1916827bffffffffffffffffffffffffffffffffffffffffffffffffffffffff1916145b80610bb35750610bb282611c88565b5b9050919050565b5f61b2fa905090565b606060038054610bd2906146d4565b80601f0160208091040260200160405190810160405280929190818152602001828054610bfe906146d4565b8015610c495780601f10610c2057610100808354040283529160200191610c49565b820191905f5260205f20905b815481529060010190602001808311610c2c57829003601f168201915b5050505050905090565b5f60045f8381526020019081526020015f205f015f9054906101000a900473ffffffffffffffffffffffffffffffffffffffff169050919050565b5f3073ffffffffffffffffffffffffffffffffffffffff16610cae610ad2565b73ffffffffffffffffffffffffffffffffffffffff1614610cfb576040517fe90a651e00000000000000000000000000000000000000000000000000000000815260040160405180910390fd5b63150b7a0260e01b9050949350505050565b5f80610d1b86868686611b25565b9050610d3081610d2b6004611cf1565b611d15565b505f610d3f8288888888611d80565b90505f8165ffffffffffff1614610dc4578060045f8481526020019081526020015f206001015f6101000a81548165ffffffffffff021916908365ffffffffffff1602179055507f9a2e42fd6722813d69113e7d0079d3d940171428df7373df9c7f7617cfda28928282604051610db7929190614734565b60405180910390a1610df6565b6040517f90884a4600000000000000000000000000000000000000000000000000000000815260040160405180910390fd5b8192505050949350505050565b5f80610e1186868686611b25565b9050610e3181610e216005611cf1565b610e2b6004611cf1565b17611d15565b50600160045f8381526020019081526020015f205f01601e6101000a81548160ff0219169083151502179055503073ffffffffffffffffffffffffffffffffffffffff16610e7d610ad2565b73ffffffffffffffffffffffffffffffffffffffff1614610f39575f5b8651811015610f37573073ffffffffffffffffffffffffffffffffffffffff16878281518110610ecd57610ecc61475b565b5b602002602001015173ffffffffffffffffffffffffffffffffffffffff1603610f2657610f25858281518110610f0657610f0561475b565b5b6020026020010151805190602001206005611d8a90919063ffffffff16565b5b80610f30906147b5565b9050610e9a565b505b610f468187878787611ea9565b3073ffffffffffffffffffffffffffffffffffffffff16610f65610ad2565b73ffffffffffffffffffffffffffffffffffffffff1614158015610f905750610f8e6005611f94565b155b15610fa057610f9f6005612000565b5b7f712ae1383f79ac853f8d882153778e0260ef8f03b504e2866e0593e04d2b291f81604051610fcf91906134fa565b60405180910390a180915050949350505050565b5f60045f8381526020019081526020015f205f0160149054906101000a900465ffffffffffff1665ffffffffffff169050919050565b7f3e83946653575f9a39005e1545185629e92736b7528ab20ca3816f315424a81181565b5f6001905090565b5f8060045f8481526020019081526020015f2090505f815f01601e9054906101000a900460ff1690505f825f01601f9054906101000a900460ff16905081156110945760079350505050611197565b80156110a65760029350505050611197565b5f6110b086610fe3565b90505f81036110f657856040517f6ad060750000000000000000000000000000000000000000000000000000000081526004016110ed91906134fa565b60405180910390fd5b5f6110ff6118c6565b65ffffffffffff16905080821061111d575f95505050505050611197565b5f61112788611a32565b905081811061113f5760019650505050505050611197565b61114888612076565b158061115a5750611158886120ba565b155b1561116e5760039650505050505050611197565b5f6111788961196c565b0361118c5760049650505050505050611197565b600596505050505050505b919050565b5f60075f8481526020019081526020015f206003015f8373ffffffffffffffffffffffffffffffffffffffff1673ffffffffffffffffffffffffffffffffffffffff1681526020019081526020015f205f9054906101000a900460ff16905092915050565b5f8061120f86868686611b25565b90506112238161121e5f611cf1565b611d15565b5061122d81610c53565b73ffffffffffffffffffffffffffffffffffffffff1661124b6120e1565b73ffffffffffffffffffffffffffffffffffffffff16146112aa5761126e6120e1565b6040517f233d98e30000000000000000000000000000000000000000000000000000000081526004016112a19190613651565b60405180910390fd5b6112b6868686866120e8565b915050949350505050565b60606112cb611c61565b73ffffffffffffffffffffffffffffffffffffffff16634bf5d7e96040518163ffffffff1660e01b81526004015f60405180830381865afa92505050801561133557506040513d5f823e3d601f19601f82011682018060405250810190611332919061486a565b60015b611376576040518060400160405280601d81526020017f6d6f64653d626c6f636b6e756d6265722666726f6d3d64656661756c74000000815250905061137b565b809150505b90565b5f805f8060075f8681526020019081526020015f209050805f015481600101548260020154935093509350509193909250565b60606040518060400160405280600181526020017f3100000000000000000000000000000000000000000000000000000000000000815250905090565b5f806113f86120e1565b905061141484828560405180602001604052805f8152506121ca565b91505092915050565b5f806114aa876114a47f3e83946653575f9a39005e1545185629e92736b7528ab20ca3816f315424a8118c8c8c6114538e6121e9565b8d8d6040516114639291906148df565b60405180910390208c805190602001206040516020016114899796959493929190614906565b6040516020818303038152906040528051906020012061223c565b85612255565b9050806114ee57866040517f94ab6c070000000000000000000000000000000000000000000000000000000081526004016114e59190613651565b60405180910390fd5b61153e89888a89898080601f0160208091040260200160405190810160405280939291908181526020018383808284375f81840152601f19601f82011690508083019250505050505050886122e2565b915050979650505050505050565b5f806115566120e1565b90506115a887828888888080601f0160208091040260200160405190810160405280939291908181526020018383808284375f81840152601f19601f82011690508083019250505050505050876122e2565b91505095945050505050565b5f806115be6120e1565b905061160f86828787878080601f0160208091040260200160405190810160405280939291908181526020018383808284375f81840152601f19601f820116905080830192505050505050506121ca565b915050949350505050565b5f806116246120e1565b905061163081846123df565b61167157806040517fd9b395570000000000000000000000000000000000000000000000000000000081526004016116689190613651565b60405180910390fd5b5f6116978260016116806118c6565b61168a9190614973565b65ffffffffffff16611bc0565b90505f6116a26119a2565b9050808210156116ed578282826040517fc242ee160000000000000000000000000000000000000000000000000000000081526004016116e4939291906149ac565b60405180910390fd5b6116fa888888888761252d565b9350505050949350505050565b5f60025f8373ffffffffffffffffffffffffffffffffffffffff1673ffffffffffffffffffffffffffffffffffffffff1681526020019081526020015f20549050919050565b5f6060805f805f606061175e6127b2565b6117666127ec565b46305f801b5f67ffffffffffffffff8111156117855761178461369c565b5b6040519080825280602002602001820160405280156117b35781602001602082028036833780820191505090505b507f0f00000000000000000000000000000000000000000000000000000000000000959493929190965096509650965096509650965090919293949596565b5f8061185d846118577ff2aad550cf55f045cb27e9c559f9889fdfb6e6cdaa032301d6ea397784ae51d78989896118288b6121e9565b60405160200161183c9594939291906149e1565b6040516020818303038152906040528051906020012061223c565b85612255565b9050806118a157836040517f94ab6c070000000000000000000000000000000000000000000000000000000081526004016118989190613651565b60405180910390fd5b6118bb86858760405180602001604052805f8152506121ca565b915050949350505050565b5f6118cf611c61565b73ffffffffffffffffffffffffffffffffffffffff166391ddadf46040518163ffffffff1660e01b8152600401602060405180830381865afa92505050801561193657506040513d601f19601f820116820180604052508101906119339190614a5c565b60015b61194957611942612827565b905061194e565b809150505b90565b5f61195d848484612836565b90509392505050565b5f919050565b5f60045f8381526020019081526020015f206001015f9054906101000a900465ffffffffffff1665ffffffffffff169050919050565b5f683635c9adc5dea00000905090565b5f3073ffffffffffffffffffffffffffffffffffffffff166119d2610ad2565b73ffffffffffffffffffffffffffffffffffffffff1614611a1f576040517fe90a651e00000000000000000000000000000000000000000000000000000000815260040160405180910390fd5b63bc197c8160e01b905095945050505050565b5f60045f8381526020019081526020015f205f01601a9054906101000a900463ffffffff1663ffffffff1660045f8481526020019081526020015f205f0160149054906101000a900465ffffffffffff16611a8d9190614a87565b65ffffffffffff169050919050565b611aa46128c1565b5f808573ffffffffffffffffffffffffffffffffffffffff16858585604051611ace9291906148df565b5f6040518083038185875af1925050503d805f8114611b08576040519150601f19603f3d011682016040523d82523d5f602084013e611b0d565b606091505b5091509150611b1c82826129b6565b50505050505050565b5f84848484604051602001611b3d9493929190614c84565b604051602081830303815290604052805190602001205f1c9050949350505050565b60606040518060400160405280602081526020017f737570706f72743d627261766f2671756f72756d3d666f722c6162737461696e815250905090565b7ff2aad550cf55f045cb27e9c559f9889fdfb6e6cdaa032301d6ea397784ae51d781565b5f611bd38383611bce6129da565b612836565b905092915050565b5f3073ffffffffffffffffffffffffffffffffffffffff16611bfb610ad2565b73ffffffffffffffffffffffffffffffffffffffff1614611c48576040517fe90a651e00000000000000000000000000000000000000000000000000000000815260040160405180910390fd5b63f23a6e6160e01b905095945050505050565b5f919050565b5f7f0000000000000000000000000000000000000000000000000000000000000000905090565b5f7f01ffc9a7000000000000000000000000000000000000000000000000000000007bffffffffffffffffffffffffffffffffffffffffffffffffffffffff1916827bffffffffffffffffffffffffffffffffffffffffffffffffffffffff1916149050919050565b5f816007811115611d0557611d04613bdd565b5b60ff166001901b5f1b9050919050565b5f80611d2084611045565b90505f801b83611d2f83611cf1565b1603611d76578381846040517f31b75e4d000000000000000000000000000000000000000000000000000000008152600401611d6d93929190614cdc565b60405180910390fd5b8091505092915050565b5f95945050505050565b5f825f0160109054906101000a90046fffffffffffffffffffffffffffffffff169050825f015f9054906101000a90046fffffffffffffffffffffffffffffffff166fffffffffffffffffffffffffffffffff16600182016fffffffffffffffffffffffffffffffff1603611e2b576040517f8acb5f2700000000000000000000000000000000000000000000000000000000815260040160405180910390fd5b81836001015f836fffffffffffffffffffffffffffffffff166fffffffffffffffffffffffffffffffff1681526020019081526020015f208190555060018101835f0160106101000a8154816fffffffffffffffffffffffffffffffff02191690836fffffffffffffffffffffffffffffffff160217905550505050565b5f5b8451811015611f8c575f80868381518110611ec957611ec861475b565b5b602002602001015173ffffffffffffffffffffffffffffffffffffffff16868481518110611efa57611ef961475b565b5b6020026020010151868581518110611f1557611f1461475b565b5b6020026020010151604051611f2a9190614d41565b5f6040518083038185875af1925050503d805f8114611f64576040519150601f19603f3d011682016040523d82523d5f602084013e611f69565b606091505b5091509150611f7882826129b6565b50505080611f85906147b5565b9050611eab565b505050505050565b5f815f015f9054906101000a90046fffffffffffffffffffffffffffffffff166fffffffffffffffffffffffffffffffff16825f0160109054906101000a90046fffffffffffffffffffffffffffffffff166fffffffffffffffffffffffffffffffff16149050919050565b5f815f015f6101000a8154816fffffffffffffffffffffffffffffffff02191690836fffffffffffffffffffffffffffffffff1602179055505f815f0160106101000a8154816fffffffffffffffffffffffffffffffff02191690836fffffffffffffffffffffffffffffffff16021790555050565b5f8060075f8481526020019081526020015f2090508060020154816001015461209f9190614d57565b6120b06120ab85610fe3565b611c5b565b1115915050919050565b5f8060075f8481526020019081526020015f209050805f0154816001015411915050919050565b5f33905090565b5f806120f686868686611b25565b905061215a816121066007611cf1565b6121106006611cf1565b61211a6002611cf1565b6001806007808111156121305761212f613bdd565b5b61213a9190614d8a565b60026121469190614eed565b6121509190614f37565b5f1b181818611d15565b50600160045f8381526020019081526020015f205f01601f6101000a81548160ff0219169083151502179055507f789cf55be980739dad1d0699b93b58e806b51c9d96619bfa8fe0a28abaa7b30c816040516121b691906134fa565b60405180910390a180915050949350505050565b5f6121df858585856121da6129da565b6122e2565b9050949350505050565b5f60025f8373ffffffffffffffffffffffffffffffffffffffff1673ffffffffffffffffffffffffffffffffffffffff1681526020019081526020015f205f815480929190600101919050559050919050565b5f61224e6122486129f0565b83612aa6565b9050919050565b5f805f6122628585612ae6565b50915091505f600381111561227a57612279613bdd565b5b81600381111561228d5761228c613bdd565b5b1480156122c557508573ffffffffffffffffffffffffffffffffffffffff168273ffffffffffffffffffffffffffffffffffffffff16145b806122d757506122d6868686612b3b565b5b925050509392505050565b5f6122f6866122f16001611cf1565b611d15565b505f61230b8661230589610fe3565b85612836565b905061231a8787878487612c5a565b5f83510361237b578573ffffffffffffffffffffffffffffffffffffffff167fb8e138887d0aa13bab447e82de9d5c1777041ecd21ca36ba824ff1e6c07ddda48887848860405161236e9493929190614f6a565b60405180910390a26123d2565b8573ffffffffffffffffffffffffffffffffffffffff167fe2babfbac5889a709b63bb7f598b324e08bc5a4fb9ec647fb3cbc9ec07eb871288878488886040516123c9959493929190614ffc565b60405180910390a25b8091505095945050505050565b5f808251905060348110156123f8576001915050612527565b5f6014820384015190507f2370726f706f7365723d3078000000000000000000000000000000000000000073ffffffffffffffffffffffffffffffffffffffff19168173ffffffffffffffffffffffffffffffffffffffff19161461246257600192505050612527565b5f806028846124719190614f37565b90505b838110156124f1575f806124a48884815181106124945761249361475b565b5b602001015160f81c60f81b612e49565b91509150816124bc5760019650505050505050612527565b8060ff1660048573ffffffffffffffffffffffffffffffffffffffff16901b1793505050806124ea906147b5565b9050612474565b508573ffffffffffffffffffffffffffffffffffffffff168173ffffffffffffffffffffffffffffffffffffffff161493505050505b92915050565b5f6125418686868680519060200120611b25565b90508451865114158061255657508351865114155b8061256157505f8651145b156125aa578551845186516040517f447b05d00000000000000000000000000000000000000000000000000000000081526004016125a193929190613ca7565b60405180910390fd5b5f60045f8381526020019081526020015f205f0160149054906101000a900465ffffffffffff1665ffffffffffff161461262957806125e882611045565b5f801b6040517f31b75e4d00000000000000000000000000000000000000000000000000000000815260040161262093929190614cdc565b60405180910390fd5b5f61263261103d565b61263a6118c6565b65ffffffffffff1661264c9190614d57565b90505f612657610bba565b90505f60045f8581526020019081526020015f20905084815f015f6101000a81548173ffffffffffffffffffffffffffffffffffffffff021916908373ffffffffffffffffffffffffffffffffffffffff1602179055506126b783612ee0565b815f0160146101000a81548165ffffffffffff021916908365ffffffffffff1602179055506126e582612f39565b815f01601a6101000a81548163ffffffff021916908363ffffffff1602179055507f7d84a6263ae0d98d3329bd7b46bb4e8d6f98cd35a7adb45c274c8b7fd5ebd5e084868b8b8d5167ffffffffffffffff8111156127465761274561369c565b5b60405190808252806020026020018201604052801561277957816020015b60608152602001906001900390816127645790505b508c89898b6127889190614d57565b8e60405161279e9998979695949392919061515e565b60405180910390a150505095945050505050565b60606127e75f7f0000000000000000000000000000000000000000000000000000000000000000612f9090919063ffffffff16565b905090565b606061282260017f0000000000000000000000000000000000000000000000000000000000000000612f9090919063ffffffff16565b905090565b5f61283143612ee0565b905090565b5f61283f611c61565b73ffffffffffffffffffffffffffffffffffffffff16633a46b1a885856040518363ffffffff1660e01b815260040161287992919061520c565b602060405180830381865afa158015612894573d5f803e3d5ffd5b505050506040513d601f19601f820116820180604052508101906128b89190615247565b90509392505050565b6128c96120e1565b73ffffffffffffffffffffffffffffffffffffffff166128e7610ad2565b73ffffffffffffffffffffffffffffffffffffffff16146129465761290a6120e1565b6040517f47096e4700000000000000000000000000000000000000000000000000000000815260040161293d9190613651565b60405180910390fd5b3073ffffffffffffffffffffffffffffffffffffffff16612965610ad2565b73ffffffffffffffffffffffffffffffffffffffff16146129b4575f61298961303d565b6040516129979291906148df565b604051809103902090505b806129ad6005613049565b036129a257505b565b6060826129cb576129c68261319e565b6129d3565b8190506129d4565b5b92915050565b606060405180602001604052805f815250905090565b5f7f000000000000000000000000000000000000000000000000000000000000000073ffffffffffffffffffffffffffffffffffffffff163073ffffffffffffffffffffffffffffffffffffffff16148015612a6b57507f000000000000000000000000000000000000000000000000000000000000000046145b15612a98577f00000000000000000000000000000000000000000000000000000000000000009050612aa3565b612aa06131e2565b90505b90565b5f6040517f190100000000000000000000000000000000000000000000000000000000000081528360028201528260228201526042812091505092915050565b5f805f6041845103612b26575f805f602087015192506040870151915060608701515f1a9050612b1888828585613277565b955095509550505050612b34565b5f600285515f1b9250925092505b9250925092565b5f805f8573ffffffffffffffffffffffffffffffffffffffff168585604051602401612b68929190615272565b604051602081830303815290604052631626ba7e60e01b6020820180517bffffffffffffffffffffffffffffffffffffffffffffffffffffffff8381831617835250505050604051612bba9190614d41565b5f60405180830381855afa9150503d805f8114612bf2576040519150601f19603f3d011682016040523d82523d5f602084013e612bf7565b606091505b5091509150818015612c0b57506020815110155b8015612c4f5750631626ba7e60e01b7bffffffffffffffffffffffffffffffffffffffffffffffffffffffff191681806020019051810190612c4d91906152b4565b145b925050509392505050565b5f60075f8781526020019081526020015f209050806003015f8673ffffffffffffffffffffffffffffffffffffffff1673ffffffffffffffffffffffffffffffffffffffff1681526020019081526020015f205f9054906101000a900460ff1615612cfc57846040517f71c6af49000000000000000000000000000000000000000000000000000000008152600401612cf39190613651565b60405180910390fd5b6001816003015f8773ffffffffffffffffffffffffffffffffffffffff1673ffffffffffffffffffffffffffffffffffffffff1681526020019081526020015f205f6101000a81548160ff0219169083151502179055505f6002811115612d6657612d65613bdd565b5b60ff168460ff1603612d905782815f015f828254612d849190614d57565b92505081905550612e41565b60016002811115612da457612da3613bdd565b5b60ff168460ff1603612dcf5782816001015f828254612dc39190614d57565b92505081905550612e40565b600280811115612de257612de1613bdd565b5b60ff168460ff1603612e0d5782816002015f828254612e019190614d57565b92505081905550612e3f565b6040517f06b337c200000000000000000000000000000000000000000000000000000000815260040160405180910390fd5b5b5b505050505050565b5f805f8360f81c90508060ff16602f108015612e685750603a8160ff16105b15612e7d576001603082039250925050612edb565b8060ff166040108015612e93575060478160ff16105b15612ea8576001603782039250925050612edb565b8060ff166060108015612ebe575060678160ff16105b15612ed3576001605782039250925050612edb565b5f8092509250505b915091565b5f65ffffffffffff8016821115612f31576030826040517f6dfcc650000000000000000000000000000000000000000000000000000000008152600401612f28929190615318565b60405180910390fd5b819050919050565b5f63ffffffff8016821115612f88576020826040517f6dfcc650000000000000000000000000000000000000000000000000000000008152600401612f7f929190615378565b60405180910390fd5b819050919050565b606060ff5f1b8314612fac57612fa58361335e565b9050613037565b818054612fb8906146d4565b80601f0160208091040260200160405190810160405280929190818152602001828054612fe4906146d4565b801561302f5780601f106130065761010080835404028352916020019161302f565b820191905f5260205f20905b81548152906001019060200180831161301257829003601f168201915b505050505090505b92915050565b365f8036915091509091565b5f80825f015f9054906101000a90046fffffffffffffffffffffffffffffffff169050825f0160109054906101000a90046fffffffffffffffffffffffffffffffff166fffffffffffffffffffffffffffffffff16816fffffffffffffffffffffffffffffffff16036130e8576040517f75e52f4f00000000000000000000000000000000000000000000000000000000815260040160405180910390fd5b826001015f826fffffffffffffffffffffffffffffffff166fffffffffffffffffffffffffffffffff1681526020019081526020015f20549150826001015f826fffffffffffffffffffffffffffffffff166fffffffffffffffffffffffffffffffff1681526020019081526020015f205f905560018101835f015f6101000a8154816fffffffffffffffffffffffffffffffff02191690836fffffffffffffffffffffffffffffffff16021790555050919050565b5f815111156131b05780518082602001fd5b6040517f1425ea4200000000000000000000000000000000000000000000000000000000815260040160405180910390fd5b5f7f8b73c3c69bb8fe3d512ecc4cf759cc79239f7b179b0ffacaa9a75d522b39400f7f00000000000000000000000000000000000000000000000000000000000000007f0000000000000000000000000000000000000000000000000000000000000000463060405160200161325c95949392919061539f565b60405160208183030381529060405280519060200120905090565b5f805f7f7fffffffffffffffffffffffffffffff5d576e7357a4501ddfe92f46681b20a0845f1c11156132b3575f600385925092509250613354565b5f6001888888886040515f81526020016040526040516132d694939291906153f0565b6020604051602081039080840390855afa1580156132f6573d5f803e3d5ffd5b5050506020604051035190505f73ffffffffffffffffffffffffffffffffffffffff168173ffffffffffffffffffffffffffffffffffffffff1603613347575f60015f801b93509350935050613354565b805f805f1b935093509350505b9450945094915050565b60605f61336a836133d0565b90505f602067ffffffffffffffff8111156133885761338761369c565b5b6040519080825280601f01601f1916602001820160405280156133ba5781602001600182028036833780820191505090505b5090508181528360208201528092505050919050565b5f8060ff835f1c169050601f811115613415576040517fb3512b0c00000000000000000000000000000000000000000000000000000000815260040160405180910390fd5b80915050919050565b5f604051905090565b5f80fd5b5f80fd5b5f7fffffffff0000000000000000000000000000000000000000000000000000000082169050919050565b6134638161342f565b811461346d575f80fd5b50565b5f8135905061347e8161345a565b92915050565b5f6020828403121561349957613498613427565b5b5f6134a684828501613470565b91505092915050565b5f8115159050919050565b6134c3816134af565b82525050565b5f6020820190506134dc5f8301846134ba565b92915050565b5f819050919050565b6134f4816134e2565b82525050565b5f60208201905061350d5f8301846134eb565b92915050565b5f81519050919050565b5f82825260208201905092915050565b5f5b8381101561354a57808201518184015260208101905061352f565b5f8484015250505050565b5f601f19601f8301169050919050565b5f61356f82613513565b613579818561351d565b935061358981856020860161352d565b61359281613555565b840191505092915050565b5f6020820190508181035f8301526135b58184613565565b905092915050565b6135c6816134e2565b81146135d0575f80fd5b50565b5f813590506135e1816135bd565b92915050565b5f602082840312156135fc576135fb613427565b5b5f613609848285016135d3565b91505092915050565b5f73ffffffffffffffffffffffffffffffffffffffff82169050919050565b5f61363b82613612565b9050919050565b61364b81613631565b82525050565b5f6020820190506136645f830184613642565b92915050565b61367381613631565b811461367d575f80fd5b50565b5f8135905061368e8161366a565b92915050565b5f80fd5b5f80fd5b7f4e487b71000000000000000000000000000000000000000000000000000000005f52604160045260245ffd5b6136d282613555565b810181811067ffffffffffffffff821117156136f1576136f061369c565b5b80604052505050565b5f61370361341e565b905061370f82826136c9565b919050565b5f67ffffffffffffffff82111561372e5761372d61369c565b5b61373782613555565b9050602081019050919050565b828183375f83830152505050565b5f61376461375f84613714565b6136fa565b9050828152602081018484840111156137805761377f613698565b5b61378b848285613744565b509392505050565b5f82601f8301126137a7576137a6613694565b5b81356137b7848260208601613752565b91505092915050565b5f805f80608085870312156137d8576137d7613427565b5b5f6137e587828801613680565b94505060206137f687828801613680565b9350506040613807878288016135d3565b925050606085013567ffffffffffffffff8111156138285761382761342b565b5b61383487828801613793565b91505092959194509250565b6138498161342f565b82525050565b5f6020820190506138625f830184613840565b92915050565b5f67ffffffffffffffff8211156138825761388161369c565b5b602082029050602081019050919050565b5f80fd5b5f6138a96138a484613868565b6136fa565b905080838252602082019050602084028301858111156138cc576138cb613893565b5b835b818110156138f557806138e18882613680565b8452602084019350506020810190506138ce565b5050509392505050565b5f82601f83011261391357613912613694565b5b8135613923848260208601613897565b91505092915050565b5f67ffffffffffffffff8211156139465761394561369c565b5b602082029050602081019050919050565b5f6139696139648461392c565b6136fa565b9050808382526020820190506020840283018581111561398c5761398b613893565b5b835b818110156139b557806139a188826135d3565b84526020840193505060208101905061398e565b5050509392505050565b5f82601f8301126139d3576139d2613694565b5b81356139e3848260208601613957565b91505092915050565b5f67ffffffffffffffff821115613a0657613a0561369c565b5b602082029050602081019050919050565b5f613a29613a24846139ec565b6136fa565b90508083825260208201905060208402830185811115613a4c57613a4b613893565b5b835b81811015613a9357803567ffffffffffffffff811115613a7157613a70613694565b5b808601613a7e8982613793565b85526020850194505050602081019050613a4e565b5050509392505050565b5f82601f830112613ab157613ab0613694565b5b8135613ac1848260208601613a17565b91505092915050565b5f819050919050565b613adc81613aca565b8114613ae6575f80fd5b50565b5f81359050613af781613ad3565b92915050565b5f805f8060808587031215613b1557613b14613427565b5b5f85013567ffffffffffffffff811115613b3257613b3161342b565b5b613b3e878288016138ff565b945050602085013567ffffffffffffffff811115613b5f57613b5e61342b565b5b613b6b878288016139bf565b935050604085013567ffffffffffffffff811115613b8c57613b8b61342b565b5b613b9887828801613a9d565b9250506060613ba987828801613ae9565b91505092959194509250565b613bbe81613aca565b82525050565b5f602082019050613bd75f830184613bb5565b92915050565b7f4e487b71000000000000000000000000000000000000000000000000000000005f52602160045260245ffd5b60088110613c1b57613c1a613bdd565b5b50565b5f819050613c2b82613c0a565b919050565b5f613c3a82613c1e565b9050919050565b613c4a81613c30565b82525050565b5f602082019050613c635f830184613c41565b92915050565b5f8060408385031215613c7f57613c7e613427565b5b5f613c8c858286016135d3565b9250506020613c9d85828601613680565b9150509250929050565b5f606082019050613cba5f8301866134eb565b613cc760208301856134eb565b613cd460408301846134eb565b949350505050565b5f60ff82169050919050565b613cf181613cdc565b8114613cfb575f80fd5b50565b5f81359050613d0c81613ce8565b92915050565b5f8060408385031215613d2857613d27613427565b5b5f613d35858286016135d3565b9250506020613d4685828601613cfe565b9150509250929050565b5f80fd5b5f8083601f840112613d6957613d68613694565b5b8235905067ffffffffffffffff811115613d8657613d85613d50565b5b602083019150836001820283011115613da257613da1613893565b5b9250929050565b5f805f805f805f60c0888a031215613dc457613dc3613427565b5b5f613dd18a828b016135d3565b9750506020613de28a828b01613cfe565b9650506040613df38a828b01613680565b955050606088013567ffffffffffffffff811115613e1457613e1361342b565b5b613e208a828b01613d54565b9450945050608088013567ffffffffffffffff811115613e4357613e4261342b565b5b613e4f8a828b01613793565b92505060a088013567ffffffffffffffff811115613e7057613e6f61342b565b5b613e7c8a828b01613793565b91505092959891949750929550565b5f805f805f60808688031215613ea457613ea3613427565b5b5f613eb1888289016135d3565b9550506020613ec288828901613cfe565b945050604086013567ffffffffffffffff811115613ee357613ee261342b565b5b613eef88828901613d54565b9350935050606086013567ffffffffffffffff811115613f1257613f1161342b565b5b613f1e88828901613793565b9150509295509295909350565b5f805f8060608587031215613f4357613f42613427565b5b5f613f50878288016135d3565b9450506020613f6187828801613cfe565b935050604085013567ffffffffffffffff811115613f8257613f8161342b565b5b613f8e87828801613d54565b925092505092959194509250565b5f67ffffffffffffffff821115613fb657613fb561369c565b5b613fbf82613555565b9050602081019050919050565b5f613fde613fd984613f9c565b6136fa565b905082815260208101848484011115613ffa57613ff9613698565b5b614005848285613744565b509392505050565b5f82601f83011261402157614020613694565b5b8135614031848260208601613fcc565b91505092915050565b5f805f806080858703121561405257614051613427565b5b5f85013567ffffffffffffffff81111561406f5761406e61342b565b5b61407b878288016138ff565b945050602085013567ffffffffffffffff81111561409c5761409b61342b565b5b6140a8878288016139bf565b935050604085013567ffffffffffffffff8111156140c9576140c861342b565b5b6140d587828801613a9d565b925050606085013567ffffffffffffffff8111156140f6576140f561342b565b5b6141028782880161400d565b91505092959194509250565b5f6020828403121561412357614122613427565b5b5f61413084828501613680565b91505092915050565b5f7fff0000000000000000000000000000000000000000000000000000000000000082169050919050565b61416d81614139565b82525050565b5f81519050919050565b5f82825260208201905092915050565b5f819050602082019050919050565b6141a5816134e2565b82525050565b5f6141b6838361419c565b60208301905092915050565b5f602082019050919050565b5f6141d882614173565b6141e2818561417d565b93506141ed8361418d565b805f5b8381101561421d57815161420488826141ab565b975061420f836141c2565b9250506001810190506141f0565b5085935050505092915050565b5f60e08201905061423d5f83018a614164565b818103602083015261424f8189613565565b905081810360408301526142638188613565565b905061427260608301876134eb565b61427f6080830186613642565b61428c60a0830185613bb5565b81810360c083015261429e81846141ce565b905098975050505050505050565b5f805f80608085870312156142c4576142c3613427565b5b5f6142d1878288016135d3565b94505060206142e287828801613cfe565b93505060406142f387828801613680565b925050606085013567ffffffffffffffff8111156143145761431361342b565b5b61432087828801613793565b91505092959194509250565b5f65ffffffffffff82169050919050565b6143468161432c565b82525050565b5f60208201905061435f5f83018461433d565b92915050565b5f805f6060848603121561437c5761437b613427565b5b5f61438986828701613680565b935050602061439a868287016135d3565b925050604084013567ffffffffffffffff8111156143bb576143ba61342b565b5b6143c786828701613793565b9150509250925092565b5f805f805f60a086880312156143ea576143e9613427565b5b5f6143f788828901613680565b955050602061440888828901613680565b945050604086013567ffffffffffffffff8111156144295761442861342b565b5b614435888289016139bf565b935050606086013567ffffffffffffffff8111156144565761445561342b565b5b614462888289016139bf565b925050608086013567ffffffffffffffff8111156144835761448261342b565b5b61448f88828901613793565b9150509295509295909350565b5f8083601f8401126144b1576144b0613694565b5b8235905067ffffffffffffffff8111156144ce576144cd613d50565b5b6020830191508360018202830111156144ea576144e9613893565b5b9250929050565b5f805f806060858703121561450957614508613427565b5b5f61451687828801613680565b9450506020614527878288016135d3565b935050604085013567ffffffffffffffff8111156145485761454761342b565b5b6145548782880161449c565b925092505092959194509250565b5f806040838503121561457857614577613427565b5b5f61458585828601613680565b9250506020614596858286016135d3565b9150509250929050565b5f805f805f60a086880312156145b9576145b8613427565b5b5f6145c688828901613680565b95505060206145d788828901613680565b94505060406145e8888289016135d3565b93505060606145f9888289016135d3565b925050608086013567ffffffffffffffff81111561461a5761461961342b565b5b61462688828901613793565b9150509295509295909350565b5f819050919050565b5f61465661465161464c84613612565b614633565b613612565b9050919050565b5f6146678261463c565b9050919050565b5f6146788261465d565b9050919050565b6146888161466e565b82525050565b5f6020820190506146a15f83018461467f565b92915050565b7f4e487b71000000000000000000000000000000000000000000000000000000005f52602260045260245ffd5b5f60028204905060018216806146eb57607f821691505b6020821081036146fe576146fd6146a7565b5b50919050565b5f61471e6147196147148461432c565b614633565b6134e2565b9050919050565b61472e81614704565b82525050565b5f6040820190506147475f8301856134eb565b6147546020830184614725565b9392505050565b7f4e487b71000000000000000000000000000000000000000000000000000000005f52603260045260245ffd5b7f4e487b71000000000000000000000000000000000000000000000000000000005f52601160045260245ffd5b5f6147bf826134e2565b91507fffffffffffffffffffffffffffffffffffffffffffffffffffffffffffffffff82036147f1576147f0614788565b5b600182019050919050565b5f61480e61480984613f9c565b6136fa565b90508281526020810184848401111561482a57614829613698565b5b61483584828561352d565b509392505050565b5f82601f83011261485157614850613694565b5b81516148618482602086016147fc565b91505092915050565b5f6020828403121561487f5761487e613427565b5b5f82015167ffffffffffffffff81111561489c5761489b61342b565b5b6148a88482850161483d565b91505092915050565b5f81905092915050565b5f6148c683856148b1565b93506148d3838584613744565b82840190509392505050565b5f6148eb8284866148bb565b91508190509392505050565b61490081613cdc565b82525050565b5f60e0820190506149195f83018a613bb5565b61492660208301896134eb565b61493360408301886148f7565b6149406060830187613642565b61494d60808301866134eb565b61495a60a0830185613bb5565b61496760c0830184613bb5565b98975050505050505050565b5f61497d8261432c565b91506149888361432c565b9250828203905065ffffffffffff8111156149a6576149a5614788565b5b92915050565b5f6060820190506149bf5f830186613642565b6149cc60208301856134eb565b6149d960408301846134eb565b949350505050565b5f60a0820190506149f45f830188613bb5565b614a0160208301876134eb565b614a0e60408301866148f7565b614a1b6060830185613642565b614a2860808301846134eb565b9695505050505050565b614a3b8161432c565b8114614a45575f80fd5b50565b5f81519050614a5681614a32565b92915050565b5f60208284031215614a7157614a70613427565b5b5f614a7e84828501614a48565b91505092915050565b5f614a918261432c565b9150614a9c8361432c565b9250828201905065ffffffffffff811115614aba57614ab9614788565b5b92915050565b5f81519050919050565b5f82825260208201905092915050565b5f819050602082019050919050565b614af281613631565b82525050565b5f614b038383614ae9565b60208301905092915050565b5f602082019050919050565b5f614b2582614ac0565b614b2f8185614aca565b9350614b3a83614ada565b805f5b83811015614b6a578151614b518882614af8565b9750614b5c83614b0f565b925050600181019050614b3d565b5085935050505092915050565b5f81519050919050565b5f82825260208201905092915050565b5f819050602082019050919050565b5f81519050919050565b5f82825260208201905092915050565b5f614bc482614ba0565b614bce8185614baa565b9350614bde81856020860161352d565b614be781613555565b840191505092915050565b5f614bfd8383614bba565b905092915050565b5f602082019050919050565b5f614c1b82614b77565b614c258185614b81565b935083602082028501614c3785614b91565b805f5b85811015614c725784840389528151614c538582614bf2565b9450614c5e83614c05565b925060208a01995050600181019050614c3a565b50829750879550505050505092915050565b5f6080820190508181035f830152614c9c8187614b1b565b90508181036020830152614cb081866141ce565b90508181036040830152614cc48185614c11565b9050614cd36060830184613bb5565b95945050505050565b5f606082019050614cef5f8301866134eb565b614cfc6020830185613c41565b614d096040830184613bb5565b949350505050565b5f614d1b82614ba0565b614d2581856148b1565b9350614d3581856020860161352d565b80840191505092915050565b5f614d4c8284614d11565b915081905092915050565b5f614d61826134e2565b9150614d6c836134e2565b9250828201905080821115614d8457614d83614788565b5b92915050565b5f614d9482613cdc565b9150614d9f83613cdc565b9250828201905060ff811115614db857614db7614788565b5b92915050565b5f8160011c9050919050565b5f808291508390505b6001851115614e1357808604811115614def57614dee614788565b5b6001851615614dfe5780820291505b8081029050614e0c85614dbe565b9450614dd3565b94509492505050565b5f82614e2b5760019050614ee6565b81614e38575f9050614ee6565b8160018114614e4e5760028114614e5857614e87565b6001915050614ee6565b60ff841115614e6a57614e69614788565b5b8360020a915084821115614e8157614e80614788565b5b50614ee6565b5060208310610133831016604e8410600b8410161715614ebc5782820a905083811115614eb757614eb6614788565b5b614ee6565b614ec98484846001614dca565b92509050818404811115614ee057614edf614788565b5b81810290505b9392505050565b5f614ef7826134e2565b9150614f0283613cdc565b9250614f2f7fffffffffffffffffffffffffffffffffffffffffffffffffffffffffffffffff8484614e1c565b905092915050565b5f614f41826134e2565b9150614f4c836134e2565b9250828203905081811115614f6457614f63614788565b5b92915050565b5f608082019050614f7d5f8301876134eb565b614f8a60208301866148f7565b614f9760408301856134eb565b8181036060830152614fa98184613565565b905095945050505050565b5f82825260208201905092915050565b5f614fce82614ba0565b614fd88185614fb4565b9350614fe881856020860161352d565b614ff181613555565b840191505092915050565b5f60a08201905061500f5f8301886134eb565b61501c60208301876148f7565b61502960408301866134eb565b818103606083015261503b8185613565565b9050818103608083015261504f8184614fc4565b90509695505050505050565b5f81519050919050565b5f82825260208201905092915050565b5f819050602082019050919050565b5f82825260208201905092915050565b5f61509e82613513565b6150a88185615084565b93506150b881856020860161352d565b6150c181613555565b840191505092915050565b5f6150d78383615094565b905092915050565b5f602082019050919050565b5f6150f58261505b565b6150ff8185615065565b93508360208202850161511185615075565b805f5b8581101561514c578484038952815161512d85826150cc565b9450615138836150df565b925060208a01995050600181019050615114565b50829750879550505050505092915050565b5f610120820190506151725f83018c6134eb565b61517f602083018b613642565b8181036040830152615191818a614b1b565b905081810360608301526151a581896141ce565b905081810360808301526151b981886150eb565b905081810360a08301526151cd8187614c11565b90506151dc60c08301866134eb565b6151e960e08301856134eb565b8181036101008301526151fc8184613565565b90509a9950505050505050505050565b5f60408201905061521f5f830185613642565b61522c60208301846134eb565b9392505050565b5f81519050615241816135bd565b92915050565b5f6020828403121561525c5761525b613427565b5b5f61526984828501615233565b91505092915050565b5f6040820190506152855f830185613bb5565b81810360208301526152978184614fc4565b90509392505050565b5f815190506152ae81613ad3565b92915050565b5f602082840312156152c9576152c8613427565b5b5f6152d6848285016152a0565b91505092915050565b5f819050919050565b5f6153026152fd6152f8846152df565b614633565b613cdc565b9050919050565b615312816152e8565b82525050565b5f60408201905061532b5f830185615309565b61533860208301846134eb565b9392505050565b5f819050919050565b5f61536261535d6153588461533f565b614633565b613cdc565b9050919050565b61537281615348565b82525050565b5f60408201905061538b5f830185615369565b61539860208301846134eb565b9392505050565b5f60a0820190506153b25f830188613bb5565b6153bf6020830187613bb5565b6153cc6040830186613bb5565b6153d960608301856134eb565b6153e66080830184613642565b9695505050505050565b5f6080820190506154035f830187613bb5565b61541060208301866148f7565b61541d6040830185613bb5565b61542a6060830184613bb5565b9594505050505056fea2646970667358221220341e33d5c9fa021a17ca414dec1fd0c5b078813fb1c65ba46fe1e09ef3120b2064736f6c63430008140033",
			"opcodes": "PUSH2 0x180 PUSH1 0x40 MSTORE CALLVALUE DUP1 ISZERO PUSH3 0x11 JUMPI PUSH0 DUP1 REVERT JUMPDEST POP PUSH1 0x40 MLOAD PUSH3 0x5D75 CODESIZE SUB DUP1 PUSH3 0x5D75 DUP4 CODECOPY DUP2 DUP2 ADD PUSH1 0x40 MSTORE DUP2 ADD SWAP1 PUSH3 0x37 SWAP2 SWAP1 PUSH3 0x357 JUMP JUMPDEST DUP1 PUSH1 0x40 MLOAD DUP1 PUSH1 0x40 ADD PUSH1 0x40 MSTORE DUP1 PUSH1 0xE DUP2 MSTORE PUSH1 0x20 ADD PUSH32 0x4E55545A476F7665726E616E6365000000000000000000000000000000000000 DUP2 MSTORE POP DUP1 PUSH3 0x7F PUSH3 0x17E PUSH1 0x20 SHL PUSH1 0x20 SHR JUMP JUMPDEST PUSH3 0x94 PUSH0 DUP4 PUSH3 0x1BB PUSH1 0x20 SHL SWAP1 SWAP2 SWAP1 PUSH1 0x20 SHR JUMP JUMPDEST PUSH2 0x120 DUP2 DUP2 MSTORE POP POP PUSH3 0xB2 PUSH1 0x1 DUP3 PUSH3 0x1BB PUSH1 0x20 SHL SWAP1 SWAP2 SWAP1 PUSH1 0x20 SHR JUMP JUMPDEST PUSH2 0x140 DUP2 DUP2 MSTORE POP POP DUP2 DUP1 MLOAD SWAP1 PUSH1 0x20 ADD KECCAK256 PUSH1 0xE0 DUP2 DUP2 MSTORE POP POP DUP1 DUP1 MLOAD SWAP1 PUSH1 0x20 ADD KECCAK256 PUSH2 0x100 DUP2 DUP2 MSTORE POP POP CHAINID PUSH1 0xA0 DUP2 DUP2 MSTORE POP POP PUSH3 0xF1 PUSH3 0x210 PUSH1 0x20 SHL PUSH1 0x20 SHR JUMP JUMPDEST PUSH1 0x80 DUP2 DUP2 MSTORE POP POP ADDRESS PUSH20 0xFFFFFFFFFFFFFFFFFFFFFFFFFFFFFFFFFFFFFFFF AND PUSH1 0xC0 DUP2 PUSH20 0xFFFFFFFFFFFFFFFFFFFFFFFFFFFFFFFFFFFFFFFF AND DUP2 MSTORE POP POP POP POP DUP1 PUSH1 0x3 SWAP1 DUP2 PUSH3 0x13F SWAP2 SWAP1 PUSH3 0x5EB JUMP JUMPDEST POP POP DUP1 PUSH20 0xFFFFFFFFFFFFFFFFFFFFFFFFFFFFFFFFFFFFFFFF AND PUSH2 0x160 DUP2 PUSH20 0xFFFFFFFFFFFFFFFFFFFFFFFFFFFFFFFFFFFFFFFF AND DUP2 MSTORE POP POP POP POP PUSH3 0x8B0 JUMP JUMPDEST PUSH1 0x60 PUSH1 0x40 MLOAD DUP1 PUSH1 0x40 ADD PUSH1 0x40 MSTORE DUP1 PUSH1 0x1 DUP2 MSTORE PUSH1 0x20 ADD PUSH32 0x3100000000000000000000000000000000000000000000000000000000000000 DUP2 MSTORE POP SWAP1 POP SWAP1 JUMP JUMPDEST PUSH0 PUSH1 0x20 DUP4 MLOAD LT ISZERO PUSH3 0x1E0 JUMPI PUSH3 0x1D8 DUP4 PUSH3 0x26C PUSH1 0x20 SHL PUSH1 0x20 SHR JUMP JUMPDEST SWAP1 POP PUSH3 0x20A JUMP JUMPDEST DUP3 PUSH3 0x1F2 DUP4 PUSH3 0x2D6 PUSH1 0x20 SHL PUSH1 0x20 SHR JUMP JUMPDEST PUSH0 ADD SWAP1 DUP2 PUSH3 0x202 SWAP2 SWAP1 PUSH3 0x5EB JUMP JUMPDEST POP PUSH1 0xFF PUSH0 SHL SWAP1 POP JUMPDEST SWAP3 SWAP2 POP POP JUMP JUMPDEST PUSH0 PUSH32 0x8B73C3C69BB8FE3D512ECC4CF759CC79239F7B179B0FFACAA9A75D522B39400F PUSH1 0xE0 MLOAD PUSH2 0x100 MLOAD CHAINID ADDRESS PUSH1 0x40 MLOAD PUSH1 0x20 ADD PUSH3 0x251 SWAP6 SWAP5 SWAP4 SWAP3 SWAP2 SWAP1 PUSH3 0x70B JUMP JUMPDEST PUSH1 0x40 MLOAD PUSH1 0x20 DUP2 DUP4 SUB SUB DUP2 MSTORE SWAP1 PUSH1 0x40 MSTORE DUP1 MLOAD SWAP1 PUSH1 0x20 ADD KECCAK256 SWAP1 POP SWAP1 JUMP JUMPDEST PUSH0 DUP1 DUP3 SWAP1 POP PUSH1 0x1F DUP2 MLOAD GT ISZERO PUSH3 0x2BB JUMPI DUP3 PUSH1 0x40 MLOAD PUSH32 0x305A27A900000000000000000000000000000000000000000000000000000000 DUP2 MSTORE PUSH1 0x4 ADD PUSH3 0x2B2 SWAP2 SWAP1 PUSH3 0x7F0 JUMP JUMPDEST PUSH1 0x40 MLOAD DUP1 SWAP2 SUB SWAP1 REVERT JUMPDEST DUP1 MLOAD DUP2 PUSH3 0x2C9 SWAP1 PUSH3 0x841 JUMP JUMPDEST PUSH0 SHR OR PUSH0 SHL SWAP2 POP POP SWAP2 SWAP1 POP JUMP JUMPDEST PUSH0 DUP2 SWAP1 POP SWAP2 SWAP1 POP JUMP JUMPDEST PUSH0 DUP1 REVERT JUMPDEST PUSH0 PUSH20 0xFFFFFFFFFFFFFFFFFFFFFFFFFFFFFFFFFFFFFFFF DUP3 AND SWAP1 POP SWAP2 SWAP1 POP JUMP JUMPDEST PUSH0 PUSH3 0x30E DUP3 PUSH3 0x2E3 JUMP JUMPDEST SWAP1 POP SWAP2 SWAP1 POP JUMP JUMPDEST PUSH0 PUSH3 0x321 DUP3 PUSH3 0x302 JUMP JUMPDEST SWAP1 POP SWAP2 SWAP1 POP JUMP JUMPDEST PUSH3 0x333 DUP2 PUSH3 0x315 JUMP JUMPDEST DUP2 EQ PUSH3 0x33E JUMPI PUSH0 DUP1 REVERT JUMPDEST POP JUMP JUMPDEST PUSH0 DUP2 MLOAD SWAP1 POP PUSH3 0x351 DUP2 PUSH3 0x328 JUMP JUMPDEST SWAP3 SWAP2 POP POP JUMP JUMPDEST PUSH0 PUSH1 0x20 DUP3 DUP5 SUB SLT ISZERO PUSH3 0x36F JUMPI PUSH3 0x36E PUSH3 0x2DF JUMP JUMPDEST JUMPDEST PUSH0 PUSH3 0x37E DUP5 DUP3 DUP6 ADD PUSH3 0x341 JUMP JUMPDEST SWAP2 POP POP SWAP3 SWAP2 POP POP JUMP JUMPDEST PUSH0 DUP2 MLOAD SWAP1 POP SWAP2 SWAP1 POP JUMP JUMPDEST PUSH32 0x4E487B7100000000000000000000000000000000000000000000000000000000 PUSH0 MSTORE PUSH1 0x41 PUSH1 0x4 MSTORE PUSH1 0x24 PUSH0 REVERT JUMPDEST PUSH32 0x4E487B7100000000000000000000000000000000000000000000000000000000 PUSH0 MSTORE PUSH1 0x22 PUSH1 0x4 MSTORE PUSH1 0x24 PUSH0 REVERT JUMPDEST PUSH0 PUSH1 0x2 DUP3 DIV SWAP1 POP PUSH1 0x1 DUP3 AND DUP1 PUSH3 0x403 JUMPI PUSH1 0x7F DUP3 AND SWAP2 POP JUMPDEST PUSH1 0x20 DUP3 LT DUP2 SUB PUSH3 0x419 JUMPI PUSH3 0x418 PUSH3 0x3BE JUMP JUMPDEST JUMPDEST POP SWAP2 SWAP1 POP JUMP JUMPDEST PUSH0 DUP2 SWAP1 POP DUP2 PUSH0 MSTORE PUSH1 0x20 PUSH0 KECCAK256 SWAP1 POP SWAP2 SWAP1 POP JUMP JUMPDEST PUSH0 PUSH1 0x20 PUSH1 0x1F DUP4 ADD DIV SWAP1 POP SWAP2 SWAP1 POP JUMP JUMPDEST PUSH0 DUP3 DUP3 SHL SWAP1 POP SWAP3 SWAP2 POP POP JUMP JUMPDEST PUSH0 PUSH1 0x8 DUP4 MUL PUSH3 0x47D PUSH32 0xFFFFFFFFFFFFFFFFFFFFFFFFFFFFFFFFFFFFFFFFFFFFFFFFFFFFFFFFFFFFFFFF DUP3 PUSH3 0x440 JUMP JUMPDEST PUSH3 0x489 DUP7 DUP4 PUSH3 0x440 JUMP JUMPDEST SWAP6 POP DUP1 NOT DUP5 AND SWAP4 POP DUP1 DUP7 AND DUP5 OR SWAP3 POP POP POP SWAP4 SWAP3 POP POP POP JUMP JUMPDEST PUSH0 DUP2 SWAP1 POP SWAP2 SWAP1 POP JUMP JUMPDEST PUSH0 DUP2 SWAP1 POP SWAP2 SWAP1 POP JUMP JUMPDEST PUSH0 PUSH3 0x4D3 PUSH3 0x4CD PUSH3 0x4C7 DUP5 PUSH3 0x4A1 JUMP JUMPDEST PUSH3 0x4AA JUMP JUMPDEST PUSH3 0x4A1 JUMP JUMPDEST SWAP1 POP SWAP2 SWAP1 POP JUMP JUMPDEST PUSH0 DUP2 SWAP1 POP SWAP2 SWAP1 POP JUMP JUMPDEST PUSH3 0x4EE DUP4 PUSH3 0x4B3 JUMP JUMPDEST PUSH3 0x506 PUSH3 0x4FD DUP3 PUSH3 0x4DA JUMP JUMPDEST DUP5 DUP5 SLOAD PUSH3 0x44C JUMP JUMPDEST DUP3 SSTORE POP POP POP POP JUMP JUMPDEST PUSH0 SWAP1 JUMP JUMPDEST PUSH3 0x51C PUSH3 0x50E JUMP JUMPDEST PUSH3 0x529 DUP2 DUP5 DUP5 PUSH3 0x4E3 JUMP JUMPDEST POP POP POP JUMP JUMPDEST JUMPDEST DUP2 DUP2 LT ISZERO PUSH3 0x550 JUMPI PUSH3 0x544 PUSH0 DUP3 PUSH3 0x512 JUMP JUMPDEST PUSH1 0x1 DUP2 ADD SWAP1 POP PUSH3 0x52F JUMP JUMPDEST POP POP JUMP JUMPDEST PUSH1 0x1F DUP3 GT ISZERO PUSH3 0x59F JUMPI PUSH3 0x569 DUP2 PUSH3 0x41F JUMP JUMPDEST PUSH3 0x574 DUP5 PUSH3 0x431 JUMP JUMPDEST DUP2 ADD PUSH1 0x20 DUP6 LT ISZERO PUSH3 0x584 JUMPI DUP2 SWAP1 POP JUMPDEST PUSH3 0x59C PUSH3 0x593 DUP6 PUSH3 0x431 JUMP JUMPDEST DUP4 ADD DUP3 PUSH3 0x52E JUMP JUMPDEST POP POP JUMPDEST POP POP POP JUMP JUMPDEST PUSH0 DUP3 DUP3 SHR SWAP1 POP SWAP3 SWAP2 POP POP JUMP JUMPDEST PUSH0 PUSH3 0x5C1 PUSH0 NOT DUP5 PUSH1 0x8 MUL PUSH3 0x5A4 JUMP JUMPDEST NOT DUP1 DUP4 AND SWAP2 POP POP SWAP3 SWAP2 POP POP JUMP JUMPDEST PUSH0 PUSH3 0x5DB DUP4 DUP4 PUSH3 0x5B0 JUMP JUMPDEST SWAP2 POP DUP3 PUSH1 0x2 MUL DUP3 OR SWAP1 POP SWAP3 SWAP2 POP POP JUMP JUMPDEST PUSH3 0x5F6 DUP3 PUSH3 0x387 JUMP JUMPDEST PUSH8 0xFFFFFFFFFFFFFFFF DUP2 GT ISZERO PUSH3 0x612 JUMPI PUSH3 0x611 PUSH3 0x391 JUMP JUMPDEST JUMPDEST PUSH3 0x61E DUP3 SLOAD PUSH3 0x3EB JUMP JUMPDEST PUSH3 0x62B DUP3 DUP3 DUP6 PUSH3 0x554 JUMP JUMPDEST PUSH0 PUSH1 0x20 SWAP1 POP PUSH1 0x1F DUP4 GT PUSH1 0x1 DUP2 EQ PUSH3 0x661 JUMPI PUSH0 DUP5 ISZERO PUSH3 0x64C JUMPI DUP3 DUP8 ADD MLOAD SWAP1 POP JUMPDEST PUSH3 0x658 DUP6 DUP3 PUSH3 0x5CE JUMP JUMPDEST DUP7 SSTORE POP PUSH3 0x6C7 JUMP JUMPDEST PUSH1 0x1F NOT DUP5 AND PUSH3 0x671 DUP7 PUSH3 0x41F JUMP JUMPDEST PUSH0 JUMPDEST DUP3 DUP2 LT ISZERO PUSH3 0x69A JUMPI DUP5 DUP10 ADD MLOAD DUP3 SSTORE PUSH1 0x1 DUP3 ADD SWAP2 POP PUSH1 0x20 DUP6 ADD SWAP5 POP PUSH1 0x20 DUP2 ADD SWAP1 POP PUSH3 0x673 JUMP JUMPDEST DUP7 DUP4 LT ISZERO PUSH3 0x6BA JUMPI DUP5 DUP10 ADD MLOAD PUSH3 0x6B6 PUSH1 0x1F DUP10 AND DUP3 PUSH3 0x5B0 JUMP JUMPDEST DUP4 SSTORE POP JUMPDEST PUSH1 0x1 PUSH1 0x2 DUP9 MUL ADD DUP9 SSTORE POP POP POP JUMPDEST POP POP POP POP POP POP JUMP JUMPDEST PUSH0 DUP2 SWAP1 POP SWAP2 SWAP1 POP JUMP JUMPDEST PUSH3 0x6E3 DUP2 PUSH3 0x6CF JUMP JUMPDEST DUP3 MSTORE POP POP JUMP JUMPDEST PUSH3 0x6F4 DUP2 PUSH3 0x4A1 JUMP JUMPDEST DUP3 MSTORE POP POP JUMP JUMPDEST PUSH3 0x705 DUP2 PUSH3 0x302 JUMP JUMPDEST DUP3 MSTORE POP POP JUMP JUMPDEST PUSH0 PUSH1 0xA0 DUP3 ADD SWAP1 POP PUSH3 0x720 PUSH0 DUP4 ADD DUP9 PUSH3 0x6D8 JUMP JUMPDEST PUSH3 0x72F PUSH1 0x20 DUP4 ADD DUP8 PUSH3 0x6D8 JUMP JUMPDEST PUSH3 0x73E PUSH1 0x40 DUP4 ADD DUP7 PUSH3 0x6D8 JUMP JUMPDEST PUSH3 0x74D PUSH1 0x60 DUP4 ADD DUP6 PUSH3 0x6E9 JUMP JUMPDEST PUSH3 0x75C PUSH1 0x80 DUP4 ADD DUP5 PUSH3 0x6FA JUMP JUMPDEST SWAP7 SWAP6 POP POP POP POP POP POP JUMP JUMPDEST PUSH0 DUP3 DUP3 MSTORE PUSH1 0x20 DUP3 ADD SWAP1 POP SWAP3 SWAP2 POP POP JUMP JUMPDEST PUSH0 JUMPDEST DUP4 DUP2 LT ISZERO PUSH3 0x795 JUMPI DUP1 DUP3 ADD MLOAD DUP2 DUP5 ADD MSTORE PUSH1 0x20 DUP2 ADD SWAP1 POP PUSH3 0x778 JUMP JUMPDEST PUSH0 DUP5 DUP5 ADD MSTORE POP POP POP POP JUMP JUMPDEST PUSH0 PUSH1 0x1F NOT PUSH1 0x1F DUP4 ADD AND SWAP1 POP SWAP2 SWAP1 POP JUMP JUMPDEST PUSH0 PUSH3 0x7BC DUP3 PUSH3 0x387 JUMP JUMPDEST PUSH3 0x7C8 DUP2 DUP6 PUSH3 0x766 JUMP JUMPDEST SWAP4 POP PUSH3 0x7DA DUP2 DUP6 PUSH1 0x20 DUP7 ADD PUSH3 0x776 JUMP JUMPDEST PUSH3 0x7E5 DUP2 PUSH3 0x7A0 JUMP JUMPDEST DUP5 ADD SWAP2 POP POP SWAP3 SWAP2 POP POP JUMP JUMPDEST PUSH0 PUSH1 0x20 DUP3 ADD SWAP1 POP DUP2 DUP2 SUB PUSH0 DUP4 ADD MSTORE PUSH3 0x80A DUP2 DUP5 PUSH3 0x7B0 JUMP JUMPDEST SWAP1 POP SWAP3 SWAP2 POP POP JUMP JUMPDEST PUSH0 DUP2 MLOAD SWAP1 POP SWAP2 SWAP1 POP JUMP JUMPDEST PUSH0 DUP2 SWAP1 POP PUSH1 0x20 DUP3 ADD SWAP1 POP SWAP2 SWAP1 POP JUMP JUMPDEST PUSH0 PUSH3 0x838 DUP3 MLOAD PUSH3 0x6CF JUMP JUMPDEST DUP1 SWAP2 POP POP SWAP2 SWAP1 POP JUMP JUMPDEST PUSH0 PUSH3 0x84D DUP3 PUSH3 0x812 JUMP JUMPDEST DUP3 PUSH3 0x859 DUP5 PUSH3 0x81C JUMP JUMPDEST SWAP1 POP PUSH3 0x866 DUP2 PUSH3 0x82B JUMP JUMPDEST SWAP3 POP PUSH1 0x20 DUP3 LT ISZERO PUSH3 0x8A9 JUMPI PUSH3 0x8A4 PUSH32 0xFFFFFFFFFFFFFFFFFFFFFFFFFFFFFFFFFFFFFFFFFFFFFFFFFFFFFFFFFFFFFFFF DUP4 PUSH1 0x20 SUB PUSH1 0x8 MUL PUSH3 0x440 JUMP JUMPDEST DUP4 AND SWAP3 POP JUMPDEST POP POP SWAP2 SWAP1 POP JUMP JUMPDEST PUSH1 0x80 MLOAD PUSH1 0xA0 MLOAD PUSH1 0xC0 MLOAD PUSH1 0xE0 MLOAD PUSH2 0x100 MLOAD PUSH2 0x120 MLOAD PUSH2 0x140 MLOAD PUSH2 0x160 MLOAD PUSH2 0x5469 PUSH3 0x90C PUSH0 CODECOPY PUSH0 PUSH2 0x1C64 ADD MSTORE PUSH0 PUSH2 0x27F5 ADD MSTORE PUSH0 PUSH2 0x27BA ADD MSTORE PUSH0 PUSH2 0x3227 ADD MSTORE PUSH0 PUSH2 0x3206 ADD MSTORE PUSH0 PUSH2 0x29F3 ADD MSTORE PUSH0 PUSH2 0x2A49 ADD MSTORE PUSH0 PUSH2 0x2A72 ADD MSTORE PUSH2 0x5469 PUSH0 RETURN INVALID PUSH1 0x80 PUSH1 0x40 MSTORE PUSH1 0x4 CALLDATASIZE LT PUSH2 0x233 JUMPI PUSH0 CALLDATALOAD PUSH1 0xE0 SHR DUP1 PUSH4 0x7B3C71D3 GT PUSH2 0x12D JUMPI DUP1 PUSH4 0xBC197C81 GT PUSH2 0xAA JUMPI DUP1 PUSH4 0xDEAAA7CC GT PUSH2 0x6E JUMPI DUP1 PUSH4 0xDEAAA7CC EQ PUSH2 0x9CA JUMPI DUP1 PUSH4 0xEB9019D4 EQ PUSH2 0x9F4 JUMPI DUP1 PUSH4 0xF23A6E61 EQ PUSH2 0xA30 JUMPI DUP1 PUSH4 0xF8CE560A EQ PUSH2 0xA6C JUMPI DUP1 PUSH4 0xFC0C546A EQ PUSH2 0xAA8 JUMPI PUSH2 0x2A6 JUMP JUMPDEST DUP1 PUSH4 0xBC197C81 EQ PUSH2 0x8D0 JUMPI DUP1 PUSH4 0xC01F9E37 EQ PUSH2 0x90C JUMPI DUP1 PUSH4 0xC28BC2FA EQ PUSH2 0x948 JUMPI DUP1 PUSH4 0xC59057E4 EQ PUSH2 0x964 JUMPI DUP1 PUSH4 0xDD4E2BA5 EQ PUSH2 0x9A0 JUMPI PUSH2 0x2A6 JUMP JUMPDEST DUP1 PUSH4 0x91DDADF4 GT PUSH2 0xF1 JUMPI DUP1 PUSH4 0x91DDADF4 EQ PUSH2 0x7C8 JUMPI DUP1 PUSH4 0x9A802A6D EQ PUSH2 0x7F2 JUMPI DUP1 PUSH4 0xA9A95294 EQ PUSH2 0x82E JUMPI DUP1 PUSH4 0xAB58FB8E EQ PUSH2 0x86A JUMPI DUP1 PUSH4 0xB58131B0 EQ PUSH2 0x8A6 JUMPI PUSH2 0x2A6 JUMP JUMPDEST DUP1 PUSH4 0x7B3C71D3 EQ PUSH2 0x6A8 JUMPI DUP1 PUSH4 0x7D5E81E2 EQ PUSH2 0x6E4 JUMPI DUP1 PUSH4 0x7ECEBE00 EQ PUSH2 0x720 JUMPI DUP1 PUSH4 0x84B0196E EQ PUSH2 0x75C JUMPI DUP1 PUSH4 0x8FF262E3 EQ PUSH2 0x78C JUMPI PUSH2 0x2A6 JUMP JUMPDEST DUP1 PUSH4 0x3932ABB1 GT PUSH2 0x1BB JUMPI DUP1 PUSH4 0x544FFC9C GT PUSH2 0x17F JUMPI DUP1 PUSH4 0x544FFC9C EQ PUSH2 0x58C JUMPI DUP1 PUSH4 0x54FD4D50 EQ PUSH2 0x5CA JUMPI DUP1 PUSH4 0x56781388 EQ PUSH2 0x5F4 JUMPI DUP1 PUSH4 0x5B8D0E0D EQ PUSH2 0x630 JUMPI DUP1 PUSH4 0x5F398A14 EQ PUSH2 0x66C JUMPI PUSH2 0x2A6 JUMP JUMPDEST DUP1 PUSH4 0x3932ABB1 EQ PUSH2 0x484 JUMPI DUP1 PUSH4 0x3E4F49E6 EQ PUSH2 0x4AE JUMPI DUP1 PUSH4 0x43859632 EQ PUSH2 0x4EA JUMPI DUP1 PUSH4 0x452115D6 EQ PUSH2 0x526 JUMPI DUP1 PUSH4 0x4BF5D7E9 EQ PUSH2 0x562 JUMPI PUSH2 0x2A6 JUMP JUMPDEST DUP1 PUSH4 0x150B7A02 GT PUSH2 0x202 JUMPI DUP1 PUSH4 0x150B7A02 EQ PUSH2 0x376 JUMPI DUP1 PUSH4 0x160CBED7 EQ PUSH2 0x3B2 JUMPI DUP1 PUSH4 0x2656227D EQ PUSH2 0x3EE JUMPI DUP1 PUSH4 0x2D63F693 EQ PUSH2 0x41E JUMPI DUP1 PUSH4 0x2FE3E261 EQ PUSH2 0x45A JUMPI PUSH2 0x2A6 JUMP JUMPDEST DUP1 PUSH4 0x1FFC9A7 EQ PUSH2 0x2AA JUMPI DUP1 PUSH4 0x2A251A3 EQ PUSH2 0x2E6 JUMPI DUP1 PUSH4 0x6FDDE03 EQ PUSH2 0x310 JUMPI DUP1 PUSH4 0x143489D0 EQ PUSH2 0x33A JUMPI PUSH2 0x2A6 JUMP JUMPDEST CALLDATASIZE PUSH2 0x2A6 JUMPI ADDRESS PUSH20 0xFFFFFFFFFFFFFFFFFFFFFFFFFFFFFFFFFFFFFFFF AND PUSH2 0x257 PUSH2 0xAD2 JUMP JUMPDEST PUSH20 0xFFFFFFFFFFFFFFFFFFFFFFFFFFFFFFFFFFFFFFFF AND EQ PUSH2 0x2A4 JUMPI PUSH1 0x40 MLOAD PUSH32 0xE90A651E00000000000000000000000000000000000000000000000000000000 DUP2 MSTORE PUSH1 0x4 ADD PUSH1 0x40 MLOAD DUP1 SWAP2 SUB SWAP1 REVERT JUMPDEST STOP JUMPDEST PUSH0 DUP1 REVERT JUMPDEST CALLVALUE DUP1 ISZERO PUSH2 0x2B5 JUMPI PUSH0 DUP1 REVERT JUMPDEST POP PUSH2 0x2D0 PUSH1 0x4 DUP1 CALLDATASIZE SUB DUP2 ADD SWAP1 PUSH2 0x2CB SWAP2 SWAP1 PUSH2 0x3484 JUMP JUMPDEST PUSH2 0xAD9 JUMP JUMPDEST PUSH1 0x40 MLOAD PUSH2 0x2DD SWAP2 SWAP1 PUSH2 0x34C9 JUMP JUMPDEST PUSH1 0x40 MLOAD DUP1 SWAP2 SUB SWAP1 RETURN JUMPDEST CALLVALUE DUP1 ISZERO PUSH2 0x2F1 JUMPI PUSH0 DUP1 REVERT JUMPDEST POP PUSH2 0x2FA PUSH2 0xBBA JUMP JUMPDEST PUSH1 0x40 MLOAD PUSH2 0x307 SWAP2 SWAP1 PUSH2 0x34FA JUMP JUMPDEST PUSH1 0x40 MLOAD DUP1 SWAP2 SUB SWAP1 RETURN JUMPDEST CALLVALUE DUP1 ISZERO PUSH2 0x31B JUMPI PUSH0 DUP1 REVERT JUMPDEST POP PUSH2 0x324 PUSH2 0xBC3 JUMP JUMPDEST PUSH1 0x40 MLOAD PUSH2 0x331 SWAP2 SWAP1 PUSH2 0x359D JUMP JUMPDEST PUSH1 0x40 MLOAD DUP1 SWAP2 SUB SWAP1 RETURN JUMPDEST CALLVALUE DUP1 ISZERO PUSH2 0x345 JUMPI PUSH0 DUP1 REVERT JUMPDEST POP PUSH2 0x360 PUSH1 0x4 DUP1 CALLDATASIZE SUB DUP2 ADD SWAP1 PUSH2 0x35B SWAP2 SWAP1 PUSH2 0x35E7 JUMP JUMPDEST PUSH2 0xC53 JUMP JUMPDEST PUSH1 0x40 MLOAD PUSH2 0x36D SWAP2 SWAP1 PUSH2 0x3651 JUMP JUMPDEST PUSH1 0x40 MLOAD DUP1 SWAP2 SUB SWAP1 RETURN JUMPDEST CALLVALUE DUP1 ISZERO PUSH2 0x381 JUMPI PUSH0 DUP1 REVERT JUMPDEST POP PUSH2 0x39C PUSH1 0x4 DUP1 CALLDATASIZE SUB DUP2 ADD SWAP1 PUSH2 0x397 SWAP2 SWAP1 PUSH2 0x37C0 JUMP JUMPDEST PUSH2 0xC8E JUMP JUMPDEST PUSH1 0x40 MLOAD PUSH2 0x3A9 SWAP2 SWAP1 PUSH2 0x384F JUMP JUMPDEST PUSH1 0x40 MLOAD DUP1 SWAP2 SUB SWAP1 RETURN JUMPDEST CALLVALUE DUP1 ISZERO PUSH2 0x3BD JUMPI PUSH0 DUP1 REVERT JUMPDEST POP PUSH2 0x3D8 PUSH1 0x4 DUP1 CALLDATASIZE SUB DUP2 ADD SWAP1 PUSH2 0x3D3 SWAP2 SWAP1 PUSH2 0x3AFD JUMP JUMPDEST PUSH2 0xD0D JUMP JUMPDEST PUSH1 0x40 MLOAD PUSH2 0x3E5 SWAP2 SWAP1 PUSH2 0x34FA JUMP JUMPDEST PUSH1 0x40 MLOAD DUP1 SWAP2 SUB SWAP1 RETURN JUMPDEST PUSH2 0x408 PUSH1 0x4 DUP1 CALLDATASIZE SUB DUP2 ADD SWAP1 PUSH2 0x403 SWAP2 SWAP1 PUSH2 0x3AFD JUMP JUMPDEST PUSH2 0xE03 JUMP JUMPDEST PUSH1 0x40 MLOAD PUSH2 0x415 SWAP2 SWAP1 PUSH2 0x34FA JUMP JUMPDEST PUSH1 0x40 MLOAD DUP1 SWAP2 SUB SWAP1 RETURN JUMPDEST CALLVALUE DUP1 ISZERO PUSH2 0x429 JUMPI PUSH0 DUP1 REVERT JUMPDEST POP PUSH2 0x444 PUSH1 0x4 DUP1 CALLDATASIZE SUB DUP2 ADD SWAP1 PUSH2 0x43F SWAP2 SWAP1 PUSH2 0x35E7 JUMP JUMPDEST PUSH2 0xFE3 JUMP JUMPDEST PUSH1 0x40 MLOAD PUSH2 0x451 SWAP2 SWAP1 PUSH2 0x34FA JUMP JUMPDEST PUSH1 0x40 MLOAD DUP1 SWAP2 SUB SWAP1 RETURN JUMPDEST CALLVALUE DUP1 ISZERO PUSH2 0x465 JUMPI PUSH0 DUP1 REVERT JUMPDEST POP PUSH2 0x46E PUSH2 0x1019 JUMP JUMPDEST PUSH1 0x40 MLOAD PUSH2 0x47B SWAP2 SWAP1 PUSH2 0x3BC4 JUMP JUMPDEST PUSH1 0x40 MLOAD DUP1 SWAP2 SUB SWAP1 RETURN JUMPDEST CALLVALUE DUP1 ISZERO PUSH2 0x48F JUMPI PUSH0 DUP1 REVERT JUMPDEST POP PUSH2 0x498 PUSH2 0x103D JUMP JUMPDEST PUSH1 0x40 MLOAD PUSH2 0x4A5 SWAP2 SWAP1 PUSH2 0x34FA JUMP JUMPDEST PUSH1 0x40 MLOAD DUP1 SWAP2 SUB SWAP1 RETURN JUMPDEST CALLVALUE DUP1 ISZERO PUSH2 0x4B9 JUMPI PUSH0 DUP1 REVERT JUMPDEST POP PUSH2 0x4D4 PUSH1 0x4 DUP1 CALLDATASIZE SUB DUP2 ADD SWAP1 PUSH2 0x4CF SWAP2 SWAP1 PUSH2 0x35E7 JUMP JUMPDEST PUSH2 0x1045 JUMP JUMPDEST PUSH1 0x40 MLOAD PUSH2 0x4E1 SWAP2 SWAP1 PUSH2 0x3C50 JUMP JUMPDEST PUSH1 0x40 MLOAD DUP1 SWAP2 SUB SWAP1 RETURN JUMPDEST CALLVALUE DUP1 ISZERO PUSH2 0x4F5 JUMPI PUSH0 DUP1 REVERT JUMPDEST POP PUSH2 0x510 PUSH1 0x4 DUP1 CALLDATASIZE SUB DUP2 ADD SWAP1 PUSH2 0x50B SWAP2 SWAP1 PUSH2 0x3C69 JUMP JUMPDEST PUSH2 0x119C JUMP JUMPDEST PUSH1 0x40 MLOAD PUSH2 0x51D SWAP2 SWAP1 PUSH2 0x34C9 JUMP JUMPDEST PUSH1 0x40 MLOAD DUP1 SWAP2 SUB SWAP1 RETURN JUMPDEST CALLVALUE DUP1 ISZERO PUSH2 0x531 JUMPI PUSH0 DUP1 REVERT JUMPDEST POP PUSH2 0x54C PUSH1 0x4 DUP1 CALLDATASIZE SUB DUP2 ADD SWAP1 PUSH2 0x547 SWAP2 SWAP1 PUSH2 0x3AFD JUMP JUMPDEST PUSH2 0x1201 JUMP JUMPDEST PUSH1 0x40 MLOAD PUSH2 0x559 SWAP2 SWAP1 PUSH2 0x34FA JUMP JUMPDEST PUSH1 0x40 MLOAD DUP1 SWAP2 SUB SWAP1 RETURN JUMPDEST CALLVALUE DUP1 ISZERO PUSH2 0x56D JUMPI PUSH0 DUP1 REVERT JUMPDEST POP PUSH2 0x576 PUSH2 0x12C1 JUMP JUMPDEST PUSH1 0x40 MLOAD PUSH2 0x583 SWAP2 SWAP1 PUSH2 0x359D JUMP JUMPDEST PUSH1 0x40 MLOAD DUP1 SWAP2 SUB SWAP1 RETURN JUMPDEST CALLVALUE DUP1 ISZERO PUSH2 0x597 JUMPI PUSH0 DUP1 REVERT JUMPDEST POP PUSH2 0x5B2 PUSH1 0x4 DUP1 CALLDATASIZE SUB DUP2 ADD SWAP1 PUSH2 0x5AD SWAP2 SWAP1 PUSH2 0x35E7 JUMP JUMPDEST PUSH2 0x137E JUMP JUMPDEST PUSH1 0x40 MLOAD PUSH2 0x5C1 SWAP4 SWAP3 SWAP2 SWAP1 PUSH2 0x3CA7 JUMP JUMPDEST PUSH1 0x40 MLOAD DUP1 SWAP2 SUB SWAP1 RETURN JUMPDEST CALLVALUE DUP1 ISZERO PUSH2 0x5D5 JUMPI PUSH0 DUP1 REVERT JUMPDEST POP PUSH2 0x5DE PUSH2 0x13B1 JUMP JUMPDEST PUSH1 0x40 MLOAD PUSH2 0x5EB SWAP2 SWAP1 PUSH2 0x359D JUMP JUMPDEST PUSH1 0x40 MLOAD DUP1 SWAP2 SUB SWAP1 RETURN JUMPDEST CALLVALUE DUP1 ISZERO PUSH2 0x5FF JUMPI PUSH0 DUP1 REVERT JUMPDEST POP PUSH2 0x61A PUSH1 0x4 DUP1 CALLDATASIZE SUB DUP2 ADD SWAP1 PUSH2 0x615 SWAP2 SWAP1 PUSH2 0x3D12 JUMP JUMPDEST PUSH2 0x13EE JUMP JUMPDEST PUSH1 0x40 MLOAD PUSH2 0x627 SWAP2 SWAP1 PUSH2 0x34FA JUMP JUMPDEST PUSH1 0x40 MLOAD DUP1 SWAP2 SUB SWAP1 RETURN JUMPDEST CALLVALUE DUP1 ISZERO PUSH2 0x63B JUMPI PUSH0 DUP1 REVERT JUMPDEST POP PUSH2 0x656 PUSH1 0x4 DUP1 CALLDATASIZE SUB DUP2 ADD SWAP1 PUSH2 0x651 SWAP2 SWAP1 PUSH2 0x3DA9 JUMP JUMPDEST PUSH2 0x141D JUMP JUMPDEST PUSH1 0x40 MLOAD PUSH2 0x663 SWAP2 SWAP1 PUSH2 0x34FA JUMP JUMPDEST PUSH1 0x40 MLOAD DUP1 SWAP2 SUB SWAP1 RETURN JUMPDEST CALLVALUE DUP1 ISZERO PUSH2 0x677 JUMPI PUSH0 DUP1 REVERT JUMPDEST POP PUSH2 0x692 PUSH1 0x4 DUP1 CALLDATASIZE SUB DUP2 ADD SWAP1 PUSH2 0x68D SWAP2 SWAP1 PUSH2 0x3E8B JUMP JUMPDEST PUSH2 0x154C JUMP JUMPDEST PUSH1 0x40 MLOAD PUSH2 0x69F SWAP2 SWAP1 PUSH2 0x34FA JUMP JUMPDEST PUSH1 0x40 MLOAD DUP1 SWAP2 SUB SWAP1 RETURN JUMPDEST CALLVALUE DUP1 ISZERO PUSH2 0x6B3 JUMPI PUSH0 DUP1 REVERT JUMPDEST POP PUSH2 0x6CE PUSH1 0x4 DUP1 CALLDATASIZE SUB DUP2 ADD SWAP1 PUSH2 0x6C9 SWAP2 SWAP1 PUSH2 0x3F2B JUMP JUMPDEST PUSH2 0x15B4 JUMP JUMPDEST PUSH1 0x40 MLOAD PUSH2 0x6DB SWAP2 SWAP1 PUSH2 0x34FA JUMP JUMPDEST PUSH1 0x40 MLOAD DUP1 SWAP2 SUB SWAP1 RETURN JUMPDEST CALLVALUE DUP1 ISZERO PUSH2 0x6EF JUMPI PUSH0 DUP1 REVERT JUMPDEST POP PUSH2 0x70A PUSH1 0x4 DUP1 CALLDATASIZE SUB DUP2 ADD SWAP1 PUSH2 0x705 SWAP2 SWAP1 PUSH2 0x403A JUMP JUMPDEST PUSH2 0x161A JUMP JUMPDEST PUSH1 0x40 MLOAD PUSH2 0x717 SWAP2 SWAP1 PUSH2 0x34FA JUMP JUMPDEST PUSH1 0x40 MLOAD DUP1 SWAP2 SUB SWAP1 RETURN JUMPDEST CALLVALUE DUP1 ISZERO PUSH2 0x72B JUMPI PUSH0 DUP1 REVERT JUMPDEST POP PUSH2 0x746 PUSH1 0x4 DUP1 CALLDATASIZE SUB DUP2 ADD SWAP1 PUSH2 0x741 SWAP2 SWAP1 PUSH2 0x410E JUMP JUMPDEST PUSH2 0x1707 JUMP JUMPDEST PUSH1 0x40 MLOAD PUSH2 0x753 SWAP2 SWAP1 PUSH2 0x34FA JUMP JUMPDEST PUSH1 0x40 MLOAD DUP1 SWAP2 SUB SWAP1 RETURN JUMPDEST CALLVALUE DUP1 ISZERO PUSH2 0x767 JUMPI PUSH0 DUP1 REVERT JUMPDEST POP PUSH2 0x770 PUSH2 0x174D JUMP JUMPDEST PUSH1 0x40 MLOAD PUSH2 0x783 SWAP8 SWAP7 SWAP6 SWAP5 SWAP4 SWAP3 SWAP2 SWAP1 PUSH2 0x422A JUMP JUMPDEST PUSH1 0x40 MLOAD DUP1 SWAP2 SUB SWAP1 RETURN JUMPDEST CALLVALUE DUP1 ISZERO PUSH2 0x797 JUMPI PUSH0 DUP1 REVERT JUMPDEST POP PUSH2 0x7B2 PUSH1 0x4 DUP1 CALLDATASIZE SUB DUP2 ADD SWAP1 PUSH2 0x7AD SWAP2 SWAP1 PUSH2 0x42AC JUMP JUMPDEST PUSH2 0x17F2 JUMP JUMPDEST PUSH1 0x40 MLOAD PUSH2 0x7BF SWAP2 SWAP1 PUSH2 0x34FA JUMP JUMPDEST PUSH1 0x40 MLOAD DUP1 SWAP2 SUB SWAP1 RETURN JUMPDEST CALLVALUE DUP1 ISZERO PUSH2 0x7D3 JUMPI PUSH0 DUP1 REVERT JUMPDEST POP PUSH2 0x7DC PUSH2 0x18C6 JUMP JUMPDEST PUSH1 0x40 MLOAD PUSH2 0x7E9 SWAP2 SWAP1 PUSH2 0x434C JUMP JUMPDEST PUSH1 0x40 MLOAD DUP1 SWAP2 SUB SWAP1 RETURN JUMPDEST CALLVALUE DUP1 ISZERO PUSH2 0x7FD JUMPI PUSH0 DUP1 REVERT JUMPDEST POP PUSH2 0x818 PUSH1 0x4 DUP1 CALLDATASIZE SUB DUP2 ADD SWAP1 PUSH2 0x813 SWAP2 SWAP1 PUSH2 0x4365 JUMP JUMPDEST PUSH2 0x1951 JUMP JUMPDEST PUSH1 0x40 MLOAD PUSH2 0x825 SWAP2 SWAP1 PUSH2 0x34FA JUMP JUMPDEST PUSH1 0x40 MLOAD DUP1 SWAP2 SUB SWAP1 RETURN JUMPDEST CALLVALUE DUP1 ISZERO PUSH2 0x839 JUMPI PUSH0 DUP1 REVERT JUMPDEST POP PUSH2 0x854 PUSH1 0x4 DUP1 CALLDATASIZE SUB DUP2 ADD SWAP1 PUSH2 0x84F SWAP2 SWAP1 PUSH2 0x35E7 JUMP JUMPDEST PUSH2 0x1966 JUMP JUMPDEST PUSH1 0x40 MLOAD PUSH2 0x861 SWAP2 SWAP1 PUSH2 0x34C9 JUMP JUMPDEST PUSH1 0x40 MLOAD DUP1 SWAP2 SUB SWAP1 RETURN JUMPDEST CALLVALUE DUP1 ISZERO PUSH2 0x875 JUMPI PUSH0 DUP1 REVERT JUMPDEST POP PUSH2 0x890 PUSH1 0x4 DUP1 CALLDATASIZE SUB DUP2 ADD SWAP1 PUSH2 0x88B SWAP2 SWAP1 PUSH2 0x35E7 JUMP JUMPDEST PUSH2 0x196C JUMP JUMPDEST PUSH1 0x40 MLOAD PUSH2 0x89D SWAP2 SWAP1 PUSH2 0x34FA JUMP JUMPDEST PUSH1 0x40 MLOAD DUP1 SWAP2 SUB SWAP1 RETURN JUMPDEST CALLVALUE DUP1 ISZERO PUSH2 0x8B1 JUMPI PUSH0 DUP1 REVERT JUMPDEST POP PUSH2 0x8BA PUSH2 0x19A2 JUMP JUMPDEST PUSH1 0x40 MLOAD PUSH2 0x8C7 SWAP2 SWAP1 PUSH2 0x34FA JUMP JUMPDEST PUSH1 0x40 MLOAD DUP1 SWAP2 SUB SWAP1 RETURN JUMPDEST CALLVALUE DUP1 ISZERO PUSH2 0x8DB JUMPI PUSH0 DUP1 REVERT JUMPDEST POP PUSH2 0x8F6 PUSH1 0x4 DUP1 CALLDATASIZE SUB DUP2 ADD SWAP1 PUSH2 0x8F1 SWAP2 SWAP1 PUSH2 0x43D1 JUMP JUMPDEST PUSH2 0x19B2 JUMP JUMPDEST PUSH1 0x40 MLOAD PUSH2 0x903 SWAP2 SWAP1 PUSH2 0x384F JUMP JUMPDEST PUSH1 0x40 MLOAD DUP1 SWAP2 SUB SWAP1 RETURN JUMPDEST CALLVALUE DUP1 ISZERO PUSH2 0x917 JUMPI PUSH0 DUP1 REVERT JUMPDEST POP PUSH2 0x932 PUSH1 0x4 DUP1 CALLDATASIZE SUB DUP2 ADD SWAP1 PUSH2 0x92D SWAP2 SWAP1 PUSH2 0x35E7 JUMP JUMPDEST PUSH2 0x1A32 JUMP JUMPDEST PUSH1 0x40 MLOAD PUSH2 0x93F SWAP2 SWAP1 PUSH2 0x34FA JUMP JUMPDEST PUSH1 0x40 MLOAD DUP1 SWAP2 SUB SWAP1 RETURN JUMPDEST PUSH2 0x962 PUSH1 0x4 DUP1 CALLDATASIZE SUB DUP2 ADD SWAP1 PUSH2 0x95D SWAP2 SWAP1 PUSH2 0x44F1 JUMP JUMPDEST PUSH2 0x1A9C JUMP JUMPDEST STOP JUMPDEST CALLVALUE DUP1 ISZERO PUSH2 0x96F JUMPI PUSH0 DUP1 REVERT JUMPDEST POP PUSH2 0x98A PUSH1 0x4 DUP1 CALLDATASIZE SUB DUP2 ADD SWAP1 PUSH2 0x985 SWAP2 SWAP1 PUSH2 0x3AFD JUMP JUMPDEST PUSH2 0x1B25 JUMP JUMPDEST PUSH1 0x40 MLOAD PUSH2 0x997 SWAP2 SWAP1 PUSH2 0x34FA JUMP JUMPDEST PUSH1 0x40 MLOAD DUP1 SWAP2 SUB SWAP1 RETURN JUMPDEST CALLVALUE DUP1 ISZERO PUSH2 0x9AB JUMPI PUSH0 DUP1 REVERT JUMPDEST POP PUSH2 0x9B4 PUSH2 0x1B5F JUMP JUMPDEST PUSH1 0x40 MLOAD PUSH2 0x9C1 SWAP2 SWAP1 PUSH2 0x359D JUMP JUMPDEST PUSH1 0x40 MLOAD DUP1 SWAP2 SUB SWAP1 RETURN JUMPDEST CALLVALUE DUP1 ISZERO PUSH2 0x9D5 JUMPI PUSH0 DUP1 REVERT JUMPDEST POP PUSH2 0x9DE PUSH2 0x1B9C JUMP JUMPDEST PUSH1 0x40 MLOAD PUSH2 0x9EB SWAP2 SWAP1 PUSH2 0x3BC4 JUMP JUMPDEST PUSH1 0x40 MLOAD DUP1 SWAP2 SUB SWAP1 RETURN JUMPDEST CALLVALUE DUP1 ISZERO PUSH2 0x9FF JUMPI PUSH0 DUP1 REVERT JUMPDEST POP PUSH2 0xA1A PUSH1 0x4 DUP1 CALLDATASIZE SUB DUP2 ADD SWAP1 PUSH2 0xA15 SWAP2 SWAP1 PUSH2 0x4562 JUMP JUMPDEST PUSH2 0x1BC0 JUMP JUMPDEST PUSH1 0x40 MLOAD PUSH2 0xA27 SWAP2 SWAP1 PUSH2 0x34FA JUMP JUMPDEST PUSH1 0x40 MLOAD DUP1 SWAP2 SUB SWAP1 RETURN JUMPDEST CALLVALUE DUP1 ISZERO PUSH2 0xA3B JUMPI PUSH0 DUP1 REVERT JUMPDEST POP PUSH2 0xA56 PUSH1 0x4 DUP1 CALLDATASIZE SUB DUP2 ADD SWAP1 PUSH2 0xA51 SWAP2 SWAP1 PUSH2 0x45A0 JUMP JUMPDEST PUSH2 0x1BDB JUMP JUMPDEST PUSH1 0x40 MLOAD PUSH2 0xA63 SWAP2 SWAP1 PUSH2 0x384F JUMP JUMPDEST PUSH1 0x40 MLOAD DUP1 SWAP2 SUB SWAP1 RETURN JUMPDEST CALLVALUE DUP1 ISZERO PUSH2 0xA77 JUMPI PUSH0 DUP1 REVERT JUMPDEST POP PUSH2 0xA92 PUSH1 0x4 DUP1 CALLDATASIZE SUB DUP2 ADD SWAP1 PUSH2 0xA8D SWAP2 SWAP1 PUSH2 0x35E7 JUMP JUMPDEST PUSH2 0x1C5B JUMP JUMPDEST PUSH1 0x40 MLOAD PUSH2 0xA9F SWAP2 SWAP1 PUSH2 0x34FA JUMP JUMPDEST PUSH1 0x40 MLOAD DUP1 SWAP2 SUB SWAP1 RETURN JUMPDEST CALLVALUE DUP1 ISZERO PUSH2 0xAB3 JUMPI PUSH0 DUP1 REVERT JUMPDEST POP PUSH2 0xABC PUSH2 0x1C61 JUMP JUMPDEST PUSH1 0x40 MLOAD PUSH2 0xAC9 SWAP2 SWAP1 PUSH2 0x468E JUMP JUMPDEST PUSH1 0x40 MLOAD DUP1 SWAP2 SUB SWAP1 RETURN JUMPDEST PUSH0 ADDRESS SWAP1 POP SWAP1 JUMP JUMPDEST PUSH0 PUSH32 0x65455A8600000000000000000000000000000000000000000000000000000000 PUSH28 0xFFFFFFFFFFFFFFFFFFFFFFFFFFFFFFFFFFFFFFFFFFFFFFFFFFFFFFFF NOT AND DUP3 PUSH28 0xFFFFFFFFFFFFFFFFFFFFFFFFFFFFFFFFFFFFFFFFFFFFFFFFFFFFFFFF NOT AND EQ DUP1 PUSH2 0xBA3 JUMPI POP PUSH32 0x4E2312E000000000000000000000000000000000000000000000000000000000 PUSH28 0xFFFFFFFFFFFFFFFFFFFFFFFFFFFFFFFFFFFFFFFFFFFFFFFFFFFFFFFF NOT AND DUP3 PUSH28 0xFFFFFFFFFFFFFFFFFFFFFFFFFFFFFFFFFFFFFFFFFFFFFFFFFFFFFFFF NOT AND EQ JUMPDEST DUP1 PUSH2 0xBB3 JUMPI POP PUSH2 0xBB2 DUP3 PUSH2 0x1C88 JUMP JUMPDEST JUMPDEST SWAP1 POP SWAP2 SWAP1 POP JUMP JUMPDEST PUSH0 PUSH2 0xB2FA SWAP1 POP SWAP1 JUMP JUMPDEST PUSH1 0x60 PUSH1 0x3 DUP1 SLOAD PUSH2 0xBD2 SWAP1 PUSH2 0x46D4 JUMP JUMPDEST DUP1 PUSH1 0x1F ADD PUSH1 0x20 DUP1 SWAP2 DIV MUL PUSH1 0x20 ADD PUSH1 0x40 MLOAD SWAP1 DUP2 ADD PUSH1 0x40 MSTORE DUP1 SWAP3 SWAP2 SWAP1 DUP2 DUP2 MSTORE PUSH1 0x20 ADD DUP3 DUP1 SLOAD PUSH2 0xBFE SWAP1 PUSH2 0x46D4 JUMP JUMPDEST DUP1 ISZERO PUSH2 0xC49 JUMPI DUP1 PUSH1 0x1F LT PUSH2 0xC20 JUMPI PUSH2 0x100 DUP1 DUP4 SLOAD DIV MUL DUP4 MSTORE SWAP2 PUSH1 0x20 ADD SWAP2 PUSH2 0xC49 JUMP JUMPDEST DUP3 ADD SWAP2 SWAP1 PUSH0 MSTORE PUSH1 0x20 PUSH0 KECCAK256 SWAP1 JUMPDEST DUP2 SLOAD DUP2 MSTORE SWAP1 PUSH1 0x1 ADD SWAP1 PUSH1 0x20 ADD DUP1 DUP4 GT PUSH2 0xC2C JUMPI DUP3 SWAP1 SUB PUSH1 0x1F AND DUP3 ADD SWAP2 JUMPDEST POP POP POP POP POP SWAP1 POP SWAP1 JUMP JUMPDEST PUSH0 PUSH1 0x4 PUSH0 DUP4 DUP2 MSTORE PUSH1 0x20 ADD SWAP1 DUP2 MSTORE PUSH1 0x20 ADD PUSH0 KECCAK256 PUSH0 ADD PUSH0 SWAP1 SLOAD SWAP1 PUSH2 0x100 EXP SWAP1 DIV PUSH20 0xFFFFFFFFFFFFFFFFFFFFFFFFFFFFFFFFFFFFFFFF AND SWAP1 POP SWAP2 SWAP1 POP JUMP JUMPDEST PUSH0 ADDRESS PUSH20 0xFFFFFFFFFFFFFFFFFFFFFFFFFFFFFFFFFFFFFFFF AND PUSH2 0xCAE PUSH2 0xAD2 JUMP JUMPDEST PUSH20 0xFFFFFFFFFFFFFFFFFFFFFFFFFFFFFFFFFFFFFFFF AND EQ PUSH2 0xCFB JUMPI PUSH1 0x40 MLOAD PUSH32 0xE90A651E00000000000000000000000000000000000000000000000000000000 DUP2 MSTORE PUSH1 0x4 ADD PUSH1 0x40 MLOAD DUP1 SWAP2 SUB SWAP1 REVERT JUMPDEST PUSH4 0x150B7A02 PUSH1 0xE0 SHL SWAP1 POP SWAP5 SWAP4 POP POP POP POP JUMP JUMPDEST PUSH0 DUP1 PUSH2 0xD1B DUP7 DUP7 DUP7 DUP7 PUSH2 0x1B25 JUMP JUMPDEST SWAP1 POP PUSH2 0xD30 DUP2 PUSH2 0xD2B PUSH1 0x4 PUSH2 0x1CF1 JUMP JUMPDEST PUSH2 0x1D15 JUMP JUMPDEST POP PUSH0 PUSH2 0xD3F DUP3 DUP9 DUP9 DUP9 DUP9 PUSH2 0x1D80 JUMP JUMPDEST SWAP1 POP PUSH0 DUP2 PUSH6 0xFFFFFFFFFFFF AND EQ PUSH2 0xDC4 JUMPI DUP1 PUSH1 0x4 PUSH0 DUP5 DUP2 MSTORE PUSH1 0x20 ADD SWAP1 DUP2 MSTORE PUSH1 0x20 ADD PUSH0 KECCAK256 PUSH1 0x1 ADD PUSH0 PUSH2 0x100 EXP DUP2 SLOAD DUP2 PUSH6 0xFFFFFFFFFFFF MUL NOT AND SWAP1 DUP4 PUSH6 0xFFFFFFFFFFFF AND MUL OR SWAP1 SSTORE POP PUSH32 0x9A2E42FD6722813D69113E7D0079D3D940171428DF7373DF9C7F7617CFDA2892 DUP3 DUP3 PUSH1 0x40 MLOAD PUSH2 0xDB7 SWAP3 SWAP2 SWAP1 PUSH2 0x4734 JUMP JUMPDEST PUSH1 0x40 MLOAD DUP1 SWAP2 SUB SWAP1 LOG1 PUSH2 0xDF6 JUMP JUMPDEST PUSH1 0x40 MLOAD PUSH32 0x90884A4600000000000000000000000000000000000000000000000000000000 DUP2 MSTORE PUSH1 0x4 ADD PUSH1 0x40 MLOAD DUP1 SWAP2 SUB SWAP1 REVERT JUMPDEST DUP2 SWAP3 POP POP POP SWAP5 SWAP4 POP POP POP POP JUMP JUMPDEST PUSH0 DUP1 PUSH2 0xE11 DUP7 DUP7 DUP7 DUP7 PUSH2 0x1B25 JUMP JUMPDEST SWAP1 POP PUSH2 0xE31 DUP2 PUSH2 0xE21 PUSH1 0x5 PUSH2 0x1CF1 JUMP JUMPDEST PUSH2 0xE2B PUSH1 0x4 PUSH2 0x1CF1 JUMP JUMPDEST OR PUSH2 0x1D15 JUMP JUMPDEST POP PUSH1 0x1 PUSH1 0x4 PUSH0 DUP4 DUP2 MSTORE PUSH1 0x20 ADD SWAP1 DUP2 MSTORE PUSH1 0x20 ADD PUSH0 KECCAK256 PUSH0 ADD PUSH1 0x1E PUSH2 0x100 EXP DUP2 SLOAD DUP2 PUSH1 0xFF MUL NOT AND SWAP1 DUP4 ISZERO ISZERO MUL OR SWAP1 SSTORE POP ADDRESS PUSH20 0xFFFFFFFFFFFFFFFFFFFFFFFFFFFFFFFFFFFFFFFF AND PUSH2 0xE7D PUSH2 0xAD2 JUMP JUMPDEST PUSH20 0xFFFFFFFFFFFFFFFFFFFFFFFFFFFFFFFFFFFFFFFF AND EQ PUSH2 0xF39 JUMPI PUSH0 JUMPDEST DUP7 MLOAD DUP2 LT ISZERO PUSH2 0xF37 JUMPI ADDRESS PUSH20 0xFFFFFFFFFFFFFFFFFFFFFFFFFFFFFFFFFFFFFFFF AND DUP8 DUP3 DUP2 MLOAD DUP2 LT PUSH2 0xECD JUMPI PUSH2 0xECC PUSH2 0x475B JUMP JUMPDEST JUMPDEST PUSH1 0x20 MUL PUSH1 0x20 ADD ADD MLOAD PUSH20 0xFFFFFFFFFFFFFFFFFFFFFFFFFFFFFFFFFFFFFFFF AND SUB PUSH2 0xF26 JUMPI PUSH2 0xF25 DUP6 DUP3 DUP2 MLOAD DUP2 LT PUSH2 0xF06 JUMPI PUSH2 0xF05 PUSH2 0x475B JUMP JUMPDEST JUMPDEST PUSH1 0x20 MUL PUSH1 0x20 ADD ADD MLOAD DUP1 MLOAD SWAP1 PUSH1 0x20 ADD KECCAK256 PUSH1 0x5 PUSH2 0x1D8A SWAP1 SWAP2 SWAP1 PUSH4 0xFFFFFFFF AND JUMP JUMPDEST JUMPDEST DUP1 PUSH2 0xF30 SWAP1 PUSH2 0x47B5 JUMP JUMPDEST SWAP1 POP PUSH2 0xE9A JUMP JUMPDEST POP JUMPDEST PUSH2 0xF46 DUP2 DUP8 DUP8 DUP8 DUP8 PUSH2 0x1EA9 JUMP JUMPDEST ADDRESS PUSH20 0xFFFFFFFFFFFFFFFFFFFFFFFFFFFFFFFFFFFFFFFF AND PUSH2 0xF65 PUSH2 0xAD2 JUMP JUMPDEST PUSH20 0xFFFFFFFFFFFFFFFFFFFFFFFFFFFFFFFFFFFFFFFF AND EQ ISZERO DUP1 ISZERO PUSH2 0xF90 JUMPI POP PUSH2 0xF8E PUSH1 0x5 PUSH2 0x1F94 JUMP JUMPDEST ISZERO JUMPDEST ISZERO PUSH2 0xFA0 JUMPI PUSH2 0xF9F PUSH1 0x5 PUSH2 0x2000 JUMP JUMPDEST JUMPDEST PUSH32 0x712AE1383F79AC853F8D882153778E0260EF8F03B504E2866E0593E04D2B291F DUP2 PUSH1 0x40 MLOAD PUSH2 0xFCF SWAP2 SWAP1 PUSH2 0x34FA JUMP JUMPDEST PUSH1 0x40 MLOAD DUP1 SWAP2 SUB SWAP1 LOG1 DUP1 SWAP2 POP POP SWAP5 SWAP4 POP POP POP POP JUMP JUMPDEST PUSH0 PUSH1 0x4 PUSH0 DUP4 DUP2 MSTORE PUSH1 0x20 ADD SWAP1 DUP2 MSTORE PUSH1 0x20 ADD PUSH0 KECCAK256 PUSH0 ADD PUSH1 0x14 SWAP1 SLOAD SWAP1 PUSH2 0x100 EXP SWAP1 DIV PUSH6 0xFFFFFFFFFFFF AND PUSH6 0xFFFFFFFFFFFF AND SWAP1 POP SWAP2 SWAP1 POP JUMP JUMPDEST PUSH32 0x3E83946653575F9A39005E1545185629E92736B7528AB20CA3816F315424A811 DUP2 JUMP JUMPDEST PUSH0 PUSH1 0x1 SWAP1 POP SWAP1 JUMP JUMPDEST PUSH0 DUP1 PUSH1 0x4 PUSH0 DUP5 DUP2 MSTORE PUSH1 0x20 ADD SWAP1 DUP2 MSTORE PUSH1 0x20 ADD PUSH0 KECCAK256 SWAP1 POP PUSH0 DUP2 PUSH0 ADD PUSH1 0x1E SWAP1 SLOAD SWAP1 PUSH2 0x100 EXP SWAP1 DIV PUSH1 0xFF AND SWAP1 POP PUSH0 DUP3 PUSH0 ADD PUSH1 0x1F SWAP1 SLOAD SWAP1 PUSH2 0x100 EXP SWAP1 DIV PUSH1 0xFF AND SWAP1 POP DUP2 ISZERO PUSH2 0x1094 JUMPI PUSH1 0x7 SWAP4 POP POP POP POP PUSH2 0x1197 JUMP JUMPDEST DUP1 ISZERO PUSH2 0x10A6 JUMPI PUSH1 0x2 SWAP4 POP POP POP POP PUSH2 0x1197 JUMP JUMPDEST PUSH0 PUSH2 0x10B0 DUP7 PUSH2 0xFE3 JUMP JUMPDEST SWAP1 POP PUSH0 DUP2 SUB PUSH2 0x10F6 JUMPI DUP6 PUSH1 0x40 MLOAD PUSH32 0x6AD0607500000000000000000000000000000000000000000000000000000000 DUP2 MSTORE PUSH1 0x4 ADD PUSH2 0x10ED SWAP2 SWAP1 PUSH2 0x34FA JUMP JUMPDEST PUSH1 0x40 MLOAD DUP1 SWAP2 SUB SWAP1 REVERT JUMPDEST PUSH0 PUSH2 0x10FF PUSH2 0x18C6 JUMP JUMPDEST PUSH6 0xFFFFFFFFFFFF AND SWAP1 POP DUP1 DUP3 LT PUSH2 0x111D JUMPI PUSH0 SWAP6 POP POP POP POP POP POP PUSH2 0x1197 JUMP JUMPDEST PUSH0 PUSH2 0x1127 DUP9 PUSH2 0x1A32 JUMP JUMPDEST SWAP1 POP DUP2 DUP2 LT PUSH2 0x113F JUMPI PUSH1 0x1 SWAP7 POP POP POP POP POP POP POP PUSH2 0x1197 JUMP JUMPDEST PUSH2 0x1148 DUP9 PUSH2 0x2076 JUMP JUMPDEST ISZERO DUP1 PUSH2 0x115A JUMPI POP PUSH2 0x1158 DUP9 PUSH2 0x20BA JUMP JUMPDEST ISZERO JUMPDEST ISZERO PUSH2 0x116E JUMPI PUSH1 0x3 SWAP7 POP POP POP POP POP POP POP PUSH2 0x1197 JUMP JUMPDEST PUSH0 PUSH2 0x1178 DUP10 PUSH2 0x196C JUMP JUMPDEST SUB PUSH2 0x118C JUMPI PUSH1 0x4 SWAP7 POP POP POP POP POP POP POP PUSH2 0x1197 JUMP JUMPDEST PUSH1 0x5 SWAP7 POP POP POP POP POP POP POP JUMPDEST SWAP2 SWAP1 POP JUMP JUMPDEST PUSH0 PUSH1 0x7 PUSH0 DUP5 DUP2 MSTORE PUSH1 0x20 ADD SWAP1 DUP2 MSTORE PUSH1 0x20 ADD PUSH0 KECCAK256 PUSH1 0x3 ADD PUSH0 DUP4 PUSH20 0xFFFFFFFFFFFFFFFFFFFFFFFFFFFFFFFFFFFFFFFF AND PUSH20 0xFFFFFFFFFFFFFFFFFFFFFFFFFFFFFFFFFFFFFFFF AND DUP2 MSTORE PUSH1 0x20 ADD SWAP1 DUP2 MSTORE PUSH1 0x20 ADD PUSH0 KECCAK256 PUSH0 SWAP1 SLOAD SWAP1 PUSH2 0x100 EXP SWAP1 DIV PUSH1 0xFF AND SWAP1 POP SWAP3 SWAP2 POP POP JUMP JUMPDEST PUSH0 DUP1 PUSH2 0x120F DUP7 DUP7 DUP7 DUP7 PUSH2 0x1B25 JUMP JUMPDEST SWAP1 POP PUSH2 0x1223 DUP2 PUSH2 0x121E PUSH0 PUSH2 0x1CF1 JUMP JUMPDEST PUSH2 0x1D15 JUMP JUMPDEST POP PUSH2 0x122D DUP2 PUSH2 0xC53 JUMP JUMPDEST PUSH20 0xFFFFFFFFFFFFFFFFFFFFFFFFFFFFFFFFFFFFFFFF AND PUSH2 0x124B PUSH2 0x20E1 JUMP JUMPDEST PUSH20 0xFFFFFFFFFFFFFFFFFFFFFFFFFFFFFFFFFFFFFFFF AND EQ PUSH2 0x12AA JUMPI PUSH2 0x126E PUSH2 0x20E1 JUMP JUMPDEST PUSH1 0x40 MLOAD PUSH32 0x233D98E300000000000000000000000000000000000000000000000000000000 DUP2 MSTORE PUSH1 0x4 ADD PUSH2 0x12A1 SWAP2 SWAP1 PUSH2 0x3651 JUMP JUMPDEST PUSH1 0x40 MLOAD DUP1 SWAP2 SUB SWAP1 REVERT JUMPDEST PUSH2 0x12B6 DUP7 DUP7 DUP7 DUP7 PUSH2 0x20E8 JUMP JUMPDEST SWAP2 POP POP SWAP5 SWAP4 POP POP POP POP JUMP JUMPDEST PUSH1 0x60 PUSH2 0x12CB PUSH2 0x1C61 JUMP JUMPDEST PUSH20 0xFFFFFFFFFFFFFFFFFFFFFFFFFFFFFFFFFFFFFFFF AND PUSH4 0x4BF5D7E9 PUSH1 0x40 MLOAD DUP2 PUSH4 0xFFFFFFFF AND PUSH1 0xE0 SHL DUP2 MSTORE PUSH1 0x4 ADD PUSH0 PUSH1 0x40 MLOAD DUP1 DUP4 SUB DUP2 DUP7 GAS STATICCALL SWAP3 POP POP POP DUP1 ISZERO PUSH2 0x1335 JUMPI POP PUSH1 0x40 MLOAD RETURNDATASIZE PUSH0 DUP3 RETURNDATACOPY RETURNDATASIZE PUSH1 0x1F NOT PUSH1 0x1F DUP3 ADD AND DUP3 ADD DUP1 PUSH1 0x40 MSTORE POP DUP2 ADD SWAP1 PUSH2 0x1332 SWAP2 SWAP1 PUSH2 0x486A JUMP JUMPDEST PUSH1 0x1 JUMPDEST PUSH2 0x1376 JUMPI PUSH1 0x40 MLOAD DUP1 PUSH1 0x40 ADD PUSH1 0x40 MSTORE DUP1 PUSH1 0x1D DUP2 MSTORE PUSH1 0x20 ADD PUSH32 0x6D6F64653D626C6F636B6E756D6265722666726F6D3D64656661756C74000000 DUP2 MSTORE POP SWAP1 POP PUSH2 0x137B JUMP JUMPDEST DUP1 SWAP2 POP POP JUMPDEST SWAP1 JUMP JUMPDEST PUSH0 DUP1 PUSH0 DUP1 PUSH1 0x7 PUSH0 DUP7 DUP2 MSTORE PUSH1 0x20 ADD SWAP1 DUP2 MSTORE PUSH1 0x20 ADD PUSH0 KECCAK256 SWAP1 POP DUP1 PUSH0 ADD SLOAD DUP2 PUSH1 0x1 ADD SLOAD DUP3 PUSH1 0x2 ADD SLOAD SWAP4 POP SWAP4 POP SWAP4 POP POP SWAP2 SWAP4 SWAP1 SWAP3 POP JUMP JUMPDEST PUSH1 0x60 PUSH1 0x40 MLOAD DUP1 PUSH1 0x40 ADD PUSH1 0x40 MSTORE DUP1 PUSH1 0x1 DUP2 MSTORE PUSH1 0x20 ADD PUSH32 0x3100000000000000000000000000000000000000000000000000000000000000 DUP2 MSTORE POP SWAP1 POP SWAP1 JUMP JUMPDEST PUSH0 DUP1 PUSH2 0x13F8 PUSH2 0x20E1 JUMP JUMPDEST SWAP1 POP PUSH2 0x1414 DUP5 DUP3 DUP6 PUSH1 0x40 MLOAD DUP1 PUSH1 0x20 ADD PUSH1 0x40 MSTORE DUP1 PUSH0 DUP2 MSTORE POP PUSH2 0x21CA JUMP JUMPDEST SWAP2 POP POP SWAP3 SWAP2 POP POP JUMP JUMPDEST PUSH0 DUP1 PUSH2 0x14AA DUP8 PUSH2 0x14A4 PUSH32 0x3E83946653575F9A39005E1545185629E92736B7528AB20CA3816F315424A811 DUP13 DUP13 DUP13 PUSH2 0x1453 DUP15 PUSH2 0x21E9 JUMP JUMPDEST DUP14 DUP14 PUSH1 0x40 MLOAD PUSH2 0x1463 SWAP3 SWAP2 SWAP1 PUSH2 0x48DF JUMP JUMPDEST PUSH1 0x40 MLOAD DUP1 SWAP2 SUB SWAP1 KECCAK256 DUP13 DUP1 MLOAD SWAP1 PUSH1 0x20 ADD KECCAK256 PUSH1 0x40 MLOAD PUSH1 0x20 ADD PUSH2 0x1489 SWAP8 SWAP7 SWAP6 SWAP5 SWAP4 SWAP3 SWAP2 SWAP1 PUSH2 0x4906 JUMP JUMPDEST PUSH1 0x40 MLOAD PUSH1 0x20 DUP2 DUP4 SUB SUB DUP2 MSTORE SWAP1 PUSH1 0x40 MSTORE DUP1 MLOAD SWAP1 PUSH1 0x20 ADD KECCAK256 PUSH2 0x223C JUMP JUMPDEST DUP6 PUSH2 0x2255 JUMP JUMPDEST SWAP1 POP DUP1 PUSH2 0x14EE JUMPI DUP7 PUSH1 0x40 MLOAD PUSH32 0x94AB6C0700000000000000000000000000000000000000000000000000000000 DUP2 MSTORE PUSH1 0x4 ADD PUSH2 0x14E5 SWAP2 SWAP1 PUSH2 0x3651 JUMP JUMPDEST PUSH1 0x40 MLOAD DUP1 SWAP2 SUB SWAP1 REVERT JUMPDEST PUSH2 0x153E DUP10 DUP9 DUP11 DUP10 DUP10 DUP1 DUP1 PUSH1 0x1F ADD PUSH1 0x20 DUP1 SWAP2 DIV MUL PUSH1 0x20 ADD PUSH1 0x40 MLOAD SWAP1 DUP2 ADD PUSH1 0x40 MSTORE DUP1 SWAP4 SWAP3 SWAP2 SWAP1 DUP2 DUP2 MSTORE PUSH1 0x20 ADD DUP4 DUP4 DUP1 DUP3 DUP5 CALLDATACOPY PUSH0 DUP2 DUP5 ADD MSTORE PUSH1 0x1F NOT PUSH1 0x1F DUP3 ADD AND SWAP1 POP DUP1 DUP4 ADD SWAP3 POP POP POP POP POP POP POP DUP9 PUSH2 0x22E2 JUMP JUMPDEST SWAP2 POP POP SWAP8 SWAP7 POP POP POP POP POP POP POP JUMP JUMPDEST PUSH0 DUP1 PUSH2 0x1556 PUSH2 0x20E1 JUMP JUMPDEST SWAP1 POP PUSH2 0x15A8 DUP8 DUP3 DUP9 DUP9 DUP9 DUP1 DUP1 PUSH1 0x1F ADD PUSH1 0x20 DUP1 SWAP2 DIV MUL PUSH1 0x20 ADD PUSH1 0x40 MLOAD SWAP1 DUP2 ADD PUSH1 0x40 MSTORE DUP1 SWAP4 SWAP3 SWAP2 SWAP1 DUP2 DUP2 MSTORE PUSH1 0x20 ADD DUP4 DUP4 DUP1 DUP3 DUP5 CALLDATACOPY PUSH0 DUP2 DUP5 ADD MSTORE PUSH1 0x1F NOT PUSH1 0x1F DUP3 ADD AND SWAP1 POP DUP1 DUP4 ADD SWAP3 POP POP POP POP POP POP POP DUP8 PUSH2 0x22E2 JUMP JUMPDEST SWAP2 POP POP SWAP6 SWAP5 POP POP POP POP POP JUMP JUMPDEST PUSH0 DUP1 PUSH2 0x15BE PUSH2 0x20E1 JUMP JUMPDEST SWAP1 POP PUSH2 0x160F DUP7 DUP3 DUP8 DUP8 DUP8 DUP1 DUP1 PUSH1 0x1F ADD PUSH1 0x20 DUP1 SWAP2 DIV MUL PUSH1 0x20 ADD PUSH1 0x40 MLOAD SWAP1 DUP2 ADD PUSH1 0x40 MSTORE DUP1 SWAP4 SWAP3 SWAP2 SWAP1 DUP2 DUP2 MSTORE PUSH1 0x20 ADD DUP4 DUP4 DUP1 DUP3 DUP5 CALLDATACOPY PUSH0 DUP2 DUP5 ADD MSTORE PUSH1 0x1F NOT PUSH1 0x1F DUP3 ADD AND SWAP1 POP DUP1 DUP4 ADD SWAP3 POP POP POP POP POP POP POP PUSH2 0x21CA JUMP JUMPDEST SWAP2 POP POP SWAP5 SWAP4 POP POP POP POP JUMP JUMPDEST PUSH0 DUP1 PUSH2 0x1624 PUSH2 0x20E1 JUMP JUMPDEST SWAP1 POP PUSH2 0x1630 DUP2 DUP5 PUSH2 0x23DF JUMP JUMPDEST PUSH2 0x1671 JUMPI DUP1 PUSH1 0x40 MLOAD PUSH32 0xD9B3955700000000000000000000000000000000000000000000000000000000 DUP2 MSTORE PUSH1 0x4 ADD PUSH2 0x1668 SWAP2 SWAP1 PUSH2 0x3651 JUMP JUMPDEST PUSH1 0x40 MLOAD DUP1 SWAP2 SUB SWAP1 REVERT JUMPDEST PUSH0 PUSH2 0x1697 DUP3 PUSH1 0x1 PUSH2 0x1680 PUSH2 0x18C6 JUMP JUMPDEST PUSH2 0x168A SWAP2 SWAP1 PUSH2 0x4973 JUMP JUMPDEST PUSH6 0xFFFFFFFFFFFF AND PUSH2 0x1BC0 JUMP JUMPDEST SWAP1 POP PUSH0 PUSH2 0x16A2 PUSH2 0x19A2 JUMP JUMPDEST SWAP1 POP DUP1 DUP3 LT ISZERO PUSH2 0x16ED JUMPI DUP3 DUP3 DUP3 PUSH1 0x40 MLOAD PUSH32 0xC242EE1600000000000000000000000000000000000000000000000000000000 DUP2 MSTORE PUSH1 0x4 ADD PUSH2 0x16E4 SWAP4 SWAP3 SWAP2 SWAP1 PUSH2 0x49AC JUMP JUMPDEST PUSH1 0x40 MLOAD DUP1 SWAP2 SUB SWAP1 REVERT JUMPDEST PUSH2 0x16FA DUP9 DUP9 DUP9 DUP9 DUP8 PUSH2 0x252D JUMP JUMPDEST SWAP4 POP POP POP POP SWAP5 SWAP4 POP POP POP POP JUMP JUMPDEST PUSH0 PUSH1 0x2 PUSH0 DUP4 PUSH20 0xFFFFFFFFFFFFFFFFFFFFFFFFFFFFFFFFFFFFFFFF AND PUSH20 0xFFFFFFFFFFFFFFFFFFFFFFFFFFFFFFFFFFFFFFFF AND DUP2 MSTORE PUSH1 0x20 ADD SWAP1 DUP2 MSTORE PUSH1 0x20 ADD PUSH0 KECCAK256 SLOAD SWAP1 POP SWAP2 SWAP1 POP JUMP JUMPDEST PUSH0 PUSH1 0x60 DUP1 PUSH0 DUP1 PUSH0 PUSH1 0x60 PUSH2 0x175E PUSH2 0x27B2 JUMP JUMPDEST PUSH2 0x1766 PUSH2 0x27EC JUMP JUMPDEST CHAINID ADDRESS PUSH0 DUP1 SHL PUSH0 PUSH8 0xFFFFFFFFFFFFFFFF DUP2 GT ISZERO PUSH2 0x1785 JUMPI PUSH2 0x1784 PUSH2 0x369C JUMP JUMPDEST JUMPDEST PUSH1 0x40 MLOAD SWAP1 DUP1 DUP3 MSTORE DUP1 PUSH1 0x20 MUL PUSH1 0x20 ADD DUP3 ADD PUSH1 0x40 MSTORE DUP1 ISZERO PUSH2 0x17B3 JUMPI DUP2 PUSH1 0x20 ADD PUSH1 0x20 DUP3 MUL DUP1 CALLDATASIZE DUP4 CALLDATACOPY DUP1 DUP3 ADD SWAP2 POP POP SWAP1 POP JUMPDEST POP PUSH32 0xF00000000000000000000000000000000000000000000000000000000000000 SWAP6 SWAP5 SWAP4 SWAP3 SWAP2 SWAP1 SWAP7 POP SWAP7 POP SWAP7 POP SWAP7 POP SWAP7 POP SWAP7 POP SWAP7 POP SWAP1 SWAP2 SWAP3 SWAP4 SWAP5 SWAP6 SWAP7 JUMP JUMPDEST PUSH0 DUP1 PUSH2 0x185D DUP5 PUSH2 0x1857 PUSH32 0xF2AAD550CF55F045CB27E9C559F9889FDFB6E6CDAA032301D6EA397784AE51D7 DUP10 DUP10 DUP10 PUSH2 0x1828 DUP12 PUSH2 0x21E9 JUMP JUMPDEST PUSH1 0x40 MLOAD PUSH1 0x20 ADD PUSH2 0x183C SWAP6 SWAP5 SWAP4 SWAP3 SWAP2 SWAP1 PUSH2 0x49E1 JUMP JUMPDEST PUSH1 0x40 MLOAD PUSH1 0x20 DUP2 DUP4 SUB SUB DUP2 MSTORE SWAP1 PUSH1 0x40 MSTORE DUP1 MLOAD SWAP1 PUSH1 0x20 ADD KECCAK256 PUSH2 0x223C JUMP JUMPDEST DUP6 PUSH2 0x2255 JUMP JUMPDEST SWAP1 POP DUP1 PUSH2 0x18A1 JUMPI DUP4 PUSH1 0x40 MLOAD PUSH32 0x94AB6C0700000000000000000000000000000000000000000000000000000000 DUP2 MSTORE PUSH1 0x4 ADD PUSH2 0x1898 SWAP2 SWAP1 PUSH2 0x3651 JUMP JUMPDEST PUSH1 0x40 MLOAD DUP1 SWAP2 SUB SWAP1 REVERT JUMPDEST PUSH2 0x18BB DUP7 DUP6 DUP8 PUSH1 0x40 MLOAD DUP1 PUSH1 0x20 ADD PUSH1 0x40 MSTORE DUP1 PUSH0 DUP2 MSTORE POP PUSH2 0x21CA JUMP JUMPDEST SWAP2 POP POP SWAP5 SWAP4 POP POP POP POP JUMP JUMPDEST PUSH0 PUSH2 0x18CF PUSH2 0x1C61 JUMP JUMPDEST PUSH20 0xFFFFFFFFFFFFFFFFFFFFFFFFFFFFFFFFFFFFFFFF AND PUSH4 0x91DDADF4 PUSH1 0x40 MLOAD DUP2 PUSH4 0xFFFFFFFF AND PUSH1 0xE0 SHL DUP2 MSTORE PUSH1 0x4 ADD PUSH1 0x20 PUSH1 0x40 MLOAD DUP1 DUP4 SUB DUP2 DUP7 GAS STATICCALL SWAP3 POP POP POP DUP1 ISZERO PUSH2 0x1936 JUMPI POP PUSH1 0x40 MLOAD RETURNDATASIZE PUSH1 0x1F NOT PUSH1 0x1F DUP3 ADD AND DUP3 ADD DUP1 PUSH1 0x40 MSTORE POP DUP2 ADD SWAP1 PUSH2 0x1933 SWAP2 SWAP1 PUSH2 0x4A5C JUMP JUMPDEST PUSH1 0x1 JUMPDEST PUSH2 0x1949 JUMPI PUSH2 0x1942 PUSH2 0x2827 JUMP JUMPDEST SWAP1 POP PUSH2 0x194E JUMP JUMPDEST DUP1 SWAP2 POP POP JUMPDEST SWAP1 JUMP JUMPDEST PUSH0 PUSH2 0x195D DUP5 DUP5 DUP5 PUSH2 0x2836 JUMP JUMPDEST SWAP1 POP SWAP4 SWAP3 POP POP POP JUMP JUMPDEST PUSH0 SWAP2 SWAP1 POP JUMP JUMPDEST PUSH0 PUSH1 0x4 PUSH0 DUP4 DUP2 MSTORE PUSH1 0x20 ADD SWAP1 DUP2 MSTORE PUSH1 0x20 ADD PUSH0 KECCAK256 PUSH1 0x1 ADD PUSH0 SWAP1 SLOAD SWAP1 PUSH2 0x100 EXP SWAP1 DIV PUSH6 0xFFFFFFFFFFFF AND PUSH6 0xFFFFFFFFFFFF AND SWAP1 POP SWAP2 SWAP1 POP JUMP JUMPDEST PUSH0 PUSH9 0x3635C9ADC5DEA00000 SWAP1 POP SWAP1 JUMP JUMPDEST PUSH0 ADDRESS PUSH20 0xFFFFFFFFFFFFFFFFFFFFFFFFFFFFFFFFFFFFFFFF AND PUSH2 0x19D2 PUSH2 0xAD2 JUMP JUMPDEST PUSH20 0xFFFFFFFFFFFFFFFFFFFFFFFFFFFFFFFFFFFFFFFF AND EQ PUSH2 0x1A1F JUMPI PUSH1 0x40 MLOAD PUSH32 0xE90A651E00000000000000000000000000000000000000000000000000000000 DUP2 MSTORE PUSH1 0x4 ADD PUSH1 0x40 MLOAD DUP1 SWAP2 SUB SWAP1 REVERT JUMPDEST PUSH4 0xBC197C81 PUSH1 0xE0 SHL SWAP1 POP SWAP6 SWAP5 POP POP POP POP POP JUMP JUMPDEST PUSH0 PUSH1 0x4 PUSH0 DUP4 DUP2 MSTORE PUSH1 0x20 ADD SWAP1 DUP2 MSTORE PUSH1 0x20 ADD PUSH0 KECCAK256 PUSH0 ADD PUSH1 0x1A SWAP1 SLOAD SWAP1 PUSH2 0x100 EXP SWAP1 DIV PUSH4 0xFFFFFFFF AND PUSH4 0xFFFFFFFF AND PUSH1 0x4 PUSH0 DUP5 DUP2 MSTORE PUSH1 0x20 ADD SWAP1 DUP2 MSTORE PUSH1 0x20 ADD PUSH0 KECCAK256 PUSH0 ADD PUSH1 0x14 SWAP1 SLOAD SWAP1 PUSH2 0x100 EXP SWAP1 DIV PUSH6 0xFFFFFFFFFFFF AND PUSH2 0x1A8D SWAP2 SWAP1 PUSH2 0x4A87 JUMP JUMPDEST PUSH6 0xFFFFFFFFFFFF AND SWAP1 POP SWAP2 SWAP1 POP JUMP JUMPDEST PUSH2 0x1AA4 PUSH2 0x28C1 JUMP JUMPDEST PUSH0 DUP1 DUP6 PUSH20 0xFFFFFFFFFFFFFFFFFFFFFFFFFFFFFFFFFFFFFFFF AND DUP6 DUP6 DUP6 PUSH1 0x40 MLOAD PUSH2 0x1ACE SWAP3 SWAP2 SWAP1 PUSH2 0x48DF JUMP JUMPDEST PUSH0 PUSH1 0x40 MLOAD DUP1 DUP4 SUB DUP2 DUP6 DUP8 GAS CALL SWAP3 POP POP POP RETURNDATASIZE DUP1 PUSH0 DUP2 EQ PUSH2 0x1B08 JUMPI PUSH1 0x40 MLOAD SWAP2 POP PUSH1 0x1F NOT PUSH1 0x3F RETURNDATASIZE ADD AND DUP3 ADD PUSH1 0x40 MSTORE RETURNDATASIZE DUP3 MSTORE RETURNDATASIZE PUSH0 PUSH1 0x20 DUP5 ADD RETURNDATACOPY PUSH2 0x1B0D JUMP JUMPDEST PUSH1 0x60 SWAP2 POP JUMPDEST POP SWAP2 POP SWAP2 POP PUSH2 0x1B1C DUP3 DUP3 PUSH2 0x29B6 JUMP JUMPDEST POP POP POP POP POP POP POP JUMP JUMPDEST PUSH0 DUP5 DUP5 DUP5 DUP5 PUSH1 0x40 MLOAD PUSH1 0x20 ADD PUSH2 0x1B3D SWAP5 SWAP4 SWAP3 SWAP2 SWAP1 PUSH2 0x4C84 JUMP JUMPDEST PUSH1 0x40 MLOAD PUSH1 0x20 DUP2 DUP4 SUB SUB DUP2 MSTORE SWAP1 PUSH1 0x40 MSTORE DUP1 MLOAD SWAP1 PUSH1 0x20 ADD KECCAK256 PUSH0 SHR SWAP1 POP SWAP5 SWAP4 POP POP POP POP JUMP JUMPDEST PUSH1 0x60 PUSH1 0x40 MLOAD DUP1 PUSH1 0x40 ADD PUSH1 0x40 MSTORE DUP1 PUSH1 0x20 DUP2 MSTORE PUSH1 0x20 ADD PUSH32 0x737570706F72743D627261766F2671756F72756D3D666F722C6162737461696E DUP2 MSTORE POP SWAP1 POP SWAP1 JUMP JUMPDEST PUSH32 0xF2AAD550CF55F045CB27E9C559F9889FDFB6E6CDAA032301D6EA397784AE51D7 DUP2 JUMP JUMPDEST PUSH0 PUSH2 0x1BD3 DUP4 DUP4 PUSH2 0x1BCE PUSH2 0x29DA JUMP JUMPDEST PUSH2 0x2836 JUMP JUMPDEST SWAP1 POP SWAP3 SWAP2 POP POP JUMP JUMPDEST PUSH0 ADDRESS PUSH20 0xFFFFFFFFFFFFFFFFFFFFFFFFFFFFFFFFFFFFFFFF AND PUSH2 0x1BFB PUSH2 0xAD2 JUMP JUMPDEST PUSH20 0xFFFFFFFFFFFFFFFFFFFFFFFFFFFFFFFFFFFFFFFF AND EQ PUSH2 0x1C48 JUMPI PUSH1 0x40 MLOAD PUSH32 0xE90A651E00000000000000000000000000000000000000000000000000000000 DUP2 MSTORE PUSH1 0x4 ADD PUSH1 0x40 MLOAD DUP1 SWAP2 SUB SWAP1 REVERT JUMPDEST PUSH4 0xF23A6E61 PUSH1 0xE0 SHL SWAP1 POP SWAP6 SWAP5 POP POP POP POP POP JUMP JUMPDEST PUSH0 SWAP2 SWAP1 POP JUMP JUMPDEST PUSH0 PUSH32 0x0 SWAP1 POP SWAP1 JUMP JUMPDEST PUSH0 PUSH32 0x1FFC9A700000000000000000000000000000000000000000000000000000000 PUSH28 0xFFFFFFFFFFFFFFFFFFFFFFFFFFFFFFFFFFFFFFFFFFFFFFFFFFFFFFFF NOT AND DUP3 PUSH28 0xFFFFFFFFFFFFFFFFFFFFFFFFFFFFFFFFFFFFFFFFFFFFFFFFFFFFFFFF NOT AND EQ SWAP1 POP SWAP2 SWAP1 POP JUMP JUMPDEST PUSH0 DUP2 PUSH1 0x7 DUP2 GT ISZERO PUSH2 0x1D05 JUMPI PUSH2 0x1D04 PUSH2 0x3BDD JUMP JUMPDEST JUMPDEST PUSH1 0xFF AND PUSH1 0x1 SWAP1 SHL PUSH0 SHL SWAP1 POP SWAP2 SWAP1 POP JUMP JUMPDEST PUSH0 DUP1 PUSH2 0x1D20 DUP5 PUSH2 0x1045 JUMP JUMPDEST SWAP1 POP PUSH0 DUP1 SHL DUP4 PUSH2 0x1D2F DUP4 PUSH2 0x1CF1 JUMP JUMPDEST AND SUB PUSH2 0x1D76 JUMPI DUP4 DUP2 DUP5 PUSH1 0x40 MLOAD PUSH32 0x31B75E4D00000000000000000000000000000000000000000000000000000000 DUP2 MSTORE PUSH1 0x4 ADD PUSH2 0x1D6D SWAP4 SWAP3 SWAP2 SWAP1 PUSH2 0x4CDC JUMP JUMPDEST PUSH1 0x40 MLOAD DUP1 SWAP2 SUB SWAP1 REVERT JUMPDEST DUP1 SWAP2 POP POP SWAP3 SWAP2 POP POP JUMP JUMPDEST PUSH0 SWAP6 SWAP5 POP POP POP POP POP JUMP JUMPDEST PUSH0 DUP3 PUSH0 ADD PUSH1 0x10 SWAP1 SLOAD SWAP1 PUSH2 0x100 EXP SWAP1 DIV PUSH16 0xFFFFFFFFFFFFFFFFFFFFFFFFFFFFFFFF AND SWAP1 POP DUP3 PUSH0 ADD PUSH0 SWAP1 SLOAD SWAP1 PUSH2 0x100 EXP SWAP1 DIV PUSH16 0xFFFFFFFFFFFFFFFFFFFFFFFFFFFFFFFF AND PUSH16 0xFFFFFFFFFFFFFFFFFFFFFFFFFFFFFFFF AND PUSH1 0x1 DUP3 ADD PUSH16 0xFFFFFFFFFFFFFFFFFFFFFFFFFFFFFFFF AND SUB PUSH2 0x1E2B JUMPI PUSH1 0x40 MLOAD PUSH32 0x8ACB5F2700000000000000000000000000000000000000000000000000000000 DUP2 MSTORE PUSH1 0x4 ADD PUSH1 0x40 MLOAD DUP1 SWAP2 SUB SWAP1 REVERT JUMPDEST DUP2 DUP4 PUSH1 0x1 ADD PUSH0 DUP4 PUSH16 0xFFFFFFFFFFFFFFFFFFFFFFFFFFFFFFFF AND PUSH16 0xFFFFFFFFFFFFFFFFFFFFFFFFFFFFFFFF AND DUP2 MSTORE PUSH1 0x20 ADD SWAP1 DUP2 MSTORE PUSH1 0x20 ADD PUSH0 KECCAK256 DUP2 SWAP1 SSTORE POP PUSH1 0x1 DUP2 ADD DUP4 PUSH0 ADD PUSH1 0x10 PUSH2 0x100 EXP DUP2 SLOAD DUP2 PUSH16 0xFFFFFFFFFFFFFFFFFFFFFFFFFFFFFFFF MUL NOT AND SWAP1 DUP4 PUSH16 0xFFFFFFFFFFFFFFFFFFFFFFFFFFFFFFFF AND MUL OR SWAP1 SSTORE POP POP POP POP JUMP JUMPDEST PUSH0 JUMPDEST DUP5 MLOAD DUP2 LT ISZERO PUSH2 0x1F8C JUMPI PUSH0 DUP1 DUP7 DUP4 DUP2 MLOAD DUP2 LT PUSH2 0x1EC9 JUMPI PUSH2 0x1EC8 PUSH2 0x475B JUMP JUMPDEST JUMPDEST PUSH1 0x20 MUL PUSH1 0x20 ADD ADD MLOAD PUSH20 0xFFFFFFFFFFFFFFFFFFFFFFFFFFFFFFFFFFFFFFFF AND DUP7 DUP5 DUP2 MLOAD DUP2 LT PUSH2 0x1EFA JUMPI PUSH2 0x1EF9 PUSH2 0x475B JUMP JUMPDEST JUMPDEST PUSH1 0x20 MUL PUSH1 0x20 ADD ADD MLOAD DUP7 DUP6 DUP2 MLOAD DUP2 LT PUSH2 0x1F15 JUMPI PUSH2 0x1F14 PUSH2 0x475B JUMP JUMPDEST JUMPDEST PUSH1 0x20 MUL PUSH1 0x20 ADD ADD MLOAD PUSH1 0x40 MLOAD PUSH2 0x1F2A SWAP2 SWAP1 PUSH2 0x4D41 JUMP JUMPDEST PUSH0 PUSH1 0x40 MLOAD DUP1 DUP4 SUB DUP2 DUP6 DUP8 GAS CALL SWAP3 POP POP POP RETURNDATASIZE DUP1 PUSH0 DUP2 EQ PUSH2 0x1F64 JUMPI PUSH1 0x40 MLOAD SWAP2 POP PUSH1 0x1F NOT PUSH1 0x3F RETURNDATASIZE ADD AND DUP3 ADD PUSH1 0x40 MSTORE RETURNDATASIZE DUP3 MSTORE RETURNDATASIZE PUSH0 PUSH1 0x20 DUP5 ADD RETURNDATACOPY PUSH2 0x1F69 JUMP JUMPDEST PUSH1 0x60 SWAP2 POP JUMPDEST POP SWAP2 POP SWAP2 POP PUSH2 0x1F78 DUP3 DUP3 PUSH2 0x29B6 JUMP JUMPDEST POP POP POP DUP1 PUSH2 0x1F85 SWAP1 PUSH2 0x47B5 JUMP JUMPDEST SWAP1 POP PUSH2 0x1EAB JUMP JUMPDEST POP POP POP POP POP POP JUMP JUMPDEST PUSH0 DUP2 PUSH0 ADD PUSH0 SWAP1 SLOAD SWAP1 PUSH2 0x100 EXP SWAP1 DIV PUSH16 0xFFFFFFFFFFFFFFFFFFFFFFFFFFFFFFFF AND PUSH16 0xFFFFFFFFFFFFFFFFFFFFFFFFFFFFFFFF AND DUP3 PUSH0 ADD PUSH1 0x10 SWAP1 SLOAD SWAP1 PUSH2 0x100 EXP SWAP1 DIV PUSH16 0xFFFFFFFFFFFFFFFFFFFFFFFFFFFFFFFF AND PUSH16 0xFFFFFFFFFFFFFFFFFFFFFFFFFFFFFFFF AND EQ SWAP1 POP SWAP2 SWAP1 POP JUMP JUMPDEST PUSH0 DUP2 PUSH0 ADD PUSH0 PUSH2 0x100 EXP DUP2 SLOAD DUP2 PUSH16 0xFFFFFFFFFFFFFFFFFFFFFFFFFFFFFFFF MUL NOT AND SWAP1 DUP4 PUSH16 0xFFFFFFFFFFFFFFFFFFFFFFFFFFFFFFFF AND MUL OR SWAP1 SSTORE POP PUSH0 DUP2 PUSH0 ADD PUSH1 0x10 PUSH2 0x100 EXP DUP2 SLOAD DUP2 PUSH16 0xFFFFFFFFFFFFFFFFFFFFFFFFFFFFFFFF MUL NOT AND SWAP1 DUP4 PUSH16 0xFFFFFFFFFFFFFFFFFFFFFFFFFFFFFFFF AND MUL OR SWAP1 SSTORE POP POP JUMP JUMPDEST PUSH0 DUP1 PUSH1 0x7 PUSH0 DUP5 DUP2 MSTORE PUSH1 0x20 ADD SWAP1 DUP2 MSTORE PUSH1 0x20 ADD PUSH0 KECCAK256 SWAP1 POP DUP1 PUSH1 0x2 ADD SLOAD DUP2 PUSH1 0x1 ADD SLOAD PUSH2 0x209F SWAP2 SWAP1 PUSH2 0x4D57 JUMP JUMPDEST PUSH2 0x20B0 PUSH2 0x20AB DUP6 PUSH2 0xFE3 JUMP JUMPDEST PUSH2 0x1C5B JUMP JUMPDEST GT ISZERO SWAP2 POP POP SWAP2 SWAP1 POP JUMP JUMPDEST PUSH0 DUP1 PUSH1 0x7 PUSH0 DUP5 DUP2 MSTORE PUSH1 0x20 ADD SWAP1 DUP2 MSTORE PUSH1 0x20 ADD PUSH0 KECCAK256 SWAP1 POP DUP1 PUSH0 ADD SLOAD DUP2 PUSH1 0x1 ADD SLOAD GT SWAP2 POP POP SWAP2 SWAP1 POP JUMP JUMPDEST PUSH0 CALLER SWAP1 POP SWAP1 JUMP JUMPDEST PUSH0 DUP1 PUSH2 0x20F6 DUP7 DUP7 DUP7 DUP7 PUSH2 0x1B25 JUMP JUMPDEST SWAP1 POP PUSH2 0x215A DUP2 PUSH2 0x2106 PUSH1 0x7 PUSH2 0x1CF1 JUMP JUMPDEST PUSH2 0x2110 PUSH1 0x6 PUSH2 0x1CF1 JUMP JUMPDEST PUSH2 0x211A PUSH1 0x2 PUSH2 0x1CF1 JUMP JUMPDEST PUSH1 0x1 DUP1 PUSH1 0x7 DUP1 DUP2 GT ISZERO PUSH2 0x2130 JUMPI PUSH2 0x212F PUSH2 0x3BDD JUMP JUMPDEST JUMPDEST PUSH2 0x213A SWAP2 SWAP1 PUSH2 0x4D8A JUMP JUMPDEST PUSH1 0x2 PUSH2 0x2146 SWAP2 SWAP1 PUSH2 0x4EED JUMP JUMPDEST PUSH2 0x2150 SWAP2 SWAP1 PUSH2 0x4F37 JUMP JUMPDEST PUSH0 SHL XOR XOR XOR PUSH2 0x1D15 JUMP JUMPDEST POP PUSH1 0x1 PUSH1 0x4 PUSH0 DUP4 DUP2 MSTORE PUSH1 0x20 ADD SWAP1 DUP2 MSTORE PUSH1 0x20 ADD PUSH0 KECCAK256 PUSH0 ADD PUSH1 0x1F PUSH2 0x100 EXP DUP2 SLOAD DUP2 PUSH1 0xFF MUL NOT AND SWAP1 DUP4 ISZERO ISZERO MUL OR SWAP1 SSTORE POP PUSH32 0x789CF55BE980739DAD1D0699B93B58E806B51C9D96619BFA8FE0A28ABAA7B30C DUP2 PUSH1 0x40 MLOAD PUSH2 0x21B6 SWAP2 SWAP1 PUSH2 0x34FA JUMP JUMPDEST PUSH1 0x40 MLOAD DUP1 SWAP2 SUB SWAP1 LOG1 DUP1 SWAP2 POP POP SWAP5 SWAP4 POP POP POP POP JUMP JUMPDEST PUSH0 PUSH2 0x21DF DUP6 DUP6 DUP6 DUP6 PUSH2 0x21DA PUSH2 0x29DA JUMP JUMPDEST PUSH2 0x22E2 JUMP JUMPDEST SWAP1 POP SWAP5 SWAP4 POP POP POP POP JUMP JUMPDEST PUSH0 PUSH1 0x2 PUSH0 DUP4 PUSH20 0xFFFFFFFFFFFFFFFFFFFFFFFFFFFFFFFFFFFFFFFF AND PUSH20 0xFFFFFFFFFFFFFFFFFFFFFFFFFFFFFFFFFFFFFFFF AND DUP2 MSTORE PUSH1 0x20 ADD SWAP1 DUP2 MSTORE PUSH1 0x20 ADD PUSH0 KECCAK256 PUSH0 DUP2 SLOAD DUP1 SWAP3 SWAP2 SWAP1 PUSH1 0x1 ADD SWAP2 SWAP1 POP SSTORE SWAP1 POP SWAP2 SWAP1 POP JUMP JUMPDEST PUSH0 PUSH2 0x224E PUSH2 0x2248 PUSH2 0x29F0 JUMP JUMPDEST DUP4 PUSH2 0x2AA6 JUMP JUMPDEST SWAP1 POP SWAP2 SWAP1 POP JUMP JUMPDEST PUSH0 DUP1 PUSH0 PUSH2 0x2262 DUP6 DUP6 PUSH2 0x2AE6 JUMP JUMPDEST POP SWAP2 POP SWAP2 POP PUSH0 PUSH1 0x3 DUP2 GT ISZERO PUSH2 0x227A JUMPI PUSH2 0x2279 PUSH2 0x3BDD JUMP JUMPDEST JUMPDEST DUP2 PUSH1 0x3 DUP2 GT ISZERO PUSH2 0x228D JUMPI PUSH2 0x228C PUSH2 0x3BDD JUMP JUMPDEST JUMPDEST EQ DUP1 ISZERO PUSH2 0x22C5 JUMPI POP DUP6 PUSH20 0xFFFFFFFFFFFFFFFFFFFFFFFFFFFFFFFFFFFFFFFF AND DUP3 PUSH20 0xFFFFFFFFFFFFFFFFFFFFFFFFFFFFFFFFFFFFFFFF AND EQ JUMPDEST DUP1 PUSH2 0x22D7 JUMPI POP PUSH2 0x22D6 DUP7 DUP7 DUP7 PUSH2 0x2B3B JUMP JUMPDEST JUMPDEST SWAP3 POP POP POP SWAP4 SWAP3 POP POP POP JUMP JUMPDEST PUSH0 PUSH2 0x22F6 DUP7 PUSH2 0x22F1 PUSH1 0x1 PUSH2 0x1CF1 JUMP JUMPDEST PUSH2 0x1D15 JUMP JUMPDEST POP PUSH0 PUSH2 0x230B DUP7 PUSH2 0x2305 DUP10 PUSH2 0xFE3 JUMP JUMPDEST DUP6 PUSH2 0x2836 JUMP JUMPDEST SWAP1 POP PUSH2 0x231A DUP8 DUP8 DUP8 DUP5 DUP8 PUSH2 0x2C5A JUMP JUMPDEST PUSH0 DUP4 MLOAD SUB PUSH2 0x237B JUMPI DUP6 PUSH20 0xFFFFFFFFFFFFFFFFFFFFFFFFFFFFFFFFFFFFFFFF AND PUSH32 0xB8E138887D0AA13BAB447E82DE9D5C1777041ECD21CA36BA824FF1E6C07DDDA4 DUP9 DUP8 DUP5 DUP9 PUSH1 0x40 MLOAD PUSH2 0x236E SWAP5 SWAP4 SWAP3 SWAP2 SWAP1 PUSH2 0x4F6A JUMP JUMPDEST PUSH1 0x40 MLOAD DUP1 SWAP2 SUB SWAP1 LOG2 PUSH2 0x23D2 JUMP JUMPDEST DUP6 PUSH20 0xFFFFFFFFFFFFFFFFFFFFFFFFFFFFFFFFFFFFFFFF AND PUSH32 0xE2BABFBAC5889A709B63BB7F598B324E08BC5A4FB9EC647FB3CBC9EC07EB8712 DUP9 DUP8 DUP5 DUP9 DUP9 PUSH1 0x40 MLOAD PUSH2 0x23C9 SWAP6 SWAP5 SWAP4 SWAP3 SWAP2 SWAP1 PUSH2 0x4FFC JUMP JUMPDEST PUSH1 0x40 MLOAD DUP1 SWAP2 SUB SWAP1 LOG2 JUMPDEST DUP1 SWAP2 POP POP SWAP6 SWAP5 POP POP POP POP POP JUMP JUMPDEST PUSH0 DUP1 DUP3 MLOAD SWAP1 POP PUSH1 0x34 DUP2 LT ISZERO PUSH2 0x23F8 JUMPI PUSH1 0x1 SWAP2 POP POP PUSH2 0x2527 JUMP JUMPDEST PUSH0 PUSH1 0x14 DUP3 SUB DUP5 ADD MLOAD SWAP1 POP PUSH32 0x2370726F706F7365723D30780000000000000000000000000000000000000000 PUSH20 0xFFFFFFFFFFFFFFFFFFFFFFFFFFFFFFFFFFFFFFFF NOT AND DUP2 PUSH20 0xFFFFFFFFFFFFFFFFFFFFFFFFFFFFFFFFFFFFFFFF NOT AND EQ PUSH2 0x2462 JUMPI PUSH1 0x1 SWAP3 POP POP POP PUSH2 0x2527 JUMP JUMPDEST PUSH0 DUP1 PUSH1 0x28 DUP5 PUSH2 0x2471 SWAP2 SWAP1 PUSH2 0x4F37 JUMP JUMPDEST SWAP1 POP JUMPDEST DUP4 DUP2 LT ISZERO PUSH2 0x24F1 JUMPI PUSH0 DUP1 PUSH2 0x24A4 DUP9 DUP5 DUP2 MLOAD DUP2 LT PUSH2 0x2494 JUMPI PUSH2 0x2493 PUSH2 0x475B JUMP JUMPDEST JUMPDEST PUSH1 0x20 ADD ADD MLOAD PUSH1 0xF8 SHR PUSH1 0xF8 SHL PUSH2 0x2E49 JUMP JUMPDEST SWAP2 POP SWAP2 POP DUP2 PUSH2 0x24BC JUMPI PUSH1 0x1 SWAP7 POP POP POP POP POP POP POP PUSH2 0x2527 JUMP JUMPDEST DUP1 PUSH1 0xFF AND PUSH1 0x4 DUP6 PUSH20 0xFFFFFFFFFFFFFFFFFFFFFFFFFFFFFFFFFFFFFFFF AND SWAP1 SHL OR SWAP4 POP POP POP DUP1 PUSH2 0x24EA SWAP1 PUSH2 0x47B5 JUMP JUMPDEST SWAP1 POP PUSH2 0x2474 JUMP JUMPDEST POP DUP6 PUSH20 0xFFFFFFFFFFFFFFFFFFFFFFFFFFFFFFFFFFFFFFFF AND DUP2 PUSH20 0xFFFFFFFFFFFFFFFFFFFFFFFFFFFFFFFFFFFFFFFF AND EQ SWAP4 POP POP POP POP JUMPDEST SWAP3 SWAP2 POP POP JUMP JUMPDEST PUSH0 PUSH2 0x2541 DUP7 DUP7 DUP7 DUP7 DUP1 MLOAD SWAP1 PUSH1 0x20 ADD KECCAK256 PUSH2 0x1B25 JUMP JUMPDEST SWAP1 POP DUP5 MLOAD DUP7 MLOAD EQ ISZERO DUP1 PUSH2 0x2556 JUMPI POP DUP4 MLOAD DUP7 MLOAD EQ ISZERO JUMPDEST DUP1 PUSH2 0x2561 JUMPI POP PUSH0 DUP7 MLOAD EQ JUMPDEST ISZERO PUSH2 0x25AA JUMPI DUP6 MLOAD DUP5 MLOAD DUP7 MLOAD PUSH1 0x40 MLOAD PUSH32 0x447B05D000000000000000000000000000000000000000000000000000000000 DUP2 MSTORE PUSH1 0x4 ADD PUSH2 0x25A1 SWAP4 SWAP3 SWAP2 SWAP1 PUSH2 0x3CA7 JUMP JUMPDEST PUSH1 0x40 MLOAD DUP1 SWAP2 SUB SWAP1 REVERT JUMPDEST PUSH0 PUSH1 0x4 PUSH0 DUP4 DUP2 MSTORE PUSH1 0x20 ADD SWAP1 DUP2 MSTORE PUSH1 0x20 ADD PUSH0 KECCAK256 PUSH0 ADD PUSH1 0x14 SWAP1 SLOAD SWAP1 PUSH2 0x100 EXP SWAP1 DIV PUSH6 0xFFFFFFFFFFFF AND PUSH6 0xFFFFFFFFFFFF AND EQ PUSH2 0x2629 JUMPI DUP1 PUSH2 0x25E8 DUP3 PUSH2 0x1045 JUMP JUMPDEST PUSH0 DUP1 SHL PUSH1 0x40 MLOAD PUSH32 0x31B75E4D00000000000000000000000000000000000000000000000000000000 DUP2 MSTORE PUSH1 0x4 ADD PUSH2 0x2620 SWAP4 SWAP3 SWAP2 SWAP1 PUSH2 0x4CDC JUMP JUMPDEST PUSH1 0x40 MLOAD DUP1 SWAP2 SUB SWAP1 REVERT JUMPDEST PUSH0 PUSH2 0x2632 PUSH2 0x103D JUMP JUMPDEST PUSH2 0x263A PUSH2 0x18C6 JUMP JUMPDEST PUSH6 0xFFFFFFFFFFFF AND PUSH2 0x264C SWAP2 SWAP1 PUSH2 0x4D57 JUMP JUMPDEST SWAP1 POP PUSH0 PUSH2 0x2657 PUSH2 0xBBA JUMP JUMPDEST SWAP1 POP PUSH0 PUSH1 0x4 PUSH0 DUP6 DUP2 MSTORE PUSH1 0x20 ADD SWAP1 DUP2 MSTORE PUSH1 0x20 ADD PUSH0 KECCAK256 SWAP1 POP DUP5 DUP2 PUSH0 ADD PUSH0 PUSH2 0x100 EXP DUP2 SLOAD DUP2 PUSH20 0xFFFFFFFFFFFFFFFFFFFFFFFFFFFFFFFFFFFFFFFF MUL NOT AND SWAP1 DUP4 PUSH20 0xFFFFFFFFFFFFFFFFFFFFFFFFFFFFFFFFFFFFFFFF AND MUL OR SWAP1 SSTORE POP PUSH2 0x26B7 DUP4 PUSH2 0x2EE0 JUMP JUMPDEST DUP2 PUSH0 ADD PUSH1 0x14 PUSH2 0x100 EXP DUP2 SLOAD DUP2 PUSH6 0xFFFFFFFFFFFF MUL NOT AND SWAP1 DUP4 PUSH6 0xFFFFFFFFFFFF AND MUL OR SWAP1 SSTORE POP PUSH2 0x26E5 DUP3 PUSH2 0x2F39 JUMP JUMPDEST DUP2 PUSH0 ADD PUSH1 0x1A PUSH2 0x100 EXP DUP2 SLOAD DUP2 PUSH4 0xFFFFFFFF MUL NOT AND SWAP1 DUP4 PUSH4 0xFFFFFFFF AND MUL OR SWAP1 SSTORE POP PUSH32 0x7D84A6263AE0D98D3329BD7B46BB4E8D6F98CD35A7ADB45C274C8B7FD5EBD5E0 DUP5 DUP7 DUP12 DUP12 DUP14 MLOAD PUSH8 0xFFFFFFFFFFFFFFFF DUP2 GT ISZERO PUSH2 0x2746 JUMPI PUSH2 0x2745 PUSH2 0x369C JUMP JUMPDEST JUMPDEST PUSH1 0x40 MLOAD SWAP1 DUP1 DUP3 MSTORE DUP1 PUSH1 0x20 MUL PUSH1 0x20 ADD DUP3 ADD PUSH1 0x40 MSTORE DUP1 ISZERO PUSH2 0x2779 JUMPI DUP2 PUSH1 0x20 ADD JUMPDEST PUSH1 0x60 DUP2 MSTORE PUSH1 0x20 ADD SWAP1 PUSH1 0x1 SWAP1 SUB SWAP1 DUP2 PUSH2 0x2764 JUMPI SWAP1 POP JUMPDEST POP DUP13 DUP10 DUP10 DUP12 PUSH2 0x2788 SWAP2 SWAP1 PUSH2 0x4D57 JUMP JUMPDEST DUP15 PUSH1 0x40 MLOAD PUSH2 0x279E SWAP10 SWAP9 SWAP8 SWAP7 SWAP6 SWAP5 SWAP4 SWAP3 SWAP2 SWAP1 PUSH2 0x515E JUMP JUMPDEST PUSH1 0x40 MLOAD DUP1 SWAP2 SUB SWAP1 LOG1 POP POP POP SWAP6 SWAP5 POP POP POP POP POP JUMP JUMPDEST PUSH1 0x60 PUSH2 0x27E7 PUSH0 PUSH32 0x0 PUSH2 0x2F90 SWAP1 SWAP2 SWAP1 PUSH4 0xFFFFFFFF AND JUMP JUMPDEST SWAP1 POP SWAP1 JUMP JUMPDEST PUSH1 0x60 PUSH2 0x2822 PUSH1 0x1 PUSH32 0x0 PUSH2 0x2F90 SWAP1 SWAP2 SWAP1 PUSH4 0xFFFFFFFF AND JUMP JUMPDEST SWAP1 POP SWAP1 JUMP JUMPDEST PUSH0 PUSH2 0x2831 NUMBER PUSH2 0x2EE0 JUMP JUMPDEST SWAP1 POP SWAP1 JUMP JUMPDEST PUSH0 PUSH2 0x283F PUSH2 0x1C61 JUMP JUMPDEST PUSH20 0xFFFFFFFFFFFFFFFFFFFFFFFFFFFFFFFFFFFFFFFF AND PUSH4 0x3A46B1A8 DUP6 DUP6 PUSH1 0x40 MLOAD DUP4 PUSH4 0xFFFFFFFF AND PUSH1 0xE0 SHL DUP2 MSTORE PUSH1 0x4 ADD PUSH2 0x2879 SWAP3 SWAP2 SWAP1 PUSH2 0x520C JUMP JUMPDEST PUSH1 0x20 PUSH1 0x40 MLOAD DUP1 DUP4 SUB DUP2 DUP7 GAS STATICCALL ISZERO DUP1 ISZERO PUSH2 0x2894 JUMPI RETURNDATASIZE PUSH0 DUP1 RETURNDATACOPY RETURNDATASIZE PUSH0 REVERT JUMPDEST POP POP POP POP PUSH1 0x40 MLOAD RETURNDATASIZE PUSH1 0x1F NOT PUSH1 0x1F DUP3 ADD AND DUP3 ADD DUP1 PUSH1 0x40 MSTORE POP DUP2 ADD SWAP1 PUSH2 0x28B8 SWAP2 SWAP1 PUSH2 0x5247 JUMP JUMPDEST SWAP1 POP SWAP4 SWAP3 POP POP POP JUMP JUMPDEST PUSH2 0x28C9 PUSH2 0x20E1 JUMP JUMPDEST PUSH20 0xFFFFFFFFFFFFFFFFFFFFFFFFFFFFFFFFFFFFFFFF AND PUSH2 0x28E7 PUSH2 0xAD2 JUMP JUMPDEST PUSH20 0xFFFFFFFFFFFFFFFFFFFFFFFFFFFFFFFFFFFFFFFF AND EQ PUSH2 0x2946 JUMPI PUSH2 0x290A PUSH2 0x20E1 JUMP JUMPDEST PUSH1 0x40 MLOAD PUSH32 0x47096E4700000000000000000000000000000000000000000000000000000000 DUP2 MSTORE PUSH1 0x4 ADD PUSH2 0x293D SWAP2 SWAP1 PUSH2 0x3651 JUMP JUMPDEST PUSH1 0x40 MLOAD DUP1 SWAP2 SUB SWAP1 REVERT JUMPDEST ADDRESS PUSH20 0xFFFFFFFFFFFFFFFFFFFFFFFFFFFFFFFFFFFFFFFF AND PUSH2 0x2965 PUSH2 0xAD2 JUMP JUMPDEST PUSH20 0xFFFFFFFFFFFFFFFFFFFFFFFFFFFFFFFFFFFFFFFF AND EQ PUSH2 0x29B4 JUMPI PUSH0 PUSH2 0x2989 PUSH2 0x303D JUMP JUMPDEST PUSH1 0x40 MLOAD PUSH2 0x2997 SWAP3 SWAP2 SWAP1 PUSH2 0x48DF JUMP JUMPDEST PUSH1 0x40 MLOAD DUP1 SWAP2 SUB SWAP1 KECCAK256 SWAP1 POP JUMPDEST DUP1 PUSH2 0x29AD PUSH1 0x5 PUSH2 0x3049 JUMP JUMPDEST SUB PUSH2 0x29A2 JUMPI POP JUMPDEST JUMP JUMPDEST PUSH1 0x60 DUP3 PUSH2 0x29CB JUMPI PUSH2 0x29C6 DUP3 PUSH2 0x319E JUMP JUMPDEST PUSH2 0x29D3 JUMP JUMPDEST DUP2 SWAP1 POP PUSH2 0x29D4 JUMP JUMPDEST JUMPDEST SWAP3 SWAP2 POP POP JUMP JUMPDEST PUSH1 0x60 PUSH1 0x40 MLOAD DUP1 PUSH1 0x20 ADD PUSH1 0x40 MSTORE DUP1 PUSH0 DUP2 MSTORE POP SWAP1 POP SWAP1 JUMP JUMPDEST PUSH0 PUSH32 0x0 PUSH20 0xFFFFFFFFFFFFFFFFFFFFFFFFFFFFFFFFFFFFFFFF AND ADDRESS PUSH20 0xFFFFFFFFFFFFFFFFFFFFFFFFFFFFFFFFFFFFFFFF AND EQ DUP1 ISZERO PUSH2 0x2A6B JUMPI POP PUSH32 0x0 CHAINID EQ JUMPDEST ISZERO PUSH2 0x2A98 JUMPI PUSH32 0x0 SWAP1 POP PUSH2 0x2AA3 JUMP JUMPDEST PUSH2 0x2AA0 PUSH2 0x31E2 JUMP JUMPDEST SWAP1 POP JUMPDEST SWAP1 JUMP JUMPDEST PUSH0 PUSH1 0x40 MLOAD PUSH32 0x1901000000000000000000000000000000000000000000000000000000000000 DUP2 MSTORE DUP4 PUSH1 0x2 DUP3 ADD MSTORE DUP3 PUSH1 0x22 DUP3 ADD MSTORE PUSH1 0x42 DUP2 KECCAK256 SWAP2 POP POP SWAP3 SWAP2 POP POP JUMP JUMPDEST PUSH0 DUP1 PUSH0 PUSH1 0x41 DUP5 MLOAD SUB PUSH2 0x2B26 JUMPI PUSH0 DUP1 PUSH0 PUSH1 0x20 DUP8 ADD MLOAD SWAP3 POP PUSH1 0x40 DUP8 ADD MLOAD SWAP2 POP PUSH1 0x60 DUP8 ADD MLOAD PUSH0 BYTE SWAP1 POP PUSH2 0x2B18 DUP9 DUP3 DUP6 DUP6 PUSH2 0x3277 JUMP JUMPDEST SWAP6 POP SWAP6 POP SWAP6 POP POP POP POP PUSH2 0x2B34 JUMP JUMPDEST PUSH0 PUSH1 0x2 DUP6 MLOAD PUSH0 SHL SWAP3 POP SWAP3 POP SWAP3 POP JUMPDEST SWAP3 POP SWAP3 POP SWAP3 JUMP JUMPDEST PUSH0 DUP1 PUSH0 DUP6 PUSH20 0xFFFFFFFFFFFFFFFFFFFFFFFFFFFFFFFFFFFFFFFF AND DUP6 DUP6 PUSH1 0x40 MLOAD PUSH1 0x24 ADD PUSH2 0x2B68 SWAP3 SWAP2 SWAP1 PUSH2 0x5272 JUMP JUMPDEST PUSH1 0x40 MLOAD PUSH1 0x20 DUP2 DUP4 SUB SUB DUP2 MSTORE SWAP1 PUSH1 0x40 MSTORE PUSH4 0x1626BA7E PUSH1 0xE0 SHL PUSH1 0x20 DUP3 ADD DUP1 MLOAD PUSH28 0xFFFFFFFFFFFFFFFFFFFFFFFFFFFFFFFFFFFFFFFFFFFFFFFFFFFFFFFF DUP4 DUP2 DUP4 AND OR DUP4 MSTORE POP POP POP POP PUSH1 0x40 MLOAD PUSH2 0x2BBA SWAP2 SWAP1 PUSH2 0x4D41 JUMP JUMPDEST PUSH0 PUSH1 0x40 MLOAD DUP1 DUP4 SUB DUP2 DUP6 GAS STATICCALL SWAP2 POP POP RETURNDATASIZE DUP1 PUSH0 DUP2 EQ PUSH2 0x2BF2 JUMPI PUSH1 0x40 MLOAD SWAP2 POP PUSH1 0x1F NOT PUSH1 0x3F RETURNDATASIZE ADD AND DUP3 ADD PUSH1 0x40 MSTORE RETURNDATASIZE DUP3 MSTORE RETURNDATASIZE PUSH0 PUSH1 0x20 DUP5 ADD RETURNDATACOPY PUSH2 0x2BF7 JUMP JUMPDEST PUSH1 0x60 SWAP2 POP JUMPDEST POP SWAP2 POP SWAP2 POP DUP2 DUP1 ISZERO PUSH2 0x2C0B JUMPI POP PUSH1 0x20 DUP2 MLOAD LT ISZERO JUMPDEST DUP1 ISZERO PUSH2 0x2C4F JUMPI POP PUSH4 0x1626BA7E PUSH1 0xE0 SHL PUSH28 0xFFFFFFFFFFFFFFFFFFFFFFFFFFFFFFFFFFFFFFFFFFFFFFFFFFFFFFFF NOT AND DUP2 DUP1 PUSH1 0x20 ADD SWAP1 MLOAD DUP2 ADD SWAP1 PUSH2 0x2C4D SWAP2 SWAP1 PUSH2 0x52B4 JUMP JUMPDEST EQ JUMPDEST SWAP3 POP POP POP SWAP4 SWAP3 POP POP POP JUMP JUMPDEST PUSH0 PUSH1 0x7 PUSH0 DUP8 DUP2 MSTORE PUSH1 0x20 ADD SWAP1 DUP2 MSTORE PUSH1 0x20 ADD PUSH0 KECCAK256 SWAP1 POP DUP1 PUSH1 0x3 ADD PUSH0 DUP7 PUSH20 0xFFFFFFFFFFFFFFFFFFFFFFFFFFFFFFFFFFFFFFFF AND PUSH20 0xFFFFFFFFFFFFFFFFFFFFFFFFFFFFFFFFFFFFFFFF AND DUP2 MSTORE PUSH1 0x20 ADD SWAP1 DUP2 MSTORE PUSH1 0x20 ADD PUSH0 KECCAK256 PUSH0 SWAP1 SLOAD SWAP1 PUSH2 0x100 EXP SWAP1 DIV PUSH1 0xFF AND ISZERO PUSH2 0x2CFC JUMPI DUP5 PUSH1 0x40 MLOAD PUSH32 0x71C6AF4900000000000000000000000000000000000000000000000000000000 DUP2 MSTORE PUSH1 0x4 ADD PUSH2 0x2CF3 SWAP2 SWAP1 PUSH2 0x3651 JUMP JUMPDEST PUSH1 0x40 MLOAD DUP1 SWAP2 SUB SWAP1 REVERT JUMPDEST PUSH1 0x1 DUP2 PUSH1 0x3 ADD PUSH0 DUP8 PUSH20 0xFFFFFFFFFFFFFFFFFFFFFFFFFFFFFFFFFFFFFFFF AND PUSH20 0xFFFFFFFFFFFFFFFFFFFFFFFFFFFFFFFFFFFFFFFF AND DUP2 MSTORE PUSH1 0x20 ADD SWAP1 DUP2 MSTORE PUSH1 0x20 ADD PUSH0 KECCAK256 PUSH0 PUSH2 0x100 EXP DUP2 SLOAD DUP2 PUSH1 0xFF MUL NOT AND SWAP1 DUP4 ISZERO ISZERO MUL OR SWAP1 SSTORE POP PUSH0 PUSH1 0x2 DUP2 GT ISZERO PUSH2 0x2D66 JUMPI PUSH2 0x2D65 PUSH2 0x3BDD JUMP JUMPDEST JUMPDEST PUSH1 0xFF AND DUP5 PUSH1 0xFF AND SUB PUSH2 0x2D90 JUMPI DUP3 DUP2 PUSH0 ADD PUSH0 DUP3 DUP3 SLOAD PUSH2 0x2D84 SWAP2 SWAP1 PUSH2 0x4D57 JUMP JUMPDEST SWAP3 POP POP DUP2 SWAP1 SSTORE POP PUSH2 0x2E41 JUMP JUMPDEST PUSH1 0x1 PUSH1 0x2 DUP2 GT ISZERO PUSH2 0x2DA4 JUMPI PUSH2 0x2DA3 PUSH2 0x3BDD JUMP JUMPDEST JUMPDEST PUSH1 0xFF AND DUP5 PUSH1 0xFF AND SUB PUSH2 0x2DCF JUMPI DUP3 DUP2 PUSH1 0x1 ADD PUSH0 DUP3 DUP3 SLOAD PUSH2 0x2DC3 SWAP2 SWAP1 PUSH2 0x4D57 JUMP JUMPDEST SWAP3 POP POP DUP2 SWAP1 SSTORE POP PUSH2 0x2E40 JUMP JUMPDEST PUSH1 0x2 DUP1 DUP2 GT ISZERO PUSH2 0x2DE2 JUMPI PUSH2 0x2DE1 PUSH2 0x3BDD JUMP JUMPDEST JUMPDEST PUSH1 0xFF AND DUP5 PUSH1 0xFF AND SUB PUSH2 0x2E0D JUMPI DUP3 DUP2 PUSH1 0x2 ADD PUSH0 DUP3 DUP3 SLOAD PUSH2 0x2E01 SWAP2 SWAP1 PUSH2 0x4D57 JUMP JUMPDEST SWAP3 POP POP DUP2 SWAP1 SSTORE POP PUSH2 0x2E3F JUMP JUMPDEST PUSH1 0x40 MLOAD PUSH32 0x6B337C200000000000000000000000000000000000000000000000000000000 DUP2 MSTORE PUSH1 0x4 ADD PUSH1 0x40 MLOAD DUP1 SWAP2 SUB SWAP1 REVERT JUMPDEST JUMPDEST JUMPDEST POP POP POP POP POP POP JUMP JUMPDEST PUSH0 DUP1 PUSH0 DUP4 PUSH1 0xF8 SHR SWAP1 POP DUP1 PUSH1 0xFF AND PUSH1 0x2F LT DUP1 ISZERO PUSH2 0x2E68 JUMPI POP PUSH1 0x3A DUP2 PUSH1 0xFF AND LT JUMPDEST ISZERO PUSH2 0x2E7D JUMPI PUSH1 0x1 PUSH1 0x30 DUP3 SUB SWAP3 POP SWAP3 POP POP PUSH2 0x2EDB JUMP JUMPDEST DUP1 PUSH1 0xFF AND PUSH1 0x40 LT DUP1 ISZERO PUSH2 0x2E93 JUMPI POP PUSH1 0x47 DUP2 PUSH1 0xFF AND LT JUMPDEST ISZERO PUSH2 0x2EA8 JUMPI PUSH1 0x1 PUSH1 0x37 DUP3 SUB SWAP3 POP SWAP3 POP POP PUSH2 0x2EDB JUMP JUMPDEST DUP1 PUSH1 0xFF AND PUSH1 0x60 LT DUP1 ISZERO PUSH2 0x2EBE JUMPI POP PUSH1 0x67 DUP2 PUSH1 0xFF AND LT JUMPDEST ISZERO PUSH2 0x2ED3 JUMPI PUSH1 0x1 PUSH1 0x57 DUP3 SUB SWAP3 POP SWAP3 POP POP PUSH2 0x2EDB JUMP JUMPDEST PUSH0 DUP1 SWAP3 POP SWAP3 POP POP JUMPDEST SWAP2 POP SWAP2 JUMP JUMPDEST PUSH0 PUSH6 0xFFFFFFFFFFFF DUP1 AND DUP3 GT ISZERO PUSH2 0x2F31 JUMPI PUSH1 0x30 DUP3 PUSH1 0x40 MLOAD PUSH32 0x6DFCC65000000000000000000000000000000000000000000000000000000000 DUP2 MSTORE PUSH1 0x4 ADD PUSH2 0x2F28 SWAP3 SWAP2 SWAP1 PUSH2 0x5318 JUMP JUMPDEST PUSH1 0x40 MLOAD DUP1 SWAP2 SUB SWAP1 REVERT JUMPDEST DUP2 SWAP1 POP SWAP2 SWAP1 POP JUMP JUMPDEST PUSH0 PUSH4 0xFFFFFFFF DUP1 AND DUP3 GT ISZERO PUSH2 0x2F88 JUMPI PUSH1 0x20 DUP3 PUSH1 0x40 MLOAD PUSH32 0x6DFCC65000000000000000000000000000000000000000000000000000000000 DUP2 MSTORE PUSH1 0x4 ADD PUSH2 0x2F7F SWAP3 SWAP2 SWAP1 PUSH2 0x5378 JUMP JUMPDEST PUSH1 0x40 MLOAD DUP1 SWAP2 SUB SWAP1 REVERT JUMPDEST DUP2 SWAP1 POP SWAP2 SWAP1 POP JUMP JUMPDEST PUSH1 0x60 PUSH1 0xFF PUSH0 SHL DUP4 EQ PUSH2 0x2FAC JUMPI PUSH2 0x2FA5 DUP4 PUSH2 0x335E JUMP JUMPDEST SWAP1 POP PUSH2 0x3037 JUMP JUMPDEST DUP2 DUP1 SLOAD PUSH2 0x2FB8 SWAP1 PUSH2 0x46D4 JUMP JUMPDEST DUP1 PUSH1 0x1F ADD PUSH1 0x20 DUP1 SWAP2 DIV MUL PUSH1 0x20 ADD PUSH1 0x40 MLOAD SWAP1 DUP2 ADD PUSH1 0x40 MSTORE DUP1 SWAP3 SWAP2 SWAP1 DUP2 DUP2 MSTORE PUSH1 0x20 ADD DUP3 DUP1 SLOAD PUSH2 0x2FE4 SWAP1 PUSH2 0x46D4 JUMP JUMPDEST DUP1 ISZERO PUSH2 0x302F JUMPI DUP1 PUSH1 0x1F LT PUSH2 0x3006 JUMPI PUSH2 0x100 DUP1 DUP4 SLOAD DIV MUL DUP4 MSTORE SWAP2 PUSH1 0x20 ADD SWAP2 PUSH2 0x302F JUMP JUMPDEST DUP3 ADD SWAP2 SWAP1 PUSH0 MSTORE PUSH1 0x20 PUSH0 KECCAK256 SWAP1 JUMPDEST DUP2 SLOAD DUP2 MSTORE SWAP1 PUSH1 0x1 ADD SWAP1 PUSH1 0x20 ADD DUP1 DUP4 GT PUSH2 0x3012 JUMPI DUP3 SWAP1 SUB PUSH1 0x1F AND DUP3 ADD SWAP2 JUMPDEST POP POP POP POP POP SWAP1 POP JUMPDEST SWAP3 SWAP2 POP POP JUMP JUMPDEST CALLDATASIZE PUSH0 DUP1 CALLDATASIZE SWAP2 POP SWAP2 POP SWAP1 SWAP2 JUMP JUMPDEST PUSH0 DUP1 DUP3 PUSH0 ADD PUSH0 SWAP1 SLOAD SWAP1 PUSH2 0x100 EXP SWAP1 DIV PUSH16 0xFFFFFFFFFFFFFFFFFFFFFFFFFFFFFFFF AND SWAP1 POP DUP3 PUSH0 ADD PUSH1 0x10 SWAP1 SLOAD SWAP1 PUSH2 0x100 EXP SWAP1 DIV PUSH16 0xFFFFFFFFFFFFFFFFFFFFFFFFFFFFFFFF AND PUSH16 0xFFFFFFFFFFFFFFFFFFFFFFFFFFFFFFFF AND DUP2 PUSH16 0xFFFFFFFFFFFFFFFFFFFFFFFFFFFFFFFF AND SUB PUSH2 0x30E8 JUMPI PUSH1 0x40 MLOAD PUSH32 0x75E52F4F00000000000000000000000000000000000000000000000000000000 DUP2 MSTORE PUSH1 0x4 ADD PUSH1 0x40 MLOAD DUP1 SWAP2 SUB SWAP1 REVERT JUMPDEST DUP3 PUSH1 0x1 ADD PUSH0 DUP3 PUSH16 0xFFFFFFFFFFFFFFFFFFFFFFFFFFFFFFFF AND PUSH16 0xFFFFFFFFFFFFFFFFFFFFFFFFFFFFFFFF AND DUP2 MSTORE PUSH1 0x20 ADD SWAP1 DUP2 MSTORE PUSH1 0x20 ADD PUSH0 KECCAK256 SLOAD SWAP2 POP DUP3 PUSH1 0x1 ADD PUSH0 DUP3 PUSH16 0xFFFFFFFFFFFFFFFFFFFFFFFFFFFFFFFF AND PUSH16 0xFFFFFFFFFFFFFFFFFFFFFFFFFFFFFFFF AND DUP2 MSTORE PUSH1 0x20 ADD SWAP1 DUP2 MSTORE PUSH1 0x20 ADD PUSH0 KECCAK256 PUSH0 SWAP1 SSTORE PUSH1 0x1 DUP2 ADD DUP4 PUSH0 ADD PUSH0 PUSH2 0x100 EXP DUP2 SLOAD DUP2 PUSH16 0xFFFFFFFFFFFFFFFFFFFFFFFFFFFFFFFF MUL NOT AND SWAP1 DUP4 PUSH16 0xFFFFFFFFFFFFFFFFFFFFFFFFFFFFFFFF AND MUL OR SWAP1 SSTORE POP POP SWAP2 SWAP1 POP JUMP JUMPDEST PUSH0 DUP2 MLOAD GT ISZERO PUSH2 0x31B0 JUMPI DUP1 MLOAD DUP1 DUP3 PUSH1 0x20 ADD REVERT JUMPDEST PUSH1 0x40 MLOAD PUSH32 0x1425EA4200000000000000000000000000000000000000000000000000000000 DUP2 MSTORE PUSH1 0x4 ADD PUSH1 0x40 MLOAD DUP1 SWAP2 SUB SWAP1 REVERT JUMPDEST PUSH0 PUSH32 0x8B73C3C69BB8FE3D512ECC4CF759CC79239F7B179B0FFACAA9A75D522B39400F PUSH32 0x0 PUSH32 0x0 CHAINID ADDRESS PUSH1 0x40 MLOAD PUSH1 0x20 ADD PUSH2 0x325C SWAP6 SWAP5 SWAP4 SWAP3 SWAP2 SWAP1 PUSH2 0x539F JUMP JUMPDEST PUSH1 0x40 MLOAD PUSH1 0x20 DUP2 DUP4 SUB SUB DUP2 MSTORE SWAP1 PUSH1 0x40 MSTORE DUP1 MLOAD SWAP1 PUSH1 0x20 ADD KECCAK256 SWAP1 POP SWAP1 JUMP JUMPDEST PUSH0 DUP1 PUSH0 PUSH32 0x7FFFFFFFFFFFFFFFFFFFFFFFFFFFFFFF5D576E7357A4501DDFE92F46681B20A0 DUP5 PUSH0 SHR GT ISZERO PUSH2 0x32B3 JUMPI PUSH0 PUSH1 0x3 DUP6 SWAP3 POP SWAP3 POP SWAP3 POP PUSH2 0x3354 JUMP JUMPDEST PUSH0 PUSH1 0x1 DUP9 DUP9 DUP9 DUP9 PUSH1 0x40 MLOAD PUSH0 DUP2 MSTORE PUSH1 0x20 ADD PUSH1 0x40 MSTORE PUSH1 0x40 MLOAD PUSH2 0x32D6 SWAP5 SWAP4 SWAP3 SWAP2 SWAP1 PUSH2 0x53F0 JUMP JUMPDEST PUSH1 0x20 PUSH1 0x40 MLOAD PUSH1 0x20 DUP2 SUB SWAP1 DUP1 DUP5 SUB SWAP1 DUP6 GAS STATICCALL ISZERO DUP1 ISZERO PUSH2 0x32F6 JUMPI RETURNDATASIZE PUSH0 DUP1 RETURNDATACOPY RETURNDATASIZE PUSH0 REVERT JUMPDEST POP POP POP PUSH1 0x20 PUSH1 0x40 MLOAD SUB MLOAD SWAP1 POP PUSH0 PUSH20 0xFFFFFFFFFFFFFFFFFFFFFFFFFFFFFFFFFFFFFFFF AND DUP2 PUSH20 0xFFFFFFFFFFFFFFFFFFFFFFFFFFFFFFFFFFFFFFFF AND SUB PUSH2 0x3347 JUMPI PUSH0 PUSH1 0x1 PUSH0 DUP1 SHL SWAP4 POP SWAP4 POP SWAP4 POP POP PUSH2 0x3354 JUMP JUMPDEST DUP1 PUSH0 DUP1 PUSH0 SHL SWAP4 POP SWAP4 POP SWAP4 POP POP JUMPDEST SWAP5 POP SWAP5 POP SWAP5 SWAP2 POP POP JUMP JUMPDEST PUSH1 0x60 PUSH0 PUSH2 0x336A DUP4 PUSH2 0x33D0 JUMP JUMPDEST SWAP1 POP PUSH0 PUSH1 0x20 PUSH8 0xFFFFFFFFFFFFFFFF DUP2 GT ISZERO PUSH2 0x3388 JUMPI PUSH2 0x3387 PUSH2 0x369C JUMP JUMPDEST JUMPDEST PUSH1 0x40 MLOAD SWAP1 DUP1 DUP3 MSTORE DUP1 PUSH1 0x1F ADD PUSH1 0x1F NOT AND PUSH1 0x20 ADD DUP3 ADD PUSH1 0x40 MSTORE DUP1 ISZERO PUSH2 0x33BA JUMPI DUP2 PUSH1 0x20 ADD PUSH1 0x1 DUP3 MUL DUP1 CALLDATASIZE DUP4 CALLDATACOPY DUP1 DUP3 ADD SWAP2 POP POP SWAP1 POP JUMPDEST POP SWAP1 POP DUP2 DUP2 MSTORE DUP4 PUSH1 0x20 DUP3 ADD MSTORE DUP1 SWAP3 POP POP POP SWAP2 SWAP1 POP JUMP JUMPDEST PUSH0 DUP1 PUSH1 0xFF DUP4 PUSH0 SHR AND SWAP1 POP PUSH1 0x1F DUP2 GT ISZERO PUSH2 0x3415 JUMPI PUSH1 0x40 MLOAD PUSH32 0xB3512B0C00000000000000000000000000000000000000000000000000000000 DUP2 MSTORE PUSH1 0x4 ADD PUSH1 0x40 MLOAD DUP1 SWAP2 SUB SWAP1 REVERT JUMPDEST DUP1 SWAP2 POP POP SWAP2 SWAP1 POP JUMP JUMPDEST PUSH0 PUSH1 0x40 MLOAD SWAP1 POP SWAP1 JUMP JUMPDEST PUSH0 DUP1 REVERT JUMPDEST PUSH0 DUP1 REVERT JUMPDEST PUSH0 PUSH32 0xFFFFFFFF00000000000000000000000000000000000000000000000000000000 DUP3 AND SWAP1 POP SWAP2 SWAP1 POP JUMP JUMPDEST PUSH2 0x3463 DUP2 PUSH2 0x342F JUMP JUMPDEST DUP2 EQ PUSH2 0x346D JUMPI PUSH0 DUP1 REVERT JUMPDEST POP JUMP JUMPDEST PUSH0 DUP2 CALLDATALOAD SWAP1 POP PUSH2 0x347E DUP2 PUSH2 0x345A JUMP JUMPDEST SWAP3 SWAP2 POP POP JUMP JUMPDEST PUSH0 PUSH1 0x20 DUP3 DUP5 SUB SLT ISZERO PUSH2 0x3499 JUMPI PUSH2 0x3498 PUSH2 0x3427 JUMP JUMPDEST JUMPDEST PUSH0 PUSH2 0x34A6 DUP5 DUP3 DUP6 ADD PUSH2 0x3470 JUMP JUMPDEST SWAP2 POP POP SWAP3 SWAP2 POP POP JUMP JUMPDEST PUSH0 DUP2 ISZERO ISZERO SWAP1 POP SWAP2 SWAP1 POP JUMP JUMPDEST PUSH2 0x34C3 DUP2 PUSH2 0x34AF JUMP JUMPDEST DUP3 MSTORE POP POP JUMP JUMPDEST PUSH0 PUSH1 0x20 DUP3 ADD SWAP1 POP PUSH2 0x34DC PUSH0 DUP4 ADD DUP5 PUSH2 0x34BA JUMP JUMPDEST SWAP3 SWAP2 POP POP JUMP JUMPDEST PUSH0 DUP2 SWAP1 POP SWAP2 SWAP1 POP JUMP JUMPDEST PUSH2 0x34F4 DUP2 PUSH2 0x34E2 JUMP JUMPDEST DUP3 MSTORE POP POP JUMP JUMPDEST PUSH0 PUSH1 0x20 DUP3 ADD SWAP1 POP PUSH2 0x350D PUSH0 DUP4 ADD DUP5 PUSH2 0x34EB JUMP JUMPDEST SWAP3 SWAP2 POP POP JUMP JUMPDEST PUSH0 DUP2 MLOAD SWAP1 POP SWAP2 SWAP1 POP JUMP JUMPDEST PUSH0 DUP3 DUP3 MSTORE PUSH1 0x20 DUP3 ADD SWAP1 POP SWAP3 SWAP2 POP POP JUMP JUMPDEST PUSH0 JUMPDEST DUP4 DUP2 LT ISZERO PUSH2 0x354A JUMPI DUP1 DUP3 ADD MLOAD DUP2 DUP5 ADD MSTORE PUSH1 0x20 DUP2 ADD SWAP1 POP PUSH2 0x352F JUMP JUMPDEST PUSH0 DUP5 DUP5 ADD MSTORE POP POP POP POP JUMP JUMPDEST PUSH0 PUSH1 0x1F NOT PUSH1 0x1F DUP4 ADD AND SWAP1 POP SWAP2 SWAP1 POP JUMP JUMPDEST PUSH0 PUSH2 0x356F DUP3 PUSH2 0x3513 JUMP JUMPDEST PUSH2 0x3579 DUP2 DUP6 PUSH2 0x351D JUMP JUMPDEST SWAP4 POP PUSH2 0x3589 DUP2 DUP6 PUSH1 0x20 DUP7 ADD PUSH2 0x352D JUMP JUMPDEST PUSH2 0x3592 DUP2 PUSH2 0x3555 JUMP JUMPDEST DUP5 ADD SWAP2 POP POP SWAP3 SWAP2 POP POP JUMP JUMPDEST PUSH0 PUSH1 0x20 DUP3 ADD SWAP1 POP DUP2 DUP2 SUB PUSH0 DUP4 ADD MSTORE PUSH2 0x35B5 DUP2 DUP5 PUSH2 0x3565 JUMP JUMPDEST SWAP1 POP SWAP3 SWAP2 POP POP JUMP JUMPDEST PUSH2 0x35C6 DUP2 PUSH2 0x34E2 JUMP JUMPDEST DUP2 EQ PUSH2 0x35D0 JUMPI PUSH0 DUP1 REVERT JUMPDEST POP JUMP JUMPDEST PUSH0 DUP2 CALLDATALOAD SWAP1 POP PUSH2 0x35E1 DUP2 PUSH2 0x35BD JUMP JUMPDEST SWAP3 SWAP2 POP POP JUMP JUMPDEST PUSH0 PUSH1 0x20 DUP3 DUP5 SUB SLT ISZERO PUSH2 0x35FC JUMPI PUSH2 0x35FB PUSH2 0x3427 JUMP JUMPDEST JUMPDEST PUSH0 PUSH2 0x3609 DUP5 DUP3 DUP6 ADD PUSH2 0x35D3 JUMP JUMPDEST SWAP2 POP POP SWAP3 SWAP2 POP POP JUMP JUMPDEST PUSH0 PUSH20 0xFFFFFFFFFFFFFFFFFFFFFFFFFFFFFFFFFFFFFFFF DUP3 AND SWAP1 POP SWAP2 SWAP1 POP JUMP JUMPDEST PUSH0 PUSH2 0x363B DUP3 PUSH2 0x3612 JUMP JUMPDEST SWAP1 POP SWAP2 SWAP1 POP JUMP JUMPDEST PUSH2 0x364B DUP2 PUSH2 0x3631 JUMP JUMPDEST DUP3 MSTORE POP POP JUMP JUMPDEST PUSH0 PUSH1 0x20 DUP3 ADD SWAP1 POP PUSH2 0x3664 PUSH0 DUP4 ADD DUP5 PUSH2 0x3642 JUMP JUMPDEST SWAP3 SWAP2 POP POP JUMP JUMPDEST PUSH2 0x3673 DUP2 PUSH2 0x3631 JUMP JUMPDEST DUP2 EQ PUSH2 0x367D JUMPI PUSH0 DUP1 REVERT JUMPDEST POP JUMP JUMPDEST PUSH0 DUP2 CALLDATALOAD SWAP1 POP PUSH2 0x368E DUP2 PUSH2 0x366A JUMP JUMPDEST SWAP3 SWAP2 POP POP JUMP JUMPDEST PUSH0 DUP1 REVERT JUMPDEST PUSH0 DUP1 REVERT JUMPDEST PUSH32 0x4E487B7100000000000000000000000000000000000000000000000000000000 PUSH0 MSTORE PUSH1 0x41 PUSH1 0x4 MSTORE PUSH1 0x24 PUSH0 REVERT JUMPDEST PUSH2 0x36D2 DUP3 PUSH2 0x3555 JUMP JUMPDEST DUP2 ADD DUP2 DUP2 LT PUSH8 0xFFFFFFFFFFFFFFFF DUP3 GT OR ISZERO PUSH2 0x36F1 JUMPI PUSH2 0x36F0 PUSH2 0x369C JUMP JUMPDEST JUMPDEST DUP1 PUSH1 0x40 MSTORE POP POP POP JUMP JUMPDEST PUSH0 PUSH2 0x3703 PUSH2 0x341E JUMP JUMPDEST SWAP1 POP PUSH2 0x370F DUP3 DUP3 PUSH2 0x36C9 JUMP JUMPDEST SWAP2 SWAP1 POP JUMP JUMPDEST PUSH0 PUSH8 0xFFFFFFFFFFFFFFFF DUP3 GT ISZERO PUSH2 0x372E JUMPI PUSH2 0x372D PUSH2 0x369C JUMP JUMPDEST JUMPDEST PUSH2 0x3737 DUP3 PUSH2 0x3555 JUMP JUMPDEST SWAP1 POP PUSH1 0x20 DUP2 ADD SWAP1 POP SWAP2 SWAP1 POP JUMP JUMPDEST DUP3 DUP2 DUP4 CALLDATACOPY PUSH0 DUP4 DUP4 ADD MSTORE POP POP POP JUMP JUMPDEST PUSH0 PUSH2 0x3764 PUSH2 0x375F DUP5 PUSH2 0x3714 JUMP JUMPDEST PUSH2 0x36FA JUMP JUMPDEST SWAP1 POP DUP3 DUP2 MSTORE PUSH1 0x20 DUP2 ADD DUP5 DUP5 DUP5 ADD GT ISZERO PUSH2 0x3780 JUMPI PUSH2 0x377F PUSH2 0x3698 JUMP JUMPDEST JUMPDEST PUSH2 0x378B DUP5 DUP3 DUP6 PUSH2 0x3744 JUMP JUMPDEST POP SWAP4 SWAP3 POP POP POP JUMP JUMPDEST PUSH0 DUP3 PUSH1 0x1F DUP4 ADD SLT PUSH2 0x37A7 JUMPI PUSH2 0x37A6 PUSH2 0x3694 JUMP JUMPDEST JUMPDEST DUP2 CALLDATALOAD PUSH2 0x37B7 DUP5 DUP3 PUSH1 0x20 DUP7 ADD PUSH2 0x3752 JUMP JUMPDEST SWAP2 POP POP SWAP3 SWAP2 POP POP JUMP JUMPDEST PUSH0 DUP1 PUSH0 DUP1 PUSH1 0x80 DUP6 DUP8 SUB SLT ISZERO PUSH2 0x37D8 JUMPI PUSH2 0x37D7 PUSH2 0x3427 JUMP JUMPDEST JUMPDEST PUSH0 PUSH2 0x37E5 DUP8 DUP3 DUP9 ADD PUSH2 0x3680 JUMP JUMPDEST SWAP5 POP POP PUSH1 0x20 PUSH2 0x37F6 DUP8 DUP3 DUP9 ADD PUSH2 0x3680 JUMP JUMPDEST SWAP4 POP POP PUSH1 0x40 PUSH2 0x3807 DUP8 DUP3 DUP9 ADD PUSH2 0x35D3 JUMP JUMPDEST SWAP3 POP POP PUSH1 0x60 DUP6 ADD CALLDATALOAD PUSH8 0xFFFFFFFFFFFFFFFF DUP2 GT ISZERO PUSH2 0x3828 JUMPI PUSH2 0x3827 PUSH2 0x342B JUMP JUMPDEST JUMPDEST PUSH2 0x3834 DUP8 DUP3 DUP9 ADD PUSH2 0x3793 JUMP JUMPDEST SWAP2 POP POP SWAP3 SWAP6 SWAP2 SWAP5 POP SWAP3 POP JUMP JUMPDEST PUSH2 0x3849 DUP2 PUSH2 0x342F JUMP JUMPDEST DUP3 MSTORE POP POP JUMP JUMPDEST PUSH0 PUSH1 0x20 DUP3 ADD SWAP1 POP PUSH2 0x3862 PUSH0 DUP4 ADD DUP5 PUSH2 0x3840 JUMP JUMPDEST SWAP3 SWAP2 POP POP JUMP JUMPDEST PUSH0 PUSH8 0xFFFFFFFFFFFFFFFF DUP3 GT ISZERO PUSH2 0x3882 JUMPI PUSH2 0x3881 PUSH2 0x369C JUMP JUMPDEST JUMPDEST PUSH1 0x20 DUP3 MUL SWAP1 POP PUSH1 0x20 DUP2 ADD SWAP1 POP SWAP2 SWAP1 POP JUMP JUMPDEST PUSH0 DUP1 REVERT JUMPDEST PUSH0 PUSH2 0x38A9 PUSH2 0x38A4 DUP5 PUSH2 0x3868 JUMP JUMPDEST PUSH2 0x36FA JUMP JUMPDEST SWAP1 POP DUP1 DUP4 DUP3 MSTORE PUSH1 0x20 DUP3 ADD SWAP1 POP PUSH1 0x20 DUP5 MUL DUP4 ADD DUP6 DUP2 GT ISZERO PUSH2 0x38CC JUMPI PUSH2 0x38CB PUSH2 0x3893 JUMP JUMPDEST JUMPDEST DUP4 JUMPDEST DUP2 DUP2 LT ISZERO PUSH2 0x38F5 JUMPI DUP1 PUSH2 0x38E1 DUP9 DUP3 PUSH2 0x3680 JUMP JUMPDEST DUP5 MSTORE PUSH1 0x20 DUP5 ADD SWAP4 POP POP PUSH1 0x20 DUP2 ADD SWAP1 POP PUSH2 0x38CE JUMP JUMPDEST POP POP POP SWAP4 SWAP3 POP POP POP JUMP JUMPDEST PUSH0 DUP3 PUSH1 0x1F DUP4 ADD SLT PUSH2 0x3913 JUMPI PUSH2 0x3912 PUSH2 0x3694 JUMP JUMPDEST JUMPDEST DUP2 CALLDATALOAD PUSH2 0x3923 DUP5 DUP3 PUSH1 0x20 DUP7 ADD PUSH2 0x3897 JUMP JUMPDEST SWAP2 POP POP SWAP3 SWAP2 POP POP JUMP JUMPDEST PUSH0 PUSH8 0xFFFFFFFFFFFFFFFF DUP3 GT ISZERO PUSH2 0x3946 JUMPI PUSH2 0x3945 PUSH2 0x369C JUMP JUMPDEST JUMPDEST PUSH1 0x20 DUP3 MUL SWAP1 POP PUSH1 0x20 DUP2 ADD SWAP1 POP SWAP2 SWAP1 POP JUMP JUMPDEST PUSH0 PUSH2 0x3969 PUSH2 0x3964 DUP5 PUSH2 0x392C JUMP JUMPDEST PUSH2 0x36FA JUMP JUMPDEST SWAP1 POP DUP1 DUP4 DUP3 MSTORE PUSH1 0x20 DUP3 ADD SWAP1 POP PUSH1 0x20 DUP5 MUL DUP4 ADD DUP6 DUP2 GT ISZERO PUSH2 0x398C JUMPI PUSH2 0x398B PUSH2 0x3893 JUMP JUMPDEST JUMPDEST DUP4 JUMPDEST DUP2 DUP2 LT ISZERO PUSH2 0x39B5 JUMPI DUP1 PUSH2 0x39A1 DUP9 DUP3 PUSH2 0x35D3 JUMP JUMPDEST DUP5 MSTORE PUSH1 0x20 DUP5 ADD SWAP4 POP POP PUSH1 0x20 DUP2 ADD SWAP1 POP PUSH2 0x398E JUMP JUMPDEST POP POP POP SWAP4 SWAP3 POP POP POP JUMP JUMPDEST PUSH0 DUP3 PUSH1 0x1F DUP4 ADD SLT PUSH2 0x39D3 JUMPI PUSH2 0x39D2 PUSH2 0x3694 JUMP JUMPDEST JUMPDEST DUP2 CALLDATALOAD PUSH2 0x39E3 DUP5 DUP3 PUSH1 0x20 DUP7 ADD PUSH2 0x3957 JUMP JUMPDEST SWAP2 POP POP SWAP3 SWAP2 POP POP JUMP JUMPDEST PUSH0 PUSH8 0xFFFFFFFFFFFFFFFF DUP3 GT ISZERO PUSH2 0x3A06 JUMPI PUSH2 0x3A05 PUSH2 0x369C JUMP JUMPDEST JUMPDEST PUSH1 0x20 DUP3 MUL SWAP1 POP PUSH1 0x20 DUP2 ADD SWAP1 POP SWAP2 SWAP1 POP JUMP JUMPDEST PUSH0 PUSH2 0x3A29 PUSH2 0x3A24 DUP5 PUSH2 0x39EC JUMP JUMPDEST PUSH2 0x36FA JUMP JUMPDEST SWAP1 POP DUP1 DUP4 DUP3 MSTORE PUSH1 0x20 DUP3 ADD SWAP1 POP PUSH1 0x20 DUP5 MUL DUP4 ADD DUP6 DUP2 GT ISZERO PUSH2 0x3A4C JUMPI PUSH2 0x3A4B PUSH2 0x3893 JUMP JUMPDEST JUMPDEST DUP4 JUMPDEST DUP2 DUP2 LT ISZERO PUSH2 0x3A93 JUMPI DUP1 CALLDATALOAD PUSH8 0xFFFFFFFFFFFFFFFF DUP2 GT ISZERO PUSH2 0x3A71 JUMPI PUSH2 0x3A70 PUSH2 0x3694 JUMP JUMPDEST JUMPDEST DUP1 DUP7 ADD PUSH2 0x3A7E DUP10 DUP3 PUSH2 0x3793 JUMP JUMPDEST DUP6 MSTORE PUSH1 0x20 DUP6 ADD SWAP5 POP POP POP PUSH1 0x20 DUP2 ADD SWAP1 POP PUSH2 0x3A4E JUMP JUMPDEST POP POP POP SWAP4 SWAP3 POP POP POP JUMP JUMPDEST PUSH0 DUP3 PUSH1 0x1F DUP4 ADD SLT PUSH2 0x3AB1 JUMPI PUSH2 0x3AB0 PUSH2 0x3694 JUMP JUMPDEST JUMPDEST DUP2 CALLDATALOAD PUSH2 0x3AC1 DUP5 DUP3 PUSH1 0x20 DUP7 ADD PUSH2 0x3A17 JUMP JUMPDEST SWAP2 POP POP SWAP3 SWAP2 POP POP JUMP JUMPDEST PUSH0 DUP2 SWAP1 POP SWAP2 SWAP1 POP JUMP JUMPDEST PUSH2 0x3ADC DUP2 PUSH2 0x3ACA JUMP JUMPDEST DUP2 EQ PUSH2 0x3AE6 JUMPI PUSH0 DUP1 REVERT JUMPDEST POP JUMP JUMPDEST PUSH0 DUP2 CALLDATALOAD SWAP1 POP PUSH2 0x3AF7 DUP2 PUSH2 0x3AD3 JUMP JUMPDEST SWAP3 SWAP2 POP POP JUMP JUMPDEST PUSH0 DUP1 PUSH0 DUP1 PUSH1 0x80 DUP6 DUP8 SUB SLT ISZERO PUSH2 0x3B15 JUMPI PUSH2 0x3B14 PUSH2 0x3427 JUMP JUMPDEST JUMPDEST PUSH0 DUP6 ADD CALLDATALOAD PUSH8 0xFFFFFFFFFFFFFFFF DUP2 GT ISZERO PUSH2 0x3B32 JUMPI PUSH2 0x3B31 PUSH2 0x342B JUMP JUMPDEST JUMPDEST PUSH2 0x3B3E DUP8 DUP3 DUP9 ADD PUSH2 0x38FF JUMP JUMPDEST SWAP5 POP POP PUSH1 0x20 DUP6 ADD CALLDATALOAD PUSH8 0xFFFFFFFFFFFFFFFF DUP2 GT ISZERO PUSH2 0x3B5F JUMPI PUSH2 0x3B5E PUSH2 0x342B JUMP JUMPDEST JUMPDEST PUSH2 0x3B6B DUP8 DUP3 DUP9 ADD PUSH2 0x39BF JUMP JUMPDEST SWAP4 POP POP PUSH1 0x40 DUP6 ADD CALLDATALOAD PUSH8 0xFFFFFFFFFFFFFFFF DUP2 GT ISZERO PUSH2 0x3B8C JUMPI PUSH2 0x3B8B PUSH2 0x342B JUMP JUMPDEST JUMPDEST PUSH2 0x3B98 DUP8 DUP3 DUP9 ADD PUSH2 0x3A9D JUMP JUMPDEST SWAP3 POP POP PUSH1 0x60 PUSH2 0x3BA9 DUP8 DUP3 DUP9 ADD PUSH2 0x3AE9 JUMP JUMPDEST SWAP2 POP POP SWAP3 SWAP6 SWAP2 SWAP5 POP SWAP3 POP JUMP JUMPDEST PUSH2 0x3BBE DUP2 PUSH2 0x3ACA JUMP JUMPDEST DUP3 MSTORE POP POP JUMP JUMPDEST PUSH0 PUSH1 0x20 DUP3 ADD SWAP1 POP PUSH2 0x3BD7 PUSH0 DUP4 ADD DUP5 PUSH2 0x3BB5 JUMP JUMPDEST SWAP3 SWAP2 POP POP JUMP JUMPDEST PUSH32 0x4E487B7100000000000000000000000000000000000000000000000000000000 PUSH0 MSTORE PUSH1 0x21 PUSH1 0x4 MSTORE PUSH1 0x24 PUSH0 REVERT JUMPDEST PUSH1 0x8 DUP2 LT PUSH2 0x3C1B JUMPI PUSH2 0x3C1A PUSH2 0x3BDD JUMP JUMPDEST JUMPDEST POP JUMP JUMPDEST PUSH0 DUP2 SWAP1 POP PUSH2 0x3C2B DUP3 PUSH2 0x3C0A JUMP JUMPDEST SWAP2 SWAP1 POP JUMP JUMPDEST PUSH0 PUSH2 0x3C3A DUP3 PUSH2 0x3C1E JUMP JUMPDEST SWAP1 POP SWAP2 SWAP1 POP JUMP JUMPDEST PUSH2 0x3C4A DUP2 PUSH2 0x3C30 JUMP JUMPDEST DUP3 MSTORE POP POP JUMP JUMPDEST PUSH0 PUSH1 0x20 DUP3 ADD SWAP1 POP PUSH2 0x3C63 PUSH0 DUP4 ADD DUP5 PUSH2 0x3C41 JUMP JUMPDEST SWAP3 SWAP2 POP POP JUMP JUMPDEST PUSH0 DUP1 PUSH1 0x40 DUP4 DUP6 SUB SLT ISZERO PUSH2 0x3C7F JUMPI PUSH2 0x3C7E PUSH2 0x3427 JUMP JUMPDEST JUMPDEST PUSH0 PUSH2 0x3C8C DUP6 DUP3 DUP7 ADD PUSH2 0x35D3 JUMP JUMPDEST SWAP3 POP POP PUSH1 0x20 PUSH2 0x3C9D DUP6 DUP3 DUP7 ADD PUSH2 0x3680 JUMP JUMPDEST SWAP2 POP POP SWAP3 POP SWAP3 SWAP1 POP JUMP JUMPDEST PUSH0 PUSH1 0x60 DUP3 ADD SWAP1 POP PUSH2 0x3CBA PUSH0 DUP4 ADD DUP7 PUSH2 0x34EB JUMP JUMPDEST PUSH2 0x3CC7 PUSH1 0x20 DUP4 ADD DUP6 PUSH2 0x34EB JUMP JUMPDEST PUSH2 0x3CD4 PUSH1 0x40 DUP4 ADD DUP5 PUSH2 0x34EB JUMP JUMPDEST SWAP5 SWAP4 POP POP POP POP JUMP JUMPDEST PUSH0 PUSH1 0xFF DUP3 AND SWAP1 POP SWAP2 SWAP1 POP JUMP JUMPDEST PUSH2 0x3CF1 DUP2 PUSH2 0x3CDC JUMP JUMPDEST DUP2 EQ PUSH2 0x3CFB JUMPI PUSH0 DUP1 REVERT JUMPDEST POP JUMP JUMPDEST PUSH0 DUP2 CALLDATALOAD SWAP1 POP PUSH2 0x3D0C DUP2 PUSH2 0x3CE8 JUMP JUMPDEST SWAP3 SWAP2 POP POP JUMP JUMPDEST PUSH0 DUP1 PUSH1 0x40 DUP4 DUP6 SUB SLT ISZERO PUSH2 0x3D28 JUMPI PUSH2 0x3D27 PUSH2 0x3427 JUMP JUMPDEST JUMPDEST PUSH0 PUSH2 0x3D35 DUP6 DUP3 DUP7 ADD PUSH2 0x35D3 JUMP JUMPDEST SWAP3 POP POP PUSH1 0x20 PUSH2 0x3D46 DUP6 DUP3 DUP7 ADD PUSH2 0x3CFE JUMP JUMPDEST SWAP2 POP POP SWAP3 POP SWAP3 SWAP1 POP JUMP JUMPDEST PUSH0 DUP1 REVERT JUMPDEST PUSH0 DUP1 DUP4 PUSH1 0x1F DUP5 ADD SLT PUSH2 0x3D69 JUMPI PUSH2 0x3D68 PUSH2 0x3694 JUMP JUMPDEST JUMPDEST DUP3 CALLDATALOAD SWAP1 POP PUSH8 0xFFFFFFFFFFFFFFFF DUP2 GT ISZERO PUSH2 0x3D86 JUMPI PUSH2 0x3D85 PUSH2 0x3D50 JUMP JUMPDEST JUMPDEST PUSH1 0x20 DUP4 ADD SWAP2 POP DUP4 PUSH1 0x1 DUP3 MUL DUP4 ADD GT ISZERO PUSH2 0x3DA2 JUMPI PUSH2 0x3DA1 PUSH2 0x3893 JUMP JUMPDEST JUMPDEST SWAP3 POP SWAP3 SWAP1 POP JUMP JUMPDEST PUSH0 DUP1 PUSH0 DUP1 PUSH0 DUP1 PUSH0 PUSH1 0xC0 DUP9 DUP11 SUB SLT ISZERO PUSH2 0x3DC4 JUMPI PUSH2 0x3DC3 PUSH2 0x3427 JUMP JUMPDEST JUMPDEST PUSH0 PUSH2 0x3DD1 DUP11 DUP3 DUP12 ADD PUSH2 0x35D3 JUMP JUMPDEST SWAP8 POP POP PUSH1 0x20 PUSH2 0x3DE2 DUP11 DUP3 DUP12 ADD PUSH2 0x3CFE JUMP JUMPDEST SWAP7 POP POP PUSH1 0x40 PUSH2 0x3DF3 DUP11 DUP3 DUP12 ADD PUSH2 0x3680 JUMP JUMPDEST SWAP6 POP POP PUSH1 0x60 DUP9 ADD CALLDATALOAD PUSH8 0xFFFFFFFFFFFFFFFF DUP2 GT ISZERO PUSH2 0x3E14 JUMPI PUSH2 0x3E13 PUSH2 0x342B JUMP JUMPDEST JUMPDEST PUSH2 0x3E20 DUP11 DUP3 DUP12 ADD PUSH2 0x3D54 JUMP JUMPDEST SWAP5 POP SWAP5 POP POP PUSH1 0x80 DUP9 ADD CALLDATALOAD PUSH8 0xFFFFFFFFFFFFFFFF DUP2 GT ISZERO PUSH2 0x3E43 JUMPI PUSH2 0x3E42 PUSH2 0x342B JUMP JUMPDEST JUMPDEST PUSH2 0x3E4F DUP11 DUP3 DUP12 ADD PUSH2 0x3793 JUMP JUMPDEST SWAP3 POP POP PUSH1 0xA0 DUP9 ADD CALLDATALOAD PUSH8 0xFFFFFFFFFFFFFFFF DUP2 GT ISZERO PUSH2 0x3E70 JUMPI PUSH2 0x3E6F PUSH2 0x342B JUMP JUMPDEST JUMPDEST PUSH2 0x3E7C DUP11 DUP3 DUP12 ADD PUSH2 0x3793 JUMP JUMPDEST SWAP2 POP POP SWAP3 SWAP6 SWAP9 SWAP2 SWAP5 SWAP8 POP SWAP3 SWAP6 POP JUMP JUMPDEST PUSH0 DUP1 PUSH0 DUP1 PUSH0 PUSH1 0x80 DUP7 DUP9 SUB SLT ISZERO PUSH2 0x3EA4 JUMPI PUSH2 0x3EA3 PUSH2 0x3427 JUMP JUMPDEST JUMPDEST PUSH0 PUSH2 0x3EB1 DUP9 DUP3 DUP10 ADD PUSH2 0x35D3 JUMP JUMPDEST SWAP6 POP POP PUSH1 0x20 PUSH2 0x3EC2 DUP9 DUP3 DUP10 ADD PUSH2 0x3CFE JUMP JUMPDEST SWAP5 POP POP PUSH1 0x40 DUP7 ADD CALLDATALOAD PUSH8 0xFFFFFFFFFFFFFFFF DUP2 GT ISZERO PUSH2 0x3EE3 JUMPI PUSH2 0x3EE2 PUSH2 0x342B JUMP JUMPDEST JUMPDEST PUSH2 0x3EEF DUP9 DUP3 DUP10 ADD PUSH2 0x3D54 JUMP JUMPDEST SWAP4 POP SWAP4 POP POP PUSH1 0x60 DUP7 ADD CALLDATALOAD PUSH8 0xFFFFFFFFFFFFFFFF DUP2 GT ISZERO PUSH2 0x3F12 JUMPI PUSH2 0x3F11 PUSH2 0x342B JUMP JUMPDEST JUMPDEST PUSH2 0x3F1E DUP9 DUP3 DUP10 ADD PUSH2 0x3793 JUMP JUMPDEST SWAP2 POP POP SWAP3 SWAP6 POP SWAP3 SWAP6 SWAP1 SWAP4 POP JUMP JUMPDEST PUSH0 DUP1 PUSH0 DUP1 PUSH1 0x60 DUP6 DUP8 SUB SLT ISZERO PUSH2 0x3F43 JUMPI PUSH2 0x3F42 PUSH2 0x3427 JUMP JUMPDEST JUMPDEST PUSH0 PUSH2 0x3F50 DUP8 DUP3 DUP9 ADD PUSH2 0x35D3 JUMP JUMPDEST SWAP5 POP POP PUSH1 0x20 PUSH2 0x3F61 DUP8 DUP3 DUP9 ADD PUSH2 0x3CFE JUMP JUMPDEST SWAP4 POP POP PUSH1 0x40 DUP6 ADD CALLDATALOAD PUSH8 0xFFFFFFFFFFFFFFFF DUP2 GT ISZERO PUSH2 0x3F82 JUMPI PUSH2 0x3F81 PUSH2 0x342B JUMP JUMPDEST JUMPDEST PUSH2 0x3F8E DUP8 DUP3 DUP9 ADD PUSH2 0x3D54 JUMP JUMPDEST SWAP3 POP SWAP3 POP POP SWAP3 SWAP6 SWAP2 SWAP5 POP SWAP3 POP JUMP JUMPDEST PUSH0 PUSH8 0xFFFFFFFFFFFFFFFF DUP3 GT ISZERO PUSH2 0x3FB6 JUMPI PUSH2 0x3FB5 PUSH2 0x369C JUMP JUMPDEST JUMPDEST PUSH2 0x3FBF DUP3 PUSH2 0x3555 JUMP JUMPDEST SWAP1 POP PUSH1 0x20 DUP2 ADD SWAP1 POP SWAP2 SWAP1 POP JUMP JUMPDEST PUSH0 PUSH2 0x3FDE PUSH2 0x3FD9 DUP5 PUSH2 0x3F9C JUMP JUMPDEST PUSH2 0x36FA JUMP JUMPDEST SWAP1 POP DUP3 DUP2 MSTORE PUSH1 0x20 DUP2 ADD DUP5 DUP5 DUP5 ADD GT ISZERO PUSH2 0x3FFA JUMPI PUSH2 0x3FF9 PUSH2 0x3698 JUMP JUMPDEST JUMPDEST PUSH2 0x4005 DUP5 DUP3 DUP6 PUSH2 0x3744 JUMP JUMPDEST POP SWAP4 SWAP3 POP POP POP JUMP JUMPDEST PUSH0 DUP3 PUSH1 0x1F DUP4 ADD SLT PUSH2 0x4021 JUMPI PUSH2 0x4020 PUSH2 0x3694 JUMP JUMPDEST JUMPDEST DUP2 CALLDATALOAD PUSH2 0x4031 DUP5 DUP3 PUSH1 0x20 DUP7 ADD PUSH2 0x3FCC JUMP JUMPDEST SWAP2 POP POP SWAP3 SWAP2 POP POP JUMP JUMPDEST PUSH0 DUP1 PUSH0 DUP1 PUSH1 0x80 DUP6 DUP8 SUB SLT ISZERO PUSH2 0x4052 JUMPI PUSH2 0x4051 PUSH2 0x3427 JUMP JUMPDEST JUMPDEST PUSH0 DUP6 ADD CALLDATALOAD PUSH8 0xFFFFFFFFFFFFFFFF DUP2 GT ISZERO PUSH2 0x406F JUMPI PUSH2 0x406E PUSH2 0x342B JUMP JUMPDEST JUMPDEST PUSH2 0x407B DUP8 DUP3 DUP9 ADD PUSH2 0x38FF JUMP JUMPDEST SWAP5 POP POP PUSH1 0x20 DUP6 ADD CALLDATALOAD PUSH8 0xFFFFFFFFFFFFFFFF DUP2 GT ISZERO PUSH2 0x409C JUMPI PUSH2 0x409B PUSH2 0x342B JUMP JUMPDEST JUMPDEST PUSH2 0x40A8 DUP8 DUP3 DUP9 ADD PUSH2 0x39BF JUMP JUMPDEST SWAP4 POP POP PUSH1 0x40 DUP6 ADD CALLDATALOAD PUSH8 0xFFFFFFFFFFFFFFFF DUP2 GT ISZERO PUSH2 0x40C9 JUMPI PUSH2 0x40C8 PUSH2 0x342B JUMP JUMPDEST JUMPDEST PUSH2 0x40D5 DUP8 DUP3 DUP9 ADD PUSH2 0x3A9D JUMP JUMPDEST SWAP3 POP POP PUSH1 0x60 DUP6 ADD CALLDATALOAD PUSH8 0xFFFFFFFFFFFFFFFF DUP2 GT ISZERO PUSH2 0x40F6 JUMPI PUSH2 0x40F5 PUSH2 0x342B JUMP JUMPDEST JUMPDEST PUSH2 0x4102 DUP8 DUP3 DUP9 ADD PUSH2 0x400D JUMP JUMPDEST SWAP2 POP POP SWAP3 SWAP6 SWAP2 SWAP5 POP SWAP3 POP JUMP JUMPDEST PUSH0 PUSH1 0x20 DUP3 DUP5 SUB SLT ISZERO PUSH2 0x4123 JUMPI PUSH2 0x4122 PUSH2 0x3427 JUMP JUMPDEST JUMPDEST PUSH0 PUSH2 0x4130 DUP5 DUP3 DUP6 ADD PUSH2 0x3680 JUMP JUMPDEST SWAP2 POP POP SWAP3 SWAP2 POP POP JUMP JUMPDEST PUSH0 PUSH32 0xFF00000000000000000000000000000000000000000000000000000000000000 DUP3 AND SWAP1 POP SWAP2 SWAP1 POP JUMP JUMPDEST PUSH2 0x416D DUP2 PUSH2 0x4139 JUMP JUMPDEST DUP3 MSTORE POP POP JUMP JUMPDEST PUSH0 DUP2 MLOAD SWAP1 POP SWAP2 SWAP1 POP JUMP JUMPDEST PUSH0 DUP3 DUP3 MSTORE PUSH1 0x20 DUP3 ADD SWAP1 POP SWAP3 SWAP2 POP POP JUMP JUMPDEST PUSH0 DUP2 SWAP1 POP PUSH1 0x20 DUP3 ADD SWAP1 POP SWAP2 SWAP1 POP JUMP JUMPDEST PUSH2 0x41A5 DUP2 PUSH2 0x34E2 JUMP JUMPDEST DUP3 MSTORE POP POP JUMP JUMPDEST PUSH0 PUSH2 0x41B6 DUP4 DUP4 PUSH2 0x419C JUMP JUMPDEST PUSH1 0x20 DUP4 ADD SWAP1 POP SWAP3 SWAP2 POP POP JUMP JUMPDEST PUSH0 PUSH1 0x20 DUP3 ADD SWAP1 POP SWAP2 SWAP1 POP JUMP JUMPDEST PUSH0 PUSH2 0x41D8 DUP3 PUSH2 0x4173 JUMP JUMPDEST PUSH2 0x41E2 DUP2 DUP6 PUSH2 0x417D JUMP JUMPDEST SWAP4 POP PUSH2 0x41ED DUP4 PUSH2 0x418D JUMP JUMPDEST DUP1 PUSH0 JUMPDEST DUP4 DUP2 LT ISZERO PUSH2 0x421D JUMPI DUP2 MLOAD PUSH2 0x4204 DUP9 DUP3 PUSH2 0x41AB JUMP JUMPDEST SWAP8 POP PUSH2 0x420F DUP4 PUSH2 0x41C2 JUMP JUMPDEST SWAP3 POP POP PUSH1 0x1 DUP2 ADD SWAP1 POP PUSH2 0x41F0 JUMP JUMPDEST POP DUP6 SWAP4 POP POP POP POP SWAP3 SWAP2 POP POP JUMP JUMPDEST PUSH0 PUSH1 0xE0 DUP3 ADD SWAP1 POP PUSH2 0x423D PUSH0 DUP4 ADD DUP11 PUSH2 0x4164 JUMP JUMPDEST DUP2 DUP2 SUB PUSH1 0x20 DUP4 ADD MSTORE PUSH2 0x424F DUP2 DUP10 PUSH2 0x3565 JUMP JUMPDEST SWAP1 POP DUP2 DUP2 SUB PUSH1 0x40 DUP4 ADD MSTORE PUSH2 0x4263 DUP2 DUP9 PUSH2 0x3565 JUMP JUMPDEST SWAP1 POP PUSH2 0x4272 PUSH1 0x60 DUP4 ADD DUP8 PUSH2 0x34EB JUMP JUMPDEST PUSH2 0x427F PUSH1 0x80 DUP4 ADD DUP7 PUSH2 0x3642 JUMP JUMPDEST PUSH2 0x428C PUSH1 0xA0 DUP4 ADD DUP6 PUSH2 0x3BB5 JUMP JUMPDEST DUP2 DUP2 SUB PUSH1 0xC0 DUP4 ADD MSTORE PUSH2 0x429E DUP2 DUP5 PUSH2 0x41CE JUMP JUMPDEST SWAP1 POP SWAP9 SWAP8 POP POP POP POP POP POP POP POP JUMP JUMPDEST PUSH0 DUP1 PUSH0 DUP1 PUSH1 0x80 DUP6 DUP8 SUB SLT ISZERO PUSH2 0x42C4 JUMPI PUSH2 0x42C3 PUSH2 0x3427 JUMP JUMPDEST JUMPDEST PUSH0 PUSH2 0x42D1 DUP8 DUP3 DUP9 ADD PUSH2 0x35D3 JUMP JUMPDEST SWAP5 POP POP PUSH1 0x20 PUSH2 0x42E2 DUP8 DUP3 DUP9 ADD PUSH2 0x3CFE JUMP JUMPDEST SWAP4 POP POP PUSH1 0x40 PUSH2 0x42F3 DUP8 DUP3 DUP9 ADD PUSH2 0x3680 JUMP JUMPDEST SWAP3 POP POP PUSH1 0x60 DUP6 ADD CALLDATALOAD PUSH8 0xFFFFFFFFFFFFFFFF DUP2 GT ISZERO PUSH2 0x4314 JUMPI PUSH2 0x4313 PUSH2 0x342B JUMP JUMPDEST JUMPDEST PUSH2 0x4320 DUP8 DUP3 DUP9 ADD PUSH2 0x3793 JUMP JUMPDEST SWAP2 POP POP SWAP3 SWAP6 SWAP2 SWAP5 POP SWAP3 POP JUMP JUMPDEST PUSH0 PUSH6 0xFFFFFFFFFFFF DUP3 AND SWAP1 POP SWAP2 SWAP1 POP JUMP JUMPDEST PUSH2 0x4346 DUP2 PUSH2 0x432C JUMP JUMPDEST DUP3 MSTORE POP POP JUMP JUMPDEST PUSH0 PUSH1 0x20 DUP3 ADD SWAP1 POP PUSH2 0x435F PUSH0 DUP4 ADD DUP5 PUSH2 0x433D JUMP JUMPDEST SWAP3 SWAP2 POP POP JUMP JUMPDEST PUSH0 DUP1 PUSH0 PUSH1 0x60 DUP5 DUP7 SUB SLT ISZERO PUSH2 0x437C JUMPI PUSH2 0x437B PUSH2 0x3427 JUMP JUMPDEST JUMPDEST PUSH0 PUSH2 0x4389 DUP7 DUP3 DUP8 ADD PUSH2 0x3680 JUMP JUMPDEST SWAP4 POP POP PUSH1 0x20 PUSH2 0x439A DUP7 DUP3 DUP8 ADD PUSH2 0x35D3 JUMP JUMPDEST SWAP3 POP POP PUSH1 0x40 DUP5 ADD CALLDATALOAD PUSH8 0xFFFFFFFFFFFFFFFF DUP2 GT ISZERO PUSH2 0x43BB JUMPI PUSH2 0x43BA PUSH2 0x342B JUMP JUMPDEST JUMPDEST PUSH2 0x43C7 DUP7 DUP3 DUP8 ADD PUSH2 0x3793 JUMP JUMPDEST SWAP2 POP POP SWAP3 POP SWAP3 POP SWAP3 JUMP JUMPDEST PUSH0 DUP1 PUSH0 DUP1 PUSH0 PUSH1 0xA0 DUP7 DUP9 SUB SLT ISZERO PUSH2 0x43EA JUMPI PUSH2 0x43E9 PUSH2 0x3427 JUMP JUMPDEST JUMPDEST PUSH0 PUSH2 0x43F7 DUP9 DUP3 DUP10 ADD PUSH2 0x3680 JUMP JUMPDEST SWAP6 POP POP PUSH1 0x20 PUSH2 0x4408 DUP9 DUP3 DUP10 ADD PUSH2 0x3680 JUMP JUMPDEST SWAP5 POP POP PUSH1 0x40 DUP7 ADD CALLDATALOAD PUSH8 0xFFFFFFFFFFFFFFFF DUP2 GT ISZERO PUSH2 0x4429 JUMPI PUSH2 0x4428 PUSH2 0x342B JUMP JUMPDEST JUMPDEST PUSH2 0x4435 DUP9 DUP3 DUP10 ADD PUSH2 0x39BF JUMP JUMPDEST SWAP4 POP POP PUSH1 0x60 DUP7 ADD CALLDATALOAD PUSH8 0xFFFFFFFFFFFFFFFF DUP2 GT ISZERO PUSH2 0x4456 JUMPI PUSH2 0x4455 PUSH2 0x342B JUMP JUMPDEST JUMPDEST PUSH2 0x4462 DUP9 DUP3 DUP10 ADD PUSH2 0x39BF JUMP JUMPDEST SWAP3 POP POP PUSH1 0x80 DUP7 ADD CALLDATALOAD PUSH8 0xFFFFFFFFFFFFFFFF DUP2 GT ISZERO PUSH2 0x4483 JUMPI PUSH2 0x4482 PUSH2 0x342B JUMP JUMPDEST JUMPDEST PUSH2 0x448F DUP9 DUP3 DUP10 ADD PUSH2 0x3793 JUMP JUMPDEST SWAP2 POP POP SWAP3 SWAP6 POP SWAP3 SWAP6 SWAP1 SWAP4 POP JUMP JUMPDEST PUSH0 DUP1 DUP4 PUSH1 0x1F DUP5 ADD SLT PUSH2 0x44B1 JUMPI PUSH2 0x44B0 PUSH2 0x3694 JUMP JUMPDEST JUMPDEST DUP3 CALLDATALOAD SWAP1 POP PUSH8 0xFFFFFFFFFFFFFFFF DUP2 GT ISZERO PUSH2 0x44CE JUMPI PUSH2 0x44CD PUSH2 0x3D50 JUMP JUMPDEST JUMPDEST PUSH1 0x20 DUP4 ADD SWAP2 POP DUP4 PUSH1 0x1 DUP3 MUL DUP4 ADD GT ISZERO PUSH2 0x44EA JUMPI PUSH2 0x44E9 PUSH2 0x3893 JUMP JUMPDEST JUMPDEST SWAP3 POP SWAP3 SWAP1 POP JUMP JUMPDEST PUSH0 DUP1 PUSH0 DUP1 PUSH1 0x60 DUP6 DUP8 SUB SLT ISZERO PUSH2 0x4509 JUMPI PUSH2 0x4508 PUSH2 0x3427 JUMP JUMPDEST JUMPDEST PUSH0 PUSH2 0x4516 DUP8 DUP3 DUP9 ADD PUSH2 0x3680 JUMP JUMPDEST SWAP5 POP POP PUSH1 0x20 PUSH2 0x4527 DUP8 DUP3 DUP9 ADD PUSH2 0x35D3 JUMP JUMPDEST SWAP4 POP POP PUSH1 0x40 DUP6 ADD CALLDATALOAD PUSH8 0xFFFFFFFFFFFFFFFF DUP2 GT ISZERO PUSH2 0x4548 JUMPI PUSH2 0x4547 PUSH2 0x342B JUMP JUMPDEST JUMPDEST PUSH2 0x4554 DUP8 DUP3 DUP9 ADD PUSH2 0x449C JUMP JUMPDEST SWAP3 POP SWAP3 POP POP SWAP3 SWAP6 SWAP2 SWAP5 POP SWAP3 POP JUMP JUMPDEST PUSH0 DUP1 PUSH1 0x40 DUP4 DUP6 SUB SLT ISZERO PUSH2 0x4578 JUMPI PUSH2 0x4577 PUSH2 0x3427 JUMP JUMPDEST JUMPDEST PUSH0 PUSH2 0x4585 DUP6 DUP3 DUP7 ADD PUSH2 0x3680 JUMP JUMPDEST SWAP3 POP POP PUSH1 0x20 PUSH2 0x4596 DUP6 DUP3 DUP7 ADD PUSH2 0x35D3 JUMP JUMPDEST SWAP2 POP POP SWAP3 POP SWAP3 SWAP1 POP JUMP JUMPDEST PUSH0 DUP1 PUSH0 DUP1 PUSH0 PUSH1 0xA0 DUP7 DUP9 SUB SLT ISZERO PUSH2 0x45B9 JUMPI PUSH2 0x45B8 PUSH2 0x3427 JUMP JUMPDEST JUMPDEST PUSH0 PUSH2 0x45C6 DUP9 DUP3 DUP10 ADD PUSH2 0x3680 JUMP JUMPDEST SWAP6 POP POP PUSH1 0x20 PUSH2 0x45D7 DUP9 DUP3 DUP10 ADD PUSH2 0x3680 JUMP JUMPDEST SWAP5 POP POP PUSH1 0x40 PUSH2 0x45E8 DUP9 DUP3 DUP10 ADD PUSH2 0x35D3 JUMP JUMPDEST SWAP4 POP POP PUSH1 0x60 PUSH2 0x45F9 DUP9 DUP3 DUP10 ADD PUSH2 0x35D3 JUMP JUMPDEST SWAP3 POP POP PUSH1 0x80 DUP7 ADD CALLDATALOAD PUSH8 0xFFFFFFFFFFFFFFFF DUP2 GT ISZERO PUSH2 0x461A JUMPI PUSH2 0x4619 PUSH2 0x342B JUMP JUMPDEST JUMPDEST PUSH2 0x4626 DUP9 DUP3 DUP10 ADD PUSH2 0x3793 JUMP JUMPDEST SWAP2 POP POP SWAP3 SWAP6 POP SWAP3 SWAP6 SWAP1 SWAP4 POP JUMP JUMPDEST PUSH0 DUP2 SWAP1 POP SWAP2 SWAP1 POP JUMP JUMPDEST PUSH0 PUSH2 0x4656 PUSH2 0x4651 PUSH2 0x464C DUP5 PUSH2 0x3612 JUMP JUMPDEST PUSH2 0x4633 JUMP JUMPDEST PUSH2 0x3612 JUMP JUMPDEST SWAP1 POP SWAP2 SWAP1 POP JUMP JUMPDEST PUSH0 PUSH2 0x4667 DUP3 PUSH2 0x463C JUMP JUMPDEST SWAP1 POP SWAP2 SWAP1 POP JUMP JUMPDEST PUSH0 PUSH2 0x4678 DUP3 PUSH2 0x465D JUMP JUMPDEST SWAP1 POP SWAP2 SWAP1 POP JUMP JUMPDEST PUSH2 0x4688 DUP2 PUSH2 0x466E JUMP JUMPDEST DUP3 MSTORE POP POP JUMP JUMPDEST PUSH0 PUSH1 0x20 DUP3 ADD SWAP1 POP PUSH2 0x46A1 PUSH0 DUP4 ADD DUP5 PUSH2 0x467F JUMP JUMPDEST SWAP3 SWAP2 POP POP JUMP JUMPDEST PUSH32 0x4E487B7100000000000000000000000000000000000000000000000000000000 PUSH0 MSTORE PUSH1 0x22 PUSH1 0x4 MSTORE PUSH1 0x24 PUSH0 REVERT JUMPDEST PUSH0 PUSH1 0x2 DUP3 DIV SWAP1 POP PUSH1 0x1 DUP3 AND DUP1 PUSH2 0x46EB JUMPI PUSH1 0x7F DUP3 AND SWAP2 POP JUMPDEST PUSH1 0x20 DUP3 LT DUP2 SUB PUSH2 0x46FE JUMPI PUSH2 0x46FD PUSH2 0x46A7 JUMP JUMPDEST JUMPDEST POP SWAP2 SWAP1 POP JUMP JUMPDEST PUSH0 PUSH2 0x471E PUSH2 0x4719 PUSH2 0x4714 DUP5 PUSH2 0x432C JUMP JUMPDEST PUSH2 0x4633 JUMP JUMPDEST PUSH2 0x34E2 JUMP JUMPDEST SWAP1 POP SWAP2 SWAP1 POP JUMP JUMPDEST PUSH2 0x472E DUP2 PUSH2 0x4704 JUMP JUMPDEST DUP3 MSTORE POP POP JUMP JUMPDEST PUSH0 PUSH1 0x40 DUP3 ADD SWAP1 POP PUSH2 0x4747 PUSH0 DUP4 ADD DUP6 PUSH2 0x34EB JUMP JUMPDEST PUSH2 0x4754 PUSH1 0x20 DUP4 ADD DUP5 PUSH2 0x4725 JUMP JUMPDEST SWAP4 SWAP3 POP POP POP JUMP JUMPDEST PUSH32 0x4E487B7100000000000000000000000000000000000000000000000000000000 PUSH0 MSTORE PUSH1 0x32 PUSH1 0x4 MSTORE PUSH1 0x24 PUSH0 REVERT JUMPDEST PUSH32 0x4E487B7100000000000000000000000000000000000000000000000000000000 PUSH0 MSTORE PUSH1 0x11 PUSH1 0x4 MSTORE PUSH1 0x24 PUSH0 REVERT JUMPDEST PUSH0 PUSH2 0x47BF DUP3 PUSH2 0x34E2 JUMP JUMPDEST SWAP2 POP PUSH32 0xFFFFFFFFFFFFFFFFFFFFFFFFFFFFFFFFFFFFFFFFFFFFFFFFFFFFFFFFFFFFFFFF DUP3 SUB PUSH2 0x47F1 JUMPI PUSH2 0x47F0 PUSH2 0x4788 JUMP JUMPDEST JUMPDEST PUSH1 0x1 DUP3 ADD SWAP1 POP SWAP2 SWAP1 POP JUMP JUMPDEST PUSH0 PUSH2 0x480E PUSH2 0x4809 DUP5 PUSH2 0x3F9C JUMP JUMPDEST PUSH2 0x36FA JUMP JUMPDEST SWAP1 POP DUP3 DUP2 MSTORE PUSH1 0x20 DUP2 ADD DUP5 DUP5 DUP5 ADD GT ISZERO PUSH2 0x482A JUMPI PUSH2 0x4829 PUSH2 0x3698 JUMP JUMPDEST JUMPDEST PUSH2 0x4835 DUP5 DUP3 DUP6 PUSH2 0x352D JUMP JUMPDEST POP SWAP4 SWAP3 POP POP POP JUMP JUMPDEST PUSH0 DUP3 PUSH1 0x1F DUP4 ADD SLT PUSH2 0x4851 JUMPI PUSH2 0x4850 PUSH2 0x3694 JUMP JUMPDEST JUMPDEST DUP2 MLOAD PUSH2 0x4861 DUP5 DUP3 PUSH1 0x20 DUP7 ADD PUSH2 0x47FC JUMP JUMPDEST SWAP2 POP POP SWAP3 SWAP2 POP POP JUMP JUMPDEST PUSH0 PUSH1 0x20 DUP3 DUP5 SUB SLT ISZERO PUSH2 0x487F JUMPI PUSH2 0x487E PUSH2 0x3427 JUMP JUMPDEST JUMPDEST PUSH0 DUP3 ADD MLOAD PUSH8 0xFFFFFFFFFFFFFFFF DUP2 GT ISZERO PUSH2 0x489C JUMPI PUSH2 0x489B PUSH2 0x342B JUMP JUMPDEST JUMPDEST PUSH2 0x48A8 DUP5 DUP3 DUP6 ADD PUSH2 0x483D JUMP JUMPDEST SWAP2 POP POP SWAP3 SWAP2 POP POP JUMP JUMPDEST PUSH0 DUP2 SWAP1 POP SWAP3 SWAP2 POP POP JUMP JUMPDEST PUSH0 PUSH2 0x48C6 DUP4 DUP6 PUSH2 0x48B1 JUMP JUMPDEST SWAP4 POP PUSH2 0x48D3 DUP4 DUP6 DUP5 PUSH2 0x3744 JUMP JUMPDEST DUP3 DUP5 ADD SWAP1 POP SWAP4 SWAP3 POP POP POP JUMP JUMPDEST PUSH0 PUSH2 0x48EB DUP3 DUP5 DUP7 PUSH2 0x48BB JUMP JUMPDEST SWAP2 POP DUP2 SWAP1 POP SWAP4 SWAP3 POP POP POP JUMP JUMPDEST PUSH2 0x4900 DUP2 PUSH2 0x3CDC JUMP JUMPDEST DUP3 MSTORE POP POP JUMP JUMPDEST PUSH0 PUSH1 0xE0 DUP3 ADD SWAP1 POP PUSH2 0x4919 PUSH0 DUP4 ADD DUP11 PUSH2 0x3BB5 JUMP JUMPDEST PUSH2 0x4926 PUSH1 0x20 DUP4 ADD DUP10 PUSH2 0x34EB JUMP JUMPDEST PUSH2 0x4933 PUSH1 0x40 DUP4 ADD DUP9 PUSH2 0x48F7 JUMP JUMPDEST PUSH2 0x4940 PUSH1 0x60 DUP4 ADD DUP8 PUSH2 0x3642 JUMP JUMPDEST PUSH2 0x494D PUSH1 0x80 DUP4 ADD DUP7 PUSH2 0x34EB JUMP JUMPDEST PUSH2 0x495A PUSH1 0xA0 DUP4 ADD DUP6 PUSH2 0x3BB5 JUMP JUMPDEST PUSH2 0x4967 PUSH1 0xC0 DUP4 ADD DUP5 PUSH2 0x3BB5 JUMP JUMPDEST SWAP9 SWAP8 POP POP POP POP POP POP POP POP JUMP JUMPDEST PUSH0 PUSH2 0x497D DUP3 PUSH2 0x432C JUMP JUMPDEST SWAP2 POP PUSH2 0x4988 DUP4 PUSH2 0x432C JUMP JUMPDEST SWAP3 POP DUP3 DUP3 SUB SWAP1 POP PUSH6 0xFFFFFFFFFFFF DUP2 GT ISZERO PUSH2 0x49A6 JUMPI PUSH2 0x49A5 PUSH2 0x4788 JUMP JUMPDEST JUMPDEST SWAP3 SWAP2 POP POP JUMP JUMPDEST PUSH0 PUSH1 0x60 DUP3 ADD SWAP1 POP PUSH2 0x49BF PUSH0 DUP4 ADD DUP7 PUSH2 0x3642 JUMP JUMPDEST PUSH2 0x49CC PUSH1 0x20 DUP4 ADD DUP6 PUSH2 0x34EB JUMP JUMPDEST PUSH2 0x49D9 PUSH1 0x40 DUP4 ADD DUP5 PUSH2 0x34EB JUMP JUMPDEST SWAP5 SWAP4 POP POP POP POP JUMP JUMPDEST PUSH0 PUSH1 0xA0 DUP3 ADD SWAP1 POP PUSH2 0x49F4 PUSH0 DUP4 ADD DUP9 PUSH2 0x3BB5 JUMP JUMPDEST PUSH2 0x4A01 PUSH1 0x20 DUP4 ADD DUP8 PUSH2 0x34EB JUMP JUMPDEST PUSH2 0x4A0E PUSH1 0x40 DUP4 ADD DUP7 PUSH2 0x48F7 JUMP JUMPDEST PUSH2 0x4A1B PUSH1 0x60 DUP4 ADD DUP6 PUSH2 0x3642 JUMP JUMPDEST PUSH2 0x4A28 PUSH1 0x80 DUP4 ADD DUP5 PUSH2 0x34EB JUMP JUMPDEST SWAP7 SWAP6 POP POP POP POP POP POP JUMP JUMPDEST PUSH2 0x4A3B DUP2 PUSH2 0x432C JUMP JUMPDEST DUP2 EQ PUSH2 0x4A45 JUMPI PUSH0 DUP1 REVERT JUMPDEST POP JUMP JUMPDEST PUSH0 DUP2 MLOAD SWAP1 POP PUSH2 0x4A56 DUP2 PUSH2 0x4A32 JUMP JUMPDEST SWAP3 SWAP2 POP POP JUMP JUMPDEST PUSH0 PUSH1 0x20 DUP3 DUP5 SUB SLT ISZERO PUSH2 0x4A71 JUMPI PUSH2 0x4A70 PUSH2 0x3427 JUMP JUMPDEST JUMPDEST PUSH0 PUSH2 0x4A7E DUP5 DUP3 DUP6 ADD PUSH2 0x4A48 JUMP JUMPDEST SWAP2 POP POP SWAP3 SWAP2 POP POP JUMP JUMPDEST PUSH0 PUSH2 0x4A91 DUP3 PUSH2 0x432C JUMP JUMPDEST SWAP2 POP PUSH2 0x4A9C DUP4 PUSH2 0x432C JUMP JUMPDEST SWAP3 POP DUP3 DUP3 ADD SWAP1 POP PUSH6 0xFFFFFFFFFFFF DUP2 GT ISZERO PUSH2 0x4ABA JUMPI PUSH2 0x4AB9 PUSH2 0x4788 JUMP JUMPDEST JUMPDEST SWAP3 SWAP2 POP POP JUMP JUMPDEST PUSH0 DUP2 MLOAD SWAP1 POP SWAP2 SWAP1 POP JUMP JUMPDEST PUSH0 DUP3 DUP3 MSTORE PUSH1 0x20 DUP3 ADD SWAP1 POP SWAP3 SWAP2 POP POP JUMP JUMPDEST PUSH0 DUP2 SWAP1 POP PUSH1 0x20 DUP3 ADD SWAP1 POP SWAP2 SWAP1 POP JUMP JUMPDEST PUSH2 0x4AF2 DUP2 PUSH2 0x3631 JUMP JUMPDEST DUP3 MSTORE POP POP JUMP JUMPDEST PUSH0 PUSH2 0x4B03 DUP4 DUP4 PUSH2 0x4AE9 JUMP JUMPDEST PUSH1 0x20 DUP4 ADD SWAP1 POP SWAP3 SWAP2 POP POP JUMP JUMPDEST PUSH0 PUSH1 0x20 DUP3 ADD SWAP1 POP SWAP2 SWAP1 POP JUMP JUMPDEST PUSH0 PUSH2 0x4B25 DUP3 PUSH2 0x4AC0 JUMP JUMPDEST PUSH2 0x4B2F DUP2 DUP6 PUSH2 0x4ACA JUMP JUMPDEST SWAP4 POP PUSH2 0x4B3A DUP4 PUSH2 0x4ADA JUMP JUMPDEST DUP1 PUSH0 JUMPDEST DUP4 DUP2 LT ISZERO PUSH2 0x4B6A JUMPI DUP2 MLOAD PUSH2 0x4B51 DUP9 DUP3 PUSH2 0x4AF8 JUMP JUMPDEST SWAP8 POP PUSH2 0x4B5C DUP4 PUSH2 0x4B0F JUMP JUMPDEST SWAP3 POP POP PUSH1 0x1 DUP2 ADD SWAP1 POP PUSH2 0x4B3D JUMP JUMPDEST POP DUP6 SWAP4 POP POP POP POP SWAP3 SWAP2 POP POP JUMP JUMPDEST PUSH0 DUP2 MLOAD SWAP1 POP SWAP2 SWAP1 POP JUMP JUMPDEST PUSH0 DUP3 DUP3 MSTORE PUSH1 0x20 DUP3 ADD SWAP1 POP SWAP3 SWAP2 POP POP JUMP JUMPDEST PUSH0 DUP2 SWAP1 POP PUSH1 0x20 DUP3 ADD SWAP1 POP SWAP2 SWAP1 POP JUMP JUMPDEST PUSH0 DUP2 MLOAD SWAP1 POP SWAP2 SWAP1 POP JUMP JUMPDEST PUSH0 DUP3 DUP3 MSTORE PUSH1 0x20 DUP3 ADD SWAP1 POP SWAP3 SWAP2 POP POP JUMP JUMPDEST PUSH0 PUSH2 0x4BC4 DUP3 PUSH2 0x4BA0 JUMP JUMPDEST PUSH2 0x4BCE DUP2 DUP6 PUSH2 0x4BAA JUMP JUMPDEST SWAP4 POP PUSH2 0x4BDE DUP2 DUP6 PUSH1 0x20 DUP7 ADD PUSH2 0x352D JUMP JUMPDEST PUSH2 0x4BE7 DUP2 PUSH2 0x3555 JUMP JUMPDEST DUP5 ADD SWAP2 POP POP SWAP3 SWAP2 POP POP JUMP JUMPDEST PUSH0 PUSH2 0x4BFD DUP4 DUP4 PUSH2 0x4BBA JUMP JUMPDEST SWAP1 POP SWAP3 SWAP2 POP POP JUMP JUMPDEST PUSH0 PUSH1 0x20 DUP3 ADD SWAP1 POP SWAP2 SWAP1 POP JUMP JUMPDEST PUSH0 PUSH2 0x4C1B DUP3 PUSH2 0x4B77 JUMP JUMPDEST PUSH2 0x4C25 DUP2 DUP6 PUSH2 0x4B81 JUMP JUMPDEST SWAP4 POP DUP4 PUSH1 0x20 DUP3 MUL DUP6 ADD PUSH2 0x4C37 DUP6 PUSH2 0x4B91 JUMP JUMPDEST DUP1 PUSH0 JUMPDEST DUP6 DUP2 LT ISZERO PUSH2 0x4C72 JUMPI DUP5 DUP5 SUB DUP10 MSTORE DUP2 MLOAD PUSH2 0x4C53 DUP6 DUP3 PUSH2 0x4BF2 JUMP JUMPDEST SWAP5 POP PUSH2 0x4C5E DUP4 PUSH2 0x4C05 JUMP JUMPDEST SWAP3 POP PUSH1 0x20 DUP11 ADD SWAP10 POP POP PUSH1 0x1 DUP2 ADD SWAP1 POP PUSH2 0x4C3A JUMP JUMPDEST POP DUP3 SWAP8 POP DUP8 SWAP6 POP POP POP POP POP POP SWAP3 SWAP2 POP POP JUMP JUMPDEST PUSH0 PUSH1 0x80 DUP3 ADD SWAP1 POP DUP2 DUP2 SUB PUSH0 DUP4 ADD MSTORE PUSH2 0x4C9C DUP2 DUP8 PUSH2 0x4B1B JUMP JUMPDEST SWAP1 POP DUP2 DUP2 SUB PUSH1 0x20 DUP4 ADD MSTORE PUSH2 0x4CB0 DUP2 DUP7 PUSH2 0x41CE JUMP JUMPDEST SWAP1 POP DUP2 DUP2 SUB PUSH1 0x40 DUP4 ADD MSTORE PUSH2 0x4CC4 DUP2 DUP6 PUSH2 0x4C11 JUMP JUMPDEST SWAP1 POP PUSH2 0x4CD3 PUSH1 0x60 DUP4 ADD DUP5 PUSH2 0x3BB5 JUMP JUMPDEST SWAP6 SWAP5 POP POP POP POP POP JUMP JUMPDEST PUSH0 PUSH1 0x60 DUP3 ADD SWAP1 POP PUSH2 0x4CEF PUSH0 DUP4 ADD DUP7 PUSH2 0x34EB JUMP JUMPDEST PUSH2 0x4CFC PUSH1 0x20 DUP4 ADD DUP6 PUSH2 0x3C41 JUMP JUMPDEST PUSH2 0x4D09 PUSH1 0x40 DUP4 ADD DUP5 PUSH2 0x3BB5 JUMP JUMPDEST SWAP5 SWAP4 POP POP POP POP JUMP JUMPDEST PUSH0 PUSH2 0x4D1B DUP3 PUSH2 0x4BA0 JUMP JUMPDEST PUSH2 0x4D25 DUP2 DUP6 PUSH2 0x48B1 JUMP JUMPDEST SWAP4 POP PUSH2 0x4D35 DUP2 DUP6 PUSH1 0x20 DUP7 ADD PUSH2 0x352D JUMP JUMPDEST DUP1 DUP5 ADD SWAP2 POP POP SWAP3 SWAP2 POP POP JUMP JUMPDEST PUSH0 PUSH2 0x4D4C DUP3 DUP5 PUSH2 0x4D11 JUMP JUMPDEST SWAP2 POP DUP2 SWAP1 POP SWAP3 SWAP2 POP POP JUMP JUMPDEST PUSH0 PUSH2 0x4D61 DUP3 PUSH2 0x34E2 JUMP JUMPDEST SWAP2 POP PUSH2 0x4D6C DUP4 PUSH2 0x34E2 JUMP JUMPDEST SWAP3 POP DUP3 DUP3 ADD SWAP1 POP DUP1 DUP3 GT ISZERO PUSH2 0x4D84 JUMPI PUSH2 0x4D83 PUSH2 0x4788 JUMP JUMPDEST JUMPDEST SWAP3 SWAP2 POP POP JUMP JUMPDEST PUSH0 PUSH2 0x4D94 DUP3 PUSH2 0x3CDC JUMP JUMPDEST SWAP2 POP PUSH2 0x4D9F DUP4 PUSH2 0x3CDC JUMP JUMPDEST SWAP3 POP DUP3 DUP3 ADD SWAP1 POP PUSH1 0xFF DUP2 GT ISZERO PUSH2 0x4DB8 JUMPI PUSH2 0x4DB7 PUSH2 0x4788 JUMP JUMPDEST JUMPDEST SWAP3 SWAP2 POP POP JUMP JUMPDEST PUSH0 DUP2 PUSH1 0x1 SHR SWAP1 POP SWAP2 SWAP1 POP JUMP JUMPDEST PUSH0 DUP1 DUP3 SWAP2 POP DUP4 SWAP1 POP JUMPDEST PUSH1 0x1 DUP6 GT ISZERO PUSH2 0x4E13 JUMPI DUP1 DUP7 DIV DUP2 GT ISZERO PUSH2 0x4DEF JUMPI PUSH2 0x4DEE PUSH2 0x4788 JUMP JUMPDEST JUMPDEST PUSH1 0x1 DUP6 AND ISZERO PUSH2 0x4DFE JUMPI DUP1 DUP3 MUL SWAP2 POP JUMPDEST DUP1 DUP2 MUL SWAP1 POP PUSH2 0x4E0C DUP6 PUSH2 0x4DBE JUMP JUMPDEST SWAP5 POP PUSH2 0x4DD3 JUMP JUMPDEST SWAP5 POP SWAP5 SWAP3 POP POP POP JUMP JUMPDEST PUSH0 DUP3 PUSH2 0x4E2B JUMPI PUSH1 0x1 SWAP1 POP PUSH2 0x4EE6 JUMP JUMPDEST DUP2 PUSH2 0x4E38 JUMPI PUSH0 SWAP1 POP PUSH2 0x4EE6 JUMP JUMPDEST DUP2 PUSH1 0x1 DUP2 EQ PUSH2 0x4E4E JUMPI PUSH1 0x2 DUP2 EQ PUSH2 0x4E58 JUMPI PUSH2 0x4E87 JUMP JUMPDEST PUSH1 0x1 SWAP2 POP POP PUSH2 0x4EE6 JUMP JUMPDEST PUSH1 0xFF DUP5 GT ISZERO PUSH2 0x4E6A JUMPI PUSH2 0x4E69 PUSH2 0x4788 JUMP JUMPDEST JUMPDEST DUP4 PUSH1 0x2 EXP SWAP2 POP DUP5 DUP3 GT ISZERO PUSH2 0x4E81 JUMPI PUSH2 0x4E80 PUSH2 0x4788 JUMP JUMPDEST JUMPDEST POP PUSH2 0x4EE6 JUMP JUMPDEST POP PUSH1 0x20 DUP4 LT PUSH2 0x133 DUP4 LT AND PUSH1 0x4E DUP5 LT PUSH1 0xB DUP5 LT AND OR ISZERO PUSH2 0x4EBC JUMPI DUP3 DUP3 EXP SWAP1 POP DUP4 DUP2 GT ISZERO PUSH2 0x4EB7 JUMPI PUSH2 0x4EB6 PUSH2 0x4788 JUMP JUMPDEST JUMPDEST PUSH2 0x4EE6 JUMP JUMPDEST PUSH2 0x4EC9 DUP5 DUP5 DUP5 PUSH1 0x1 PUSH2 0x4DCA JUMP JUMPDEST SWAP3 POP SWAP1 POP DUP2 DUP5 DIV DUP2 GT ISZERO PUSH2 0x4EE0 JUMPI PUSH2 0x4EDF PUSH2 0x4788 JUMP JUMPDEST JUMPDEST DUP2 DUP2 MUL SWAP1 POP JUMPDEST SWAP4 SWAP3 POP POP POP JUMP JUMPDEST PUSH0 PUSH2 0x4EF7 DUP3 PUSH2 0x34E2 JUMP JUMPDEST SWAP2 POP PUSH2 0x4F02 DUP4 PUSH2 0x3CDC JUMP JUMPDEST SWAP3 POP PUSH2 0x4F2F PUSH32 0xFFFFFFFFFFFFFFFFFFFFFFFFFFFFFFFFFFFFFFFFFFFFFFFFFFFFFFFFFFFFFFFF DUP5 DUP5 PUSH2 0x4E1C JUMP JUMPDEST SWAP1 POP SWAP3 SWAP2 POP POP JUMP JUMPDEST PUSH0 PUSH2 0x4F41 DUP3 PUSH2 0x34E2 JUMP JUMPDEST SWAP2 POP PUSH2 0x4F4C DUP4 PUSH2 0x34E2 JUMP JUMPDEST SWAP3 POP DUP3 DUP3 SUB SWAP1 POP DUP2 DUP2 GT ISZERO PUSH2 0x4F64 JUMPI PUSH2 0x4F63 PUSH2 0x4788 JUMP JUMPDEST JUMPDEST SWAP3 SWAP2 POP POP JUMP JUMPDEST PUSH0 PUSH1 0x80 DUP3 ADD SWAP1 POP PUSH2 0x4F7D PUSH0 DUP4 ADD DUP8 PUSH2 0x34EB JUMP JUMPDEST PUSH2 0x4F8A PUSH1 0x20 DUP4 ADD DUP7 PUSH2 0x48F7 JUMP JUMPDEST PUSH2 0x4F97 PUSH1 0x40 DUP4 ADD DUP6 PUSH2 0x34EB JUMP JUMPDEST DUP2 DUP2 SUB PUSH1 0x60 DUP4 ADD MSTORE PUSH2 0x4FA9 DUP2 DUP5 PUSH2 0x3565 JUMP JUMPDEST SWAP1 POP SWAP6 SWAP5 POP POP POP POP POP JUMP JUMPDEST PUSH0 DUP3 DUP3 MSTORE PUSH1 0x20 DUP3 ADD SWAP1 POP SWAP3 SWAP2 POP POP JUMP JUMPDEST PUSH0 PUSH2 0x4FCE DUP3 PUSH2 0x4BA0 JUMP JUMPDEST PUSH2 0x4FD8 DUP2 DUP6 PUSH2 0x4FB4 JUMP JUMPDEST SWAP4 POP PUSH2 0x4FE8 DUP2 DUP6 PUSH1 0x20 DUP7 ADD PUSH2 0x352D JUMP JUMPDEST PUSH2 0x4FF1 DUP2 PUSH2 0x3555 JUMP JUMPDEST DUP5 ADD SWAP2 POP POP SWAP3 SWAP2 POP POP JUMP JUMPDEST PUSH0 PUSH1 0xA0 DUP3 ADD SWAP1 POP PUSH2 0x500F PUSH0 DUP4 ADD DUP9 PUSH2 0x34EB JUMP JUMPDEST PUSH2 0x501C PUSH1 0x20 DUP4 ADD DUP8 PUSH2 0x48F7 JUMP JUMPDEST PUSH2 0x5029 PUSH1 0x40 DUP4 ADD DUP7 PUSH2 0x34EB JUMP JUMPDEST DUP2 DUP2 SUB PUSH1 0x60 DUP4 ADD MSTORE PUSH2 0x503B DUP2 DUP6 PUSH2 0x3565 JUMP JUMPDEST SWAP1 POP DUP2 DUP2 SUB PUSH1 0x80 DUP4 ADD MSTORE PUSH2 0x504F DUP2 DUP5 PUSH2 0x4FC4 JUMP JUMPDEST SWAP1 POP SWAP7 SWAP6 POP POP POP POP POP POP JUMP JUMPDEST PUSH0 DUP2 MLOAD SWAP1 POP SWAP2 SWAP1 POP JUMP JUMPDEST PUSH0 DUP3 DUP3 MSTORE PUSH1 0x20 DUP3 ADD SWAP1 POP SWAP3 SWAP2 POP POP JUMP JUMPDEST PUSH0 DUP2 SWAP1 POP PUSH1 0x20 DUP3 ADD SWAP1 POP SWAP2 SWAP1 POP JUMP JUMPDEST PUSH0 DUP3 DUP3 MSTORE PUSH1 0x20 DUP3 ADD SWAP1 POP SWAP3 SWAP2 POP POP JUMP JUMPDEST PUSH0 PUSH2 0x509E DUP3 PUSH2 0x3513 JUMP JUMPDEST PUSH2 0x50A8 DUP2 DUP6 PUSH2 0x5084 JUMP JUMPDEST SWAP4 POP PUSH2 0x50B8 DUP2 DUP6 PUSH1 0x20 DUP7 ADD PUSH2 0x352D JUMP JUMPDEST PUSH2 0x50C1 DUP2 PUSH2 0x3555 JUMP JUMPDEST DUP5 ADD SWAP2 POP POP SWAP3 SWAP2 POP POP JUMP JUMPDEST PUSH0 PUSH2 0x50D7 DUP4 DUP4 PUSH2 0x5094 JUMP JUMPDEST SWAP1 POP SWAP3 SWAP2 POP POP JUMP JUMPDEST PUSH0 PUSH1 0x20 DUP3 ADD SWAP1 POP SWAP2 SWAP1 POP JUMP JUMPDEST PUSH0 PUSH2 0x50F5 DUP3 PUSH2 0x505B JUMP JUMPDEST PUSH2 0x50FF DUP2 DUP6 PUSH2 0x5065 JUMP JUMPDEST SWAP4 POP DUP4 PUSH1 0x20 DUP3 MUL DUP6 ADD PUSH2 0x5111 DUP6 PUSH2 0x5075 JUMP JUMPDEST DUP1 PUSH0 JUMPDEST DUP6 DUP2 LT ISZERO PUSH2 0x514C JUMPI DUP5 DUP5 SUB DUP10 MSTORE DUP2 MLOAD PUSH2 0x512D DUP6 DUP3 PUSH2 0x50CC JUMP JUMPDEST SWAP5 POP PUSH2 0x5138 DUP4 PUSH2 0x50DF JUMP JUMPDEST SWAP3 POP PUSH1 0x20 DUP11 ADD SWAP10 POP POP PUSH1 0x1 DUP2 ADD SWAP1 POP PUSH2 0x5114 JUMP JUMPDEST POP DUP3 SWAP8 POP DUP8 SWAP6 POP POP POP POP POP POP SWAP3 SWAP2 POP POP JUMP JUMPDEST PUSH0 PUSH2 0x120 DUP3 ADD SWAP1 POP PUSH2 0x5172 PUSH0 DUP4 ADD DUP13 PUSH2 0x34EB JUMP JUMPDEST PUSH2 0x517F PUSH1 0x20 DUP4 ADD DUP12 PUSH2 0x3642 JUMP JUMPDEST DUP2 DUP2 SUB PUSH1 0x40 DUP4 ADD MSTORE PUSH2 0x5191 DUP2 DUP11 PUSH2 0x4B1B JUMP JUMPDEST SWAP1 POP DUP2 DUP2 SUB PUSH1 0x60 DUP4 ADD MSTORE PUSH2 0x51A5 DUP2 DUP10 PUSH2 0x41CE JUMP JUMPDEST SWAP1 POP DUP2 DUP2 SUB PUSH1 0x80 DUP4 ADD MSTORE PUSH2 0x51B9 DUP2 DUP9 PUSH2 0x50EB JUMP JUMPDEST SWAP1 POP DUP2 DUP2 SUB PUSH1 0xA0 DUP4 ADD MSTORE PUSH2 0x51CD DUP2 DUP8 PUSH2 0x4C11 JUMP JUMPDEST SWAP1 POP PUSH2 0x51DC PUSH1 0xC0 DUP4 ADD DUP7 PUSH2 0x34EB JUMP JUMPDEST PUSH2 0x51E9 PUSH1 0xE0 DUP4 ADD DUP6 PUSH2 0x34EB JUMP JUMPDEST DUP2 DUP2 SUB PUSH2 0x100 DUP4 ADD MSTORE PUSH2 0x51FC DUP2 DUP5 PUSH2 0x3565 JUMP JUMPDEST SWAP1 POP SWAP11 SWAP10 POP POP POP POP POP POP POP POP POP POP JUMP JUMPDEST PUSH0 PUSH1 0x40 DUP3 ADD SWAP1 POP PUSH2 0x521F PUSH0 DUP4 ADD DUP6 PUSH2 0x3642 JUMP JUMPDEST PUSH2 0x522C PUSH1 0x20 DUP4 ADD DUP5 PUSH2 0x34EB JUMP JUMPDEST SWAP4 SWAP3 POP POP POP JUMP JUMPDEST PUSH0 DUP2 MLOAD SWAP1 POP PUSH2 0x5241 DUP2 PUSH2 0x35BD JUMP JUMPDEST SWAP3 SWAP2 POP POP JUMP JUMPDEST PUSH0 PUSH1 0x20 DUP3 DUP5 SUB SLT ISZERO PUSH2 0x525C JUMPI PUSH2 0x525B PUSH2 0x3427 JUMP JUMPDEST JUMPDEST PUSH0 PUSH2 0x5269 DUP5 DUP3 DUP6 ADD PUSH2 0x5233 JUMP JUMPDEST SWAP2 POP POP SWAP3 SWAP2 POP POP JUMP JUMPDEST PUSH0 PUSH1 0x40 DUP3 ADD SWAP1 POP PUSH2 0x5285 PUSH0 DUP4 ADD DUP6 PUSH2 0x3BB5 JUMP JUMPDEST DUP2 DUP2 SUB PUSH1 0x20 DUP4 ADD MSTORE PUSH2 0x5297 DUP2 DUP5 PUSH2 0x4FC4 JUMP JUMPDEST SWAP1 POP SWAP4 SWAP3 POP POP POP JUMP JUMPDEST PUSH0 DUP2 MLOAD SWAP1 POP PUSH2 0x52AE DUP2 PUSH2 0x3AD3 JUMP JUMPDEST SWAP3 SWAP2 POP POP JUMP JUMPDEST PUSH0 PUSH1 0x20 DUP3 DUP5 SUB SLT ISZERO PUSH2 0x52C9 JUMPI PUSH2 0x52C8 PUSH2 0x3427 JUMP JUMPDEST JUMPDEST PUSH0 PUSH2 0x52D6 DUP5 DUP3 DUP6 ADD PUSH2 0x52A0 JUMP JUMPDEST SWAP2 POP POP SWAP3 SWAP2 POP POP JUMP JUMPDEST PUSH0 DUP2 SWAP1 POP SWAP2 SWAP1 POP JUMP JUMPDEST PUSH0 PUSH2 0x5302 PUSH2 0x52FD PUSH2 0x52F8 DUP5 PUSH2 0x52DF JUMP JUMPDEST PUSH2 0x4633 JUMP JUMPDEST PUSH2 0x3CDC JUMP JUMPDEST SWAP1 POP SWAP2 SWAP1 POP JUMP JUMPDEST PUSH2 0x5312 DUP2 PUSH2 0x52E8 JUMP JUMPDEST DUP3 MSTORE POP POP JUMP JUMPDEST PUSH0 PUSH1 0x40 DUP3 ADD SWAP1 POP PUSH2 0x532B PUSH0 DUP4 ADD DUP6 PUSH2 0x5309 JUMP JUMPDEST PUSH2 0x5338 PUSH1 0x20 DUP4 ADD DUP5 PUSH2 0x34EB JUMP JUMPDEST SWAP4 SWAP3 POP POP POP JUMP JUMPDEST PUSH0 DUP2 SWAP1 POP SWAP2 SWAP1 POP JUMP JUMPDEST PUSH0 PUSH2 0x5362 PUSH2 0x535D PUSH2 0x5358 DUP5 PUSH2 0x533F JUMP JUMPDEST PUSH2 0x4633 JUMP JUMPDEST PUSH2 0x3CDC JUMP JUMPDEST SWAP1 POP SWAP2 SWAP1 POP JUMP JUMPDEST PUSH2 0x5372 DUP2 PUSH2 0x5348 JUMP JUMPDEST DUP3 MSTORE POP POP JUMP JUMPDEST PUSH0 PUSH1 0x40 DUP3 ADD SWAP1 POP PUSH2 0x538B PUSH0 DUP4 ADD DUP6 PUSH2 0x5369 JUMP JUMPDEST PUSH2 0x5398 PUSH1 0x20 DUP4 ADD DUP5 PUSH2 0x34EB JUMP JUMPDEST SWAP4 SWAP3 POP POP POP JUMP JUMPDEST PUSH0 PUSH1 0xA0 DUP3 ADD SWAP1 POP PUSH2 0x53B2 PUSH0 DUP4 ADD DUP9 PUSH2 0x3BB5 JUMP JUMPDEST PUSH2 0x53BF PUSH1 0x20 DUP4 ADD DUP8 PUSH2 0x3BB5 JUMP JUMPDEST PUSH2 0x53CC PUSH1 0x40 DUP4 ADD DUP7 PUSH2 0x3BB5 JUMP JUMPDEST PUSH2 0x53D9 PUSH1 0x60 DUP4 ADD DUP6 PUSH2 0x34EB JUMP JUMPDEST PUSH2 0x53E6 PUSH1 0x80 DUP4 ADD DUP5 PUSH2 0x3642 JUMP JUMPDEST SWAP7 SWAP6 POP POP POP POP POP POP JUMP JUMPDEST PUSH0 PUSH1 0x80 DUP3 ADD SWAP1 POP PUSH2 0x5403 PUSH0 DUP4 ADD DUP8 PUSH2 0x3BB5 JUMP JUMPDEST PUSH2 0x5410 PUSH1 0x20 DUP4 ADD DUP7 PUSH2 0x48F7 JUMP JUMPDEST PUSH2 0x541D PUSH1 0x40 DUP4 ADD DUP6 PUSH2 0x3BB5 JUMP JUMPDEST PUSH2 0x542A PUSH1 0x60 DUP4 ADD DUP5 PUSH2 0x3BB5 JUMP JUMPDEST SWAP6 SWAP5 POP POP POP POP POP JUMP INVALID LOG2 PUSH5 0x6970667358 0x22 SLT KECCAK256 CALLVALUE 0x1E CALLER 0xD5 0xC9 STATICCALL MUL BYTE OR 0xCA COINBASE 0x4D 0xEC 0x1F 0xD0 0xC5 0xB0 PUSH25 0x813FB1C65BA46FE1E09EF3120B2064736F6C63430008140033 "
		},
		"gasEstimates": {
			"creation": {
				"codeDepositCost": "4321800",
				"executionCost": "infinite",
				"totalCost": "infinite"
			},
			"external": {
				"BALLOT_TYPEHASH()": "369",
				"CLOCK_MODE()": "infinite",
				"COUNTING_MODE()": "infinite",
				"EXTENDED_BALLOT_TYPEHASH()": "459",
				"cancel(address[],uint256[],bytes[],bytes32)": "infinite",
				"castVote(uint256,uint8)": "infinite",
				"castVoteBySig(uint256,uint8,address,bytes)": "infinite",
				"castVoteWithReason(uint256,uint8,string)": "infinite",
				"castVoteWithReasonAndParams(uint256,uint8,string,bytes)": "infinite",
				"castVoteWithReasonAndParamsBySig(uint256,uint8,address,string,bytes,bytes)": "infinite",
				"clock()": "infinite",
				"eip712Domain()": "infinite",
				"execute(address[],uint256[],bytes[],bytes32)": "infinite",
				"getVotes(address,uint256)": "infinite",
				"getVotesWithParams(address,uint256,bytes)": "infinite",
				"hasVoted(uint256,address)": "3213",
				"hashProposal(address[],uint256[],bytes[],bytes32)": "infinite",
				"name()": "infinite",
				"nonces(address)": "2919",
				"onERC1155BatchReceived(address,address,uint256[],uint256[],bytes)": "infinite",
				"onERC1155Received(address,address,uint256,uint256,bytes)": "infinite",
				"onERC721Received(address,address,uint256,bytes)": "infinite",
				"proposalDeadline(uint256)": "infinite",
				"proposalEta(uint256)": "infinite",
				"proposalNeedsQueuing(uint256)": "680",
				"proposalProposer(uint256)": "2970",
				"proposalSnapshot(uint256)": "infinite",
				"proposalThreshold()": "465",
				"proposalVotes(uint256)": "infinite",
				"propose(address[],uint256[],bytes[],string)": "infinite",
				"queue(address[],uint256[],bytes[],bytes32)": "infinite",
				"quorum(uint256)": "infinite",
				"relay(address,uint256,bytes)": "infinite",
				"state(uint256)": "infinite",
				"supportsInterface(bytes4)": "810",
				"token()": "infinite",
				"version()": "infinite",
				"votingDelay()": "378",
				"votingPeriod()": "401"
			}
		},
		"methodIdentifiers": {
			"BALLOT_TYPEHASH()": "deaaa7cc",
			"CLOCK_MODE()": "4bf5d7e9",
			"COUNTING_MODE()": "dd4e2ba5",
			"EXTENDED_BALLOT_TYPEHASH()": "2fe3e261",
			"cancel(address[],uint256[],bytes[],bytes32)": "452115d6",
			"castVote(uint256,uint8)": "56781388",
			"castVoteBySig(uint256,uint8,address,bytes)": "8ff262e3",
			"castVoteWithReason(uint256,uint8,string)": "7b3c71d3",
			"castVoteWithReasonAndParams(uint256,uint8,string,bytes)": "5f398a14",
			"castVoteWithReasonAndParamsBySig(uint256,uint8,address,string,bytes,bytes)": "5b8d0e0d",
			"clock()": "91ddadf4",
			"eip712Domain()": "84b0196e",
			"execute(address[],uint256[],bytes[],bytes32)": "2656227d",
			"getVotes(address,uint256)": "eb9019d4",
			"getVotesWithParams(address,uint256,bytes)": "9a802a6d",
			"hasVoted(uint256,address)": "43859632",
			"hashProposal(address[],uint256[],bytes[],bytes32)": "c59057e4",
			"name()": "06fdde03",
			"nonces(address)": "7ecebe00",
			"onERC1155BatchReceived(address,address,uint256[],uint256[],bytes)": "bc197c81",
			"onERC1155Received(address,address,uint256,uint256,bytes)": "f23a6e61",
			"onERC721Received(address,address,uint256,bytes)": "150b7a02",
			"proposalDeadline(uint256)": "c01f9e37",
			"proposalEta(uint256)": "ab58fb8e",
			"proposalNeedsQueuing(uint256)": "a9a95294",
			"proposalProposer(uint256)": "143489d0",
			"proposalSnapshot(uint256)": "2d63f693",
			"proposalThreshold()": "b58131b0",
			"proposalVotes(uint256)": "544ffc9c",
			"propose(address[],uint256[],bytes[],string)": "7d5e81e2",
			"queue(address[],uint256[],bytes[],bytes32)": "160cbed7",
			"quorum(uint256)": "f8ce560a",
			"relay(address,uint256,bytes)": "c28bc2fa",
			"state(uint256)": "3e4f49e6",
			"supportsInterface(bytes4)": "01ffc9a7",
			"token()": "fc0c546a",
			"version()": "54fd4d50",
			"votingDelay()": "3932abb1",
			"votingPeriod()": "02a251a3"
		}
	},
	"abi": [
		{
			"inputs": [
				{
					"internalType": "contract ERC20Votes",
					"name": "_token",
					"type": "address"
				}
			],
			"stateMutability": "nonpayable",
			"type": "constructor"
		},
		{
			"inputs": [],
			"name": "FailedInnerCall",
			"type": "error"
		},
		{
			"inputs": [
				{
					"internalType": "address",
					"name": "voter",
					"type": "address"
				}
			],
			"name": "GovernorAlreadyCastVote",
			"type": "error"
		},
		{
			"inputs": [
				{
					"internalType": "uint256",
					"name": "proposalId",
					"type": "uint256"
				}
			],
			"name": "GovernorAlreadyQueuedProposal",
			"type": "error"
		},
		{
			"inputs": [],
			"name": "GovernorDisabledDeposit",
			"type": "error"
		},
		{
			"inputs": [
				{
					"internalType": "address",
					"name": "proposer",
					"type": "address"
				},
				{
					"internalType": "uint256",
					"name": "votes",
					"type": "uint256"
				},
				{
					"internalType": "uint256",
					"name": "threshold",
					"type": "uint256"
				}
			],
			"name": "GovernorInsufficientProposerVotes",
			"type": "error"
		},
		{
			"inputs": [
				{
					"internalType": "uint256",
					"name": "targets",
					"type": "uint256"
				},
				{
					"internalType": "uint256",
					"name": "calldatas",
					"type": "uint256"
				},
				{
					"internalType": "uint256",
					"name": "values",
					"type": "uint256"
				}
			],
			"name": "GovernorInvalidProposalLength",
			"type": "error"
		},
		{
			"inputs": [
				{
					"internalType": "address",
					"name": "voter",
					"type": "address"
				}
			],
			"name": "GovernorInvalidSignature",
			"type": "error"
		},
		{
			"inputs": [],
			"name": "GovernorInvalidVoteType",
			"type": "error"
		},
		{
			"inputs": [
				{
					"internalType": "uint256",
					"name": "votingPeriod",
					"type": "uint256"
				}
			],
			"name": "GovernorInvalidVotingPeriod",
			"type": "error"
		},
		{
			"inputs": [
				{
					"internalType": "uint256",
					"name": "proposalId",
					"type": "uint256"
				}
			],
			"name": "GovernorNonexistentProposal",
			"type": "error"
		},
		{
			"inputs": [
				{
					"internalType": "uint256",
					"name": "proposalId",
					"type": "uint256"
				}
			],
			"name": "GovernorNotQueuedProposal",
			"type": "error"
		},
		{
			"inputs": [
				{
					"internalType": "address",
					"name": "account",
					"type": "address"
				}
			],
			"name": "GovernorOnlyExecutor",
			"type": "error"
		},
		{
			"inputs": [
				{
					"internalType": "address",
					"name": "account",
					"type": "address"
				}
			],
			"name": "GovernorOnlyProposer",
			"type": "error"
		},
		{
			"inputs": [],
			"name": "GovernorQueueNotImplemented",
			"type": "error"
		},
		{
			"inputs": [
				{
					"internalType": "address",
					"name": "proposer",
					"type": "address"
				}
			],
			"name": "GovernorRestrictedProposer",
			"type": "error"
		},
		{
			"inputs": [
				{
					"internalType": "uint256",
					"name": "proposalId",
					"type": "uint256"
				},
				{
					"internalType": "enum IGovernor.ProposalState",
					"name": "current",
					"type": "uint8"
				},
				{
					"internalType": "bytes32",
					"name": "expectedStates",
					"type": "bytes32"
				}
			],
			"name": "GovernorUnexpectedProposalState",
			"type": "error"
		},
		{
			"inputs": [
				{
					"internalType": "address",
					"name": "account",
					"type": "address"
				},
				{
					"internalType": "uint256",
					"name": "currentNonce",
					"type": "uint256"
				}
			],
			"name": "InvalidAccountNonce",
			"type": "error"
		},
		{
			"inputs": [],
			"name": "InvalidShortString",
			"type": "error"
		},
		{
			"inputs": [],
			"name": "QueueEmpty",
			"type": "error"
		},
		{
			"inputs": [],
			"name": "QueueFull",
			"type": "error"
		},
		{
			"inputs": [
				{
					"internalType": "uint8",
					"name": "bits",
					"type": "uint8"
				},
				{
					"internalType": "uint256",
					"name": "value",
					"type": "uint256"
				}
			],
			"name": "SafeCastOverflowedUintDowncast",
			"type": "error"
		},
		{
			"inputs": [
				{
					"internalType": "string",
					"name": "str",
					"type": "string"
				}
			],
			"name": "StringTooLong",
			"type": "error"
		},
		{
			"anonymous": false,
			"inputs": [],
			"name": "EIP712DomainChanged",
			"type": "event"
		},
		{
			"anonymous": false,
			"inputs": [
				{
					"indexed": false,
					"internalType": "uint256",
					"name": "proposalId",
					"type": "uint256"
				}
			],
			"name": "ProposalCanceled",
			"type": "event"
		},
		{
			"anonymous": false,
			"inputs": [
				{
					"indexed": false,
					"internalType": "uint256",
					"name": "proposalId",
					"type": "uint256"
				},
				{
					"indexed": false,
					"internalType": "address",
					"name": "proposer",
					"type": "address"
				},
				{
					"indexed": false,
					"internalType": "address[]",
					"name": "targets",
					"type": "address[]"
				},
				{
					"indexed": false,
					"internalType": "uint256[]",
					"name": "values",
					"type": "uint256[]"
				},
				{
					"indexed": false,
					"internalType": "string[]",
					"name": "signatures",
					"type": "string[]"
				},
				{
					"indexed": false,
					"internalType": "bytes[]",
					"name": "calldatas",
					"type": "bytes[]"
				},
				{
					"indexed": false,
					"internalType": "uint256",
					"name": "voteStart",
					"type": "uint256"
				},
				{
					"indexed": false,
					"internalType": "uint256",
					"name": "voteEnd",
					"type": "uint256"
				},
				{
					"indexed": false,
					"internalType": "string",
					"name": "description",
					"type": "string"
				}
			],
			"name": "ProposalCreated",
			"type": "event"
		},
		{
			"anonymous": false,
			"inputs": [
				{
					"indexed": false,
					"internalType": "uint256",
					"name": "proposalId",
					"type": "uint256"
				}
			],
			"name": "ProposalExecuted",
			"type": "event"
		},
		{
			"anonymous": false,
			"inputs": [
				{
					"indexed": false,
					"internalType": "uint256",
					"name": "proposalId",
					"type": "uint256"
				},
				{
					"indexed": false,
					"internalType": "uint256",
					"name": "etaSeconds",
					"type": "uint256"
				}
			],
			"name": "ProposalQueued",
			"type": "event"
		},
		{
			"anonymous": false,
			"inputs": [
				{
					"indexed": true,
					"internalType": "address",
					"name": "voter",
					"type": "address"
				},
				{
					"indexed": false,
					"internalType": "uint256",
					"name": "proposalId",
					"type": "uint256"
				},
				{
					"indexed": false,
					"internalType": "uint8",
					"name": "support",
					"type": "uint8"
				},
				{
					"indexed": false,
					"internalType": "uint256",
					"name": "weight",
					"type": "uint256"
				},
				{
					"indexed": false,
					"internalType": "string",
					"name": "reason",
					"type": "string"
				}
			],
			"name": "VoteCast",
			"type": "event"
		},
		{
			"anonymous": false,
			"inputs": [
				{
					"indexed": true,
					"internalType": "address",
					"name": "voter",
					"type": "address"
				},
				{
					"indexed": false,
					"internalType": "uint256",
					"name": "proposalId",
					"type": "uint256"
				},
				{
					"indexed": false,
					"internalType": "uint8",
					"name": "support",
					"type": "uint8"
				},
				{
					"indexed": false,
					"internalType": "uint256",
					"name": "weight",
					"type": "uint256"
				},
				{
					"indexed": false,
					"internalType": "string",
					"name": "reason",
					"type": "string"
				},
				{
					"indexed": false,
					"internalType": "bytes",
					"name": "params",
					"type": "bytes"
				}
			],
			"name": "VoteCastWithParams",
			"type": "event"
		},
		{
			"inputs": [],
			"name": "BALLOT_TYPEHASH",
			"outputs": [
				{
					"internalType": "bytes32",
					"name": "",
					"type": "bytes32"
				}
			],
			"stateMutability": "view",
			"type": "function"
		},
		{
			"inputs": [],
			"name": "CLOCK_MODE",
			"outputs": [
				{
					"internalType": "string",
					"name": "",
					"type": "string"
				}
			],
			"stateMutability": "view",
			"type": "function"
		},
		{
			"inputs": [],
			"name": "COUNTING_MODE",
			"outputs": [
				{
					"internalType": "string",
					"name": "",
					"type": "string"
				}
			],
			"stateMutability": "pure",
			"type": "function"
		},
		{
			"inputs": [],
			"name": "EXTENDED_BALLOT_TYPEHASH",
			"outputs": [
				{
					"internalType": "bytes32",
					"name": "",
					"type": "bytes32"
				}
			],
			"stateMutability": "view",
			"type": "function"
		},
		{
			"inputs": [
				{
					"internalType": "address[]",
					"name": "targets",
					"type": "address[]"
				},
				{
					"internalType": "uint256[]",
					"name": "values",
					"type": "uint256[]"
				},
				{
					"internalType": "bytes[]",
					"name": "calldatas",
					"type": "bytes[]"
				},
				{
					"internalType": "bytes32",
					"name": "descriptionHash",
					"type": "bytes32"
				}
			],
			"name": "cancel",
			"outputs": [
				{
					"internalType": "uint256",
					"name": "",
					"type": "uint256"
				}
			],
			"stateMutability": "nonpayable",
			"type": "function"
		},
		{
			"inputs": [
				{
					"internalType": "uint256",
					"name": "proposalId",
					"type": "uint256"
				},
				{
					"internalType": "uint8",
					"name": "support",
					"type": "uint8"
				}
			],
			"name": "castVote",
			"outputs": [
				{
					"internalType": "uint256",
					"name": "",
					"type": "uint256"
				}
			],
			"stateMutability": "nonpayable",
			"type": "function"
		},
		{
			"inputs": [
				{
					"internalType": "uint256",
					"name": "proposalId",
					"type": "uint256"
				},
				{
					"internalType": "uint8",
					"name": "support",
					"type": "uint8"
				},
				{
					"internalType": "address",
					"name": "voter",
					"type": "address"
				},
				{
					"internalType": "bytes",
					"name": "signature",
					"type": "bytes"
				}
			],
			"name": "castVoteBySig",
			"outputs": [
				{
					"internalType": "uint256",
					"name": "",
					"type": "uint256"
				}
			],
			"stateMutability": "nonpayable",
			"type": "function"
		},
		{
			"inputs": [
				{
					"internalType": "uint256",
					"name": "proposalId",
					"type": "uint256"
				},
				{
					"internalType": "uint8",
					"name": "support",
					"type": "uint8"
				},
				{
					"internalType": "string",
					"name": "reason",
					"type": "string"
				}
			],
			"name": "castVoteWithReason",
			"outputs": [
				{
					"internalType": "uint256",
					"name": "",
					"type": "uint256"
				}
			],
			"stateMutability": "nonpayable",
			"type": "function"
		},
		{
			"inputs": [
				{
					"internalType": "uint256",
					"name": "proposalId",
					"type": "uint256"
				},
				{
					"internalType": "uint8",
					"name": "support",
					"type": "uint8"
				},
				{
					"internalType": "string",
					"name": "reason",
					"type": "string"
				},
				{
					"internalType": "bytes",
					"name": "params",
					"type": "bytes"
				}
			],
			"name": "castVoteWithReasonAndParams",
			"outputs": [
				{
					"internalType": "uint256",
					"name": "",
					"type": "uint256"
				}
			],
			"stateMutability": "nonpayable",
			"type": "function"
		},
		{
			"inputs": [
				{
					"internalType": "uint256",
					"name": "proposalId",
					"type": "uint256"
				},
				{
					"internalType": "uint8",
					"name": "support",
					"type": "uint8"
				},
				{
					"internalType": "address",
					"name": "voter",
					"type": "address"
				},
				{
					"internalType": "string",
					"name": "reason",
					"type": "string"
				},
				{
					"internalType": "bytes",
					"name": "params",
					"type": "bytes"
				},
				{
					"internalType": "bytes",
					"name": "signature",
					"type": "bytes"
				}
			],
			"name": "castVoteWithReasonAndParamsBySig",
			"outputs": [
				{
					"internalType": "uint256",
					"name": "",
					"type": "uint256"
				}
			],
			"stateMutability": "nonpayable",
			"type": "function"
		},
		{
			"inputs": [],
			"name": "clock",
			"outputs": [
				{
					"internalType": "uint48",
					"name": "",
					"type": "uint48"
				}
			],
			"stateMutability": "view",
			"type": "function"
		},
		{
			"inputs": [],
			"name": "eip712Domain",
			"outputs": [
				{
					"internalType": "bytes1",
					"name": "fields",
					"type": "bytes1"
				},
				{
					"internalType": "string",
					"name": "name",
					"type": "string"
				},
				{
					"internalType": "string",
					"name": "version",
					"type": "string"
				},
				{
					"internalType": "uint256",
					"name": "chainId",
					"type": "uint256"
				},
				{
					"internalType": "address",
					"name": "verifyingContract",
					"type": "address"
				},
				{
					"internalType": "bytes32",
					"name": "salt",
					"type": "bytes32"
				},
				{
					"internalType": "uint256[]",
					"name": "extensions",
					"type": "uint256[]"
				}
			],
			"stateMutability": "view",
			"type": "function"
		},
		{
			"inputs": [
				{
					"internalType": "address[]",
					"name": "targets",
					"type": "address[]"
				},
				{
					"internalType": "uint256[]",
					"name": "values",
					"type": "uint256[]"
				},
				{
					"internalType": "bytes[]",
					"name": "calldatas",
					"type": "bytes[]"
				},
				{
					"internalType": "bytes32",
					"name": "descriptionHash",
					"type": "bytes32"
				}
			],
			"name": "execute",
			"outputs": [
				{
					"internalType": "uint256",
					"name": "",
					"type": "uint256"
				}
			],
			"stateMutability": "payable",
			"type": "function"
		},
		{
			"inputs": [
				{
					"internalType": "address",
					"name": "account",
					"type": "address"
				},
				{
					"internalType": "uint256",
					"name": "timepoint",
					"type": "uint256"
				}
			],
			"name": "getVotes",
			"outputs": [
				{
					"internalType": "uint256",
					"name": "",
					"type": "uint256"
				}
			],
			"stateMutability": "view",
			"type": "function"
		},
		{
			"inputs": [
				{
					"internalType": "address",
					"name": "account",
					"type": "address"
				},
				{
					"internalType": "uint256",
					"name": "timepoint",
					"type": "uint256"
				},
				{
					"internalType": "bytes",
					"name": "params",
					"type": "bytes"
				}
			],
			"name": "getVotesWithParams",
			"outputs": [
				{
					"internalType": "uint256",
					"name": "",
					"type": "uint256"
				}
			],
			"stateMutability": "view",
			"type": "function"
		},
		{
			"inputs": [
				{
					"internalType": "uint256",
					"name": "proposalId",
					"type": "uint256"
				},
				{
					"internalType": "address",
					"name": "account",
					"type": "address"
				}
			],
			"name": "hasVoted",
			"outputs": [
				{
					"internalType": "bool",
					"name": "",
					"type": "bool"
				}
			],
			"stateMutability": "view",
			"type": "function"
		},
		{
			"inputs": [
				{
					"internalType": "address[]",
					"name": "targets",
					"type": "address[]"
				},
				{
					"internalType": "uint256[]",
					"name": "values",
					"type": "uint256[]"
				},
				{
					"internalType": "bytes[]",
					"name": "calldatas",
					"type": "bytes[]"
				},
				{
					"internalType": "bytes32",
					"name": "descriptionHash",
					"type": "bytes32"
				}
			],
			"name": "hashProposal",
			"outputs": [
				{
					"internalType": "uint256",
					"name": "",
					"type": "uint256"
				}
			],
			"stateMutability": "pure",
			"type": "function"
		},
		{
			"inputs": [],
			"name": "name",
			"outputs": [
				{
					"internalType": "string",
					"name": "",
					"type": "string"
				}
			],
			"stateMutability": "view",
			"type": "function"
		},
		{
			"inputs": [
				{
					"internalType": "address",
					"name": "owner",
					"type": "address"
				}
			],
			"name": "nonces",
			"outputs": [
				{
					"internalType": "uint256",
					"name": "",
					"type": "uint256"
				}
			],
			"stateMutability": "view",
			"type": "function"
		},
		{
			"inputs": [
				{
					"internalType": "address",
					"name": "",
					"type": "address"
				},
				{
					"internalType": "address",
					"name": "",
					"type": "address"
				},
				{
					"internalType": "uint256[]",
					"name": "",
					"type": "uint256[]"
				},
				{
					"internalType": "uint256[]",
					"name": "",
					"type": "uint256[]"
				},
				{
					"internalType": "bytes",
					"name": "",
					"type": "bytes"
				}
			],
			"name": "onERC1155BatchReceived",
			"outputs": [
				{
					"internalType": "bytes4",
					"name": "",
					"type": "bytes4"
				}
			],
			"stateMutability": "nonpayable",
			"type": "function"
		},
		{
			"inputs": [
				{
					"internalType": "address",
					"name": "",
					"type": "address"
				},
				{
					"internalType": "address",
					"name": "",
					"type": "address"
				},
				{
					"internalType": "uint256",
					"name": "",
					"type": "uint256"
				},
				{
					"internalType": "uint256",
					"name": "",
					"type": "uint256"
				},
				{
					"internalType": "bytes",
					"name": "",
					"type": "bytes"
				}
			],
			"name": "onERC1155Received",
			"outputs": [
				{
					"internalType": "bytes4",
					"name": "",
					"type": "bytes4"
				}
			],
			"stateMutability": "nonpayable",
			"type": "function"
		},
		{
			"inputs": [
				{
					"internalType": "address",
					"name": "",
					"type": "address"
				},
				{
					"internalType": "address",
					"name": "",
					"type": "address"
				},
				{
					"internalType": "uint256",
					"name": "",
					"type": "uint256"
				},
				{
					"internalType": "bytes",
					"name": "",
					"type": "bytes"
				}
			],
			"name": "onERC721Received",
			"outputs": [
				{
					"internalType": "bytes4",
					"name": "",
					"type": "bytes4"
				}
			],
			"stateMutability": "nonpayable",
			"type": "function"
		},
		{
			"inputs": [
				{
					"internalType": "uint256",
					"name": "proposalId",
					"type": "uint256"
				}
			],
			"name": "proposalDeadline",
			"outputs": [
				{
					"internalType": "uint256",
					"name": "",
					"type": "uint256"
				}
			],
			"stateMutability": "view",
			"type": "function"
		},
		{
			"inputs": [
				{
					"internalType": "uint256",
					"name": "proposalId",
					"type": "uint256"
				}
			],
			"name": "proposalEta",
			"outputs": [
				{
					"internalType": "uint256",
					"name": "",
					"type": "uint256"
				}
			],
			"stateMutability": "view",
			"type": "function"
		},
		{
			"inputs": [
				{
					"internalType": "uint256",
					"name": "",
					"type": "uint256"
				}
			],
			"name": "proposalNeedsQueuing",
			"outputs": [
				{
					"internalType": "bool",
					"name": "",
					"type": "bool"
				}
			],
			"stateMutability": "view",
			"type": "function"
		},
		{
			"inputs": [
				{
					"internalType": "uint256",
					"name": "proposalId",
					"type": "uint256"
				}
			],
			"name": "proposalProposer",
			"outputs": [
				{
					"internalType": "address",
					"name": "",
					"type": "address"
				}
			],
			"stateMutability": "view",
			"type": "function"
		},
		{
			"inputs": [
				{
					"internalType": "uint256",
					"name": "proposalId",
					"type": "uint256"
				}
			],
			"name": "proposalSnapshot",
			"outputs": [
				{
					"internalType": "uint256",
					"name": "",
					"type": "uint256"
				}
			],
			"stateMutability": "view",
			"type": "function"
		},
		{
			"inputs": [],
			"name": "proposalThreshold",
			"outputs": [
				{
					"internalType": "uint256",
					"name": "",
					"type": "uint256"
				}
			],
			"stateMutability": "pure",
			"type": "function"
		},
		{
			"inputs": [
				{
					"internalType": "uint256",
					"name": "proposalId",
					"type": "uint256"
				}
			],
			"name": "proposalVotes",
			"outputs": [
				{
					"internalType": "uint256",
					"name": "againstVotes",
					"type": "uint256"
				},
				{
					"internalType": "uint256",
					"name": "forVotes",
					"type": "uint256"
				},
				{
					"internalType": "uint256",
					"name": "abstainVotes",
					"type": "uint256"
				}
			],
			"stateMutability": "view",
			"type": "function"
		},
		{
			"inputs": [
				{
					"internalType": "address[]",
					"name": "targets",
					"type": "address[]"
				},
				{
					"internalType": "uint256[]",
					"name": "values",
					"type": "uint256[]"
				},
				{
					"internalType": "bytes[]",
					"name": "calldatas",
					"type": "bytes[]"
				},
				{
					"internalType": "string",
					"name": "description",
					"type": "string"
				}
			],
			"name": "propose",
			"outputs": [
				{
					"internalType": "uint256",
					"name": "",
					"type": "uint256"
				}
			],
			"stateMutability": "nonpayable",
			"type": "function"
		},
		{
			"inputs": [
				{
					"internalType": "address[]",
					"name": "targets",
					"type": "address[]"
				},
				{
					"internalType": "uint256[]",
					"name": "values",
					"type": "uint256[]"
				},
				{
					"internalType": "bytes[]",
					"name": "calldatas",
					"type": "bytes[]"
				},
				{
					"internalType": "bytes32",
					"name": "descriptionHash",
					"type": "bytes32"
				}
			],
			"name": "queue",
			"outputs": [
				{
					"internalType": "uint256",
					"name": "",
					"type": "uint256"
				}
			],
			"stateMutability": "nonpayable",
			"type": "function"
		},
		{
			"inputs": [
				{
					"internalType": "uint256",
					"name": "",
					"type": "uint256"
				}
			],
			"name": "quorum",
			"outputs": [
				{
					"internalType": "uint256",
					"name": "",
					"type": "uint256"
				}
			],
			"stateMutability": "pure",
			"type": "function"
		},
		{
			"inputs": [
				{
					"internalType": "address",
					"name": "target",
					"type": "address"
				},
				{
					"internalType": "uint256",
					"name": "value",
					"type": "uint256"
				},
				{
					"internalType": "bytes",
					"name": "data",
					"type": "bytes"
				}
			],
			"name": "relay",
			"outputs": [],
			"stateMutability": "payable",
			"type": "function"
		},
		{
			"inputs": [
				{
					"internalType": "uint256",
					"name": "proposalId",
					"type": "uint256"
				}
			],
			"name": "state",
			"outputs": [
				{
					"internalType": "enum IGovernor.ProposalState",
					"name": "",
					"type": "uint8"
				}
			],
			"stateMutability": "view",
			"type": "function"
		},
		{
			"inputs": [
				{
					"internalType": "bytes4",
					"name": "interfaceId",
					"type": "bytes4"
				}
			],
			"name": "supportsInterface",
			"outputs": [
				{
					"internalType": "bool",
					"name": "",
					"type": "bool"
				}
			],
			"stateMutability": "view",
			"type": "function"
		},
		{
			"inputs": [],
			"name": "token",
			"outputs": [
				{
					"internalType": "contract IERC5805",
					"name": "",
					"type": "address"
				}
			],
			"stateMutability": "view",
			"type": "function"
		},
		{
			"inputs": [],
			"name": "version",
			"outputs": [
				{
					"internalType": "string",
					"name": "",
					"type": "string"
				}
			],
			"stateMutability": "view",
			"type": "function"
		},
		{
			"inputs": [],
			"name": "votingDelay",
			"outputs": [
				{
					"internalType": "uint256",
					"name": "",
					"type": "uint256"
				}
			],
			"stateMutability": "pure",
			"type": "function"
		},
		{
			"inputs": [],
			"name": "votingPeriod",
			"outputs": [
				{
					"internalType": "uint256",
					"name": "",
					"type": "uint256"
				}
			],
			"stateMutability": "pure",
			"type": "function"
		},
		{
			"stateMutability": "payable",
			"type": "receive"
		}
	]
}